{
	"CrowdFund.sol": {
		"CrowdFund": {
			"abi": [
				{
					"anonymous": false,
					"inputs": [
						{
							"indexed": true,
							"internalType": "uint256",
							"name": "campaignId",
							"type": "uint256"
						},
						{
							"indexed": false,
							"internalType": "address",
							"name": "creator",
							"type": "address"
						},
						{
							"indexed": false,
							"internalType": "string",
							"name": "title",
							"type": "string"
						},
						{
							"indexed": false,
							"internalType": "uint256",
							"name": "goal",
							"type": "uint256"
						},
						{
							"indexed": false,
							"internalType": "uint256",
							"name": "deadline",
							"type": "uint256"
						}
					],
					"name": "CampaignCreated",
					"type": "event"
				},
				{
					"anonymous": false,
					"inputs": [
						{
							"indexed": true,
							"internalType": "uint256",
							"name": "campaignId",
							"type": "uint256"
						},
						{
							"indexed": false,
							"internalType": "address",
							"name": "donor",
							"type": "address"
						},
						{
							"indexed": false,
							"internalType": "uint256",
							"name": "amount",
							"type": "uint256"
						},
						{
							"indexed": false,
							"internalType": "uint256",
							"name": "totalRaised",
							"type": "uint256"
						}
					],
					"name": "DonationReceived",
					"type": "event"
				},
				{
					"anonymous": false,
					"inputs": [
						{
							"indexed": true,
							"internalType": "uint256",
							"name": "campaignId",
							"type": "uint256"
						},
						{
							"indexed": false,
							"internalType": "uint256",
							"name": "milestoneId",
							"type": "uint256"
						},
						{
							"indexed": false,
							"internalType": "uint256",
							"name": "amount",
							"type": "uint256"
						}
					],
					"name": "FundsReleased",
					"type": "event"
				},
				{
					"anonymous": false,
					"inputs": [
						{
							"indexed": true,
							"internalType": "uint256",
							"name": "campaignId",
							"type": "uint256"
						},
						{
							"indexed": false,
							"internalType": "uint256",
							"name": "totalRaised",
							"type": "uint256"
						}
					],
					"name": "GoalReached",
					"type": "event"
				},
				{
					"anonymous": false,
					"inputs": [
						{
							"indexed": true,
							"internalType": "uint256",
							"name": "campaignId",
							"type": "uint256"
						},
						{
							"indexed": false,
							"internalType": "uint256",
							"name": "milestoneId",
							"type": "uint256"
						},
						{
							"indexed": false,
							"internalType": "string",
							"name": "description",
							"type": "string"
						},
						{
							"indexed": false,
							"internalType": "uint256",
							"name": "releaseAmount",
							"type": "uint256"
						}
					],
					"name": "MilestoneAdded",
					"type": "event"
				},
				{
					"anonymous": false,
					"inputs": [
						{
							"indexed": true,
							"internalType": "uint256",
							"name": "campaignId",
							"type": "uint256"
						},
						{
							"indexed": false,
							"internalType": "uint256",
							"name": "milestoneId",
							"type": "uint256"
						}
					],
					"name": "MilestoneRejected",
					"type": "event"
				},
				{
					"anonymous": false,
					"inputs": [
						{
							"indexed": true,
							"internalType": "uint256",
							"name": "campaignId",
							"type": "uint256"
						},
						{
							"indexed": false,
							"internalType": "uint256",
							"name": "milestoneId",
							"type": "uint256"
						},
						{
							"indexed": false,
							"internalType": "address",
							"name": "voter",
							"type": "address"
						},
						{
							"indexed": false,
							"internalType": "bool",
							"name": "approved",
							"type": "bool"
						}
					],
					"name": "MilestoneVoted",
					"type": "event"
				},
				{
					"anonymous": false,
					"inputs": [
						{
							"indexed": true,
							"internalType": "uint256",
							"name": "campaignId",
							"type": "uint256"
						},
						{
							"indexed": false,
							"internalType": "address",
							"name": "donor",
							"type": "address"
						},
						{
							"indexed": false,
							"internalType": "uint256",
							"name": "amount",
							"type": "uint256"
						}
					],
					"name": "RefundClaimed",
					"type": "event"
				},
				{
					"inputs": [
						{
							"internalType": "uint256",
							"name": "_campaignId",
							"type": "uint256"
						},
						{
							"internalType": "string",
							"name": "_description",
							"type": "string"
						},
						{
							"internalType": "uint256",
							"name": "_amountInEther",
							"type": "uint256"
						}
					],
					"name": "addMilestone",
					"outputs": [],
					"stateMutability": "nonpayable",
					"type": "function"
				},
				{
					"inputs": [
						{
							"internalType": "uint256",
							"name": "",
							"type": "uint256"
						}
					],
					"name": "campaigns",
					"outputs": [
						{
							"internalType": "uint256",
							"name": "id",
							"type": "uint256"
						},
						{
							"internalType": "address payable",
							"name": "creator",
							"type": "address"
						},
						{
							"internalType": "string",
							"name": "title",
							"type": "string"
						},
						{
							"internalType": "string",
							"name": "description",
							"type": "string"
						},
						{
							"internalType": "uint256",
							"name": "goalAmount",
							"type": "uint256"
						},
						{
							"internalType": "uint256",
							"name": "deadline",
							"type": "uint256"
						},
						{
							"internalType": "uint256",
							"name": "totalRaised",
							"type": "uint256"
						},
						{
							"internalType": "bool",
							"name": "goalReached",
							"type": "bool"
						},
						{
							"internalType": "bool",
							"name": "isCancelled",
							"type": "bool"
						}
					],
					"stateMutability": "view",
					"type": "function"
				},
				{
					"inputs": [
						{
							"internalType": "uint256",
							"name": "_campaignId",
							"type": "uint256"
						}
					],
					"name": "claimRefund",
					"outputs": [],
					"stateMutability": "nonpayable",
					"type": "function"
				},
				{
					"inputs": [
						{
							"internalType": "string",
							"name": "_title",
							"type": "string"
						},
						{
							"internalType": "string",
							"name": "_description",
							"type": "string"
						},
						{
							"internalType": "uint256",
							"name": "_goalInEther",
							"type": "uint256"
						},
						{
							"internalType": "uint256",
							"name": "_daysToRaise",
							"type": "uint256"
						}
					],
					"name": "createCampaign",
					"outputs": [],
					"stateMutability": "nonpayable",
					"type": "function"
				},
				{
					"inputs": [
						{
							"internalType": "uint256",
							"name": "_campaignId",
							"type": "uint256"
						}
					],
					"name": "donate",
					"outputs": [],
					"stateMutability": "payable",
					"type": "function"
				},
				{
					"inputs": [
						{
							"internalType": "uint256",
							"name": "",
							"type": "uint256"
						},
						{
							"internalType": "address",
							"name": "",
							"type": "address"
						}
					],
					"name": "donations",
					"outputs": [
						{
							"internalType": "uint256",
							"name": "",
							"type": "uint256"
						}
					],
					"stateMutability": "view",
					"type": "function"
				},
				{
					"inputs": [
						{
							"internalType": "uint256",
							"name": "",
							"type": "uint256"
						},
						{
							"internalType": "uint256",
							"name": "",
							"type": "uint256"
						}
					],
					"name": "donors",
					"outputs": [
						{
							"internalType": "address",
							"name": "",
							"type": "address"
						}
					],
					"stateMutability": "view",
					"type": "function"
				},
				{
					"inputs": [
						{
							"internalType": "uint256",
							"name": "_campaignId",
							"type": "uint256"
						}
					],
					"name": "getCampaign",
					"outputs": [
						{
							"components": [
								{
									"internalType": "uint256",
									"name": "id",
									"type": "uint256"
								},
								{
									"internalType": "address payable",
									"name": "creator",
									"type": "address"
								},
								{
									"internalType": "string",
									"name": "title",
									"type": "string"
								},
								{
									"internalType": "string",
									"name": "description",
									"type": "string"
								},
								{
									"internalType": "uint256",
									"name": "goalAmount",
									"type": "uint256"
								},
								{
									"internalType": "uint256",
									"name": "deadline",
									"type": "uint256"
								},
								{
									"internalType": "uint256",
									"name": "totalRaised",
									"type": "uint256"
								},
								{
									"internalType": "bool",
									"name": "goalReached",
									"type": "bool"
								},
								{
									"internalType": "bool",
									"name": "isCancelled",
									"type": "bool"
								}
							],
							"internalType": "struct CrowdFund.Campaign",
							"name": "",
							"type": "tuple"
						}
					],
					"stateMutability": "view",
					"type": "function"
				},
				{
					"inputs": [
						{
							"internalType": "uint256",
							"name": "_campaignId",
							"type": "uint256"
						}
					],
					"name": "getDonorCount",
					"outputs": [
						{
							"internalType": "uint256",
							"name": "",
							"type": "uint256"
						}
					],
					"stateMutability": "view",
					"type": "function"
				},
				{
					"inputs": [
						{
							"internalType": "uint256",
							"name": "_campaignId",
							"type": "uint256"
						},
						{
							"internalType": "uint256",
							"name": "_milestoneId",
							"type": "uint256"
						}
					],
					"name": "getMilestone",
					"outputs": [
						{
							"components": [
								{
									"internalType": "uint256",
									"name": "id",
									"type": "uint256"
								},
								{
									"internalType": "string",
									"name": "description",
									"type": "string"
								},
								{
									"internalType": "uint256",
									"name": "releaseAmount",
									"type": "uint256"
								},
								{
									"internalType": "bool",
									"name": "isApproved",
									"type": "bool"
								},
								{
									"internalType": "bool",
									"name": "isRejected",
									"type": "bool"
								},
								{
									"internalType": "uint256",
									"name": "approveVotes",
									"type": "uint256"
								},
								{
									"internalType": "uint256",
									"name": "rejectVotes",
									"type": "uint256"
								}
							],
							"internalType": "struct CrowdFund.Milestone",
							"name": "",
							"type": "tuple"
						}
					],
					"stateMutability": "view",
					"type": "function"
				},
				{
					"inputs": [
						{
							"internalType": "uint256",
							"name": "_campaignId",
							"type": "uint256"
						}
					],
					"name": "getMyDonation",
					"outputs": [
						{
							"internalType": "uint256",
							"name": "",
							"type": "uint256"
						}
					],
					"stateMutability": "view",
					"type": "function"
				},
				{
					"inputs": [
						{
							"internalType": "uint256",
							"name": "_campaignId",
							"type": "uint256"
						}
					],
					"name": "getTimeRemaining",
					"outputs": [
						{
							"internalType": "uint256",
							"name": "",
							"type": "uint256"
						}
					],
					"stateMutability": "view",
					"type": "function"
				},
				{
					"inputs": [
						{
							"internalType": "uint256",
							"name": "",
							"type": "uint256"
						},
						{
							"internalType": "uint256",
							"name": "",
							"type": "uint256"
						},
						{
							"internalType": "address",
							"name": "",
							"type": "address"
						}
					],
					"name": "hasVoted",
					"outputs": [
						{
							"internalType": "bool",
							"name": "",
							"type": "bool"
						}
					],
					"stateMutability": "view",
					"type": "function"
				},
				{
					"inputs": [
						{
							"internalType": "uint256",
							"name": "",
							"type": "uint256"
						}
					],
					"name": "milestoneCount",
					"outputs": [
						{
							"internalType": "uint256",
							"name": "",
							"type": "uint256"
						}
					],
					"stateMutability": "view",
					"type": "function"
				},
				{
					"inputs": [
						{
							"internalType": "uint256",
							"name": "",
							"type": "uint256"
						},
						{
							"internalType": "uint256",
							"name": "",
							"type": "uint256"
						}
					],
					"name": "milestones",
					"outputs": [
						{
							"internalType": "uint256",
							"name": "id",
							"type": "uint256"
						},
						{
							"internalType": "string",
							"name": "description",
							"type": "string"
						},
						{
							"internalType": "uint256",
							"name": "releaseAmount",
							"type": "uint256"
						},
						{
							"internalType": "bool",
							"name": "isApproved",
							"type": "bool"
						},
						{
							"internalType": "bool",
							"name": "isRejected",
							"type": "bool"
						},
						{
							"internalType": "uint256",
							"name": "approveVotes",
							"type": "uint256"
						},
						{
							"internalType": "uint256",
							"name": "rejectVotes",
							"type": "uint256"
						}
					],
					"stateMutability": "view",
					"type": "function"
				},
				{
					"inputs": [],
					"name": "totalCampaigns",
					"outputs": [
						{
							"internalType": "uint256",
							"name": "",
							"type": "uint256"
						}
					],
					"stateMutability": "view",
					"type": "function"
				},
				{
					"inputs": [
						{
							"internalType": "uint256",
							"name": "_campaignId",
							"type": "uint256"
						},
						{
							"internalType": "uint256",
							"name": "_milestoneId",
							"type": "uint256"
						},
						{
							"internalType": "bool",
							"name": "_approve",
							"type": "bool"
						}
					],
					"name": "vote",
					"outputs": [],
					"stateMutability": "nonpayable",
					"type": "function"
				}
			],
			"devdoc": {
				"author": "You :)",
				"kind": "dev",
				"methods": {
					"addMilestone(uint256,string,uint256)": {
						"params": {
							"_amountInEther": "How much ETH you are requesting to release",
							"_campaignId": "Which campaign this belongs to",
							"_description": "What you did / what the money is for"
						}
					},
					"claimRefund(uint256)": {
						"params": {
							"_campaignId": "Which campaign to refund from"
						}
					},
					"createCampaign(string,string,uint256,uint256)": {
						"params": {
							"_daysToRaise": "How many days donors have to contribute (1–90)",
							"_description": "Full story of the campaign",
							"_goalInEther": "How much ETH to raise e.g. 1 = 1 ETH",
							"_title": "Short name e.g. \"Medical bills for Raju\""
						}
					},
					"donate(uint256)": {
						"params": {
							"_campaignId": "The ID of the campaign to donate to"
						}
					},
					"vote(uint256,uint256,bool)": {
						"params": {
							"_approve": "true = approve release, false = reject",
							"_campaignId": "Which campaign",
							"_milestoneId": "Which milestone to vote on"
						}
					}
				},
				"title": "CrowdFund — Transparent Blockchain Crowdfunding",
				"version": 1
			},
			"evm": {
				"assembly": "    /* \"CrowdFund.sol\":328:13967  contract CrowdFund {... */\n  mstore(0x40, 0x80)\n  callvalue\n  dup1\n  iszero\n  tag_1\n  jumpi\n  revert(0x00, 0x00)\ntag_1:\n  pop\n  dataSize(sub_0)\n  dup1\n  dataOffset(sub_0)\n  0x00\n  codecopy\n  0x00\n  return\nstop\n\nsub_0: assembly {\n        /* \"CrowdFund.sol\":328:13967  contract CrowdFund {... */\n      mstore(0x40, 0x80)\n      jumpi(tag_1, lt(calldatasize, 0x04))\n      shr(0xe0, calldataload(0x00))\n      dup1\n      0x72ebb42a\n      gt\n      tag_19\n      jumpi\n      dup1\n      0x98df912e\n      gt\n      tag_20\n      jumpi\n      dup1\n      0x98df912e\n      eq\n      tag_14\n      jumpi\n      dup1\n      0xa318f269\n      eq\n      tag_15\n      jumpi\n      dup1\n      0xee1554a3\n      eq\n      tag_16\n      jumpi\n      dup1\n      0xf14faf6f\n      eq\n      tag_17\n      jumpi\n      dup1\n      0xf80db32d\n      eq\n      tag_18\n      jumpi\n      jump(tag_1)\n    tag_20:\n      dup1\n      0x72ebb42a\n      eq\n      tag_10\n      jumpi\n      dup1\n      0x83bd62dd\n      eq\n      tag_11\n      jumpi\n      dup1\n      0x8cd42991\n      eq\n      tag_12\n      jumpi\n      dup1\n      0x8ed9895c\n      eq\n      tag_13\n      jumpi\n      jump(tag_1)\n    tag_19:\n      dup1\n      0x5598f8cc\n      gt\n      tag_21\n      jumpi\n      dup1\n      0x5598f8cc\n      eq\n      tag_6\n      jumpi\n      dup1\n      0x5943c705\n      eq\n      tag_7\n      jumpi\n      dup1\n      0x5b7baf64\n      eq\n      tag_8\n      jumpi\n      dup1\n      0x6a18ff7a\n      eq\n      tag_9\n      jumpi\n      jump(tag_1)\n    tag_21:\n      dup1\n      0x02932f56\n      eq\n      tag_2\n      jumpi\n      dup1\n      0x0d39a1d3\n      eq\n      tag_3\n      jumpi\n      dup1\n      0x141961bc\n      eq\n      tag_4\n      jumpi\n      dup1\n      0x1c376c63\n      eq\n      tag_5\n      jumpi\n    tag_1:\n      revert(0x00, 0x00)\n        /* \"CrowdFund.sol\":1988:2017  uint256 public totalCampaigns */\n    tag_2:\n      callvalue\n      dup1\n      iszero\n      tag_22\n      jumpi\n      revert(0x00, 0x00)\n    tag_22:\n      pop\n      tag_23\n      tag_24\n      jump\t// in\n    tag_23:\n      mload(0x40)\n      tag_25\n      swap2\n      swap1\n      tag_26\n      jump\t// in\n    tag_25:\n      mload(0x40)\n      dup1\n      swap2\n      sub\n      swap1\n      return\n        /* \"CrowdFund.sol\":2676:2756  mapping(uint256 => mapping(uint256 => mapping(address => bool))) public hasVoted */\n    tag_3:\n      callvalue\n      dup1\n      iszero\n      tag_27\n      jumpi\n      revert(0x00, 0x00)\n    tag_27:\n      pop\n      tag_28\n      0x04\n      dup1\n      calldatasize\n      sub\n      dup2\n      add\n      swap1\n      tag_29\n      swap2\n      swap1\n      tag_30\n      jump\t// in\n    tag_29:\n      tag_31\n      jump\t// in\n    tag_28:\n      mload(0x40)\n      tag_32\n      swap2\n      swap1\n      tag_33\n      jump\t// in\n    tag_32:\n      mload(0x40)\n      dup1\n      swap2\n      sub\n      swap1\n      return\n        /* \"CrowdFund.sol\":2100:2145  mapping(uint256 => Campaign) public campaigns */\n    tag_4:\n      callvalue\n      dup1\n      iszero\n      tag_34\n      jumpi\n      revert(0x00, 0x00)\n    tag_34:\n      pop\n      tag_35\n      0x04\n      dup1\n      calldatasize\n      sub\n      dup2\n      add\n      swap1\n      tag_36\n      swap2\n      swap1\n      tag_37\n      jump\t// in\n    tag_36:\n      tag_38\n      jump\t// in\n    tag_35:\n      mload(0x40)\n      tag_39\n      swap10\n      swap9\n      swap8\n      swap7\n      swap6\n      swap5\n      swap4\n      swap3\n      swap2\n      swap1\n      tag_40\n      jump\t// in\n    tag_39:\n      mload(0x40)\n      dup1\n      swap2\n      sub\n      swap1\n      return\n        /* \"CrowdFund.sol\":2201:2268  mapping(uint256 => mapping(uint256 => Milestone)) public milestones */\n    tag_5:\n      callvalue\n      dup1\n      iszero\n      tag_41\n      jumpi\n      revert(0x00, 0x00)\n    tag_41:\n      pop\n      tag_42\n      0x04\n      dup1\n      calldatasize\n      sub\n      dup2\n      add\n      swap1\n      tag_43\n      swap2\n      swap1\n      tag_44\n      jump\t// in\n    tag_43:\n      tag_45\n      jump\t// in\n    tag_42:\n      mload(0x40)\n      tag_46\n      swap8\n      swap7\n      swap6\n      swap5\n      swap4\n      swap3\n      swap2\n      swap1\n      tag_47\n      jump\t// in\n    tag_46:\n      mload(0x40)\n      dup1\n      swap2\n      sub\n      swap1\n      return\n        /* \"CrowdFund.sol\":12638:12829  function getCampaign(uint256 _campaignId)... */\n    tag_6:\n      callvalue\n      dup1\n      iszero\n      tag_48\n      jumpi\n      revert(0x00, 0x00)\n    tag_48:\n      pop\n      tag_49\n      0x04\n      dup1\n      calldatasize\n      sub\n      dup2\n      add\n      swap1\n      tag_50\n      swap2\n      swap1\n      tag_37\n      jump\t// in\n    tag_50:\n      tag_51\n      jump\t// in\n    tag_49:\n      mload(0x40)\n      tag_52\n      swap2\n      swap1\n      tag_53\n      jump\t// in\n    tag_52:\n      mload(0x40)\n      dup1\n      swap2\n      sub\n      swap1\n      return\n        /* \"CrowdFund.sol\":13402:13591  function getDonorCount(uint256 _campaignId)... */\n    tag_7:\n      callvalue\n      dup1\n      iszero\n      tag_54\n      jumpi\n      revert(0x00, 0x00)\n    tag_54:\n      pop\n      tag_55\n      0x04\n      dup1\n      calldatasize\n      sub\n      dup2\n      add\n      swap1\n      tag_56\n      swap2\n      swap1\n      tag_37\n      jump\t// in\n    tag_56:\n      tag_57\n      jump\t// in\n    tag_55:\n      mload(0x40)\n      tag_58\n      swap2\n      swap1\n      tag_26\n      jump\t// in\n    tag_58:\n      mload(0x40)\n      dup1\n      swap2\n      sub\n      swap1\n      return\n        /* \"CrowdFund.sol\":11696:12362  function claimRefund(uint256 _campaignId) external exists(_campaignId) {... */\n    tag_8:\n      callvalue\n      dup1\n      iszero\n      tag_59\n      jumpi\n      revert(0x00, 0x00)\n    tag_59:\n      pop\n      tag_60\n      0x04\n      dup1\n      calldatasize\n      sub\n      dup2\n      add\n      swap1\n      tag_61\n      swap2\n      swap1\n      tag_37\n      jump\t// in\n    tag_61:\n      tag_62\n      jump\t// in\n    tag_60:\n      stop\n        /* \"CrowdFund.sol\":9886:11376  function vote(... */\n    tag_9:\n      callvalue\n      dup1\n      iszero\n      tag_63\n      jumpi\n      revert(0x00, 0x00)\n    tag_63:\n      pop\n      tag_64\n      0x04\n      dup1\n      calldatasize\n      sub\n      dup2\n      add\n      swap1\n      tag_65\n      swap2\n      swap1\n      tag_66\n      jump\t// in\n    tag_65:\n      tag_67\n      jump\t// in\n    tag_64:\n      stop\n        /* \"CrowdFund.sol\":2324:2373  mapping(uint256 => uint256) public milestoneCount */\n    tag_10:\n      callvalue\n      dup1\n      iszero\n      tag_68\n      jumpi\n      revert(0x00, 0x00)\n    tag_68:\n      pop\n      tag_69\n      0x04\n      dup1\n      calldatasize\n      sub\n      dup2\n      add\n      swap1\n      tag_70\n      swap2\n      swap1\n      tag_37\n      jump\t// in\n    tag_70:\n      tag_71\n      jump\t// in\n    tag_69:\n      mload(0x40)\n      tag_72\n      swap2\n      swap1\n      tag_26\n      jump\t// in\n    tag_72:\n      mload(0x40)\n      dup1\n      swap2\n      sub\n      swap1\n      return\n        /* \"CrowdFund.sol\":2559:2602  mapping(uint256 => address[]) public donors */\n    tag_11:\n      callvalue\n      dup1\n      iszero\n      tag_73\n      jumpi\n      revert(0x00, 0x00)\n    tag_73:\n      pop\n      tag_74\n      0x04\n      dup1\n      calldatasize\n      sub\n      dup2\n      add\n      swap1\n      tag_75\n      swap2\n      swap1\n      tag_44\n      jump\t// in\n    tag_75:\n      tag_76\n      jump\t// in\n    tag_74:\n      mload(0x40)\n      tag_77\n      swap2\n      swap1\n      tag_78\n      jump\t// in\n    tag_77:\n      mload(0x40)\n      dup1\n      swap2\n      sub\n      swap1\n      return\n        /* \"CrowdFund.sol\":13674:13964  function getTimeRemaining(uint256 _campaignId)... */\n    tag_12:\n      callvalue\n      dup1\n      iszero\n      tag_79\n      jumpi\n      revert(0x00, 0x00)\n    tag_79:\n      pop\n      tag_80\n      0x04\n      dup1\n      calldatasize\n      sub\n      dup2\n      add\n      swap1\n      tag_81\n      swap2\n      swap1\n      tag_37\n      jump\t// in\n    tag_81:\n      tag_82\n      jump\t// in\n    tag_80:\n      mload(0x40)\n      tag_83\n      swap2\n      swap1\n      tag_26\n      jump\t// in\n    tag_83:\n      mload(0x40)\n      dup1\n      swap2\n      sub\n      swap1\n      return\n        /* \"CrowdFund.sol\":12885:13086  function getMilestone(uint256 _campaignId, uint256 _milestoneId)... */\n    tag_13:\n      callvalue\n      dup1\n      iszero\n      tag_84\n      jumpi\n      revert(0x00, 0x00)\n    tag_84:\n      pop\n      tag_85\n      0x04\n      dup1\n      calldatasize\n      sub\n      dup2\n      add\n      swap1\n      tag_86\n      swap2\n      swap1\n      tag_44\n      jump\t// in\n    tag_86:\n      tag_87\n      jump\t// in\n    tag_85:\n      mload(0x40)\n      tag_88\n      swap2\n      swap1\n      tag_89\n      jump\t// in\n    tag_88:\n      mload(0x40)\n      dup1\n      swap2\n      sub\n      swap1\n      return\n        /* \"CrowdFund.sol\":8293:9478  function addMilestone(... */\n    tag_14:\n      callvalue\n      dup1\n      iszero\n      tag_90\n      jumpi\n      revert(0x00, 0x00)\n    tag_90:\n      pop\n      tag_91\n      0x04\n      dup1\n      calldatasize\n      sub\n      dup2\n      add\n      swap1\n      tag_92\n      swap2\n      swap1\n      tag_93\n      jump\t// in\n    tag_92:\n      tag_94\n      jump\t// in\n    tag_91:\n      stop\n        /* \"CrowdFund.sol\":5533:6714  function createCampaign(... */\n    tag_15:\n      callvalue\n      dup1\n      iszero\n      tag_95\n      jumpi\n      revert(0x00, 0x00)\n    tag_95:\n      pop\n      tag_96\n      0x04\n      dup1\n      calldatasize\n      sub\n      dup2\n      add\n      swap1\n      tag_97\n      swap2\n      swap1\n      tag_98\n      jump\t// in\n    tag_97:\n      tag_99\n      jump\t// in\n    tag_96:\n      stop\n        /* \"CrowdFund.sol\":2436:2500  mapping(uint256 => mapping(address => uint256)) public donations */\n    tag_16:\n      callvalue\n      dup1\n      iszero\n      tag_100\n      jumpi\n      revert(0x00, 0x00)\n    tag_100:\n      pop\n      tag_101\n      0x04\n      dup1\n      calldatasize\n      sub\n      dup2\n      add\n      swap1\n      tag_102\n      swap2\n      swap1\n      tag_103\n      jump\t// in\n    tag_102:\n      tag_104\n      jump\t// in\n    tag_101:\n      mload(0x40)\n      tag_105\n      swap2\n      swap1\n      tag_26\n      jump\t// in\n    tag_105:\n      mload(0x40)\n      dup1\n      swap2\n      sub\n      swap1\n      return\n        /* \"CrowdFund.sol\":7015:7845  function donate(uint256 _campaignId)... */\n    tag_17:\n      tag_106\n      0x04\n      dup1\n      calldatasize\n      sub\n      dup2\n      add\n      swap1\n      tag_107\n      swap2\n      swap1\n      tag_37\n      jump\t// in\n    tag_107:\n      tag_108\n      jump\t// in\n    tag_106:\n      stop\n        /* \"CrowdFund.sol\":13167:13335  function getMyDonation(uint256 _campaignId)... */\n    tag_18:\n      callvalue\n      dup1\n      iszero\n      tag_109\n      jumpi\n      revert(0x00, 0x00)\n    tag_109:\n      pop\n      tag_110\n      0x04\n      dup1\n      calldatasize\n      sub\n      dup2\n      add\n      swap1\n      tag_111\n      swap2\n      swap1\n      tag_37\n      jump\t// in\n    tag_111:\n      tag_112\n      jump\t// in\n    tag_110:\n      mload(0x40)\n      tag_113\n      swap2\n      swap1\n      tag_26\n      jump\t// in\n    tag_113:\n      mload(0x40)\n      dup1\n      swap2\n      sub\n      swap1\n      return\n        /* \"CrowdFund.sol\":1988:2017  uint256 public totalCampaigns */\n    tag_24:\n      sload(0x00)\n      dup2\n      jump\t// out\n        /* \"CrowdFund.sol\":2676:2756  mapping(uint256 => mapping(uint256 => mapping(address => bool))) public hasVoted */\n    tag_31:\n      mstore(0x20, 0x06)\n      dup3\n      0x00\n      mstore\n      mstore(0x20, keccak256(0x00, 0x40))\n      dup2\n      0x00\n      mstore\n      mstore(0x20, keccak256(0x00, 0x40))\n      dup1\n      0x00\n      mstore\n      keccak256(0x00, 0x40)\n      0x00\n      swap3\n      pop\n      swap3\n      pop\n      pop\n      swap1\n      sload\n      swap1\n      0x0100\n      exp\n      swap1\n      div\n      0xff\n      and\n      dup2\n      jump\t// out\n        /* \"CrowdFund.sol\":2100:2145  mapping(uint256 => Campaign) public campaigns */\n    tag_38:\n      mstore(0x20, 0x01)\n      dup1\n      0x00\n      mstore\n      keccak256(0x00, 0x40)\n      0x00\n      swap2\n      pop\n      swap1\n      pop\n      dup1\n      0x00\n      add\n      sload\n      swap1\n      dup1\n      0x01\n      add\n      0x00\n      swap1\n      sload\n      swap1\n      0x0100\n      exp\n      swap1\n      div\n      0xffffffffffffffffffffffffffffffffffffffff\n      and\n      swap1\n      dup1\n      0x02\n      add\n      dup1\n      sload\n      tag_114\n      swap1\n      tag_115\n      jump\t// in\n    tag_114:\n      dup1\n      0x1f\n      add\n      0x20\n      dup1\n      swap2\n      div\n      mul\n      0x20\n      add\n      mload(0x40)\n      swap1\n      dup2\n      add\n      0x40\n      mstore\n      dup1\n      swap3\n      swap2\n      swap1\n      dup2\n      dup2\n      mstore\n      0x20\n      add\n      dup3\n      dup1\n      sload\n      tag_116\n      swap1\n      tag_115\n      jump\t// in\n    tag_116:\n      dup1\n      iszero\n      tag_117\n      jumpi\n      dup1\n      0x1f\n      lt\n      tag_118\n      jumpi\n      0x0100\n      dup1\n      dup4\n      sload\n      div\n      mul\n      dup4\n      mstore\n      swap2\n      0x20\n      add\n      swap2\n      jump(tag_117)\n    tag_118:\n      dup3\n      add\n      swap2\n      swap1\n      0x00\n      mstore\n      keccak256(0x00, 0x20)\n      swap1\n    tag_119:\n      dup2\n      sload\n      dup2\n      mstore\n      swap1\n      0x01\n      add\n      swap1\n      0x20\n      add\n      dup1\n      dup4\n      gt\n      tag_119\n      jumpi\n      dup3\n      swap1\n      sub\n      0x1f\n      and\n      dup3\n      add\n      swap2\n    tag_117:\n      pop\n      pop\n      pop\n      pop\n      pop\n      swap1\n      dup1\n      0x03\n      add\n      dup1\n      sload\n      tag_120\n      swap1\n      tag_115\n      jump\t// in\n    tag_120:\n      dup1\n      0x1f\n      add\n      0x20\n      dup1\n      swap2\n      div\n      mul\n      0x20\n      add\n      mload(0x40)\n      swap1\n      dup2\n      add\n      0x40\n      mstore\n      dup1\n      swap3\n      swap2\n      swap1\n      dup2\n      dup2\n      mstore\n      0x20\n      add\n      dup3\n      dup1\n      sload\n      tag_121\n      swap1\n      tag_115\n      jump\t// in\n    tag_121:\n      dup1\n      iszero\n      tag_122\n      jumpi\n      dup1\n      0x1f\n      lt\n      tag_123\n      jumpi\n      0x0100\n      dup1\n      dup4\n      sload\n      div\n      mul\n      dup4\n      mstore\n      swap2\n      0x20\n      add\n      swap2\n      jump(tag_122)\n    tag_123:\n      dup3\n      add\n      swap2\n      swap1\n      0x00\n      mstore\n      keccak256(0x00, 0x20)\n      swap1\n    tag_124:\n      dup2\n      sload\n      dup2\n      mstore\n      swap1\n      0x01\n      add\n      swap1\n      0x20\n      add\n      dup1\n      dup4\n      gt\n      tag_124\n      jumpi\n      dup3\n      swap1\n      sub\n      0x1f\n      and\n      dup3\n      add\n      swap2\n    tag_122:\n      pop\n      pop\n      pop\n      pop\n      pop\n      swap1\n      dup1\n      0x04\n      add\n      sload\n      swap1\n      dup1\n      0x05\n      add\n      sload\n      swap1\n      dup1\n      0x06\n      add\n      sload\n      swap1\n      dup1\n      0x07\n      add\n      0x00\n      swap1\n      sload\n      swap1\n      0x0100\n      exp\n      swap1\n      div\n      0xff\n      and\n      swap1\n      dup1\n      0x07\n      add\n      0x01\n      swap1\n      sload\n      swap1\n      0x0100\n      exp\n      swap1\n      div\n      0xff\n      and\n      swap1\n      pop\n      dup10\n      jump\t// out\n        /* \"CrowdFund.sol\":2201:2268  mapping(uint256 => mapping(uint256 => Milestone)) public milestones */\n    tag_45:\n      mstore(0x20, 0x02)\n      dup2\n      0x00\n      mstore\n      mstore(0x20, keccak256(0x00, 0x40))\n      dup1\n      0x00\n      mstore\n      keccak256(0x00, 0x40)\n      0x00\n      swap2\n      pop\n      swap2\n      pop\n      pop\n      dup1\n      0x00\n      add\n      sload\n      swap1\n      dup1\n      0x01\n      add\n      dup1\n      sload\n      tag_125\n      swap1\n      tag_115\n      jump\t// in\n    tag_125:\n      dup1\n      0x1f\n      add\n      0x20\n      dup1\n      swap2\n      div\n      mul\n      0x20\n      add\n      mload(0x40)\n      swap1\n      dup2\n      add\n      0x40\n      mstore\n      dup1\n      swap3\n      swap2\n      swap1\n      dup2\n      dup2\n      mstore\n      0x20\n      add\n      dup3\n      dup1\n      sload\n      tag_126\n      swap1\n      tag_115\n      jump\t// in\n    tag_126:\n      dup1\n      iszero\n      tag_127\n      jumpi\n      dup1\n      0x1f\n      lt\n      tag_128\n      jumpi\n      0x0100\n      dup1\n      dup4\n      sload\n      div\n      mul\n      dup4\n      mstore\n      swap2\n      0x20\n      add\n      swap2\n      jump(tag_127)\n    tag_128:\n      dup3\n      add\n      swap2\n      swap1\n      0x00\n      mstore\n      keccak256(0x00, 0x20)\n      swap1\n    tag_129:\n      dup2\n      sload\n      dup2\n      mstore\n      swap1\n      0x01\n      add\n      swap1\n      0x20\n      add\n      dup1\n      dup4\n      gt\n      tag_129\n      jumpi\n      dup3\n      swap1\n      sub\n      0x1f\n      and\n      dup3\n      add\n      swap2\n    tag_127:\n      pop\n      pop\n      pop\n      pop\n      pop\n      swap1\n      dup1\n      0x02\n      add\n      sload\n      swap1\n      dup1\n      0x03\n      add\n      0x00\n      swap1\n      sload\n      swap1\n      0x0100\n      exp\n      swap1\n      div\n      0xff\n      and\n      swap1\n      dup1\n      0x03\n      add\n      0x01\n      swap1\n      sload\n      swap1\n      0x0100\n      exp\n      swap1\n      div\n      0xff\n      and\n      swap1\n      dup1\n      0x04\n      add\n      sload\n      swap1\n      dup1\n      0x05\n      add\n      sload\n      swap1\n      pop\n      dup8\n      jump\t// out\n        /* \"CrowdFund.sol\":12638:12829  function getCampaign(uint256 _campaignId)... */\n    tag_51:\n        /* \"CrowdFund.sol\":12759:12774  Campaign memory */\n      tag_130\n      tag_131\n      jump\t// in\n    tag_130:\n        /* \"CrowdFund.sol\":12728:12739  _campaignId */\n      dup2\n        /* \"CrowdFund.sol\":4467:4481  totalCampaigns */\n      sload(0x00)\n        /* \"CrowdFund.sol\":4453:4464  _campaignId */\n      dup2\n        /* \"CrowdFund.sol\":4453:4481  _campaignId < totalCampaigns */\n      lt\n        /* \"CrowdFund.sol\":4445:4509  require(_campaignId < totalCampaigns, \"Campaign does not exist\") */\n      tag_133\n      jumpi\n      mload(0x40)\n      0x08c379a000000000000000000000000000000000000000000000000000000000\n      dup2\n      mstore\n      0x04\n      add\n      tag_134\n      swap1\n      tag_135\n      jump\t// in\n    tag_134:\n      mload(0x40)\n      dup1\n      swap2\n      sub\n      swap1\n      revert\n    tag_133:\n        /* \"CrowdFund.sol\":12799:12808  campaigns */\n      0x01\n        /* \"CrowdFund.sol\":12799:12821  campaigns[_campaignId] */\n      0x00\n        /* \"CrowdFund.sol\":12809:12820  _campaignId */\n      dup5\n        /* \"CrowdFund.sol\":12799:12821  campaigns[_campaignId] */\n      dup2\n      mstore\n      0x20\n      add\n      swap1\n      dup2\n      mstore\n      0x20\n      add\n      0x00\n      keccak256\n        /* \"CrowdFund.sol\":12792:12821  return campaigns[_campaignId] */\n      mload(0x40)\n      dup1\n      0x0120\n      add\n      0x40\n      mstore\n      swap1\n      dup2\n      0x00\n      dup3\n      add\n      sload\n      dup2\n      mstore\n      0x20\n      add\n      0x01\n      dup3\n      add\n      0x00\n      swap1\n      sload\n      swap1\n      0x0100\n      exp\n      swap1\n      div\n      0xffffffffffffffffffffffffffffffffffffffff\n      and\n      0xffffffffffffffffffffffffffffffffffffffff\n      and\n      0xffffffffffffffffffffffffffffffffffffffff\n      and\n      dup2\n      mstore\n      0x20\n      add\n      0x02\n      dup3\n      add\n      dup1\n      sload\n      tag_137\n      swap1\n      tag_115\n      jump\t// in\n    tag_137:\n      dup1\n      0x1f\n      add\n      0x20\n      dup1\n      swap2\n      div\n      mul\n      0x20\n      add\n      mload(0x40)\n      swap1\n      dup2\n      add\n      0x40\n      mstore\n      dup1\n      swap3\n      swap2\n      swap1\n      dup2\n      dup2\n      mstore\n      0x20\n      add\n      dup3\n      dup1\n      sload\n      tag_138\n      swap1\n      tag_115\n      jump\t// in\n    tag_138:\n      dup1\n      iszero\n      tag_139\n      jumpi\n      dup1\n      0x1f\n      lt\n      tag_140\n      jumpi\n      0x0100\n      dup1\n      dup4\n      sload\n      div\n      mul\n      dup4\n      mstore\n      swap2\n      0x20\n      add\n      swap2\n      jump(tag_139)\n    tag_140:\n      dup3\n      add\n      swap2\n      swap1\n      0x00\n      mstore\n      keccak256(0x00, 0x20)\n      swap1\n    tag_141:\n      dup2\n      sload\n      dup2\n      mstore\n      swap1\n      0x01\n      add\n      swap1\n      0x20\n      add\n      dup1\n      dup4\n      gt\n      tag_141\n      jumpi\n      dup3\n      swap1\n      sub\n      0x1f\n      and\n      dup3\n      add\n      swap2\n    tag_139:\n      pop\n      pop\n      pop\n      pop\n      pop\n      dup2\n      mstore\n      0x20\n      add\n      0x03\n      dup3\n      add\n      dup1\n      sload\n      tag_142\n      swap1\n      tag_115\n      jump\t// in\n    tag_142:\n      dup1\n      0x1f\n      add\n      0x20\n      dup1\n      swap2\n      div\n      mul\n      0x20\n      add\n      mload(0x40)\n      swap1\n      dup2\n      add\n      0x40\n      mstore\n      dup1\n      swap3\n      swap2\n      swap1\n      dup2\n      dup2\n      mstore\n      0x20\n      add\n      dup3\n      dup1\n      sload\n      tag_143\n      swap1\n      tag_115\n      jump\t// in\n    tag_143:\n      dup1\n      iszero\n      tag_144\n      jumpi\n      dup1\n      0x1f\n      lt\n      tag_145\n      jumpi\n      0x0100\n      dup1\n      dup4\n      sload\n      div\n      mul\n      dup4\n      mstore\n      swap2\n      0x20\n      add\n      swap2\n      jump(tag_144)\n    tag_145:\n      dup3\n      add\n      swap2\n      swap1\n      0x00\n      mstore\n      keccak256(0x00, 0x20)\n      swap1\n    tag_146:\n      dup2\n      sload\n      dup2\n      mstore\n      swap1\n      0x01\n      add\n      swap1\n      0x20\n      add\n      dup1\n      dup4\n      gt\n      tag_146\n      jumpi\n      dup3\n      swap1\n      sub\n      0x1f\n      and\n      dup3\n      add\n      swap2\n    tag_144:\n      pop\n      pop\n      pop\n      pop\n      pop\n      dup2\n      mstore\n      0x20\n      add\n      0x04\n      dup3\n      add\n      sload\n      dup2\n      mstore\n      0x20\n      add\n      0x05\n      dup3\n      add\n      sload\n      dup2\n      mstore\n      0x20\n      add\n      0x06\n      dup3\n      add\n      sload\n      dup2\n      mstore\n      0x20\n      add\n      0x07\n      dup3\n      add\n      0x00\n      swap1\n      sload\n      swap1\n      0x0100\n      exp\n      swap1\n      div\n      0xff\n      and\n      iszero\n      iszero\n      iszero\n      iszero\n      dup2\n      mstore\n      0x20\n      add\n      0x07\n      dup3\n      add\n      0x01\n      swap1\n      sload\n      swap1\n      0x0100\n      exp\n      swap1\n      div\n      0xff\n      and\n      iszero\n      iszero\n      iszero\n      iszero\n      dup2\n      mstore\n      pop\n      pop\n      swap2\n      pop\n        /* \"CrowdFund.sol\":12638:12829  function getCampaign(uint256 _campaignId)... */\n      pop\n      swap2\n      swap1\n      pop\n      jump\t// out\n        /* \"CrowdFund.sol\":13402:13591  function getDonorCount(uint256 _campaignId)... */\n    tag_57:\n        /* \"CrowdFund.sol\":13525:13532  uint256 */\n      0x00\n        /* \"CrowdFund.sol\":13494:13505  _campaignId */\n      dup2\n        /* \"CrowdFund.sol\":4467:4481  totalCampaigns */\n      sload(0x00)\n        /* \"CrowdFund.sol\":4453:4464  _campaignId */\n      dup2\n        /* \"CrowdFund.sol\":4453:4481  _campaignId < totalCampaigns */\n      lt\n        /* \"CrowdFund.sol\":4445:4509  require(_campaignId < totalCampaigns, \"Campaign does not exist\") */\n      tag_148\n      jumpi\n      mload(0x40)\n      0x08c379a000000000000000000000000000000000000000000000000000000000\n      dup2\n      mstore\n      0x04\n      add\n      tag_149\n      swap1\n      tag_135\n      jump\t// in\n    tag_149:\n      mload(0x40)\n      dup1\n      swap2\n      sub\n      swap1\n      revert\n    tag_148:\n        /* \"CrowdFund.sol\":13557:13563  donors */\n      0x05\n        /* \"CrowdFund.sol\":13557:13576  donors[_campaignId] */\n      0x00\n        /* \"CrowdFund.sol\":13564:13575  _campaignId */\n      dup5\n        /* \"CrowdFund.sol\":13557:13576  donors[_campaignId] */\n      dup2\n      mstore\n      0x20\n      add\n      swap1\n      dup2\n      mstore\n      0x20\n      add\n      0x00\n      keccak256\n        /* \"CrowdFund.sol\":13557:13583  donors[_campaignId].length */\n      dup1\n      sload\n      swap1\n      pop\n        /* \"CrowdFund.sol\":13550:13583  return donors[_campaignId].length */\n      swap2\n      pop\n        /* \"CrowdFund.sol\":13402:13591  function getDonorCount(uint256 _campaignId)... */\n      pop\n      swap2\n      swap1\n      pop\n      jump\t// out\n        /* \"CrowdFund.sol\":11696:12362  function claimRefund(uint256 _campaignId) external exists(_campaignId) {... */\n    tag_62:\n        /* \"CrowdFund.sol\":11754:11765  _campaignId */\n      dup1\n        /* \"CrowdFund.sol\":4467:4481  totalCampaigns */\n      sload(0x00)\n        /* \"CrowdFund.sol\":4453:4464  _campaignId */\n      dup2\n        /* \"CrowdFund.sol\":4453:4481  _campaignId < totalCampaigns */\n      lt\n        /* \"CrowdFund.sol\":4445:4509  require(_campaignId < totalCampaigns, \"Campaign does not exist\") */\n      tag_152\n      jumpi\n      mload(0x40)\n      0x08c379a000000000000000000000000000000000000000000000000000000000\n      dup2\n      mstore\n      0x04\n      add\n      tag_153\n      swap1\n      tag_135\n      jump\t// in\n    tag_153:\n      mload(0x40)\n      dup1\n      swap2\n      sub\n      swap1\n      revert\n    tag_152:\n        /* \"CrowdFund.sol\":11778:11796  Campaign storage c */\n      0x00\n        /* \"CrowdFund.sol\":11799:11808  campaigns */\n      0x01\n        /* \"CrowdFund.sol\":11799:11821  campaigns[_campaignId] */\n      0x00\n        /* \"CrowdFund.sol\":11809:11820  _campaignId */\n      dup5\n        /* \"CrowdFund.sol\":11799:11821  campaigns[_campaignId] */\n      dup2\n      mstore\n      0x20\n      add\n      swap1\n      dup2\n      mstore\n      0x20\n      add\n      0x00\n      keccak256\n        /* \"CrowdFund.sol\":11778:11821  Campaign storage c = campaigns[_campaignId] */\n      swap1\n      pop\n        /* \"CrowdFund.sol\":11861:11862  c */\n      dup1\n        /* \"CrowdFund.sol\":11861:11871  c.deadline */\n      0x05\n      add\n      sload\n        /* \"CrowdFund.sol\":11842:11857  block.timestamp */\n      timestamp\n        /* \"CrowdFund.sol\":11842:11871  block.timestamp >= c.deadline */\n      lt\n      iszero\n        /* \"CrowdFund.sol\":11834:11901  require(block.timestamp >= c.deadline, \"Campaign is still running\") */\n      tag_155\n      jumpi\n      mload(0x40)\n      0x08c379a000000000000000000000000000000000000000000000000000000000\n      dup2\n      mstore\n      0x04\n      add\n      tag_156\n      swap1\n      tag_157\n      jump\t// in\n    tag_156:\n      mload(0x40)\n      dup1\n      swap2\n      sub\n      swap1\n      revert\n    tag_155:\n        /* \"CrowdFund.sol\":11921:11922  c */\n      dup1\n        /* \"CrowdFund.sol\":11921:11934  c.goalReached */\n      0x07\n      add\n      0x00\n      swap1\n      sload\n      swap1\n      0x0100\n      exp\n      swap1\n      div\n      0xff\n      and\n        /* \"CrowdFund.sol\":11920:11934  !c.goalReached */\n      iszero\n        /* \"CrowdFund.sol\":11912:11992  require(!c.goalReached,                \"Goal was reached - no refund available\") */\n      tag_158\n      jumpi\n      mload(0x40)\n      0x08c379a000000000000000000000000000000000000000000000000000000000\n      dup2\n      mstore\n      0x04\n      add\n      tag_159\n      swap1\n      tag_160\n      jump\t// in\n    tag_159:\n      mload(0x40)\n      dup1\n      swap2\n      sub\n      swap1\n      revert\n    tag_158:\n        /* \"CrowdFund.sol\":12005:12019  uint256 amount */\n      0x00\n        /* \"CrowdFund.sol\":12022:12031  donations */\n      0x04\n        /* \"CrowdFund.sol\":12022:12044  donations[_campaignId] */\n      0x00\n        /* \"CrowdFund.sol\":12032:12043  _campaignId */\n      dup6\n        /* \"CrowdFund.sol\":12022:12044  donations[_campaignId] */\n      dup2\n      mstore\n      0x20\n      add\n      swap1\n      dup2\n      mstore\n      0x20\n      add\n      0x00\n      keccak256\n        /* \"CrowdFund.sol\":12022:12056  donations[_campaignId][msg.sender] */\n      0x00\n        /* \"CrowdFund.sol\":12045:12055  msg.sender */\n      caller\n        /* \"CrowdFund.sol\":12022:12056  donations[_campaignId][msg.sender] */\n      0xffffffffffffffffffffffffffffffffffffffff\n      and\n      0xffffffffffffffffffffffffffffffffffffffff\n      and\n      dup2\n      mstore\n      0x20\n      add\n      swap1\n      dup2\n      mstore\n      0x20\n      add\n      0x00\n      keccak256\n      sload\n        /* \"CrowdFund.sol\":12005:12056  uint256 amount = donations[_campaignId][msg.sender] */\n      swap1\n      pop\n        /* \"CrowdFund.sol\":12084:12085  0 */\n      0x00\n        /* \"CrowdFund.sol\":12075:12081  amount */\n      dup2\n        /* \"CrowdFund.sol\":12075:12085  amount > 0 */\n      gt\n        /* \"CrowdFund.sol\":12067:12120  require(amount > 0, \"You have no donation to refund\") */\n      tag_161\n      jumpi\n      mload(0x40)\n      0x08c379a000000000000000000000000000000000000000000000000000000000\n      dup2\n      mstore\n      0x04\n      add\n      tag_162\n      swap1\n      tag_163\n      jump\t// in\n    tag_162:\n      mload(0x40)\n      dup1\n      swap2\n      sub\n      swap1\n      revert\n    tag_161:\n        /* \"CrowdFund.sol\":12242:12243  0 */\n      0x00\n        /* \"CrowdFund.sol\":12205:12214  donations */\n      0x04\n        /* \"CrowdFund.sol\":12205:12227  donations[_campaignId] */\n      0x00\n        /* \"CrowdFund.sol\":12215:12226  _campaignId */\n      dup7\n        /* \"CrowdFund.sol\":12205:12227  donations[_campaignId] */\n      dup2\n      mstore\n      0x20\n      add\n      swap1\n      dup2\n      mstore\n      0x20\n      add\n      0x00\n      keccak256\n        /* \"CrowdFund.sol\":12205:12239  donations[_campaignId][msg.sender] */\n      0x00\n        /* \"CrowdFund.sol\":12228:12238  msg.sender */\n      caller\n        /* \"CrowdFund.sol\":12205:12239  donations[_campaignId][msg.sender] */\n      0xffffffffffffffffffffffffffffffffffffffff\n      and\n      0xffffffffffffffffffffffffffffffffffffffff\n      and\n      dup2\n      mstore\n      0x20\n      add\n      swap1\n      dup2\n      mstore\n      0x20\n      add\n      0x00\n      keccak256\n        /* \"CrowdFund.sol\":12205:12243  donations[_campaignId][msg.sender] = 0 */\n      dup2\n      swap1\n      sstore\n      pop\n        /* \"CrowdFund.sol\":12262:12272  msg.sender */\n      caller\n        /* \"CrowdFund.sol\":12254:12282  payable(msg.sender).transfer */\n      0xffffffffffffffffffffffffffffffffffffffff\n      and\n        /* \"CrowdFund.sol\":12254:12290  payable(msg.sender).transfer(amount) */\n      0x08fc\n        /* \"CrowdFund.sol\":12283:12289  amount */\n      dup3\n        /* \"CrowdFund.sol\":12254:12290  payable(msg.sender).transfer(amount) */\n      swap1\n      dup2\n      iszero\n      mul\n      swap1\n      mload(0x40)\n      0x00\n      mload(0x40)\n      dup1\n      dup4\n      sub\n      dup2\n      dup6\n      dup9\n      dup9\n      call\n      swap4\n      pop\n      pop\n      pop\n      pop\n      iszero\n      dup1\n      iszero\n      tag_165\n      jumpi\n      returndatacopy(0x00, 0x00, returndatasize)\n      revert(0x00, returndatasize)\n    tag_165:\n      pop\n        /* \"CrowdFund.sol\":12322:12333  _campaignId */\n      dup4\n        /* \"CrowdFund.sol\":12308:12354  RefundClaimed(_campaignId, msg.sender, amount) */\n      0xf3f402280ef0a7905e124aa621b65eaeb2725c343e8b36d398ed78c29daf285c\n        /* \"CrowdFund.sol\":12335:12345  msg.sender */\n      caller\n        /* \"CrowdFund.sol\":12347:12353  amount */\n      dup4\n        /* \"CrowdFund.sol\":12308:12354  RefundClaimed(_campaignId, msg.sender, amount) */\n      mload(0x40)\n      tag_166\n      swap3\n      swap2\n      swap1\n      tag_167\n      jump\t// in\n    tag_166:\n      mload(0x40)\n      dup1\n      swap2\n      sub\n      swap1\n      log2\n        /* \"CrowdFund.sol\":11767:12362  {... */\n      pop\n      pop\n        /* \"CrowdFund.sol\":11696:12362  function claimRefund(uint256 _campaignId) external exists(_campaignId) {... */\n      pop\n      pop\n      jump\t// out\n        /* \"CrowdFund.sol\":9886:11376  function vote(... */\n    tag_67:\n        /* \"CrowdFund.sol\":10011:10022  _campaignId */\n      dup3\n        /* \"CrowdFund.sol\":4467:4481  totalCampaigns */\n      sload(0x00)\n        /* \"CrowdFund.sol\":4453:4464  _campaignId */\n      dup2\n        /* \"CrowdFund.sol\":4453:4481  _campaignId < totalCampaigns */\n      lt\n        /* \"CrowdFund.sol\":4445:4509  require(_campaignId < totalCampaigns, \"Campaign does not exist\") */\n      tag_169\n      jumpi\n      mload(0x40)\n      0x08c379a000000000000000000000000000000000000000000000000000000000\n      dup2\n      mstore\n      0x04\n      add\n      tag_170\n      swap1\n      tag_135\n      jump\t// in\n    tag_170:\n      mload(0x40)\n      dup1\n      swap2\n      sub\n      swap1\n      revert\n    tag_169:\n        /* \"CrowdFund.sol\":10080:10081  0 */\n      0x00\n        /* \"CrowdFund.sol\":10043:10052  donations */\n      0x04\n        /* \"CrowdFund.sol\":10043:10065  donations[_campaignId] */\n      0x00\n        /* \"CrowdFund.sol\":10053:10064  _campaignId */\n      dup7\n        /* \"CrowdFund.sol\":10043:10065  donations[_campaignId] */\n      dup2\n      mstore\n      0x20\n      add\n      swap1\n      dup2\n      mstore\n      0x20\n      add\n      0x00\n      keccak256\n        /* \"CrowdFund.sol\":10043:10077  donations[_campaignId][msg.sender] */\n      0x00\n        /* \"CrowdFund.sol\":10066:10076  msg.sender */\n      caller\n        /* \"CrowdFund.sol\":10043:10077  donations[_campaignId][msg.sender] */\n      0xffffffffffffffffffffffffffffffffffffffff\n      and\n      0xffffffffffffffffffffffffffffffffffffffff\n      and\n      dup2\n      mstore\n      0x20\n      add\n      swap1\n      dup2\n      mstore\n      0x20\n      add\n      0x00\n      keccak256\n      sload\n        /* \"CrowdFund.sol\":10043:10081  donations[_campaignId][msg.sender] > 0 */\n      gt\n        /* \"CrowdFund.sol\":10035:10106  require(donations[_campaignId][msg.sender] > 0, \"Only donors can vote\") */\n      tag_172\n      jumpi\n      mload(0x40)\n      0x08c379a000000000000000000000000000000000000000000000000000000000\n      dup2\n      mstore\n      0x04\n      add\n      tag_173\n      swap1\n      tag_174\n      jump\t// in\n    tag_173:\n      mload(0x40)\n      dup1\n      swap2\n      sub\n      swap1\n      revert\n    tag_172:\n        /* \"CrowdFund.sol\":10126:10134  hasVoted */\n      0x06\n        /* \"CrowdFund.sol\":10126:10147  hasVoted[_campaignId] */\n      0x00\n        /* \"CrowdFund.sol\":10135:10146  _campaignId */\n      dup6\n        /* \"CrowdFund.sol\":10126:10147  hasVoted[_campaignId] */\n      dup2\n      mstore\n      0x20\n      add\n      swap1\n      dup2\n      mstore\n      0x20\n      add\n      0x00\n      keccak256\n        /* \"CrowdFund.sol\":10126:10161  hasVoted[_campaignId][_milestoneId] */\n      0x00\n        /* \"CrowdFund.sol\":10148:10160  _milestoneId */\n      dup5\n        /* \"CrowdFund.sol\":10126:10161  hasVoted[_campaignId][_milestoneId] */\n      dup2\n      mstore\n      0x20\n      add\n      swap1\n      dup2\n      mstore\n      0x20\n      add\n      0x00\n      keccak256\n        /* \"CrowdFund.sol\":10126:10173  hasVoted[_campaignId][_milestoneId][msg.sender] */\n      0x00\n        /* \"CrowdFund.sol\":10162:10172  msg.sender */\n      caller\n        /* \"CrowdFund.sol\":10126:10173  hasVoted[_campaignId][_milestoneId][msg.sender] */\n      0xffffffffffffffffffffffffffffffffffffffff\n      and\n      0xffffffffffffffffffffffffffffffffffffffff\n      and\n      dup2\n      mstore\n      0x20\n      add\n      swap1\n      dup2\n      mstore\n      0x20\n      add\n      0x00\n      keccak256\n      0x00\n      swap1\n      sload\n      swap1\n      0x0100\n      exp\n      swap1\n      div\n      0xff\n      and\n        /* \"CrowdFund.sol\":10125:10173  !hasVoted[_campaignId][_milestoneId][msg.sender] */\n      iszero\n        /* \"CrowdFund.sol\":10117:10200  require(!hasVoted[_campaignId][_milestoneId][msg.sender], \"You have already voted\") */\n      tag_175\n      jumpi\n      mload(0x40)\n      0x08c379a000000000000000000000000000000000000000000000000000000000\n      dup2\n      mstore\n      0x04\n      add\n      tag_176\n      swap1\n      tag_177\n      jump\t// in\n    tag_176:\n      mload(0x40)\n      dup1\n      swap2\n      sub\n      swap1\n      revert\n    tag_175:\n        /* \"CrowdFund.sol\":10213:10232  Milestone storage m */\n      0x00\n        /* \"CrowdFund.sol\":10235:10245  milestones */\n      0x02\n        /* \"CrowdFund.sol\":10235:10258  milestones[_campaignId] */\n      0x00\n        /* \"CrowdFund.sol\":10246:10257  _campaignId */\n      dup7\n        /* \"CrowdFund.sol\":10235:10258  milestones[_campaignId] */\n      dup2\n      mstore\n      0x20\n      add\n      swap1\n      dup2\n      mstore\n      0x20\n      add\n      0x00\n      keccak256\n        /* \"CrowdFund.sol\":10235:10272  milestones[_campaignId][_milestoneId] */\n      0x00\n        /* \"CrowdFund.sol\":10259:10271  _milestoneId */\n      dup6\n        /* \"CrowdFund.sol\":10235:10272  milestones[_campaignId][_milestoneId] */\n      dup2\n      mstore\n      0x20\n      add\n      swap1\n      dup2\n      mstore\n      0x20\n      add\n      0x00\n      keccak256\n        /* \"CrowdFund.sol\":10213:10272  Milestone storage m = milestones[_campaignId][_milestoneId] */\n      swap1\n      pop\n        /* \"CrowdFund.sol\":10292:10293  m */\n      dup1\n        /* \"CrowdFund.sol\":10292:10304  m.isApproved */\n      0x03\n      add\n      0x00\n      swap1\n      sload\n      swap1\n      0x0100\n      exp\n      swap1\n      div\n      0xff\n      and\n        /* \"CrowdFund.sol\":10291:10304  !m.isApproved */\n      iszero\n        /* \"CrowdFund.sol\":10283:10336  require(!m.isApproved,  \"Milestone already approved\") */\n      tag_178\n      jumpi\n      mload(0x40)\n      0x08c379a000000000000000000000000000000000000000000000000000000000\n      dup2\n      mstore\n      0x04\n      add\n      tag_179\n      swap1\n      tag_180\n      jump\t// in\n    tag_179:\n      mload(0x40)\n      dup1\n      swap2\n      sub\n      swap1\n      revert\n    tag_178:\n        /* \"CrowdFund.sol\":10356:10357  m */\n      dup1\n        /* \"CrowdFund.sol\":10356:10368  m.isRejected */\n      0x03\n      add\n      0x01\n      swap1\n      sload\n      swap1\n      0x0100\n      exp\n      swap1\n      div\n      0xff\n      and\n        /* \"CrowdFund.sol\":10355:10368  !m.isRejected */\n      iszero\n        /* \"CrowdFund.sol\":10347:10400  require(!m.isRejected,  \"Milestone already rejected\") */\n      tag_181\n      jumpi\n      mload(0x40)\n      0x08c379a000000000000000000000000000000000000000000000000000000000\n      dup2\n      mstore\n      0x04\n      add\n      tag_182\n      swap1\n      tag_183\n      jump\t// in\n    tag_182:\n      mload(0x40)\n      dup1\n      swap2\n      sub\n      swap1\n      revert\n    tag_181:\n        /* \"CrowdFund.sol\":10463:10467  true */\n      0x01\n        /* \"CrowdFund.sol\":10413:10421  hasVoted */\n      0x06\n        /* \"CrowdFund.sol\":10413:10434  hasVoted[_campaignId] */\n      0x00\n        /* \"CrowdFund.sol\":10422:10433  _campaignId */\n      dup8\n        /* \"CrowdFund.sol\":10413:10434  hasVoted[_campaignId] */\n      dup2\n      mstore\n      0x20\n      add\n      swap1\n      dup2\n      mstore\n      0x20\n      add\n      0x00\n      keccak256\n        /* \"CrowdFund.sol\":10413:10448  hasVoted[_campaignId][_milestoneId] */\n      0x00\n        /* \"CrowdFund.sol\":10435:10447  _milestoneId */\n      dup7\n        /* \"CrowdFund.sol\":10413:10448  hasVoted[_campaignId][_milestoneId] */\n      dup2\n      mstore\n      0x20\n      add\n      swap1\n      dup2\n      mstore\n      0x20\n      add\n      0x00\n      keccak256\n        /* \"CrowdFund.sol\":10413:10460  hasVoted[_campaignId][_milestoneId][msg.sender] */\n      0x00\n        /* \"CrowdFund.sol\":10449:10459  msg.sender */\n      caller\n        /* \"CrowdFund.sol\":10413:10460  hasVoted[_campaignId][_milestoneId][msg.sender] */\n      0xffffffffffffffffffffffffffffffffffffffff\n      and\n      0xffffffffffffffffffffffffffffffffffffffff\n      and\n      dup2\n      mstore\n      0x20\n      add\n      swap1\n      dup2\n      mstore\n      0x20\n      add\n      0x00\n      keccak256\n      0x00\n        /* \"CrowdFund.sol\":10413:10467  hasVoted[_campaignId][_milestoneId][msg.sender] = true */\n      0x0100\n      exp\n      dup2\n      sload\n      dup2\n      0xff\n      mul\n      not\n      and\n      swap1\n      dup4\n      iszero\n      iszero\n      mul\n      or\n      swap1\n      sstore\n      pop\n        /* \"CrowdFund.sol\":10480:10499  uint256 totalDonors */\n      0x00\n        /* \"CrowdFund.sol\":10502:10508  donors */\n      0x05\n        /* \"CrowdFund.sol\":10502:10521  donors[_campaignId] */\n      0x00\n        /* \"CrowdFund.sol\":10509:10520  _campaignId */\n      dup8\n        /* \"CrowdFund.sol\":10502:10521  donors[_campaignId] */\n      dup2\n      mstore\n      0x20\n      add\n      swap1\n      dup2\n      mstore\n      0x20\n      add\n      0x00\n      keccak256\n        /* \"CrowdFund.sol\":10502:10528  donors[_campaignId].length */\n      dup1\n      sload\n      swap1\n      pop\n        /* \"CrowdFund.sol\":10480:10528  uint256 totalDonors = donors[_campaignId].length */\n      swap1\n      pop\n        /* \"CrowdFund.sol\":10545:10553  _approve */\n      dup4\n        /* \"CrowdFund.sol\":10541:11369  if (_approve) {... */\n      iszero\n      tag_184\n      jumpi\n        /* \"CrowdFund.sol\":10570:10571  m */\n      dup2\n        /* \"CrowdFund.sol\":10570:10584  m.approveVotes */\n      0x04\n      add\n      0x00\n        /* \"CrowdFund.sol\":10570:10586  m.approveVotes++ */\n      dup2\n      sload\n      dup1\n      swap3\n      swap2\n      swap1\n      tag_185\n      swap1\n      tag_186\n      jump\t// in\n    tag_185:\n      swap2\n      swap1\n      pop\n      sstore\n      pop\n        /* \"CrowdFund.sol\":10621:10632  _campaignId */\n      dup6\n        /* \"CrowdFund.sol\":10606:10665  MilestoneVoted(_campaignId, _milestoneId, msg.sender, true) */\n      0xab85204cc3f4a5213aaeac56baec47b9fe23ddb7ee575fe3f6d6f2b6226bf830\n        /* \"CrowdFund.sol\":10634:10646  _milestoneId */\n      dup7\n        /* \"CrowdFund.sol\":10648:10658  msg.sender */\n      caller\n        /* \"CrowdFund.sol\":10660:10664  true */\n      0x01\n        /* \"CrowdFund.sol\":10606:10665  MilestoneVoted(_campaignId, _milestoneId, msg.sender, true) */\n      mload(0x40)\n      tag_187\n      swap4\n      swap3\n      swap2\n      swap1\n      tag_188\n      jump\t// in\n    tag_187:\n      mload(0x40)\n      dup1\n      swap2\n      sub\n      swap1\n      log2\n        /* \"CrowdFund.sol\":10769:10780  totalDonors */\n      dup1\n        /* \"CrowdFund.sol\":10765:10766  2 */\n      0x02\n        /* \"CrowdFund.sol\":10748:10749  m */\n      dup4\n        /* \"CrowdFund.sol\":10748:10762  m.approveVotes */\n      0x04\n      add\n      sload\n        /* \"CrowdFund.sol\":10748:10766  m.approveVotes * 2 */\n      tag_189\n      swap2\n      swap1\n      tag_190\n      jump\t// in\n    tag_189:\n        /* \"CrowdFund.sol\":10748:10780  m.approveVotes * 2 > totalDonors */\n      gt\n        /* \"CrowdFund.sol\":10744:10992  if (m.approveVotes * 2 > totalDonors) {... */\n      iszero\n      tag_191\n      jumpi\n        /* \"CrowdFund.sol\":10816:10820  true */\n      0x01\n        /* \"CrowdFund.sol\":10801:10802  m */\n      dup3\n        /* \"CrowdFund.sol\":10801:10813  m.isApproved */\n      0x03\n      add\n      0x00\n        /* \"CrowdFund.sol\":10801:10820  m.isApproved = true */\n      0x0100\n      exp\n      dup2\n      sload\n      dup2\n      0xff\n      mul\n      not\n      and\n      swap1\n      dup4\n      iszero\n      iszero\n      mul\n      or\n      swap1\n      sstore\n      pop\n        /* \"CrowdFund.sol\":10839:10848  campaigns */\n      0x01\n        /* \"CrowdFund.sol\":10839:10861  campaigns[_campaignId] */\n      0x00\n        /* \"CrowdFund.sol\":10849:10860  _campaignId */\n      dup8\n        /* \"CrowdFund.sol\":10839:10861  campaigns[_campaignId] */\n      dup2\n      mstore\n      0x20\n      add\n      swap1\n      dup2\n      mstore\n      0x20\n      add\n      0x00\n      keccak256\n        /* \"CrowdFund.sol\":10839:10869  campaigns[_campaignId].creator */\n      0x01\n      add\n      0x00\n      swap1\n      sload\n      swap1\n      0x0100\n      exp\n      swap1\n      div\n      0xffffffffffffffffffffffffffffffffffffffff\n      and\n        /* \"CrowdFund.sol\":10839:10878  campaigns[_campaignId].creator.transfer */\n      0xffffffffffffffffffffffffffffffffffffffff\n      and\n        /* \"CrowdFund.sol\":10839:10895  campaigns[_campaignId].creator.transfer(m.releaseAmount) */\n      0x08fc\n        /* \"CrowdFund.sol\":10879:10880  m */\n      dup4\n        /* \"CrowdFund.sol\":10879:10894  m.releaseAmount */\n      0x02\n      add\n      sload\n        /* \"CrowdFund.sol\":10839:10895  campaigns[_campaignId].creator.transfer(m.releaseAmount) */\n      swap1\n      dup2\n      iszero\n      mul\n      swap1\n      mload(0x40)\n      0x00\n      mload(0x40)\n      dup1\n      dup4\n      sub\n      dup2\n      dup6\n      dup9\n      dup9\n      call\n      swap4\n      pop\n      pop\n      pop\n      pop\n      iszero\n      dup1\n      iszero\n      tag_193\n      jumpi\n      returndatacopy(0x00, 0x00, returndatasize)\n      revert(0x00, returndatasize)\n    tag_193:\n      pop\n        /* \"CrowdFund.sol\":10933:10944  _campaignId */\n      dup6\n        /* \"CrowdFund.sol\":10919:10976  FundsReleased(_campaignId, _milestoneId, m.releaseAmount) */\n      0x24d2f6e8ac6c13d1e7610752ab0b7ce03d5043806a65d3d631ae859ad81d159b\n        /* \"CrowdFund.sol\":10946:10958  _milestoneId */\n      dup7\n        /* \"CrowdFund.sol\":10960:10961  m */\n      dup5\n        /* \"CrowdFund.sol\":10960:10975  m.releaseAmount */\n      0x02\n      add\n      sload\n        /* \"CrowdFund.sol\":10919:10976  FundsReleased(_campaignId, _milestoneId, m.releaseAmount) */\n      mload(0x40)\n      tag_194\n      swap3\n      swap2\n      swap1\n      tag_195\n      jump\t// in\n    tag_194:\n      mload(0x40)\n      dup1\n      swap2\n      sub\n      swap1\n      log2\n        /* \"CrowdFund.sol\":10744:10992  if (m.approveVotes * 2 > totalDonors) {... */\n    tag_191:\n        /* \"CrowdFund.sol\":10541:11369  if (_approve) {... */\n      jump(tag_196)\n    tag_184:\n        /* \"CrowdFund.sol\":11026:11027  m */\n      dup2\n        /* \"CrowdFund.sol\":11026:11039  m.rejectVotes */\n      0x05\n      add\n      0x00\n        /* \"CrowdFund.sol\":11026:11041  m.rejectVotes++ */\n      dup2\n      sload\n      dup1\n      swap3\n      swap2\n      swap1\n      tag_197\n      swap1\n      tag_186\n      jump\t// in\n    tag_197:\n      swap2\n      swap1\n      pop\n      sstore\n      pop\n        /* \"CrowdFund.sol\":11076:11087  _campaignId */\n      dup6\n        /* \"CrowdFund.sol\":11061:11121  MilestoneVoted(_campaignId, _milestoneId, msg.sender, false) */\n      0xab85204cc3f4a5213aaeac56baec47b9fe23ddb7ee575fe3f6d6f2b6226bf830\n        /* \"CrowdFund.sol\":11089:11101  _milestoneId */\n      dup7\n        /* \"CrowdFund.sol\":11103:11113  msg.sender */\n      caller\n        /* \"CrowdFund.sol\":11115:11120  false */\n      0x00\n        /* \"CrowdFund.sol\":11061:11121  MilestoneVoted(_campaignId, _milestoneId, msg.sender, false) */\n      mload(0x40)\n      tag_198\n      swap4\n      swap3\n      swap2\n      swap1\n      tag_188\n      jump\t// in\n    tag_198:\n      mload(0x40)\n      dup1\n      swap2\n      sub\n      swap1\n      log2\n        /* \"CrowdFund.sol\":11223:11234  totalDonors */\n      dup1\n        /* \"CrowdFund.sol\":11219:11220  2 */\n      0x02\n        /* \"CrowdFund.sol\":11203:11204  m */\n      dup4\n        /* \"CrowdFund.sol\":11203:11216  m.rejectVotes */\n      0x05\n      add\n      sload\n        /* \"CrowdFund.sol\":11203:11220  m.rejectVotes * 2 */\n      tag_199\n      swap2\n      swap1\n      tag_190\n      jump\t// in\n    tag_199:\n        /* \"CrowdFund.sol\":11203:11234  m.rejectVotes * 2 > totalDonors */\n      gt\n        /* \"CrowdFund.sol\":11199:11358  if (m.rejectVotes * 2 > totalDonors) {... */\n      iszero\n      tag_200\n      jumpi\n        /* \"CrowdFund.sol\":11270:11274  true */\n      0x01\n        /* \"CrowdFund.sol\":11255:11256  m */\n      dup3\n        /* \"CrowdFund.sol\":11255:11267  m.isRejected */\n      0x03\n      add\n      0x01\n        /* \"CrowdFund.sol\":11255:11274  m.isRejected = true */\n      0x0100\n      exp\n      dup2\n      sload\n      dup2\n      0xff\n      mul\n      not\n      and\n      swap1\n      dup4\n      iszero\n      iszero\n      mul\n      or\n      swap1\n      sstore\n      pop\n        /* \"CrowdFund.sol\":11316:11327  _campaignId */\n      dup6\n        /* \"CrowdFund.sol\":11298:11342  MilestoneRejected(_campaignId, _milestoneId) */\n      0x4e2fd11f84344693b41d2aba9910e33b34a4f02d4d3a65b65b2201f3c8fa3c89\n        /* \"CrowdFund.sol\":11329:11341  _milestoneId */\n      dup7\n        /* \"CrowdFund.sol\":11298:11342  MilestoneRejected(_campaignId, _milestoneId) */\n      mload(0x40)\n      tag_201\n      swap2\n      swap1\n      tag_26\n      jump\t// in\n    tag_201:\n      mload(0x40)\n      dup1\n      swap2\n      sub\n      swap1\n      log2\n        /* \"CrowdFund.sol\":11199:11358  if (m.rejectVotes * 2 > totalDonors) {... */\n    tag_200:\n        /* \"CrowdFund.sol\":10541:11369  if (_approve) {... */\n    tag_196:\n        /* \"CrowdFund.sol\":10024:11376  {... */\n      pop\n      pop\n        /* \"CrowdFund.sol\":9886:11376  function vote(... */\n      pop\n      pop\n      pop\n      pop\n      jump\t// out\n        /* \"CrowdFund.sol\":2324:2373  mapping(uint256 => uint256) public milestoneCount */\n    tag_71:\n      mstore(0x20, 0x03)\n      dup1\n      0x00\n      mstore\n      keccak256(0x00, 0x40)\n      0x00\n      swap2\n      pop\n      swap1\n      pop\n      sload\n      dup2\n      jump\t// out\n        /* \"CrowdFund.sol\":2559:2602  mapping(uint256 => address[]) public donors */\n    tag_76:\n      mstore(0x20, 0x05)\n      dup2\n      0x00\n      mstore\n      keccak256(0x00, 0x40)\n      dup2\n      dup2\n      sload\n      dup2\n      lt\n      tag_202\n      jumpi\n      0x00\n      dup1\n      revert\n    tag_202:\n      swap1\n      0x00\n      mstore\n      keccak256(0x00, 0x20)\n      add\n      0x00\n      swap2\n      pop\n      swap2\n      pop\n      swap1\n      sload\n      swap1\n      0x0100\n      exp\n      swap1\n      div\n      0xffffffffffffffffffffffffffffffffffffffff\n      and\n      dup2\n      jump\t// out\n        /* \"CrowdFund.sol\":13674:13964  function getTimeRemaining(uint256 _campaignId)... */\n    tag_82:\n        /* \"CrowdFund.sol\":13800:13807  uint256 */\n      0x00\n        /* \"CrowdFund.sol\":13769:13780  _campaignId */\n      dup2\n        /* \"CrowdFund.sol\":4467:4481  totalCampaigns */\n      sload(0x00)\n        /* \"CrowdFund.sol\":4453:4464  _campaignId */\n      dup2\n        /* \"CrowdFund.sol\":4453:4481  _campaignId < totalCampaigns */\n      lt\n        /* \"CrowdFund.sol\":4445:4509  require(_campaignId < totalCampaigns, \"Campaign does not exist\") */\n      tag_205\n      jumpi\n      mload(0x40)\n      0x08c379a000000000000000000000000000000000000000000000000000000000\n      dup2\n      mstore\n      0x04\n      add\n      tag_206\n      swap1\n      tag_135\n      jump\t// in\n    tag_206:\n      mload(0x40)\n      dup1\n      swap2\n      sub\n      swap1\n      revert\n    tag_205:\n        /* \"CrowdFund.sol\":13848:13857  campaigns */\n      0x01\n        /* \"CrowdFund.sol\":13848:13870  campaigns[_campaignId] */\n      0x00\n        /* \"CrowdFund.sol\":13858:13869  _campaignId */\n      dup5\n        /* \"CrowdFund.sol\":13848:13870  campaigns[_campaignId] */\n      dup2\n      mstore\n      0x20\n      add\n      swap1\n      dup2\n      mstore\n      0x20\n      add\n      0x00\n      keccak256\n        /* \"CrowdFund.sol\":13848:13879  campaigns[_campaignId].deadline */\n      0x05\n      add\n      sload\n        /* \"CrowdFund.sol\":13829:13844  block.timestamp */\n      timestamp\n        /* \"CrowdFund.sol\":13829:13879  block.timestamp >= campaigns[_campaignId].deadline */\n      lt\n        /* \"CrowdFund.sol\":13825:13889  if (block.timestamp >= campaigns[_campaignId].deadline) return 0 */\n      tag_208\n      jumpi\n        /* \"CrowdFund.sol\":13888:13889  0 */\n      0x00\n        /* \"CrowdFund.sol\":13881:13889  return 0 */\n      swap2\n      pop\n      jump(tag_207)\n        /* \"CrowdFund.sol\":13825:13889  if (block.timestamp >= campaigns[_campaignId].deadline) return 0 */\n    tag_208:\n        /* \"CrowdFund.sol\":13941:13956  block.timestamp */\n      timestamp\n        /* \"CrowdFund.sol\":13907:13916  campaigns */\n      0x01\n        /* \"CrowdFund.sol\":13907:13929  campaigns[_campaignId] */\n      0x00\n        /* \"CrowdFund.sol\":13917:13928  _campaignId */\n      dup6\n        /* \"CrowdFund.sol\":13907:13929  campaigns[_campaignId] */\n      dup2\n      mstore\n      0x20\n      add\n      swap1\n      dup2\n      mstore\n      0x20\n      add\n      0x00\n      keccak256\n        /* \"CrowdFund.sol\":13907:13938  campaigns[_campaignId].deadline */\n      0x05\n      add\n      sload\n        /* \"CrowdFund.sol\":13907:13956  campaigns[_campaignId].deadline - block.timestamp */\n      tag_209\n      swap2\n      swap1\n      tag_210\n      jump\t// in\n    tag_209:\n        /* \"CrowdFund.sol\":13900:13956  return campaigns[_campaignId].deadline - block.timestamp */\n      swap2\n      pop\n        /* \"CrowdFund.sol\":4520:4521  _ */\n    tag_207:\n        /* \"CrowdFund.sol\":13674:13964  function getTimeRemaining(uint256 _campaignId)... */\n      pop\n      swap2\n      swap1\n      pop\n      jump\t// out\n        /* \"CrowdFund.sol\":12885:13086  function getMilestone(uint256 _campaignId, uint256 _milestoneId)... */\n    tag_87:\n        /* \"CrowdFund.sol\":13000:13016  Milestone memory */\n      tag_211\n      tag_212\n      jump\t// in\n    tag_211:\n        /* \"CrowdFund.sol\":13041:13051  milestones */\n      0x02\n        /* \"CrowdFund.sol\":13041:13064  milestones[_campaignId] */\n      0x00\n        /* \"CrowdFund.sol\":13052:13063  _campaignId */\n      dup5\n        /* \"CrowdFund.sol\":13041:13064  milestones[_campaignId] */\n      dup2\n      mstore\n      0x20\n      add\n      swap1\n      dup2\n      mstore\n      0x20\n      add\n      0x00\n      keccak256\n        /* \"CrowdFund.sol\":13041:13078  milestones[_campaignId][_milestoneId] */\n      0x00\n        /* \"CrowdFund.sol\":13065:13077  _milestoneId */\n      dup4\n        /* \"CrowdFund.sol\":13041:13078  milestones[_campaignId][_milestoneId] */\n      dup2\n      mstore\n      0x20\n      add\n      swap1\n      dup2\n      mstore\n      0x20\n      add\n      0x00\n      keccak256\n        /* \"CrowdFund.sol\":13034:13078  return milestones[_campaignId][_milestoneId] */\n      mload(0x40)\n      dup1\n      0xe0\n      add\n      0x40\n      mstore\n      swap1\n      dup2\n      0x00\n      dup3\n      add\n      sload\n      dup2\n      mstore\n      0x20\n      add\n      0x01\n      dup3\n      add\n      dup1\n      sload\n      tag_214\n      swap1\n      tag_115\n      jump\t// in\n    tag_214:\n      dup1\n      0x1f\n      add\n      0x20\n      dup1\n      swap2\n      div\n      mul\n      0x20\n      add\n      mload(0x40)\n      swap1\n      dup2\n      add\n      0x40\n      mstore\n      dup1\n      swap3\n      swap2\n      swap1\n      dup2\n      dup2\n      mstore\n      0x20\n      add\n      dup3\n      dup1\n      sload\n      tag_215\n      swap1\n      tag_115\n      jump\t// in\n    tag_215:\n      dup1\n      iszero\n      tag_216\n      jumpi\n      dup1\n      0x1f\n      lt\n      tag_217\n      jumpi\n      0x0100\n      dup1\n      dup4\n      sload\n      div\n      mul\n      dup4\n      mstore\n      swap2\n      0x20\n      add\n      swap2\n      jump(tag_216)\n    tag_217:\n      dup3\n      add\n      swap2\n      swap1\n      0x00\n      mstore\n      keccak256(0x00, 0x20)\n      swap1\n    tag_218:\n      dup2\n      sload\n      dup2\n      mstore\n      swap1\n      0x01\n      add\n      swap1\n      0x20\n      add\n      dup1\n      dup4\n      gt\n      tag_218\n      jumpi\n      dup3\n      swap1\n      sub\n      0x1f\n      and\n      dup3\n      add\n      swap2\n    tag_216:\n      pop\n      pop\n      pop\n      pop\n      pop\n      dup2\n      mstore\n      0x20\n      add\n      0x02\n      dup3\n      add\n      sload\n      dup2\n      mstore\n      0x20\n      add\n      0x03\n      dup3\n      add\n      0x00\n      swap1\n      sload\n      swap1\n      0x0100\n      exp\n      swap1\n      div\n      0xff\n      and\n      iszero\n      iszero\n      iszero\n      iszero\n      dup2\n      mstore\n      0x20\n      add\n      0x03\n      dup3\n      add\n      0x01\n      swap1\n      sload\n      swap1\n      0x0100\n      exp\n      swap1\n      div\n      0xff\n      and\n      iszero\n      iszero\n      iszero\n      iszero\n      dup2\n      mstore\n      0x20\n      add\n      0x04\n      dup3\n      add\n      sload\n      dup2\n      mstore\n      0x20\n      add\n      0x05\n      dup3\n      add\n      sload\n      dup2\n      mstore\n      pop\n      pop\n      swap1\n      pop\n        /* \"CrowdFund.sol\":12885:13086  function getMilestone(uint256 _campaignId, uint256 _milestoneId)... */\n      swap3\n      swap2\n      pop\n      pop\n      jump\t// out\n        /* \"CrowdFund.sol\":8293:9478  function addMilestone(... */\n    tag_94:\n        /* \"CrowdFund.sol\":8456:8467  _campaignId */\n      dup3\n        /* \"CrowdFund.sol\":4467:4481  totalCampaigns */\n      sload(0x00)\n        /* \"CrowdFund.sol\":4453:4464  _campaignId */\n      dup2\n        /* \"CrowdFund.sol\":4453:4481  _campaignId < totalCampaigns */\n      lt\n        /* \"CrowdFund.sol\":4445:4509  require(_campaignId < totalCampaigns, \"Campaign does not exist\") */\n      tag_220\n      jumpi\n      mload(0x40)\n      0x08c379a000000000000000000000000000000000000000000000000000000000\n      dup2\n      mstore\n      0x04\n      add\n      tag_221\n      swap1\n      tag_135\n      jump\t// in\n    tag_221:\n      mload(0x40)\n      dup1\n      swap2\n      sub\n      swap1\n      revert\n    tag_220:\n        /* \"CrowdFund.sol\":8490:8501  _campaignId */\n      dup4\n        /* \"CrowdFund.sol\":4240:4249  campaigns */\n      0x01\n        /* \"CrowdFund.sol\":4240:4262  campaigns[_campaignId] */\n      0x00\n        /* \"CrowdFund.sol\":4250:4261  _campaignId */\n      dup3\n        /* \"CrowdFund.sol\":4240:4262  campaigns[_campaignId] */\n      dup2\n      mstore\n      0x20\n      add\n      swap1\n      dup2\n      mstore\n      0x20\n      add\n      0x00\n      keccak256\n        /* \"CrowdFund.sol\":4240:4270  campaigns[_campaignId].creator */\n      0x01\n      add\n      0x00\n      swap1\n      sload\n      swap1\n      0x0100\n      exp\n      swap1\n      div\n      0xffffffffffffffffffffffffffffffffffffffff\n      and\n        /* \"CrowdFund.sol\":4226:4270  msg.sender == campaigns[_campaignId].creator */\n      0xffffffffffffffffffffffffffffffffffffffff\n      and\n        /* \"CrowdFund.sol\":4226:4236  msg.sender */\n      caller\n        /* \"CrowdFund.sol\":4226:4270  msg.sender == campaigns[_campaignId].creator */\n      0xffffffffffffffffffffffffffffffffffffffff\n      and\n      eq\n        /* \"CrowdFund.sol\":4204:4335  require(... */\n      tag_223\n      jumpi\n      mload(0x40)\n      0x08c379a000000000000000000000000000000000000000000000000000000000\n      dup2\n      mstore\n      0x04\n      add\n      tag_224\n      swap1\n      tag_225\n      jump\t// in\n    tag_224:\n      mload(0x40)\n      dup1\n      swap2\n      sub\n      swap1\n      revert\n    tag_223:\n        /* \"CrowdFund.sol\":8527:8536  campaigns */\n      0x01\n        /* \"CrowdFund.sol\":8527:8549  campaigns[_campaignId] */\n      0x00\n        /* \"CrowdFund.sol\":8537:8548  _campaignId */\n      dup7\n        /* \"CrowdFund.sol\":8527:8549  campaigns[_campaignId] */\n      dup2\n      mstore\n      0x20\n      add\n      swap1\n      dup2\n      mstore\n      0x20\n      add\n      0x00\n      keccak256\n        /* \"CrowdFund.sol\":8527:8561  campaigns[_campaignId].goalReached */\n      0x07\n      add\n      0x00\n      swap1\n      sload\n      swap1\n      0x0100\n      exp\n      swap1\n      div\n      0xff\n      and\n        /* \"CrowdFund.sol\":8519:8607  require(campaigns[_campaignId].goalReached, \"Goal not reached yet - wait for donations\") */\n      tag_227\n      jumpi\n      mload(0x40)\n      0x08c379a000000000000000000000000000000000000000000000000000000000\n      dup2\n      mstore\n      0x04\n      add\n      tag_228\n      swap1\n      tag_229\n      jump\t// in\n    tag_228:\n      mload(0x40)\n      dup1\n      swap2\n      sub\n      swap1\n      revert\n    tag_227:\n        /* \"CrowdFund.sol\":8653:8654  0 */\n      0x00\n        /* \"CrowdFund.sol\":8630:8642  _description */\n      dup5\n        /* \"CrowdFund.sol\":8624:8650  bytes(_description).length */\n      mload\n        /* \"CrowdFund.sol\":8624:8654  bytes(_description).length > 0 */\n      gt\n        /* \"CrowdFund.sol\":8616:8699  require(bytes(_description).length > 0,           \"Milestone description required\") */\n      tag_230\n      jumpi\n      mload(0x40)\n      0x08c379a000000000000000000000000000000000000000000000000000000000\n      dup2\n      mstore\n      0x04\n      add\n      tag_231\n      swap1\n      tag_232\n      jump\t// in\n    tag_231:\n      mload(0x40)\n      dup1\n      swap2\n      sub\n      swap1\n      revert\n    tag_230:\n        /* \"CrowdFund.sol\":8735:8736  0 */\n      0x00\n        /* \"CrowdFund.sol\":8718:8732  _amountInEther */\n      dup4\n        /* \"CrowdFund.sol\":8718:8736  _amountInEther > 0 */\n      gt\n        /* \"CrowdFund.sol\":8710:8800  require(_amountInEther > 0,                       \"Release amount must be greater than 0\") */\n      tag_233\n      jumpi\n      mload(0x40)\n      0x08c379a000000000000000000000000000000000000000000000000000000000\n      dup2\n      mstore\n      0x04\n      add\n      tag_234\n      swap1\n      tag_235\n      jump\t// in\n    tag_234:\n      mload(0x40)\n      dup1\n      swap2\n      sub\n      swap1\n      revert\n    tag_233:\n        /* \"CrowdFund.sol\":8861:8882  address(this).balance */\n      selfbalance\n        /* \"CrowdFund.sol\":8850:8857  1 ether */\n      0x0de0b6b3a7640000\n        /* \"CrowdFund.sol\":8833:8847  _amountInEther */\n      dup5\n        /* \"CrowdFund.sol\":8833:8857  _amountInEther * 1 ether */\n      tag_236\n      swap2\n      swap1\n      tag_190\n      jump\t// in\n    tag_236:\n        /* \"CrowdFund.sol\":8833:8882  _amountInEther * 1 ether <= address(this).balance */\n      gt\n      iszero\n        /* \"CrowdFund.sol\":8811:8950  require(... */\n      tag_237\n      jumpi\n      mload(0x40)\n      0x08c379a000000000000000000000000000000000000000000000000000000000\n      dup2\n      mstore\n      0x04\n      add\n      tag_238\n      swap1\n      tag_239\n      jump\t// in\n    tag_238:\n      mload(0x40)\n      dup1\n      swap2\n      sub\n      swap1\n      revert\n    tag_237:\n        /* \"CrowdFund.sol\":8963:8974  uint256 mid */\n      0x00\n        /* \"CrowdFund.sol\":8977:8991  milestoneCount */\n      0x03\n        /* \"CrowdFund.sol\":8977:9004  milestoneCount[_campaignId] */\n      0x00\n        /* \"CrowdFund.sol\":8992:9003  _campaignId */\n      dup8\n        /* \"CrowdFund.sol\":8977:9004  milestoneCount[_campaignId] */\n      dup2\n      mstore\n      0x20\n      add\n      swap1\n      dup2\n      mstore\n      0x20\n      add\n      0x00\n      keccak256\n      sload\n        /* \"CrowdFund.sol\":8963:9004  uint256 mid = milestoneCount[_campaignId] */\n      swap1\n      pop\n        /* \"CrowdFund.sol\":9048:9338  Milestone({... */\n      mload(0x40)\n      dup1\n      0xe0\n      add\n      0x40\n      mstore\n      dup1\n        /* \"CrowdFund.sol\":9089:9092  mid */\n      dup3\n        /* \"CrowdFund.sol\":9048:9338  Milestone({... */\n      dup2\n      mstore\n      0x20\n      add\n        /* \"CrowdFund.sol\":9123:9135  _description */\n      dup7\n        /* \"CrowdFund.sol\":9048:9338  Milestone({... */\n      dup2\n      mstore\n      0x20\n      add\n        /* \"CrowdFund.sol\":9183:9190  1 ether */\n      0x0de0b6b3a7640000\n        /* \"CrowdFund.sol\":9166:9180  _amountInEther */\n      dup7\n        /* \"CrowdFund.sol\":9166:9190  _amountInEther * 1 ether */\n      tag_240\n      swap2\n      swap1\n      tag_190\n      jump\t// in\n    tag_240:\n        /* \"CrowdFund.sol\":9048:9338  Milestone({... */\n      dup2\n      mstore\n      0x20\n      add\n        /* \"CrowdFund.sol\":9221:9226  false */\n      0x00\n        /* \"CrowdFund.sol\":9048:9338  Milestone({... */\n      iszero\n      iszero\n      dup2\n      mstore\n      0x20\n      add\n        /* \"CrowdFund.sol\":9257:9262  false */\n      0x00\n        /* \"CrowdFund.sol\":9048:9338  Milestone({... */\n      iszero\n      iszero\n      dup2\n      mstore\n      0x20\n      add\n        /* \"CrowdFund.sol\":9293:9294  0 */\n      0x00\n        /* \"CrowdFund.sol\":9048:9338  Milestone({... */\n      dup2\n      mstore\n      0x20\n      add\n        /* \"CrowdFund.sol\":9325:9326  0 */\n      0x00\n        /* \"CrowdFund.sol\":9048:9338  Milestone({... */\n      dup2\n      mstore\n      pop\n        /* \"CrowdFund.sol\":9017:9027  milestones */\n      0x02\n        /* \"CrowdFund.sol\":9017:9040  milestones[_campaignId] */\n      0x00\n        /* \"CrowdFund.sol\":9028:9039  _campaignId */\n      dup9\n        /* \"CrowdFund.sol\":9017:9040  milestones[_campaignId] */\n      dup2\n      mstore\n      0x20\n      add\n      swap1\n      dup2\n      mstore\n      0x20\n      add\n      0x00\n      keccak256\n        /* \"CrowdFund.sol\":9017:9045  milestones[_campaignId][mid] */\n      0x00\n        /* \"CrowdFund.sol\":9041:9044  mid */\n      dup4\n        /* \"CrowdFund.sol\":9017:9045  milestones[_campaignId][mid] */\n      dup2\n      mstore\n      0x20\n      add\n      swap1\n      dup2\n      mstore\n      0x20\n      add\n      0x00\n      keccak256\n        /* \"CrowdFund.sol\":9017:9338  milestones[_campaignId][mid] = Milestone({... */\n      0x00\n      dup3\n      add\n      mload\n      dup2\n      0x00\n      add\n      sstore\n      0x20\n      dup3\n      add\n      mload\n      dup2\n      0x01\n      add\n      swap1\n      dup2\n      tag_241\n      swap2\n      swap1\n      tag_242\n      jump\t// in\n    tag_241:\n      pop\n      0x40\n      dup3\n      add\n      mload\n      dup2\n      0x02\n      add\n      sstore\n      0x60\n      dup3\n      add\n      mload\n      dup2\n      0x03\n      add\n      exp(0x0100, 0x00)\n      dup2\n      sload\n      dup2\n      0xff\n      mul\n      not\n      and\n      swap1\n      dup4\n      iszero\n      iszero\n      mul\n      or\n      swap1\n      sstore\n      pop\n      0x80\n      dup3\n      add\n      mload\n      dup2\n      0x03\n      add\n      exp(0x0100, 0x01)\n      dup2\n      sload\n      dup2\n      0xff\n      mul\n      not\n      and\n      swap1\n      dup4\n      iszero\n      iszero\n      mul\n      or\n      swap1\n      sstore\n      pop\n      0xa0\n      dup3\n      add\n      mload\n      dup2\n      0x04\n      add\n      sstore\n      0xc0\n      dup3\n      add\n      mload\n      dup2\n      0x05\n      add\n      sstore\n      swap1\n      pop\n      pop\n        /* \"CrowdFund.sol\":9351:9365  milestoneCount */\n      0x03\n        /* \"CrowdFund.sol\":9351:9378  milestoneCount[_campaignId] */\n      0x00\n        /* \"CrowdFund.sol\":9366:9377  _campaignId */\n      dup8\n        /* \"CrowdFund.sol\":9351:9378  milestoneCount[_campaignId] */\n      dup2\n      mstore\n      0x20\n      add\n      swap1\n      dup2\n      mstore\n      0x20\n      add\n      0x00\n      keccak256\n      0x00\n        /* \"CrowdFund.sol\":9351:9380  milestoneCount[_campaignId]++ */\n      dup2\n      sload\n      dup1\n      swap3\n      swap2\n      swap1\n      tag_243\n      swap1\n      tag_186\n      jump\t// in\n    tag_243:\n      swap2\n      swap1\n      pop\n      sstore\n      pop\n        /* \"CrowdFund.sol\":9413:9424  _campaignId */\n      dup6\n        /* \"CrowdFund.sol\":9398:9470  MilestoneAdded(_campaignId, mid, _description, _amountInEther * 1 ether) */\n      0xc67423104bf96f5ca8826913ae711e8c2254e1b2c04af907b2312853ed4cbed2\n        /* \"CrowdFund.sol\":9426:9429  mid */\n      dup3\n        /* \"CrowdFund.sol\":9431:9443  _description */\n      dup8\n        /* \"CrowdFund.sol\":9462:9469  1 ether */\n      0x0de0b6b3a7640000\n        /* \"CrowdFund.sol\":9445:9459  _amountInEther */\n      dup9\n        /* \"CrowdFund.sol\":9445:9469  _amountInEther * 1 ether */\n      tag_244\n      swap2\n      swap1\n      tag_190\n      jump\t// in\n    tag_244:\n        /* \"CrowdFund.sol\":9398:9470  MilestoneAdded(_campaignId, mid, _description, _amountInEther * 1 ether) */\n      mload(0x40)\n      tag_245\n      swap4\n      swap3\n      swap2\n      swap1\n      tag_246\n      jump\t// in\n    tag_245:\n      mload(0x40)\n      dup1\n      swap2\n      sub\n      swap1\n      log2\n        /* \"CrowdFund.sol\":8508:9478  {... */\n      pop\n        /* \"CrowdFund.sol\":4520:4521  _ */\n      pop\n        /* \"CrowdFund.sol\":8293:9478  function addMilestone(... */\n      pop\n      pop\n      pop\n      pop\n      jump\t// out\n        /* \"CrowdFund.sol\":5533:6714  function createCampaign(... */\n    tag_99:\n        /* \"CrowdFund.sol\":5745:5746  0 */\n      0x00\n        /* \"CrowdFund.sol\":5728:5734  _title */\n      dup5\n        /* \"CrowdFund.sol\":5722:5742  bytes(_title).length */\n      mload\n        /* \"CrowdFund.sol\":5722:5746  bytes(_title).length > 0 */\n      gt\n        /* \"CrowdFund.sol\":5714:5795  require(bytes(_title).length > 0,                        \"Title cannot be empty\") */\n      tag_248\n      jumpi\n      mload(0x40)\n      0x08c379a000000000000000000000000000000000000000000000000000000000\n      dup2\n      mstore\n      0x04\n      add\n      tag_249\n      swap1\n      tag_250\n      jump\t// in\n    tag_249:\n      mload(0x40)\n      dup1\n      swap2\n      sub\n      swap1\n      revert\n    tag_248:\n        /* \"CrowdFund.sol\":5843:5844  0 */\n      0x00\n        /* \"CrowdFund.sol\":5820:5832  _description */\n      dup4\n        /* \"CrowdFund.sol\":5814:5840  bytes(_description).length */\n      mload\n        /* \"CrowdFund.sol\":5814:5844  bytes(_description).length > 0 */\n      gt\n        /* \"CrowdFund.sol\":5806:5893  require(bytes(_description).length > 0,                  \"Description cannot be empty\") */\n      tag_251\n      jumpi\n      mload(0x40)\n      0x08c379a000000000000000000000000000000000000000000000000000000000\n      dup2\n      mstore\n      0x04\n      add\n      tag_252\n      swap1\n      tag_253\n      jump\t// in\n    tag_252:\n      mload(0x40)\n      dup1\n      swap2\n      sub\n      swap1\n      revert\n    tag_251:\n        /* \"CrowdFund.sol\":5927:5928  0 */\n      0x00\n        /* \"CrowdFund.sol\":5912:5924  _goalInEther */\n      dup3\n        /* \"CrowdFund.sol\":5912:5928  _goalInEther > 0 */\n      gt\n        /* \"CrowdFund.sol\":5904:5991  require(_goalInEther > 0,                                \"Goal must be greater than 0\") */\n      tag_254\n      jumpi\n      mload(0x40)\n      0x08c379a000000000000000000000000000000000000000000000000000000000\n      dup2\n      mstore\n      0x04\n      add\n      tag_255\n      swap1\n      tag_256\n      jump\t// in\n    tag_255:\n      mload(0x40)\n      dup1\n      swap2\n      sub\n      swap1\n      revert\n    tag_254:\n        /* \"CrowdFund.sol\":6026:6027  1 */\n      0x01\n        /* \"CrowdFund.sol\":6010:6022  _daysToRaise */\n      dup2\n        /* \"CrowdFund.sol\":6010:6027  _daysToRaise >= 1 */\n      lt\n      iszero\n        /* \"CrowdFund.sol\":6010:6049  _daysToRaise >= 1 && _daysToRaise <= 90 */\n      dup1\n      iszero\n      tag_257\n      jumpi\n      pop\n        /* \"CrowdFund.sol\":6047:6049  90 */\n      0x5a\n        /* \"CrowdFund.sol\":6031:6043  _daysToRaise */\n      dup2\n        /* \"CrowdFund.sol\":6031:6049  _daysToRaise <= 90 */\n      gt\n      iszero\n        /* \"CrowdFund.sol\":6010:6049  _daysToRaise >= 1 && _daysToRaise <= 90 */\n    tag_257:\n        /* \"CrowdFund.sol\":6002:6099  require(_daysToRaise >= 1 && _daysToRaise <= 90,        \"Duration must be between 1 and 90 days\") */\n      tag_258\n      jumpi\n      mload(0x40)\n      0x08c379a000000000000000000000000000000000000000000000000000000000\n      dup2\n      mstore\n      0x04\n      add\n      tag_259\n      swap1\n      tag_260\n      jump\t// in\n    tag_259:\n      mload(0x40)\n      dup1\n      swap2\n      sub\n      swap1\n      revert\n    tag_258:\n        /* \"CrowdFund.sol\":6112:6122  uint256 id */\n      0x00\n        /* \"CrowdFund.sol\":6125:6139  totalCampaigns */\n      sload(0x00)\n        /* \"CrowdFund.sol\":6112:6139  uint256 id = totalCampaigns */\n      swap1\n      pop\n        /* \"CrowdFund.sol\":6168:6572  Campaign({... */\n      mload(0x40)\n      dup1\n      0x0120\n      add\n      0x40\n      mstore\n      dup1\n        /* \"CrowdFund.sol\":6207:6209  id */\n      dup3\n        /* \"CrowdFund.sol\":6168:6572  Campaign({... */\n      dup2\n      mstore\n      0x20\n      add\n        /* \"CrowdFund.sol\":6247:6257  msg.sender */\n      caller\n        /* \"CrowdFund.sol\":6168:6572  Campaign({... */\n      0xffffffffffffffffffffffffffffffffffffffff\n      and\n      dup2\n      mstore\n      0x20\n      add\n        /* \"CrowdFund.sol\":6288:6294  _title */\n      dup7\n        /* \"CrowdFund.sol\":6168:6572  Campaign({... */\n      dup2\n      mstore\n      0x20\n      add\n        /* \"CrowdFund.sol\":6324:6336  _description */\n      dup6\n        /* \"CrowdFund.sol\":6168:6572  Campaign({... */\n      dup2\n      mstore\n      0x20\n      add\n        /* \"CrowdFund.sol\":6381:6388  1 ether */\n      0x0de0b6b3a7640000\n        /* \"CrowdFund.sol\":6366:6378  _goalInEther */\n      dup6\n        /* \"CrowdFund.sol\":6366:6388  _goalInEther * 1 ether */\n      tag_261\n      swap2\n      swap1\n      tag_190\n      jump\t// in\n    tag_261:\n        /* \"CrowdFund.sol\":6168:6572  Campaign({... */\n      dup2\n      mstore\n      0x20\n      add\n        /* \"CrowdFund.sol\":6452:6458  1 days */\n      0x015180\n        /* \"CrowdFund.sol\":6437:6449  _daysToRaise */\n      dup5\n        /* \"CrowdFund.sol\":6437:6458  _daysToRaise * 1 days */\n      tag_262\n      swap2\n      swap1\n      tag_190\n      jump\t// in\n    tag_262:\n        /* \"CrowdFund.sol\":6418:6433  block.timestamp */\n      timestamp\n        /* \"CrowdFund.sol\":6418:6459  block.timestamp + (_daysToRaise * 1 days) */\n      tag_263\n      swap2\n      swap1\n      tag_264\n      jump\t// in\n    tag_263:\n        /* \"CrowdFund.sol\":6168:6572  Campaign({... */\n      dup2\n      mstore\n      0x20\n      add\n        /* \"CrowdFund.sol\":6489:6490  0 */\n      0x00\n        /* \"CrowdFund.sol\":6168:6572  Campaign({... */\n      dup2\n      mstore\n      0x20\n      add\n        /* \"CrowdFund.sol\":6520:6525  false */\n      0x00\n        /* \"CrowdFund.sol\":6168:6572  Campaign({... */\n      iszero\n      iszero\n      dup2\n      mstore\n      0x20\n      add\n        /* \"CrowdFund.sol\":6555:6560  false */\n      0x00\n        /* \"CrowdFund.sol\":6168:6572  Campaign({... */\n      iszero\n      iszero\n      dup2\n      mstore\n      pop\n        /* \"CrowdFund.sol\":6152:6161  campaigns */\n      0x01\n        /* \"CrowdFund.sol\":6152:6165  campaigns[id] */\n      0x00\n        /* \"CrowdFund.sol\":6162:6164  id */\n      dup4\n        /* \"CrowdFund.sol\":6152:6165  campaigns[id] */\n      dup2\n      mstore\n      0x20\n      add\n      swap1\n      dup2\n      mstore\n      0x20\n      add\n      0x00\n      keccak256\n        /* \"CrowdFund.sol\":6152:6572  campaigns[id] = Campaign({... */\n      0x00\n      dup3\n      add\n      mload\n      dup2\n      0x00\n      add\n      sstore\n      0x20\n      dup3\n      add\n      mload\n      dup2\n      0x01\n      add\n      exp(0x0100, 0x00)\n      dup2\n      sload\n      dup2\n      0xffffffffffffffffffffffffffffffffffffffff\n      mul\n      not\n      and\n      swap1\n      dup4\n      0xffffffffffffffffffffffffffffffffffffffff\n      and\n      mul\n      or\n      swap1\n      sstore\n      pop\n      0x40\n      dup3\n      add\n      mload\n      dup2\n      0x02\n      add\n      swap1\n      dup2\n      tag_265\n      swap2\n      swap1\n      tag_242\n      jump\t// in\n    tag_265:\n      pop\n      0x60\n      dup3\n      add\n      mload\n      dup2\n      0x03\n      add\n      swap1\n      dup2\n      tag_266\n      swap2\n      swap1\n      tag_242\n      jump\t// in\n    tag_266:\n      pop\n      0x80\n      dup3\n      add\n      mload\n      dup2\n      0x04\n      add\n      sstore\n      0xa0\n      dup3\n      add\n      mload\n      dup2\n      0x05\n      add\n      sstore\n      0xc0\n      dup3\n      add\n      mload\n      dup2\n      0x06\n      add\n      sstore\n      0xe0\n      dup3\n      add\n      mload\n      dup2\n      0x07\n      add\n      exp(0x0100, 0x00)\n      dup2\n      sload\n      dup2\n      0xff\n      mul\n      not\n      and\n      swap1\n      dup4\n      iszero\n      iszero\n      mul\n      or\n      swap1\n      sstore\n      pop\n      0x0100\n      dup3\n      add\n      mload\n      dup2\n      0x07\n      add\n      exp(0x0100, 0x01)\n      dup2\n      sload\n      dup2\n      0xff\n      mul\n      not\n      and\n      swap1\n      dup4\n      iszero\n      iszero\n      mul\n      or\n      swap1\n      sstore\n      pop\n      swap1\n      pop\n      pop\n        /* \"CrowdFund.sol\":6585:6599  totalCampaigns */\n      0x00\n      0x00\n        /* \"CrowdFund.sol\":6585:6601  totalCampaigns++ */\n      dup2\n      sload\n      dup1\n      swap3\n      swap2\n      swap1\n      tag_267\n      swap1\n      tag_186\n      jump\t// in\n    tag_267:\n      swap2\n      swap1\n      pop\n      sstore\n      pop\n        /* \"CrowdFund.sol\":6635:6637  id */\n      dup1\n        /* \"CrowdFund.sol\":6619:6706  CampaignCreated(id, msg.sender, _title, _goalInEther * 1 ether, campaigns[id].deadline) */\n      0xdc26653af5b99b2da33e2ad69ee6600d9aeccc82b034501db4338309615ca238\n        /* \"CrowdFund.sol\":6639:6649  msg.sender */\n      caller\n        /* \"CrowdFund.sol\":6651:6657  _title */\n      dup8\n        /* \"CrowdFund.sol\":6674:6681  1 ether */\n      0x0de0b6b3a7640000\n        /* \"CrowdFund.sol\":6659:6671  _goalInEther */\n      dup8\n        /* \"CrowdFund.sol\":6659:6681  _goalInEther * 1 ether */\n      tag_268\n      swap2\n      swap1\n      tag_190\n      jump\t// in\n    tag_268:\n        /* \"CrowdFund.sol\":6683:6692  campaigns */\n      0x01\n        /* \"CrowdFund.sol\":6683:6696  campaigns[id] */\n      0x00\n        /* \"CrowdFund.sol\":6693:6695  id */\n      dup8\n        /* \"CrowdFund.sol\":6683:6696  campaigns[id] */\n      dup2\n      mstore\n      0x20\n      add\n      swap1\n      dup2\n      mstore\n      0x20\n      add\n      0x00\n      keccak256\n        /* \"CrowdFund.sol\":6683:6705  campaigns[id].deadline */\n      0x05\n      add\n      sload\n        /* \"CrowdFund.sol\":6619:6706  CampaignCreated(id, msg.sender, _title, _goalInEther * 1 ether, campaigns[id].deadline) */\n      mload(0x40)\n      tag_269\n      swap5\n      swap4\n      swap3\n      swap2\n      swap1\n      tag_270\n      jump\t// in\n    tag_269:\n      mload(0x40)\n      dup1\n      swap2\n      sub\n      swap1\n      log2\n        /* \"CrowdFund.sol\":5703:6714  {... */\n      pop\n        /* \"CrowdFund.sol\":5533:6714  function createCampaign(... */\n      pop\n      pop\n      pop\n      pop\n      jump\t// out\n        /* \"CrowdFund.sol\":2436:2500  mapping(uint256 => mapping(address => uint256)) public donations */\n    tag_104:\n      mstore(0x20, 0x04)\n      dup2\n      0x00\n      mstore\n      mstore(0x20, keccak256(0x00, 0x40))\n      dup1\n      0x00\n      mstore\n      keccak256(0x00, 0x40)\n      0x00\n      swap2\n      pop\n      swap2\n      pop\n      pop\n      sload\n      dup2\n      jump\t// out\n        /* \"CrowdFund.sol\":7015:7845  function donate(uint256 _campaignId)... */\n    tag_108:\n        /* \"CrowdFund.sol\":7103:7114  _campaignId */\n      dup1\n        /* \"CrowdFund.sol\":4467:4481  totalCampaigns */\n      sload(0x00)\n        /* \"CrowdFund.sol\":4453:4464  _campaignId */\n      dup2\n        /* \"CrowdFund.sol\":4453:4481  _campaignId < totalCampaigns */\n      lt\n        /* \"CrowdFund.sol\":4445:4509  require(_campaignId < totalCampaigns, \"Campaign does not exist\") */\n      tag_272\n      jumpi\n      mload(0x40)\n      0x08c379a000000000000000000000000000000000000000000000000000000000\n      dup2\n      mstore\n      0x04\n      add\n      tag_273\n      swap1\n      tag_135\n      jump\t// in\n    tag_273:\n      mload(0x40)\n      dup1\n      swap2\n      sub\n      swap1\n      revert\n    tag_272:\n        /* \"CrowdFund.sol\":7134:7145  _campaignId */\n      dup2\n        /* \"CrowdFund.sol\":4675:4684  campaigns */\n      0x01\n        /* \"CrowdFund.sol\":4675:4697  campaigns[_campaignId] */\n      0x00\n        /* \"CrowdFund.sol\":4685:4696  _campaignId */\n      dup3\n        /* \"CrowdFund.sol\":4675:4697  campaigns[_campaignId] */\n      dup2\n      mstore\n      0x20\n      add\n      swap1\n      dup2\n      mstore\n      0x20\n      add\n      0x00\n      keccak256\n        /* \"CrowdFund.sol\":4675:4709  campaigns[_campaignId].isCancelled */\n      0x07\n      add\n      0x01\n      swap1\n      sload\n      swap1\n      0x0100\n      exp\n      swap1\n      div\n      0xff\n      and\n        /* \"CrowdFund.sol\":4674:4709  !campaigns[_campaignId].isCancelled */\n      iszero\n        /* \"CrowdFund.sol\":4666:4735  require(!campaigns[_campaignId].isCancelled, \"Campaign is cancelled\") */\n      tag_275\n      jumpi\n      mload(0x40)\n      0x08c379a000000000000000000000000000000000000000000000000000000000\n      dup2\n      mstore\n      0x04\n      add\n      tag_276\n      swap1\n      tag_277\n      jump\t// in\n    tag_276:\n      mload(0x40)\n      dup1\n      swap2\n      sub\n      swap1\n      revert\n    tag_275:\n        /* \"CrowdFund.sol\":4772:4781  campaigns */\n      0x01\n        /* \"CrowdFund.sol\":4772:4794  campaigns[_campaignId] */\n      0x00\n        /* \"CrowdFund.sol\":4782:4793  _campaignId */\n      dup3\n        /* \"CrowdFund.sol\":4772:4794  campaigns[_campaignId] */\n      dup2\n      mstore\n      0x20\n      add\n      swap1\n      dup2\n      mstore\n      0x20\n      add\n      0x00\n      keccak256\n        /* \"CrowdFund.sol\":4772:4803  campaigns[_campaignId].deadline */\n      0x05\n      add\n      sload\n        /* \"CrowdFund.sol\":4754:4769  block.timestamp */\n      timestamp\n        /* \"CrowdFund.sol\":4754:4803  block.timestamp < campaigns[_campaignId].deadline */\n      lt\n        /* \"CrowdFund.sol\":4746:4836  require(block.timestamp < campaigns[_campaignId].deadline, \"Campaign deadline has passed\") */\n      tag_278\n      jumpi\n      mload(0x40)\n      0x08c379a000000000000000000000000000000000000000000000000000000000\n      dup2\n      mstore\n      0x04\n      add\n      tag_279\n      swap1\n      tag_280\n      jump\t// in\n    tag_279:\n      mload(0x40)\n      dup1\n      swap2\n      sub\n      swap1\n      revert\n    tag_278:\n        /* \"CrowdFund.sol\":7183:7184  0 */\n      0x00\n        /* \"CrowdFund.sol\":7171:7180  msg.value */\n      callvalue\n        /* \"CrowdFund.sol\":7171:7184  msg.value > 0 */\n      gt\n        /* \"CrowdFund.sol\":7163:7211  require(msg.value > 0, \"You must send some ETH\") */\n      tag_282\n      jumpi\n      mload(0x40)\n      0x08c379a000000000000000000000000000000000000000000000000000000000\n      dup2\n      mstore\n      0x04\n      add\n      tag_283\n      swap1\n      tag_284\n      jump\t// in\n    tag_283:\n      mload(0x40)\n      dup1\n      swap2\n      sub\n      swap1\n      revert\n    tag_282:\n        /* \"CrowdFund.sol\":7224:7242  Campaign storage c */\n      0x00\n        /* \"CrowdFund.sol\":7245:7254  campaigns */\n      0x01\n        /* \"CrowdFund.sol\":7245:7267  campaigns[_campaignId] */\n      0x00\n        /* \"CrowdFund.sol\":7255:7266  _campaignId */\n      dup6\n        /* \"CrowdFund.sol\":7245:7267  campaigns[_campaignId] */\n      dup2\n      mstore\n      0x20\n      add\n      swap1\n      dup2\n      mstore\n      0x20\n      add\n      0x00\n      keccak256\n        /* \"CrowdFund.sol\":7224:7267  Campaign storage c = campaigns[_campaignId] */\n      swap1\n      pop\n        /* \"CrowdFund.sol\":7378:7379  0 */\n      0x00\n        /* \"CrowdFund.sol\":7340:7349  donations */\n      0x04\n        /* \"CrowdFund.sol\":7340:7362  donations[_campaignId] */\n      0x00\n        /* \"CrowdFund.sol\":7350:7361  _campaignId */\n      dup7\n        /* \"CrowdFund.sol\":7340:7362  donations[_campaignId] */\n      dup2\n      mstore\n      0x20\n      add\n      swap1\n      dup2\n      mstore\n      0x20\n      add\n      0x00\n      keccak256\n        /* \"CrowdFund.sol\":7340:7374  donations[_campaignId][msg.sender] */\n      0x00\n        /* \"CrowdFund.sol\":7363:7373  msg.sender */\n      caller\n        /* \"CrowdFund.sol\":7340:7374  donations[_campaignId][msg.sender] */\n      0xffffffffffffffffffffffffffffffffffffffff\n      and\n      0xffffffffffffffffffffffffffffffffffffffff\n      and\n      dup2\n      mstore\n      0x20\n      add\n      swap1\n      dup2\n      mstore\n      0x20\n      add\n      0x00\n      keccak256\n      sload\n        /* \"CrowdFund.sol\":7340:7379  donations[_campaignId][msg.sender] == 0 */\n      sub\n        /* \"CrowdFund.sol\":7336:7444  if (donations[_campaignId][msg.sender] == 0) {... */\n      tag_285\n      jumpi\n        /* \"CrowdFund.sol\":7396:7402  donors */\n      0x05\n        /* \"CrowdFund.sol\":7396:7415  donors[_campaignId] */\n      0x00\n        /* \"CrowdFund.sol\":7403:7414  _campaignId */\n      dup6\n        /* \"CrowdFund.sol\":7396:7415  donors[_campaignId] */\n      dup2\n      mstore\n      0x20\n      add\n      swap1\n      dup2\n      mstore\n      0x20\n      add\n      0x00\n      keccak256\n        /* \"CrowdFund.sol\":7421:7431  msg.sender */\n      caller\n        /* \"CrowdFund.sol\":7396:7432  donors[_campaignId].push(msg.sender) */\n      swap1\n      dup1\n      0x01\n      dup2\n      sload\n      add\n      dup1\n      dup3\n      sstore\n      dup1\n      swap2\n      pop\n      pop\n      0x01\n      swap1\n      sub\n      swap1\n      0x00\n      mstore\n      keccak256(0x00, 0x20)\n      add\n      0x00\n      swap1\n      swap2\n      swap1\n      swap2\n      swap1\n      swap2\n      0x0100\n      exp\n      dup2\n      sload\n      dup2\n      0xffffffffffffffffffffffffffffffffffffffff\n      mul\n      not\n      and\n      swap1\n      dup4\n      0xffffffffffffffffffffffffffffffffffffffff\n      and\n      mul\n      or\n      swap1\n      sstore\n      pop\n        /* \"CrowdFund.sol\":7336:7444  if (donations[_campaignId][msg.sender] == 0) {... */\n    tag_285:\n        /* \"CrowdFund.sol\":7494:7503  msg.value */\n      callvalue\n        /* \"CrowdFund.sol\":7456:7465  donations */\n      0x04\n        /* \"CrowdFund.sol\":7456:7478  donations[_campaignId] */\n      0x00\n        /* \"CrowdFund.sol\":7466:7477  _campaignId */\n      dup7\n        /* \"CrowdFund.sol\":7456:7478  donations[_campaignId] */\n      dup2\n      mstore\n      0x20\n      add\n      swap1\n      dup2\n      mstore\n      0x20\n      add\n      0x00\n      keccak256\n        /* \"CrowdFund.sol\":7456:7490  donations[_campaignId][msg.sender] */\n      0x00\n        /* \"CrowdFund.sol\":7479:7489  msg.sender */\n      caller\n        /* \"CrowdFund.sol\":7456:7490  donations[_campaignId][msg.sender] */\n      0xffffffffffffffffffffffffffffffffffffffff\n      and\n      0xffffffffffffffffffffffffffffffffffffffff\n      and\n      dup2\n      mstore\n      0x20\n      add\n      swap1\n      dup2\n      mstore\n      0x20\n      add\n      0x00\n      keccak256\n      0x00\n        /* \"CrowdFund.sol\":7456:7503  donations[_campaignId][msg.sender] += msg.value */\n      dup3\n      dup3\n      sload\n      tag_287\n      swap2\n      swap1\n      tag_264\n      jump\t// in\n    tag_287:\n      swap3\n      pop\n      pop\n      dup2\n      swap1\n      sstore\n      pop\n        /* \"CrowdFund.sol\":7531:7540  msg.value */\n      callvalue\n        /* \"CrowdFund.sol\":7514:7515  c */\n      dup2\n        /* \"CrowdFund.sol\":7514:7527  c.totalRaised */\n      0x06\n      add\n      0x00\n        /* \"CrowdFund.sol\":7514:7540  c.totalRaised += msg.value */\n      dup3\n      dup3\n      sload\n      tag_288\n      swap2\n      swap1\n      tag_264\n      jump\t// in\n    tag_288:\n      swap3\n      pop\n      pop\n      dup2\n      swap1\n      sstore\n      pop\n        /* \"CrowdFund.sol\":7575:7586  _campaignId */\n      dup4\n        /* \"CrowdFund.sol\":7558:7625  DonationReceived(_campaignId, msg.sender, msg.value, c.totalRaised) */\n      0x3dbea1b4ce5f95137fdcac9b1d685825c3d70ace830df1ca5a181d3887add410\n        /* \"CrowdFund.sol\":7588:7598  msg.sender */\n      caller\n        /* \"CrowdFund.sol\":7600:7609  msg.value */\n      callvalue\n        /* \"CrowdFund.sol\":7611:7612  c */\n      dup5\n        /* \"CrowdFund.sol\":7611:7624  c.totalRaised */\n      0x06\n      add\n      sload\n        /* \"CrowdFund.sol\":7558:7625  DonationReceived(_campaignId, msg.sender, msg.value, c.totalRaised) */\n      mload(0x40)\n      tag_289\n      swap4\n      swap3\n      swap2\n      swap1\n      tag_290\n      jump\t// in\n    tag_289:\n      mload(0x40)\n      dup1\n      swap2\n      sub\n      swap1\n      log2\n        /* \"CrowdFund.sol\":7684:7685  c */\n      dup1\n        /* \"CrowdFund.sol\":7684:7697  c.goalReached */\n      0x07\n      add\n      0x00\n      swap1\n      sload\n      swap1\n      0x0100\n      exp\n      swap1\n      div\n      0xff\n      and\n        /* \"CrowdFund.sol\":7683:7697  !c.goalReached */\n      iszero\n        /* \"CrowdFund.sol\":7683:7730  !c.goalReached && c.totalRaised >= c.goalAmount */\n      dup1\n      iszero\n      tag_291\n      jumpi\n      pop\n        /* \"CrowdFund.sol\":7718:7719  c */\n      dup1\n        /* \"CrowdFund.sol\":7718:7730  c.goalAmount */\n      0x04\n      add\n      sload\n        /* \"CrowdFund.sol\":7701:7702  c */\n      dup2\n        /* \"CrowdFund.sol\":7701:7714  c.totalRaised */\n      0x06\n      add\n      sload\n        /* \"CrowdFund.sol\":7701:7730  c.totalRaised >= c.goalAmount */\n      lt\n      iszero\n        /* \"CrowdFund.sol\":7683:7730  !c.goalReached && c.totalRaised >= c.goalAmount */\n    tag_291:\n        /* \"CrowdFund.sol\":7679:7838  if (!c.goalReached && c.totalRaised >= c.goalAmount) {... */\n      iszero\n      tag_292\n      jumpi\n        /* \"CrowdFund.sol\":7763:7767  true */\n      0x01\n        /* \"CrowdFund.sol\":7747:7748  c */\n      dup2\n        /* \"CrowdFund.sol\":7747:7760  c.goalReached */\n      0x07\n      add\n      0x00\n        /* \"CrowdFund.sol\":7747:7767  c.goalReached = true */\n      0x0100\n      exp\n      dup2\n      sload\n      dup2\n      0xff\n      mul\n      not\n      and\n      swap1\n      dup4\n      iszero\n      iszero\n      mul\n      or\n      swap1\n      sstore\n      pop\n        /* \"CrowdFund.sol\":7799:7810  _campaignId */\n      dup4\n        /* \"CrowdFund.sol\":7787:7826  GoalReached(_campaignId, c.totalRaised) */\n      0x85b3ed4e45559c5f41fb220aa4ac86a440dfc741f219089de694242940aaa09c\n        /* \"CrowdFund.sol\":7812:7813  c */\n      dup3\n        /* \"CrowdFund.sol\":7812:7825  c.totalRaised */\n      0x06\n      add\n      sload\n        /* \"CrowdFund.sol\":7787:7826  GoalReached(_campaignId, c.totalRaised) */\n      mload(0x40)\n      tag_293\n      swap2\n      swap1\n      tag_26\n      jump\t// in\n    tag_293:\n      mload(0x40)\n      dup1\n      swap2\n      sub\n      swap1\n      log2\n        /* \"CrowdFund.sol\":7679:7838  if (!c.goalReached && c.totalRaised >= c.goalAmount) {... */\n    tag_292:\n        /* \"CrowdFund.sol\":7152:7845  {... */\n      pop\n        /* \"CrowdFund.sol\":4520:4521  _ */\n      pop\n        /* \"CrowdFund.sol\":7015:7845  function donate(uint256 _campaignId)... */\n      pop\n      pop\n      jump\t// out\n        /* \"CrowdFund.sol\":13167:13335  function getMyDonation(uint256 _campaignId)... */\n    tag_112:\n        /* \"CrowdFund.sol\":13261:13268  uint256 */\n      0x00\n        /* \"CrowdFund.sol\":13293:13302  donations */\n      0x04\n        /* \"CrowdFund.sol\":13293:13315  donations[_campaignId] */\n      0x00\n        /* \"CrowdFund.sol\":13303:13314  _campaignId */\n      dup4\n        /* \"CrowdFund.sol\":13293:13315  donations[_campaignId] */\n      dup2\n      mstore\n      0x20\n      add\n      swap1\n      dup2\n      mstore\n      0x20\n      add\n      0x00\n      keccak256\n        /* \"CrowdFund.sol\":13293:13327  donations[_campaignId][msg.sender] */\n      0x00\n        /* \"CrowdFund.sol\":13316:13326  msg.sender */\n      caller\n        /* \"CrowdFund.sol\":13293:13327  donations[_campaignId][msg.sender] */\n      0xffffffffffffffffffffffffffffffffffffffff\n      and\n      0xffffffffffffffffffffffffffffffffffffffff\n      and\n      dup2\n      mstore\n      0x20\n      add\n      swap1\n      dup2\n      mstore\n      0x20\n      add\n      0x00\n      keccak256\n      sload\n        /* \"CrowdFund.sol\":13286:13327  return donations[_campaignId][msg.sender] */\n      swap1\n      pop\n        /* \"CrowdFund.sol\":13167:13335  function getMyDonation(uint256 _campaignId)... */\n      swap2\n      swap1\n      pop\n      jump\t// out\n    tag_131:\n      mload(0x40)\n      dup1\n      0x0120\n      add\n      0x40\n      mstore\n      dup1\n      0x00\n      dup2\n      mstore\n      0x20\n      add\n      and(0xffffffffffffffffffffffffffffffffffffffff, 0x00)\n      dup2\n      mstore\n      0x20\n      add\n      0x60\n      dup2\n      mstore\n      0x20\n      add\n      0x60\n      dup2\n      mstore\n      0x20\n      add\n      0x00\n      dup2\n      mstore\n      0x20\n      add\n      0x00\n      dup2\n      mstore\n      0x20\n      add\n      0x00\n      dup2\n      mstore\n      0x20\n      add\n      iszero(iszero(0x00))\n      dup2\n      mstore\n      0x20\n      add\n      iszero(iszero(0x00))\n      dup2\n      mstore\n      pop\n      swap1\n      jump\t// out\n    tag_212:\n      mload(0x40)\n      dup1\n      0xe0\n      add\n      0x40\n      mstore\n      dup1\n      0x00\n      dup2\n      mstore\n      0x20\n      add\n      0x60\n      dup2\n      mstore\n      0x20\n      add\n      0x00\n      dup2\n      mstore\n      0x20\n      add\n      iszero(iszero(0x00))\n      dup2\n      mstore\n      0x20\n      add\n      iszero(iszero(0x00))\n      dup2\n      mstore\n      0x20\n      add\n      0x00\n      dup2\n      mstore\n      0x20\n      add\n      0x00\n      dup2\n      mstore\n      pop\n      swap1\n      jump\t// out\n        /* \"#utility.yul\":7:84   */\n    tag_295:\n        /* \"#utility.yul\":44:51   */\n      0x00\n        /* \"#utility.yul\":73:78   */\n      dup2\n        /* \"#utility.yul\":62:78   */\n      swap1\n      pop\n        /* \"#utility.yul\":7:84   */\n      swap2\n      swap1\n      pop\n      jump\t// out\n        /* \"#utility.yul\":90:208   */\n    tag_296:\n        /* \"#utility.yul\":177:201   */\n      tag_394\n        /* \"#utility.yul\":195:200   */\n      dup2\n        /* \"#utility.yul\":177:201   */\n      tag_295\n      jump\t// in\n    tag_394:\n        /* \"#utility.yul\":172:175   */\n      dup3\n        /* \"#utility.yul\":165:202   */\n      mstore\n        /* \"#utility.yul\":90:208   */\n      pop\n      pop\n      jump\t// out\n        /* \"#utility.yul\":214:436   */\n    tag_26:\n        /* \"#utility.yul\":307:311   */\n      0x00\n        /* \"#utility.yul\":345:347   */\n      0x20\n        /* \"#utility.yul\":334:343   */\n      dup3\n        /* \"#utility.yul\":330:348   */\n      add\n        /* \"#utility.yul\":322:348   */\n      swap1\n      pop\n        /* \"#utility.yul\":358:429   */\n      tag_396\n        /* \"#utility.yul\":426:427   */\n      0x00\n        /* \"#utility.yul\":415:424   */\n      dup4\n        /* \"#utility.yul\":411:428   */\n      add\n        /* \"#utility.yul\":402:408   */\n      dup5\n        /* \"#utility.yul\":358:429   */\n      tag_296\n      jump\t// in\n    tag_396:\n        /* \"#utility.yul\":214:436   */\n      swap3\n      swap2\n      pop\n      pop\n      jump\t// out\n        /* \"#utility.yul\":442:517   */\n    tag_297:\n        /* \"#utility.yul\":475:481   */\n      0x00\n        /* \"#utility.yul\":508:510   */\n      0x40\n        /* \"#utility.yul\":502:511   */\n      mload\n        /* \"#utility.yul\":492:511   */\n      swap1\n      pop\n        /* \"#utility.yul\":442:517   */\n      swap1\n      jump\t// out\n        /* \"#utility.yul\":523:640   */\n    tag_298:\n        /* \"#utility.yul\":632:633   */\n      0x00\n        /* \"#utility.yul\":629:630   */\n      0x00\n        /* \"#utility.yul\":622:634   */\n      revert\n        /* \"#utility.yul\":646:763   */\n    tag_299:\n        /* \"#utility.yul\":755:756   */\n      0x00\n        /* \"#utility.yul\":752:753   */\n      0x00\n        /* \"#utility.yul\":745:757   */\n      revert\n        /* \"#utility.yul\":769:891   */\n    tag_300:\n        /* \"#utility.yul\":842:866   */\n      tag_401\n        /* \"#utility.yul\":860:865   */\n      dup2\n        /* \"#utility.yul\":842:866   */\n      tag_295\n      jump\t// in\n    tag_401:\n        /* \"#utility.yul\":835:840   */\n      dup2\n        /* \"#utility.yul\":832:867   */\n      eq\n        /* \"#utility.yul\":822:885   */\n      tag_402\n      jumpi\n        /* \"#utility.yul\":881:882   */\n      0x00\n        /* \"#utility.yul\":878:879   */\n      0x00\n        /* \"#utility.yul\":871:883   */\n      revert\n        /* \"#utility.yul\":822:885   */\n    tag_402:\n        /* \"#utility.yul\":769:891   */\n      pop\n      jump\t// out\n        /* \"#utility.yul\":897:1036   */\n    tag_301:\n        /* \"#utility.yul\":943:948   */\n      0x00\n        /* \"#utility.yul\":981:987   */\n      dup2\n        /* \"#utility.yul\":968:988   */\n      calldataload\n        /* \"#utility.yul\":959:988   */\n      swap1\n      pop\n        /* \"#utility.yul\":997:1030   */\n      tag_404\n        /* \"#utility.yul\":1024:1029   */\n      dup2\n        /* \"#utility.yul\":997:1030   */\n      tag_300\n      jump\t// in\n    tag_404:\n        /* \"#utility.yul\":897:1036   */\n      swap3\n      swap2\n      pop\n      pop\n      jump\t// out\n        /* \"#utility.yul\":1042:1168   */\n    tag_302:\n        /* \"#utility.yul\":1079:1086   */\n      0x00\n        /* \"#utility.yul\":1119:1161   */\n      0xffffffffffffffffffffffffffffffffffffffff\n        /* \"#utility.yul\":1112:1117   */\n      dup3\n        /* \"#utility.yul\":1108:1162   */\n      and\n        /* \"#utility.yul\":1097:1162   */\n      swap1\n      pop\n        /* \"#utility.yul\":1042:1168   */\n      swap2\n      swap1\n      pop\n      jump\t// out\n        /* \"#utility.yul\":1174:1270   */\n    tag_303:\n        /* \"#utility.yul\":1211:1218   */\n      0x00\n        /* \"#utility.yul\":1240:1264   */\n      tag_407\n        /* \"#utility.yul\":1258:1263   */\n      dup3\n        /* \"#utility.yul\":1240:1264   */\n      tag_302\n      jump\t// in\n    tag_407:\n        /* \"#utility.yul\":1229:1264   */\n      swap1\n      pop\n        /* \"#utility.yul\":1174:1270   */\n      swap2\n      swap1\n      pop\n      jump\t// out\n        /* \"#utility.yul\":1276:1398   */\n    tag_304:\n        /* \"#utility.yul\":1349:1373   */\n      tag_409\n        /* \"#utility.yul\":1367:1372   */\n      dup2\n        /* \"#utility.yul\":1349:1373   */\n      tag_303\n      jump\t// in\n    tag_409:\n        /* \"#utility.yul\":1342:1347   */\n      dup2\n        /* \"#utility.yul\":1339:1374   */\n      eq\n        /* \"#utility.yul\":1329:1392   */\n      tag_410\n      jumpi\n        /* \"#utility.yul\":1388:1389   */\n      0x00\n        /* \"#utility.yul\":1385:1386   */\n      0x00\n        /* \"#utility.yul\":1378:1390   */\n      revert\n        /* \"#utility.yul\":1329:1392   */\n    tag_410:\n        /* \"#utility.yul\":1276:1398   */\n      pop\n      jump\t// out\n        /* \"#utility.yul\":1404:1543   */\n    tag_305:\n        /* \"#utility.yul\":1450:1455   */\n      0x00\n        /* \"#utility.yul\":1488:1494   */\n      dup2\n        /* \"#utility.yul\":1475:1495   */\n      calldataload\n        /* \"#utility.yul\":1466:1495   */\n      swap1\n      pop\n        /* \"#utility.yul\":1504:1537   */\n      tag_412\n        /* \"#utility.yul\":1531:1536   */\n      dup2\n        /* \"#utility.yul\":1504:1537   */\n      tag_304\n      jump\t// in\n    tag_412:\n        /* \"#utility.yul\":1404:1543   */\n      swap3\n      swap2\n      pop\n      pop\n      jump\t// out\n        /* \"#utility.yul\":1549:2168   */\n    tag_30:\n        /* \"#utility.yul\":1626:1632   */\n      0x00\n        /* \"#utility.yul\":1634:1640   */\n      0x00\n        /* \"#utility.yul\":1642:1648   */\n      0x00\n        /* \"#utility.yul\":1691:1693   */\n      0x60\n        /* \"#utility.yul\":1679:1688   */\n      dup5\n        /* \"#utility.yul\":1670:1677   */\n      dup7\n        /* \"#utility.yul\":1666:1689   */\n      sub\n        /* \"#utility.yul\":1662:1694   */\n      slt\n        /* \"#utility.yul\":1659:1778   */\n      iszero\n      tag_414\n      jumpi\n        /* \"#utility.yul\":1697:1776   */\n      tag_415\n      tag_298\n      jump\t// in\n    tag_415:\n        /* \"#utility.yul\":1659:1778   */\n    tag_414:\n        /* \"#utility.yul\":1817:1818   */\n      0x00\n        /* \"#utility.yul\":1842:1895   */\n      tag_416\n        /* \"#utility.yul\":1887:1894   */\n      dup7\n        /* \"#utility.yul\":1878:1884   */\n      dup3\n        /* \"#utility.yul\":1867:1876   */\n      dup8\n        /* \"#utility.yul\":1863:1885   */\n      add\n        /* \"#utility.yul\":1842:1895   */\n      tag_301\n      jump\t// in\n    tag_416:\n        /* \"#utility.yul\":1832:1895   */\n      swap4\n      pop\n        /* \"#utility.yul\":1788:1905   */\n      pop\n        /* \"#utility.yul\":1944:1946   */\n      0x20\n        /* \"#utility.yul\":1970:2023   */\n      tag_417\n        /* \"#utility.yul\":2015:2022   */\n      dup7\n        /* \"#utility.yul\":2006:2012   */\n      dup3\n        /* \"#utility.yul\":1995:2004   */\n      dup8\n        /* \"#utility.yul\":1991:2013   */\n      add\n        /* \"#utility.yul\":1970:2023   */\n      tag_301\n      jump\t// in\n    tag_417:\n        /* \"#utility.yul\":1960:2023   */\n      swap3\n      pop\n        /* \"#utility.yul\":1915:2033   */\n      pop\n        /* \"#utility.yul\":2072:2074   */\n      0x40\n        /* \"#utility.yul\":2098:2151   */\n      tag_418\n        /* \"#utility.yul\":2143:2150   */\n      dup7\n        /* \"#utility.yul\":2134:2140   */\n      dup3\n        /* \"#utility.yul\":2123:2132   */\n      dup8\n        /* \"#utility.yul\":2119:2141   */\n      add\n        /* \"#utility.yul\":2098:2151   */\n      tag_305\n      jump\t// in\n    tag_418:\n        /* \"#utility.yul\":2088:2151   */\n      swap2\n      pop\n        /* \"#utility.yul\":2043:2161   */\n      pop\n        /* \"#utility.yul\":1549:2168   */\n      swap3\n      pop\n      swap3\n      pop\n      swap3\n      jump\t// out\n        /* \"#utility.yul\":2174:2264   */\n    tag_306:\n        /* \"#utility.yul\":2208:2215   */\n      0x00\n        /* \"#utility.yul\":2251:2256   */\n      dup2\n        /* \"#utility.yul\":2244:2257   */\n      iszero\n        /* \"#utility.yul\":2237:2258   */\n      iszero\n        /* \"#utility.yul\":2226:2258   */\n      swap1\n      pop\n        /* \"#utility.yul\":2174:2264   */\n      swap2\n      swap1\n      pop\n      jump\t// out\n        /* \"#utility.yul\":2270:2379   */\n    tag_307:\n        /* \"#utility.yul\":2351:2372   */\n      tag_421\n        /* \"#utility.yul\":2366:2371   */\n      dup2\n        /* \"#utility.yul\":2351:2372   */\n      tag_306\n      jump\t// in\n    tag_421:\n        /* \"#utility.yul\":2346:2349   */\n      dup3\n        /* \"#utility.yul\":2339:2373   */\n      mstore\n        /* \"#utility.yul\":2270:2379   */\n      pop\n      pop\n      jump\t// out\n        /* \"#utility.yul\":2385:2595   */\n    tag_33:\n        /* \"#utility.yul\":2472:2476   */\n      0x00\n        /* \"#utility.yul\":2510:2512   */\n      0x20\n        /* \"#utility.yul\":2499:2508   */\n      dup3\n        /* \"#utility.yul\":2495:2513   */\n      add\n        /* \"#utility.yul\":2487:2513   */\n      swap1\n      pop\n        /* \"#utility.yul\":2523:2588   */\n      tag_423\n        /* \"#utility.yul\":2585:2586   */\n      0x00\n        /* \"#utility.yul\":2574:2583   */\n      dup4\n        /* \"#utility.yul\":2570:2587   */\n      add\n        /* \"#utility.yul\":2561:2567   */\n      dup5\n        /* \"#utility.yul\":2523:2588   */\n      tag_307\n      jump\t// in\n    tag_423:\n        /* \"#utility.yul\":2385:2595   */\n      swap3\n      swap2\n      pop\n      pop\n      jump\t// out\n        /* \"#utility.yul\":2601:2930   */\n    tag_37:\n        /* \"#utility.yul\":2660:2666   */\n      0x00\n        /* \"#utility.yul\":2709:2711   */\n      0x20\n        /* \"#utility.yul\":2697:2706   */\n      dup3\n        /* \"#utility.yul\":2688:2695   */\n      dup5\n        /* \"#utility.yul\":2684:2707   */\n      sub\n        /* \"#utility.yul\":2680:2712   */\n      slt\n        /* \"#utility.yul\":2677:2796   */\n      iszero\n      tag_425\n      jumpi\n        /* \"#utility.yul\":2715:2794   */\n      tag_426\n      tag_298\n      jump\t// in\n    tag_426:\n        /* \"#utility.yul\":2677:2796   */\n    tag_425:\n        /* \"#utility.yul\":2835:2836   */\n      0x00\n        /* \"#utility.yul\":2860:2913   */\n      tag_427\n        /* \"#utility.yul\":2905:2912   */\n      dup5\n        /* \"#utility.yul\":2896:2902   */\n      dup3\n        /* \"#utility.yul\":2885:2894   */\n      dup6\n        /* \"#utility.yul\":2881:2903   */\n      add\n        /* \"#utility.yul\":2860:2913   */\n      tag_301\n      jump\t// in\n    tag_427:\n        /* \"#utility.yul\":2850:2913   */\n      swap2\n      pop\n        /* \"#utility.yul\":2806:2923   */\n      pop\n        /* \"#utility.yul\":2601:2930   */\n      swap3\n      swap2\n      pop\n      pop\n      jump\t// out\n        /* \"#utility.yul\":2936:3040   */\n    tag_308:\n        /* \"#utility.yul\":2981:2988   */\n      0x00\n        /* \"#utility.yul\":3010:3034   */\n      tag_429\n        /* \"#utility.yul\":3028:3033   */\n      dup3\n        /* \"#utility.yul\":3010:3034   */\n      tag_302\n      jump\t// in\n    tag_429:\n        /* \"#utility.yul\":2999:3034   */\n      swap1\n      pop\n        /* \"#utility.yul\":2936:3040   */\n      swap2\n      swap1\n      pop\n      jump\t// out\n        /* \"#utility.yul\":3046:3188   */\n    tag_309:\n        /* \"#utility.yul\":3149:3181   */\n      tag_431\n        /* \"#utility.yul\":3175:3180   */\n      dup2\n        /* \"#utility.yul\":3149:3181   */\n      tag_308\n      jump\t// in\n    tag_431:\n        /* \"#utility.yul\":3144:3147   */\n      dup3\n        /* \"#utility.yul\":3137:3182   */\n      mstore\n        /* \"#utility.yul\":3046:3188   */\n      pop\n      pop\n      jump\t// out\n        /* \"#utility.yul\":3194:3293   */\n    tag_310:\n        /* \"#utility.yul\":3246:3252   */\n      0x00\n        /* \"#utility.yul\":3280:3285   */\n      dup2\n        /* \"#utility.yul\":3274:3286   */\n      mload\n        /* \"#utility.yul\":3264:3286   */\n      swap1\n      pop\n        /* \"#utility.yul\":3194:3293   */\n      swap2\n      swap1\n      pop\n      jump\t// out\n        /* \"#utility.yul\":3299:3468   */\n    tag_311:\n        /* \"#utility.yul\":3383:3394   */\n      0x00\n        /* \"#utility.yul\":3417:3423   */\n      dup3\n        /* \"#utility.yul\":3412:3415   */\n      dup3\n        /* \"#utility.yul\":3405:3424   */\n      mstore\n        /* \"#utility.yul\":3457:3461   */\n      0x20\n        /* \"#utility.yul\":3452:3455   */\n      dup3\n        /* \"#utility.yul\":3448:3462   */\n      add\n        /* \"#utility.yul\":3433:3462   */\n      swap1\n      pop\n        /* \"#utility.yul\":3299:3468   */\n      swap3\n      swap2\n      pop\n      pop\n      jump\t// out\n        /* \"#utility.yul\":3474:3613   */\n    tag_312:\n        /* \"#utility.yul\":3563:3569   */\n      dup3\n        /* \"#utility.yul\":3558:3561   */\n      dup2\n        /* \"#utility.yul\":3553:3556   */\n      dup4\n        /* \"#utility.yul\":3547:3570   */\n      mcopy\n        /* \"#utility.yul\":3604:3605   */\n      0x00\n        /* \"#utility.yul\":3595:3601   */\n      dup4\n        /* \"#utility.yul\":3590:3593   */\n      dup4\n        /* \"#utility.yul\":3586:3602   */\n      add\n        /* \"#utility.yul\":3579:3606   */\n      mstore\n        /* \"#utility.yul\":3474:3613   */\n      pop\n      pop\n      pop\n      jump\t// out\n        /* \"#utility.yul\":3619:3721   */\n    tag_313:\n        /* \"#utility.yul\":3660:3666   */\n      0x00\n        /* \"#utility.yul\":3711:3713   */\n      0x1f\n        /* \"#utility.yul\":3707:3714   */\n      not\n        /* \"#utility.yul\":3702:3704   */\n      0x1f\n        /* \"#utility.yul\":3695:3700   */\n      dup4\n        /* \"#utility.yul\":3691:3705   */\n      add\n        /* \"#utility.yul\":3687:3715   */\n      and\n        /* \"#utility.yul\":3677:3715   */\n      swap1\n      pop\n        /* \"#utility.yul\":3619:3721   */\n      swap2\n      swap1\n      pop\n      jump\t// out\n        /* \"#utility.yul\":3727:4104   */\n    tag_314:\n        /* \"#utility.yul\":3815:3818   */\n      0x00\n        /* \"#utility.yul\":3843:3882   */\n      tag_437\n        /* \"#utility.yul\":3876:3881   */\n      dup3\n        /* \"#utility.yul\":3843:3882   */\n      tag_310\n      jump\t// in\n    tag_437:\n        /* \"#utility.yul\":3898:3969   */\n      tag_438\n        /* \"#utility.yul\":3962:3968   */\n      dup2\n        /* \"#utility.yul\":3957:3960   */\n      dup6\n        /* \"#utility.yul\":3898:3969   */\n      tag_311\n      jump\t// in\n    tag_438:\n        /* \"#utility.yul\":3891:3969   */\n      swap4\n      pop\n        /* \"#utility.yul\":3978:4043   */\n      tag_439\n        /* \"#utility.yul\":4036:4042   */\n      dup2\n        /* \"#utility.yul\":4031:4034   */\n      dup6\n        /* \"#utility.yul\":4024:4028   */\n      0x20\n        /* \"#utility.yul\":4017:4022   */\n      dup7\n        /* \"#utility.yul\":4013:4029   */\n      add\n        /* \"#utility.yul\":3978:4043   */\n      tag_312\n      jump\t// in\n    tag_439:\n        /* \"#utility.yul\":4068:4097   */\n      tag_440\n        /* \"#utility.yul\":4090:4096   */\n      dup2\n        /* \"#utility.yul\":4068:4097   */\n      tag_313\n      jump\t// in\n    tag_440:\n        /* \"#utility.yul\":4063:4066   */\n      dup5\n        /* \"#utility.yul\":4059:4098   */\n      add\n        /* \"#utility.yul\":4052:4098   */\n      swap2\n      pop\n        /* \"#utility.yul\":3819:4104   */\n      pop\n        /* \"#utility.yul\":3727:4104   */\n      swap3\n      swap2\n      pop\n      pop\n      jump\t// out\n        /* \"#utility.yul\":4110:5408   */\n    tag_40:\n        /* \"#utility.yul\":4471:4475   */\n      0x00\n        /* \"#utility.yul\":4509:4512   */\n      0x0120\n        /* \"#utility.yul\":4498:4507   */\n      dup3\n        /* \"#utility.yul\":4494:4513   */\n      add\n        /* \"#utility.yul\":4486:4513   */\n      swap1\n      pop\n        /* \"#utility.yul\":4523:4594   */\n      tag_442\n        /* \"#utility.yul\":4591:4592   */\n      0x00\n        /* \"#utility.yul\":4580:4589   */\n      dup4\n        /* \"#utility.yul\":4576:4593   */\n      add\n        /* \"#utility.yul\":4567:4573   */\n      dup13\n        /* \"#utility.yul\":4523:4594   */\n      tag_296\n      jump\t// in\n    tag_442:\n        /* \"#utility.yul\":4604:4692   */\n      tag_443\n        /* \"#utility.yul\":4688:4690   */\n      0x20\n        /* \"#utility.yul\":4677:4686   */\n      dup4\n        /* \"#utility.yul\":4673:4691   */\n      add\n        /* \"#utility.yul\":4664:4670   */\n      dup12\n        /* \"#utility.yul\":4604:4692   */\n      tag_309\n      jump\t// in\n    tag_443:\n        /* \"#utility.yul\":4739:4748   */\n      dup2\n        /* \"#utility.yul\":4733:4737   */\n      dup2\n        /* \"#utility.yul\":4729:4749   */\n      sub\n        /* \"#utility.yul\":4724:4726   */\n      0x40\n        /* \"#utility.yul\":4713:4722   */\n      dup4\n        /* \"#utility.yul\":4709:4727   */\n      add\n        /* \"#utility.yul\":4702:4750   */\n      mstore\n        /* \"#utility.yul\":4767:4845   */\n      tag_444\n        /* \"#utility.yul\":4840:4844   */\n      dup2\n        /* \"#utility.yul\":4831:4837   */\n      dup11\n        /* \"#utility.yul\":4767:4845   */\n      tag_314\n      jump\t// in\n    tag_444:\n        /* \"#utility.yul\":4759:4845   */\n      swap1\n      pop\n        /* \"#utility.yul\":4892:4901   */\n      dup2\n        /* \"#utility.yul\":4886:4890   */\n      dup2\n        /* \"#utility.yul\":4882:4902   */\n      sub\n        /* \"#utility.yul\":4877:4879   */\n      0x60\n        /* \"#utility.yul\":4866:4875   */\n      dup4\n        /* \"#utility.yul\":4862:4880   */\n      add\n        /* \"#utility.yul\":4855:4903   */\n      mstore\n        /* \"#utility.yul\":4920:4998   */\n      tag_445\n        /* \"#utility.yul\":4993:4997   */\n      dup2\n        /* \"#utility.yul\":4984:4990   */\n      dup10\n        /* \"#utility.yul\":4920:4998   */\n      tag_314\n      jump\t// in\n    tag_445:\n        /* \"#utility.yul\":4912:4998   */\n      swap1\n      pop\n        /* \"#utility.yul\":5008:5081   */\n      tag_446\n        /* \"#utility.yul\":5076:5079   */\n      0x80\n        /* \"#utility.yul\":5065:5074   */\n      dup4\n        /* \"#utility.yul\":5061:5080   */\n      add\n        /* \"#utility.yul\":5052:5058   */\n      dup9\n        /* \"#utility.yul\":5008:5081   */\n      tag_296\n      jump\t// in\n    tag_446:\n        /* \"#utility.yul\":5091:5164   */\n      tag_447\n        /* \"#utility.yul\":5159:5162   */\n      0xa0\n        /* \"#utility.yul\":5148:5157   */\n      dup4\n        /* \"#utility.yul\":5144:5163   */\n      add\n        /* \"#utility.yul\":5135:5141   */\n      dup8\n        /* \"#utility.yul\":5091:5164   */\n      tag_296\n      jump\t// in\n    tag_447:\n        /* \"#utility.yul\":5174:5247   */\n      tag_448\n        /* \"#utility.yul\":5242:5245   */\n      0xc0\n        /* \"#utility.yul\":5231:5240   */\n      dup4\n        /* \"#utility.yul\":5227:5246   */\n      add\n        /* \"#utility.yul\":5218:5224   */\n      dup7\n        /* \"#utility.yul\":5174:5247   */\n      tag_296\n      jump\t// in\n    tag_448:\n        /* \"#utility.yul\":5257:5324   */\n      tag_449\n        /* \"#utility.yul\":5319:5322   */\n      0xe0\n        /* \"#utility.yul\":5308:5317   */\n      dup4\n        /* \"#utility.yul\":5304:5323   */\n      add\n        /* \"#utility.yul\":5295:5301   */\n      dup6\n        /* \"#utility.yul\":5257:5324   */\n      tag_307\n      jump\t// in\n    tag_449:\n        /* \"#utility.yul\":5334:5401   */\n      tag_450\n        /* \"#utility.yul\":5396:5399   */\n      0x0100\n        /* \"#utility.yul\":5385:5394   */\n      dup4\n        /* \"#utility.yul\":5381:5400   */\n      add\n        /* \"#utility.yul\":5372:5378   */\n      dup5\n        /* \"#utility.yul\":5334:5401   */\n      tag_307\n      jump\t// in\n    tag_450:\n        /* \"#utility.yul\":4110:5408   */\n      swap11\n      swap10\n      pop\n      pop\n      pop\n      pop\n      pop\n      pop\n      pop\n      pop\n      pop\n      pop\n      jump\t// out\n        /* \"#utility.yul\":5414:5888   */\n    tag_44:\n        /* \"#utility.yul\":5482:5488   */\n      0x00\n        /* \"#utility.yul\":5490:5496   */\n      0x00\n        /* \"#utility.yul\":5539:5541   */\n      0x40\n        /* \"#utility.yul\":5527:5536   */\n      dup4\n        /* \"#utility.yul\":5518:5525   */\n      dup6\n        /* \"#utility.yul\":5514:5537   */\n      sub\n        /* \"#utility.yul\":5510:5542   */\n      slt\n        /* \"#utility.yul\":5507:5626   */\n      iszero\n      tag_452\n      jumpi\n        /* \"#utility.yul\":5545:5624   */\n      tag_453\n      tag_298\n      jump\t// in\n    tag_453:\n        /* \"#utility.yul\":5507:5626   */\n    tag_452:\n        /* \"#utility.yul\":5665:5666   */\n      0x00\n        /* \"#utility.yul\":5690:5743   */\n      tag_454\n        /* \"#utility.yul\":5735:5742   */\n      dup6\n        /* \"#utility.yul\":5726:5732   */\n      dup3\n        /* \"#utility.yul\":5715:5724   */\n      dup7\n        /* \"#utility.yul\":5711:5733   */\n      add\n        /* \"#utility.yul\":5690:5743   */\n      tag_301\n      jump\t// in\n    tag_454:\n        /* \"#utility.yul\":5680:5743   */\n      swap3\n      pop\n        /* \"#utility.yul\":5636:5753   */\n      pop\n        /* \"#utility.yul\":5792:5794   */\n      0x20\n        /* \"#utility.yul\":5818:5871   */\n      tag_455\n        /* \"#utility.yul\":5863:5870   */\n      dup6\n        /* \"#utility.yul\":5854:5860   */\n      dup3\n        /* \"#utility.yul\":5843:5852   */\n      dup7\n        /* \"#utility.yul\":5839:5861   */\n      add\n        /* \"#utility.yul\":5818:5871   */\n      tag_301\n      jump\t// in\n    tag_455:\n        /* \"#utility.yul\":5808:5871   */\n      swap2\n      pop\n        /* \"#utility.yul\":5763:5881   */\n      pop\n        /* \"#utility.yul\":5414:5888   */\n      swap3\n      pop\n      swap3\n      swap1\n      pop\n      jump\t// out\n        /* \"#utility.yul\":5894:6847   */\n    tag_47:\n        /* \"#utility.yul\":6163:6167   */\n      0x00\n        /* \"#utility.yul\":6201:6204   */\n      0xe0\n        /* \"#utility.yul\":6190:6199   */\n      dup3\n        /* \"#utility.yul\":6186:6205   */\n      add\n        /* \"#utility.yul\":6178:6205   */\n      swap1\n      pop\n        /* \"#utility.yul\":6215:6286   */\n      tag_457\n        /* \"#utility.yul\":6283:6284   */\n      0x00\n        /* \"#utility.yul\":6272:6281   */\n      dup4\n        /* \"#utility.yul\":6268:6285   */\n      add\n        /* \"#utility.yul\":6259:6265   */\n      dup11\n        /* \"#utility.yul\":6215:6286   */\n      tag_296\n      jump\t// in\n    tag_457:\n        /* \"#utility.yul\":6333:6342   */\n      dup2\n        /* \"#utility.yul\":6327:6331   */\n      dup2\n        /* \"#utility.yul\":6323:6343   */\n      sub\n        /* \"#utility.yul\":6318:6320   */\n      0x20\n        /* \"#utility.yul\":6307:6316   */\n      dup4\n        /* \"#utility.yul\":6303:6321   */\n      add\n        /* \"#utility.yul\":6296:6344   */\n      mstore\n        /* \"#utility.yul\":6361:6439   */\n      tag_458\n        /* \"#utility.yul\":6434:6438   */\n      dup2\n        /* \"#utility.yul\":6425:6431   */\n      dup10\n        /* \"#utility.yul\":6361:6439   */\n      tag_314\n      jump\t// in\n    tag_458:\n        /* \"#utility.yul\":6353:6439   */\n      swap1\n      pop\n        /* \"#utility.yul\":6449:6521   */\n      tag_459\n        /* \"#utility.yul\":6517:6519   */\n      0x40\n        /* \"#utility.yul\":6506:6515   */\n      dup4\n        /* \"#utility.yul\":6502:6520   */\n      add\n        /* \"#utility.yul\":6493:6499   */\n      dup9\n        /* \"#utility.yul\":6449:6521   */\n      tag_296\n      jump\t// in\n    tag_459:\n        /* \"#utility.yul\":6531:6597   */\n      tag_460\n        /* \"#utility.yul\":6593:6595   */\n      0x60\n        /* \"#utility.yul\":6582:6591   */\n      dup4\n        /* \"#utility.yul\":6578:6596   */\n      add\n        /* \"#utility.yul\":6569:6575   */\n      dup8\n        /* \"#utility.yul\":6531:6597   */\n      tag_307\n      jump\t// in\n    tag_460:\n        /* \"#utility.yul\":6607:6674   */\n      tag_461\n        /* \"#utility.yul\":6669:6672   */\n      0x80\n        /* \"#utility.yul\":6658:6667   */\n      dup4\n        /* \"#utility.yul\":6654:6673   */\n      add\n        /* \"#utility.yul\":6645:6651   */\n      dup7\n        /* \"#utility.yul\":6607:6674   */\n      tag_307\n      jump\t// in\n    tag_461:\n        /* \"#utility.yul\":6684:6757   */\n      tag_462\n        /* \"#utility.yul\":6752:6755   */\n      0xa0\n        /* \"#utility.yul\":6741:6750   */\n      dup4\n        /* \"#utility.yul\":6737:6756   */\n      add\n        /* \"#utility.yul\":6728:6734   */\n      dup6\n        /* \"#utility.yul\":6684:6757   */\n      tag_296\n      jump\t// in\n    tag_462:\n        /* \"#utility.yul\":6767:6840   */\n      tag_463\n        /* \"#utility.yul\":6835:6838   */\n      0xc0\n        /* \"#utility.yul\":6824:6833   */\n      dup4\n        /* \"#utility.yul\":6820:6839   */\n      add\n        /* \"#utility.yul\":6811:6817   */\n      dup5\n        /* \"#utility.yul\":6767:6840   */\n      tag_296\n      jump\t// in\n    tag_463:\n        /* \"#utility.yul\":5894:6847   */\n      swap9\n      swap8\n      pop\n      pop\n      pop\n      pop\n      pop\n      pop\n      pop\n      pop\n      jump\t// out\n        /* \"#utility.yul\":6853:6961   */\n    tag_315:\n        /* \"#utility.yul\":6930:6954   */\n      tag_465\n        /* \"#utility.yul\":6948:6953   */\n      dup2\n        /* \"#utility.yul\":6930:6954   */\n      tag_295\n      jump\t// in\n    tag_465:\n        /* \"#utility.yul\":6925:6928   */\n      dup3\n        /* \"#utility.yul\":6918:6955   */\n      mstore\n        /* \"#utility.yul\":6853:6961   */\n      pop\n      pop\n      jump\t// out\n        /* \"#utility.yul\":6967:7099   */\n    tag_316:\n        /* \"#utility.yul\":7060:7092   */\n      tag_467\n        /* \"#utility.yul\":7086:7091   */\n      dup2\n        /* \"#utility.yul\":7060:7092   */\n      tag_308\n      jump\t// in\n    tag_467:\n        /* \"#utility.yul\":7055:7058   */\n      dup3\n        /* \"#utility.yul\":7048:7093   */\n      mstore\n        /* \"#utility.yul\":6967:7099   */\n      pop\n      pop\n      jump\t// out\n        /* \"#utility.yul\":7105:7264   */\n    tag_317:\n        /* \"#utility.yul\":7179:7190   */\n      0x00\n        /* \"#utility.yul\":7213:7219   */\n      dup3\n        /* \"#utility.yul\":7208:7211   */\n      dup3\n        /* \"#utility.yul\":7201:7220   */\n      mstore\n        /* \"#utility.yul\":7253:7257   */\n      0x20\n        /* \"#utility.yul\":7248:7251   */\n      dup3\n        /* \"#utility.yul\":7244:7258   */\n      add\n        /* \"#utility.yul\":7229:7258   */\n      swap1\n      pop\n        /* \"#utility.yul\":7105:7264   */\n      swap3\n      swap2\n      pop\n      pop\n      jump\t// out\n        /* \"#utility.yul\":7270:7627   */\n    tag_318:\n        /* \"#utility.yul\":7348:7351   */\n      0x00\n        /* \"#utility.yul\":7376:7415   */\n      tag_470\n        /* \"#utility.yul\":7409:7414   */\n      dup3\n        /* \"#utility.yul\":7376:7415   */\n      tag_310\n      jump\t// in\n    tag_470:\n        /* \"#utility.yul\":7431:7492   */\n      tag_471\n        /* \"#utility.yul\":7485:7491   */\n      dup2\n        /* \"#utility.yul\":7480:7483   */\n      dup6\n        /* \"#utility.yul\":7431:7492   */\n      tag_317\n      jump\t// in\n    tag_471:\n        /* \"#utility.yul\":7424:7492   */\n      swap4\n      pop\n        /* \"#utility.yul\":7501:7566   */\n      tag_472\n        /* \"#utility.yul\":7559:7565   */\n      dup2\n        /* \"#utility.yul\":7554:7557   */\n      dup6\n        /* \"#utility.yul\":7547:7551   */\n      0x20\n        /* \"#utility.yul\":7540:7545   */\n      dup7\n        /* \"#utility.yul\":7536:7552   */\n      add\n        /* \"#utility.yul\":7501:7566   */\n      tag_312\n      jump\t// in\n    tag_472:\n        /* \"#utility.yul\":7591:7620   */\n      tag_473\n        /* \"#utility.yul\":7613:7619   */\n      dup2\n        /* \"#utility.yul\":7591:7620   */\n      tag_313\n      jump\t// in\n    tag_473:\n        /* \"#utility.yul\":7586:7589   */\n      dup5\n        /* \"#utility.yul\":7582:7621   */\n      add\n        /* \"#utility.yul\":7575:7621   */\n      swap2\n      pop\n        /* \"#utility.yul\":7352:7627   */\n      pop\n        /* \"#utility.yul\":7270:7627   */\n      swap3\n      swap2\n      pop\n      pop\n      jump\t// out\n        /* \"#utility.yul\":7633:7732   */\n    tag_319:\n        /* \"#utility.yul\":7704:7725   */\n      tag_475\n        /* \"#utility.yul\":7719:7724   */\n      dup2\n        /* \"#utility.yul\":7704:7725   */\n      tag_306\n      jump\t// in\n    tag_475:\n        /* \"#utility.yul\":7699:7702   */\n      dup3\n        /* \"#utility.yul\":7692:7726   */\n      mstore\n        /* \"#utility.yul\":7633:7732   */\n      pop\n      pop\n      jump\t// out\n        /* \"#utility.yul\":7800:9743   */\n    tag_320:\n        /* \"#utility.yul\":7917:7920   */\n      0x00\n        /* \"#utility.yul\":7953:7959   */\n      0x0120\n        /* \"#utility.yul\":7948:7951   */\n      dup4\n        /* \"#utility.yul\":7944:7960   */\n      add\n        /* \"#utility.yul\":8040:8044   */\n      0x00\n        /* \"#utility.yul\":8033:8038   */\n      dup4\n        /* \"#utility.yul\":8029:8045   */\n      add\n        /* \"#utility.yul\":8023:8046   */\n      mload\n        /* \"#utility.yul\":8059:8122   */\n      tag_477\n        /* \"#utility.yul\":8116:8120   */\n      0x00\n        /* \"#utility.yul\":8111:8114   */\n      dup7\n        /* \"#utility.yul\":8107:8121   */\n      add\n        /* \"#utility.yul\":8093:8105   */\n      dup3\n        /* \"#utility.yul\":8059:8122   */\n      tag_315\n      jump\t// in\n    tag_477:\n        /* \"#utility.yul\":7970:8132   */\n      pop\n        /* \"#utility.yul\":8217:8221   */\n      0x20\n        /* \"#utility.yul\":8210:8215   */\n      dup4\n        /* \"#utility.yul\":8206:8222   */\n      add\n        /* \"#utility.yul\":8200:8223   */\n      mload\n        /* \"#utility.yul\":8236:8315   */\n      tag_478\n        /* \"#utility.yul\":8309:8313   */\n      0x20\n        /* \"#utility.yul\":8304:8307   */\n      dup7\n        /* \"#utility.yul\":8300:8314   */\n      add\n        /* \"#utility.yul\":8286:8298   */\n      dup3\n        /* \"#utility.yul\":8236:8315   */\n      tag_316\n      jump\t// in\n    tag_478:\n        /* \"#utility.yul\":8142:8325   */\n      pop\n        /* \"#utility.yul\":8408:8412   */\n      0x40\n        /* \"#utility.yul\":8401:8406   */\n      dup4\n        /* \"#utility.yul\":8397:8413   */\n      add\n        /* \"#utility.yul\":8391:8414   */\n      mload\n        /* \"#utility.yul\":8461:8464   */\n      dup5\n        /* \"#utility.yul\":8455:8459   */\n      dup3\n        /* \"#utility.yul\":8451:8465   */\n      sub\n        /* \"#utility.yul\":8444:8448   */\n      0x40\n        /* \"#utility.yul\":8439:8442   */\n      dup7\n        /* \"#utility.yul\":8435:8449   */\n      add\n        /* \"#utility.yul\":8428:8466   */\n      mstore\n        /* \"#utility.yul\":8487:8560   */\n      tag_479\n        /* \"#utility.yul\":8555:8559   */\n      dup3\n        /* \"#utility.yul\":8541:8553   */\n      dup3\n        /* \"#utility.yul\":8487:8560   */\n      tag_318\n      jump\t// in\n    tag_479:\n        /* \"#utility.yul\":8479:8560   */\n      swap2\n      pop\n        /* \"#utility.yul\":8335:8571   */\n      pop\n        /* \"#utility.yul\":8660:8664   */\n      0x60\n        /* \"#utility.yul\":8653:8658   */\n      dup4\n        /* \"#utility.yul\":8649:8665   */\n      add\n        /* \"#utility.yul\":8643:8666   */\n      mload\n        /* \"#utility.yul\":8713:8716   */\n      dup5\n        /* \"#utility.yul\":8707:8711   */\n      dup3\n        /* \"#utility.yul\":8703:8717   */\n      sub\n        /* \"#utility.yul\":8696:8700   */\n      0x60\n        /* \"#utility.yul\":8691:8694   */\n      dup7\n        /* \"#utility.yul\":8687:8701   */\n      add\n        /* \"#utility.yul\":8680:8718   */\n      mstore\n        /* \"#utility.yul\":8739:8812   */\n      tag_480\n        /* \"#utility.yul\":8807:8811   */\n      dup3\n        /* \"#utility.yul\":8793:8805   */\n      dup3\n        /* \"#utility.yul\":8739:8812   */\n      tag_318\n      jump\t// in\n    tag_480:\n        /* \"#utility.yul\":8731:8812   */\n      swap2\n      pop\n        /* \"#utility.yul\":8581:8823   */\n      pop\n        /* \"#utility.yul\":8911:8915   */\n      0x80\n        /* \"#utility.yul\":8904:8909   */\n      dup4\n        /* \"#utility.yul\":8900:8916   */\n      add\n        /* \"#utility.yul\":8894:8917   */\n      mload\n        /* \"#utility.yul\":8930:8993   */\n      tag_481\n        /* \"#utility.yul\":8987:8991   */\n      0x80\n        /* \"#utility.yul\":8982:8985   */\n      dup7\n        /* \"#utility.yul\":8978:8992   */\n      add\n        /* \"#utility.yul\":8964:8976   */\n      dup3\n        /* \"#utility.yul\":8930:8993   */\n      tag_315\n      jump\t// in\n    tag_481:\n        /* \"#utility.yul\":8833:9003   */\n      pop\n        /* \"#utility.yul\":9089:9093   */\n      0xa0\n        /* \"#utility.yul\":9082:9087   */\n      dup4\n        /* \"#utility.yul\":9078:9094   */\n      add\n        /* \"#utility.yul\":9072:9095   */\n      mload\n        /* \"#utility.yul\":9108:9171   */\n      tag_482\n        /* \"#utility.yul\":9165:9169   */\n      0xa0\n        /* \"#utility.yul\":9160:9163   */\n      dup7\n        /* \"#utility.yul\":9156:9170   */\n      add\n        /* \"#utility.yul\":9142:9154   */\n      dup3\n        /* \"#utility.yul\":9108:9171   */\n      tag_315\n      jump\t// in\n    tag_482:\n        /* \"#utility.yul\":9013:9181   */\n      pop\n        /* \"#utility.yul\":9270:9274   */\n      0xc0\n        /* \"#utility.yul\":9263:9268   */\n      dup4\n        /* \"#utility.yul\":9259:9275   */\n      add\n        /* \"#utility.yul\":9253:9276   */\n      mload\n        /* \"#utility.yul\":9289:9352   */\n      tag_483\n        /* \"#utility.yul\":9346:9350   */\n      0xc0\n        /* \"#utility.yul\":9341:9344   */\n      dup7\n        /* \"#utility.yul\":9337:9351   */\n      add\n        /* \"#utility.yul\":9323:9335   */\n      dup3\n        /* \"#utility.yul\":9289:9352   */\n      tag_315\n      jump\t// in\n    tag_483:\n        /* \"#utility.yul\":9191:9362   */\n      pop\n        /* \"#utility.yul\":9451:9455   */\n      0xe0\n        /* \"#utility.yul\":9444:9449   */\n      dup4\n        /* \"#utility.yul\":9440:9456   */\n      add\n        /* \"#utility.yul\":9434:9457   */\n      mload\n        /* \"#utility.yul\":9470:9527   */\n      tag_484\n        /* \"#utility.yul\":9521:9525   */\n      0xe0\n        /* \"#utility.yul\":9516:9519   */\n      dup7\n        /* \"#utility.yul\":9512:9526   */\n      add\n        /* \"#utility.yul\":9498:9510   */\n      dup3\n        /* \"#utility.yul\":9470:9527   */\n      tag_319\n      jump\t// in\n    tag_484:\n        /* \"#utility.yul\":9372:9537   */\n      pop\n        /* \"#utility.yul\":9626:9632   */\n      0x0100\n        /* \"#utility.yul\":9619:9624   */\n      dup4\n        /* \"#utility.yul\":9615:9633   */\n      add\n        /* \"#utility.yul\":9609:9634   */\n      mload\n        /* \"#utility.yul\":9647:9706   */\n      tag_485\n        /* \"#utility.yul\":9698:9704   */\n      0x0100\n        /* \"#utility.yul\":9693:9696   */\n      dup7\n        /* \"#utility.yul\":9689:9705   */\n      add\n        /* \"#utility.yul\":9675:9687   */\n      dup3\n        /* \"#utility.yul\":9647:9706   */\n      tag_319\n      jump\t// in\n    tag_485:\n        /* \"#utility.yul\":9547:9716   */\n      pop\n        /* \"#utility.yul\":9733:9737   */\n      dup1\n        /* \"#utility.yul\":9726:9737   */\n      swap2\n      pop\n        /* \"#utility.yul\":7922:9743   */\n      pop\n        /* \"#utility.yul\":7800:9743   */\n      swap3\n      swap2\n      pop\n      pop\n      jump\t// out\n        /* \"#utility.yul\":9749:10118   */\n    tag_53:\n        /* \"#utility.yul\":9890:9894   */\n      0x00\n        /* \"#utility.yul\":9928:9930   */\n      0x20\n        /* \"#utility.yul\":9917:9926   */\n      dup3\n        /* \"#utility.yul\":9913:9931   */\n      add\n        /* \"#utility.yul\":9905:9931   */\n      swap1\n      pop\n        /* \"#utility.yul\":9977:9986   */\n      dup2\n        /* \"#utility.yul\":9971:9975   */\n      dup2\n        /* \"#utility.yul\":9967:9987   */\n      sub\n        /* \"#utility.yul\":9963:9964   */\n      0x00\n        /* \"#utility.yul\":9952:9961   */\n      dup4\n        /* \"#utility.yul\":9948:9965   */\n      add\n        /* \"#utility.yul\":9941:9988   */\n      mstore\n        /* \"#utility.yul\":10005:10111   */\n      tag_487\n        /* \"#utility.yul\":10106:10110   */\n      dup2\n        /* \"#utility.yul\":10097:10103   */\n      dup5\n        /* \"#utility.yul\":10005:10111   */\n      tag_320\n      jump\t// in\n    tag_487:\n        /* \"#utility.yul\":9997:10111   */\n      swap1\n      pop\n        /* \"#utility.yul\":9749:10118   */\n      swap3\n      swap2\n      pop\n      pop\n      jump\t// out\n        /* \"#utility.yul\":10124:10240   */\n    tag_321:\n        /* \"#utility.yul\":10194:10215   */\n      tag_489\n        /* \"#utility.yul\":10209:10214   */\n      dup2\n        /* \"#utility.yul\":10194:10215   */\n      tag_306\n      jump\t// in\n    tag_489:\n        /* \"#utility.yul\":10187:10192   */\n      dup2\n        /* \"#utility.yul\":10184:10216   */\n      eq\n        /* \"#utility.yul\":10174:10234   */\n      tag_490\n      jumpi\n        /* \"#utility.yul\":10230:10231   */\n      0x00\n        /* \"#utility.yul\":10227:10228   */\n      0x00\n        /* \"#utility.yul\":10220:10232   */\n      revert\n        /* \"#utility.yul\":10174:10234   */\n    tag_490:\n        /* \"#utility.yul\":10124:10240   */\n      pop\n      jump\t// out\n        /* \"#utility.yul\":10246:10379   */\n    tag_322:\n        /* \"#utility.yul\":10289:10294   */\n      0x00\n        /* \"#utility.yul\":10327:10333   */\n      dup2\n        /* \"#utility.yul\":10314:10334   */\n      calldataload\n        /* \"#utility.yul\":10305:10334   */\n      swap1\n      pop\n        /* \"#utility.yul\":10343:10373   */\n      tag_492\n        /* \"#utility.yul\":10367:10372   */\n      dup2\n        /* \"#utility.yul\":10343:10373   */\n      tag_321\n      jump\t// in\n    tag_492:\n        /* \"#utility.yul\":10246:10379   */\n      swap3\n      swap2\n      pop\n      pop\n      jump\t// out\n        /* \"#utility.yul\":10385:10998   */\n    tag_66:\n        /* \"#utility.yul\":10459:10465   */\n      0x00\n        /* \"#utility.yul\":10467:10473   */\n      0x00\n        /* \"#utility.yul\":10475:10481   */\n      0x00\n        /* \"#utility.yul\":10524:10526   */\n      0x60\n        /* \"#utility.yul\":10512:10521   */\n      dup5\n        /* \"#utility.yul\":10503:10510   */\n      dup7\n        /* \"#utility.yul\":10499:10522   */\n      sub\n        /* \"#utility.yul\":10495:10527   */\n      slt\n        /* \"#utility.yul\":10492:10611   */\n      iszero\n      tag_494\n      jumpi\n        /* \"#utility.yul\":10530:10609   */\n      tag_495\n      tag_298\n      jump\t// in\n    tag_495:\n        /* \"#utility.yul\":10492:10611   */\n    tag_494:\n        /* \"#utility.yul\":10650:10651   */\n      0x00\n        /* \"#utility.yul\":10675:10728   */\n      tag_496\n        /* \"#utility.yul\":10720:10727   */\n      dup7\n        /* \"#utility.yul\":10711:10717   */\n      dup3\n        /* \"#utility.yul\":10700:10709   */\n      dup8\n        /* \"#utility.yul\":10696:10718   */\n      add\n        /* \"#utility.yul\":10675:10728   */\n      tag_301\n      jump\t// in\n    tag_496:\n        /* \"#utility.yul\":10665:10728   */\n      swap4\n      pop\n        /* \"#utility.yul\":10621:10738   */\n      pop\n        /* \"#utility.yul\":10777:10779   */\n      0x20\n        /* \"#utility.yul\":10803:10856   */\n      tag_497\n        /* \"#utility.yul\":10848:10855   */\n      dup7\n        /* \"#utility.yul\":10839:10845   */\n      dup3\n        /* \"#utility.yul\":10828:10837   */\n      dup8\n        /* \"#utility.yul\":10824:10846   */\n      add\n        /* \"#utility.yul\":10803:10856   */\n      tag_301\n      jump\t// in\n    tag_497:\n        /* \"#utility.yul\":10793:10856   */\n      swap3\n      pop\n        /* \"#utility.yul\":10748:10866   */\n      pop\n        /* \"#utility.yul\":10905:10907   */\n      0x40\n        /* \"#utility.yul\":10931:10981   */\n      tag_498\n        /* \"#utility.yul\":10973:10980   */\n      dup7\n        /* \"#utility.yul\":10964:10970   */\n      dup3\n        /* \"#utility.yul\":10953:10962   */\n      dup8\n        /* \"#utility.yul\":10949:10971   */\n      add\n        /* \"#utility.yul\":10931:10981   */\n      tag_322\n      jump\t// in\n    tag_498:\n        /* \"#utility.yul\":10921:10981   */\n      swap2\n      pop\n        /* \"#utility.yul\":10876:10991   */\n      pop\n        /* \"#utility.yul\":10385:10998   */\n      swap3\n      pop\n      swap3\n      pop\n      swap3\n      jump\t// out\n        /* \"#utility.yul\":11004:11122   */\n    tag_323:\n        /* \"#utility.yul\":11091:11115   */\n      tag_500\n        /* \"#utility.yul\":11109:11114   */\n      dup2\n        /* \"#utility.yul\":11091:11115   */\n      tag_303\n      jump\t// in\n    tag_500:\n        /* \"#utility.yul\":11086:11089   */\n      dup3\n        /* \"#utility.yul\":11079:11116   */\n      mstore\n        /* \"#utility.yul\":11004:11122   */\n      pop\n      pop\n      jump\t// out\n        /* \"#utility.yul\":11128:11350   */\n    tag_78:\n        /* \"#utility.yul\":11221:11225   */\n      0x00\n        /* \"#utility.yul\":11259:11261   */\n      0x20\n        /* \"#utility.yul\":11248:11257   */\n      dup3\n        /* \"#utility.yul\":11244:11262   */\n      add\n        /* \"#utility.yul\":11236:11262   */\n      swap1\n      pop\n        /* \"#utility.yul\":11272:11343   */\n      tag_502\n        /* \"#utility.yul\":11340:11341   */\n      0x00\n        /* \"#utility.yul\":11329:11338   */\n      dup4\n        /* \"#utility.yul\":11325:11342   */\n      add\n        /* \"#utility.yul\":11316:11322   */\n      dup5\n        /* \"#utility.yul\":11272:11343   */\n      tag_323\n      jump\t// in\n    tag_502:\n        /* \"#utility.yul\":11128:11350   */\n      swap3\n      swap2\n      pop\n      pop\n      jump\t// out\n        /* \"#utility.yul\":11420:12925   */\n    tag_324:\n        /* \"#utility.yul\":11539:11542   */\n      0x00\n        /* \"#utility.yul\":11575:11579   */\n      0xe0\n        /* \"#utility.yul\":11570:11573   */\n      dup4\n        /* \"#utility.yul\":11566:11580   */\n      add\n        /* \"#utility.yul\":11660:11664   */\n      0x00\n        /* \"#utility.yul\":11653:11658   */\n      dup4\n        /* \"#utility.yul\":11649:11665   */\n      add\n        /* \"#utility.yul\":11643:11666   */\n      mload\n        /* \"#utility.yul\":11679:11742   */\n      tag_504\n        /* \"#utility.yul\":11736:11740   */\n      0x00\n        /* \"#utility.yul\":11731:11734   */\n      dup7\n        /* \"#utility.yul\":11727:11741   */\n      add\n        /* \"#utility.yul\":11713:11725   */\n      dup3\n        /* \"#utility.yul\":11679:11742   */\n      tag_315\n      jump\t// in\n    tag_504:\n        /* \"#utility.yul\":11590:11752   */\n      pop\n        /* \"#utility.yul\":11841:11845   */\n      0x20\n        /* \"#utility.yul\":11834:11839   */\n      dup4\n        /* \"#utility.yul\":11830:11846   */\n      add\n        /* \"#utility.yul\":11824:11847   */\n      mload\n        /* \"#utility.yul\":11894:11897   */\n      dup5\n        /* \"#utility.yul\":11888:11892   */\n      dup3\n        /* \"#utility.yul\":11884:11898   */\n      sub\n        /* \"#utility.yul\":11877:11881   */\n      0x20\n        /* \"#utility.yul\":11872:11875   */\n      dup7\n        /* \"#utility.yul\":11868:11882   */\n      add\n        /* \"#utility.yul\":11861:11899   */\n      mstore\n        /* \"#utility.yul\":11920:11993   */\n      tag_505\n        /* \"#utility.yul\":11988:11992   */\n      dup3\n        /* \"#utility.yul\":11974:11986   */\n      dup3\n        /* \"#utility.yul\":11920:11993   */\n      tag_318\n      jump\t// in\n    tag_505:\n        /* \"#utility.yul\":11912:11993   */\n      swap2\n      pop\n        /* \"#utility.yul\":11762:12004   */\n      pop\n        /* \"#utility.yul\":12095:12099   */\n      0x40\n        /* \"#utility.yul\":12088:12093   */\n      dup4\n        /* \"#utility.yul\":12084:12100   */\n      add\n        /* \"#utility.yul\":12078:12101   */\n      mload\n        /* \"#utility.yul\":12114:12177   */\n      tag_506\n        /* \"#utility.yul\":12171:12175   */\n      0x40\n        /* \"#utility.yul\":12166:12169   */\n      dup7\n        /* \"#utility.yul\":12162:12176   */\n      add\n        /* \"#utility.yul\":12148:12160   */\n      dup3\n        /* \"#utility.yul\":12114:12177   */\n      tag_315\n      jump\t// in\n    tag_506:\n        /* \"#utility.yul\":12014:12187   */\n      pop\n        /* \"#utility.yul\":12275:12279   */\n      0x60\n        /* \"#utility.yul\":12268:12273   */\n      dup4\n        /* \"#utility.yul\":12264:12280   */\n      add\n        /* \"#utility.yul\":12258:12281   */\n      mload\n        /* \"#utility.yul\":12294:12351   */\n      tag_507\n        /* \"#utility.yul\":12345:12349   */\n      0x60\n        /* \"#utility.yul\":12340:12343   */\n      dup7\n        /* \"#utility.yul\":12336:12350   */\n      add\n        /* \"#utility.yul\":12322:12334   */\n      dup3\n        /* \"#utility.yul\":12294:12351   */\n      tag_319\n      jump\t// in\n    tag_507:\n        /* \"#utility.yul\":12197:12361   */\n      pop\n        /* \"#utility.yul\":12449:12453   */\n      0x80\n        /* \"#utility.yul\":12442:12447   */\n      dup4\n        /* \"#utility.yul\":12438:12454   */\n      add\n        /* \"#utility.yul\":12432:12455   */\n      mload\n        /* \"#utility.yul\":12468:12525   */\n      tag_508\n        /* \"#utility.yul\":12519:12523   */\n      0x80\n        /* \"#utility.yul\":12514:12517   */\n      dup7\n        /* \"#utility.yul\":12510:12524   */\n      add\n        /* \"#utility.yul\":12496:12508   */\n      dup3\n        /* \"#utility.yul\":12468:12525   */\n      tag_319\n      jump\t// in\n    tag_508:\n        /* \"#utility.yul\":12371:12535   */\n      pop\n        /* \"#utility.yul\":12625:12629   */\n      0xa0\n        /* \"#utility.yul\":12618:12623   */\n      dup4\n        /* \"#utility.yul\":12614:12630   */\n      add\n        /* \"#utility.yul\":12608:12631   */\n      mload\n        /* \"#utility.yul\":12644:12707   */\n      tag_509\n        /* \"#utility.yul\":12701:12705   */\n      0xa0\n        /* \"#utility.yul\":12696:12699   */\n      dup7\n        /* \"#utility.yul\":12692:12706   */\n      add\n        /* \"#utility.yul\":12678:12690   */\n      dup3\n        /* \"#utility.yul\":12644:12707   */\n      tag_315\n      jump\t// in\n    tag_509:\n        /* \"#utility.yul\":12545:12717   */\n      pop\n        /* \"#utility.yul\":12806:12810   */\n      0xc0\n        /* \"#utility.yul\":12799:12804   */\n      dup4\n        /* \"#utility.yul\":12795:12811   */\n      add\n        /* \"#utility.yul\":12789:12812   */\n      mload\n        /* \"#utility.yul\":12825:12888   */\n      tag_510\n        /* \"#utility.yul\":12882:12886   */\n      0xc0\n        /* \"#utility.yul\":12877:12880   */\n      dup7\n        /* \"#utility.yul\":12873:12887   */\n      add\n        /* \"#utility.yul\":12859:12871   */\n      dup3\n        /* \"#utility.yul\":12825:12888   */\n      tag_315\n      jump\t// in\n    tag_510:\n        /* \"#utility.yul\":12727:12898   */\n      pop\n        /* \"#utility.yul\":12915:12919   */\n      dup1\n        /* \"#utility.yul\":12908:12919   */\n      swap2\n      pop\n        /* \"#utility.yul\":11544:12925   */\n      pop\n        /* \"#utility.yul\":11420:12925   */\n      swap3\n      swap2\n      pop\n      pop\n      jump\t// out\n        /* \"#utility.yul\":12931:13304   */\n    tag_89:\n        /* \"#utility.yul\":13074:13078   */\n      0x00\n        /* \"#utility.yul\":13112:13114   */\n      0x20\n        /* \"#utility.yul\":13101:13110   */\n      dup3\n        /* \"#utility.yul\":13097:13115   */\n      add\n        /* \"#utility.yul\":13089:13115   */\n      swap1\n      pop\n        /* \"#utility.yul\":13161:13170   */\n      dup2\n        /* \"#utility.yul\":13155:13159   */\n      dup2\n        /* \"#utility.yul\":13151:13171   */\n      sub\n        /* \"#utility.yul\":13147:13148   */\n      0x00\n        /* \"#utility.yul\":13136:13145   */\n      dup4\n        /* \"#utility.yul\":13132:13149   */\n      add\n        /* \"#utility.yul\":13125:13172   */\n      mstore\n        /* \"#utility.yul\":13189:13297   */\n      tag_512\n        /* \"#utility.yul\":13292:13296   */\n      dup2\n        /* \"#utility.yul\":13283:13289   */\n      dup5\n        /* \"#utility.yul\":13189:13297   */\n      tag_324\n      jump\t// in\n    tag_512:\n        /* \"#utility.yul\":13181:13297   */\n      swap1\n      pop\n        /* \"#utility.yul\":12931:13304   */\n      swap3\n      swap2\n      pop\n      pop\n      jump\t// out\n        /* \"#utility.yul\":13310:13427   */\n    tag_325:\n        /* \"#utility.yul\":13419:13420   */\n      0x00\n        /* \"#utility.yul\":13416:13417   */\n      0x00\n        /* \"#utility.yul\":13409:13421   */\n      revert\n        /* \"#utility.yul\":13433:13550   */\n    tag_326:\n        /* \"#utility.yul\":13542:13543   */\n      0x00\n        /* \"#utility.yul\":13539:13540   */\n      0x00\n        /* \"#utility.yul\":13532:13544   */\n      revert\n        /* \"#utility.yul\":13556:13736   */\n    tag_327:\n        /* \"#utility.yul\":13604:13681   */\n      0x4e487b7100000000000000000000000000000000000000000000000000000000\n        /* \"#utility.yul\":13601:13602   */\n      0x00\n        /* \"#utility.yul\":13594:13682   */\n      mstore\n        /* \"#utility.yul\":13701:13705   */\n      0x41\n        /* \"#utility.yul\":13698:13699   */\n      0x04\n        /* \"#utility.yul\":13691:13706   */\n      mstore\n        /* \"#utility.yul\":13725:13729   */\n      0x24\n        /* \"#utility.yul\":13722:13723   */\n      0x00\n        /* \"#utility.yul\":13715:13730   */\n      revert\n        /* \"#utility.yul\":13742:14023   */\n    tag_328:\n        /* \"#utility.yul\":13825:13852   */\n      tag_517\n        /* \"#utility.yul\":13847:13851   */\n      dup3\n        /* \"#utility.yul\":13825:13852   */\n      tag_313\n      jump\t// in\n    tag_517:\n        /* \"#utility.yul\":13817:13823   */\n      dup2\n        /* \"#utility.yul\":13813:13853   */\n      add\n        /* \"#utility.yul\":13955:13961   */\n      dup2\n        /* \"#utility.yul\":13943:13953   */\n      dup2\n        /* \"#utility.yul\":13940:13962   */\n      lt\n        /* \"#utility.yul\":13919:13937   */\n      0xffffffffffffffff\n        /* \"#utility.yul\":13907:13917   */\n      dup3\n        /* \"#utility.yul\":13904:13938   */\n      gt\n        /* \"#utility.yul\":13901:13963   */\n      or\n        /* \"#utility.yul\":13898:13986   */\n      iszero\n      tag_518\n      jumpi\n        /* \"#utility.yul\":13966:13984   */\n      tag_519\n      tag_327\n      jump\t// in\n    tag_519:\n        /* \"#utility.yul\":13898:13986   */\n    tag_518:\n        /* \"#utility.yul\":14006:14016   */\n      dup1\n        /* \"#utility.yul\":14002:14004   */\n      0x40\n        /* \"#utility.yul\":13995:14017   */\n      mstore\n        /* \"#utility.yul\":13785:14023   */\n      pop\n        /* \"#utility.yul\":13742:14023   */\n      pop\n      pop\n      jump\t// out\n        /* \"#utility.yul\":14029:14158   */\n    tag_329:\n        /* \"#utility.yul\":14063:14069   */\n      0x00\n        /* \"#utility.yul\":14090:14110   */\n      tag_521\n      tag_297\n      jump\t// in\n    tag_521:\n        /* \"#utility.yul\":14080:14110   */\n      swap1\n      pop\n        /* \"#utility.yul\":14119:14152   */\n      tag_522\n        /* \"#utility.yul\":14147:14151   */\n      dup3\n        /* \"#utility.yul\":14139:14145   */\n      dup3\n        /* \"#utility.yul\":14119:14152   */\n      tag_328\n      jump\t// in\n    tag_522:\n        /* \"#utility.yul\":14029:14158   */\n      swap2\n      swap1\n      pop\n      jump\t// out\n        /* \"#utility.yul\":14164:14472   */\n    tag_330:\n        /* \"#utility.yul\":14226:14230   */\n      0x00\n        /* \"#utility.yul\":14316:14334   */\n      0xffffffffffffffff\n        /* \"#utility.yul\":14308:14314   */\n      dup3\n        /* \"#utility.yul\":14305:14335   */\n      gt\n        /* \"#utility.yul\":14302:14358   */\n      iszero\n      tag_524\n      jumpi\n        /* \"#utility.yul\":14338:14356   */\n      tag_525\n      tag_327\n      jump\t// in\n    tag_525:\n        /* \"#utility.yul\":14302:14358   */\n    tag_524:\n        /* \"#utility.yul\":14376:14405   */\n      tag_526\n        /* \"#utility.yul\":14398:14404   */\n      dup3\n        /* \"#utility.yul\":14376:14405   */\n      tag_313\n      jump\t// in\n    tag_526:\n        /* \"#utility.yul\":14368:14405   */\n      swap1\n      pop\n        /* \"#utility.yul\":14460:14464   */\n      0x20\n        /* \"#utility.yul\":14454:14458   */\n      dup2\n        /* \"#utility.yul\":14450:14465   */\n      add\n        /* \"#utility.yul\":14442:14465   */\n      swap1\n      pop\n        /* \"#utility.yul\":14164:14472   */\n      swap2\n      swap1\n      pop\n      jump\t// out\n        /* \"#utility.yul\":14478:14626   */\n    tag_331:\n        /* \"#utility.yul\":14576:14582   */\n      dup3\n        /* \"#utility.yul\":14571:14574   */\n      dup2\n        /* \"#utility.yul\":14566:14569   */\n      dup4\n        /* \"#utility.yul\":14553:14583   */\n      calldatacopy\n        /* \"#utility.yul\":14617:14618   */\n      0x00\n        /* \"#utility.yul\":14608:14614   */\n      dup4\n        /* \"#utility.yul\":14603:14606   */\n      dup4\n        /* \"#utility.yul\":14599:14615   */\n      add\n        /* \"#utility.yul\":14592:14619   */\n      mstore\n        /* \"#utility.yul\":14478:14626   */\n      pop\n      pop\n      pop\n      jump\t// out\n        /* \"#utility.yul\":14632:15057   */\n    tag_332:\n        /* \"#utility.yul\":14710:14715   */\n      0x00\n        /* \"#utility.yul\":14735:14801   */\n      tag_529\n        /* \"#utility.yul\":14751:14800   */\n      tag_530\n        /* \"#utility.yul\":14793:14799   */\n      dup5\n        /* \"#utility.yul\":14751:14800   */\n      tag_330\n      jump\t// in\n    tag_530:\n        /* \"#utility.yul\":14735:14801   */\n      tag_329\n      jump\t// in\n    tag_529:\n        /* \"#utility.yul\":14726:14801   */\n      swap1\n      pop\n        /* \"#utility.yul\":14824:14830   */\n      dup3\n        /* \"#utility.yul\":14817:14822   */\n      dup2\n        /* \"#utility.yul\":14810:14831   */\n      mstore\n        /* \"#utility.yul\":14862:14866   */\n      0x20\n        /* \"#utility.yul\":14855:14860   */\n      dup2\n        /* \"#utility.yul\":14851:14867   */\n      add\n        /* \"#utility.yul\":14900:14903   */\n      dup5\n        /* \"#utility.yul\":14891:14897   */\n      dup5\n        /* \"#utility.yul\":14886:14889   */\n      dup5\n        /* \"#utility.yul\":14882:14898   */\n      add\n        /* \"#utility.yul\":14879:14904   */\n      gt\n        /* \"#utility.yul\":14876:14988   */\n      iszero\n      tag_531\n      jumpi\n        /* \"#utility.yul\":14907:14986   */\n      tag_532\n      tag_326\n      jump\t// in\n    tag_532:\n        /* \"#utility.yul\":14876:14988   */\n    tag_531:\n        /* \"#utility.yul\":14997:15051   */\n      tag_533\n        /* \"#utility.yul\":15044:15050   */\n      dup5\n        /* \"#utility.yul\":15039:15042   */\n      dup3\n        /* \"#utility.yul\":15034:15037   */\n      dup6\n        /* \"#utility.yul\":14997:15051   */\n      tag_331\n      jump\t// in\n    tag_533:\n        /* \"#utility.yul\":14716:15057   */\n      pop\n        /* \"#utility.yul\":14632:15057   */\n      swap4\n      swap3\n      pop\n      pop\n      pop\n      jump\t// out\n        /* \"#utility.yul\":15077:15417   */\n    tag_333:\n        /* \"#utility.yul\":15133:15138   */\n      0x00\n        /* \"#utility.yul\":15182:15185   */\n      dup3\n        /* \"#utility.yul\":15175:15179   */\n      0x1f\n        /* \"#utility.yul\":15167:15173   */\n      dup4\n        /* \"#utility.yul\":15163:15180   */\n      add\n        /* \"#utility.yul\":15159:15186   */\n      slt\n        /* \"#utility.yul\":15149:15271   */\n      tag_535\n      jumpi\n        /* \"#utility.yul\":15190:15269   */\n      tag_536\n      tag_325\n      jump\t// in\n    tag_536:\n        /* \"#utility.yul\":15149:15271   */\n    tag_535:\n        /* \"#utility.yul\":15307:15313   */\n      dup2\n        /* \"#utility.yul\":15294:15314   */\n      calldataload\n        /* \"#utility.yul\":15332:15411   */\n      tag_537\n        /* \"#utility.yul\":15407:15410   */\n      dup5\n        /* \"#utility.yul\":15399:15405   */\n      dup3\n        /* \"#utility.yul\":15392:15396   */\n      0x20\n        /* \"#utility.yul\":15384:15390   */\n      dup7\n        /* \"#utility.yul\":15380:15397   */\n      add\n        /* \"#utility.yul\":15332:15411   */\n      tag_332\n      jump\t// in\n    tag_537:\n        /* \"#utility.yul\":15323:15411   */\n      swap2\n      pop\n        /* \"#utility.yul\":15139:15417   */\n      pop\n        /* \"#utility.yul\":15077:15417   */\n      swap3\n      swap2\n      pop\n      pop\n      jump\t// out\n        /* \"#utility.yul\":15423:16222   */\n    tag_93:\n        /* \"#utility.yul\":15510:15516   */\n      0x00\n        /* \"#utility.yul\":15518:15524   */\n      0x00\n        /* \"#utility.yul\":15526:15532   */\n      0x00\n        /* \"#utility.yul\":15575:15577   */\n      0x60\n        /* \"#utility.yul\":15563:15572   */\n      dup5\n        /* \"#utility.yul\":15554:15561   */\n      dup7\n        /* \"#utility.yul\":15550:15573   */\n      sub\n        /* \"#utility.yul\":15546:15578   */\n      slt\n        /* \"#utility.yul\":15543:15662   */\n      iszero\n      tag_539\n      jumpi\n        /* \"#utility.yul\":15581:15660   */\n      tag_540\n      tag_298\n      jump\t// in\n    tag_540:\n        /* \"#utility.yul\":15543:15662   */\n    tag_539:\n        /* \"#utility.yul\":15701:15702   */\n      0x00\n        /* \"#utility.yul\":15726:15779   */\n      tag_541\n        /* \"#utility.yul\":15771:15778   */\n      dup7\n        /* \"#utility.yul\":15762:15768   */\n      dup3\n        /* \"#utility.yul\":15751:15760   */\n      dup8\n        /* \"#utility.yul\":15747:15769   */\n      add\n        /* \"#utility.yul\":15726:15779   */\n      tag_301\n      jump\t// in\n    tag_541:\n        /* \"#utility.yul\":15716:15779   */\n      swap4\n      pop\n        /* \"#utility.yul\":15672:15789   */\n      pop\n        /* \"#utility.yul\":15856:15858   */\n      0x20\n        /* \"#utility.yul\":15845:15854   */\n      dup5\n        /* \"#utility.yul\":15841:15859   */\n      add\n        /* \"#utility.yul\":15828:15860   */\n      calldataload\n        /* \"#utility.yul\":15887:15905   */\n      0xffffffffffffffff\n        /* \"#utility.yul\":15879:15885   */\n      dup2\n        /* \"#utility.yul\":15876:15906   */\n      gt\n        /* \"#utility.yul\":15873:15990   */\n      iszero\n      tag_542\n      jumpi\n        /* \"#utility.yul\":15909:15988   */\n      tag_543\n      tag_299\n      jump\t// in\n    tag_543:\n        /* \"#utility.yul\":15873:15990   */\n    tag_542:\n        /* \"#utility.yul\":16014:16077   */\n      tag_544\n        /* \"#utility.yul\":16069:16076   */\n      dup7\n        /* \"#utility.yul\":16060:16066   */\n      dup3\n        /* \"#utility.yul\":16049:16058   */\n      dup8\n        /* \"#utility.yul\":16045:16067   */\n      add\n        /* \"#utility.yul\":16014:16077   */\n      tag_333\n      jump\t// in\n    tag_544:\n        /* \"#utility.yul\":16004:16077   */\n      swap3\n      pop\n        /* \"#utility.yul\":15799:16087   */\n      pop\n        /* \"#utility.yul\":16126:16128   */\n      0x40\n        /* \"#utility.yul\":16152:16205   */\n      tag_545\n        /* \"#utility.yul\":16197:16204   */\n      dup7\n        /* \"#utility.yul\":16188:16194   */\n      dup3\n        /* \"#utility.yul\":16177:16186   */\n      dup8\n        /* \"#utility.yul\":16173:16195   */\n      add\n        /* \"#utility.yul\":16152:16205   */\n      tag_301\n      jump\t// in\n    tag_545:\n        /* \"#utility.yul\":16142:16205   */\n      swap2\n      pop\n        /* \"#utility.yul\":16097:16215   */\n      pop\n        /* \"#utility.yul\":15423:16222   */\n      swap3\n      pop\n      swap3\n      pop\n      swap3\n      jump\t// out\n        /* \"#utility.yul\":16228:17353   */\n    tag_98:\n        /* \"#utility.yul\":16334:16340   */\n      0x00\n        /* \"#utility.yul\":16342:16348   */\n      0x00\n        /* \"#utility.yul\":16350:16356   */\n      0x00\n        /* \"#utility.yul\":16358:16364   */\n      0x00\n        /* \"#utility.yul\":16407:16410   */\n      0x80\n        /* \"#utility.yul\":16395:16404   */\n      dup6\n        /* \"#utility.yul\":16386:16393   */\n      dup8\n        /* \"#utility.yul\":16382:16405   */\n      sub\n        /* \"#utility.yul\":16378:16411   */\n      slt\n        /* \"#utility.yul\":16375:16495   */\n      iszero\n      tag_547\n      jumpi\n        /* \"#utility.yul\":16414:16493   */\n      tag_548\n      tag_298\n      jump\t// in\n    tag_548:\n        /* \"#utility.yul\":16375:16495   */\n    tag_547:\n        /* \"#utility.yul\":16562:16563   */\n      0x00\n        /* \"#utility.yul\":16551:16560   */\n      dup6\n        /* \"#utility.yul\":16547:16564   */\n      add\n        /* \"#utility.yul\":16534:16565   */\n      calldataload\n        /* \"#utility.yul\":16592:16610   */\n      0xffffffffffffffff\n        /* \"#utility.yul\":16584:16590   */\n      dup2\n        /* \"#utility.yul\":16581:16611   */\n      gt\n        /* \"#utility.yul\":16578:16695   */\n      iszero\n      tag_549\n      jumpi\n        /* \"#utility.yul\":16614:16693   */\n      tag_550\n      tag_299\n      jump\t// in\n    tag_550:\n        /* \"#utility.yul\":16578:16695   */\n    tag_549:\n        /* \"#utility.yul\":16719:16782   */\n      tag_551\n        /* \"#utility.yul\":16774:16781   */\n      dup8\n        /* \"#utility.yul\":16765:16771   */\n      dup3\n        /* \"#utility.yul\":16754:16763   */\n      dup9\n        /* \"#utility.yul\":16750:16772   */\n      add\n        /* \"#utility.yul\":16719:16782   */\n      tag_333\n      jump\t// in\n    tag_551:\n        /* \"#utility.yul\":16709:16782   */\n      swap5\n      pop\n        /* \"#utility.yul\":16505:16792   */\n      pop\n        /* \"#utility.yul\":16859:16861   */\n      0x20\n        /* \"#utility.yul\":16848:16857   */\n      dup6\n        /* \"#utility.yul\":16844:16862   */\n      add\n        /* \"#utility.yul\":16831:16863   */\n      calldataload\n        /* \"#utility.yul\":16890:16908   */\n      0xffffffffffffffff\n        /* \"#utility.yul\":16882:16888   */\n      dup2\n        /* \"#utility.yul\":16879:16909   */\n      gt\n        /* \"#utility.yul\":16876:16993   */\n      iszero\n      tag_552\n      jumpi\n        /* \"#utility.yul\":16912:16991   */\n      tag_553\n      tag_299\n      jump\t// in\n    tag_553:\n        /* \"#utility.yul\":16876:16993   */\n    tag_552:\n        /* \"#utility.yul\":17017:17080   */\n      tag_554\n        /* \"#utility.yul\":17072:17079   */\n      dup8\n        /* \"#utility.yul\":17063:17069   */\n      dup3\n        /* \"#utility.yul\":17052:17061   */\n      dup9\n        /* \"#utility.yul\":17048:17070   */\n      add\n        /* \"#utility.yul\":17017:17080   */\n      tag_333\n      jump\t// in\n    tag_554:\n        /* \"#utility.yul\":17007:17080   */\n      swap4\n      pop\n        /* \"#utility.yul\":16802:17090   */\n      pop\n        /* \"#utility.yul\":17129:17131   */\n      0x40\n        /* \"#utility.yul\":17155:17208   */\n      tag_555\n        /* \"#utility.yul\":17200:17207   */\n      dup8\n        /* \"#utility.yul\":17191:17197   */\n      dup3\n        /* \"#utility.yul\":17180:17189   */\n      dup9\n        /* \"#utility.yul\":17176:17198   */\n      add\n        /* \"#utility.yul\":17155:17208   */\n      tag_301\n      jump\t// in\n    tag_555:\n        /* \"#utility.yul\":17145:17208   */\n      swap3\n      pop\n        /* \"#utility.yul\":17100:17218   */\n      pop\n        /* \"#utility.yul\":17257:17259   */\n      0x60\n        /* \"#utility.yul\":17283:17336   */\n      tag_556\n        /* \"#utility.yul\":17328:17335   */\n      dup8\n        /* \"#utility.yul\":17319:17325   */\n      dup3\n        /* \"#utility.yul\":17308:17317   */\n      dup9\n        /* \"#utility.yul\":17304:17326   */\n      add\n        /* \"#utility.yul\":17283:17336   */\n      tag_301\n      jump\t// in\n    tag_556:\n        /* \"#utility.yul\":17273:17336   */\n      swap2\n      pop\n        /* \"#utility.yul\":17228:17346   */\n      pop\n        /* \"#utility.yul\":16228:17353   */\n      swap3\n      swap6\n      swap2\n      swap5\n      pop\n      swap3\n      pop\n      jump\t// out\n        /* \"#utility.yul\":17359:17833   */\n    tag_103:\n        /* \"#utility.yul\":17427:17433   */\n      0x00\n        /* \"#utility.yul\":17435:17441   */\n      0x00\n        /* \"#utility.yul\":17484:17486   */\n      0x40\n        /* \"#utility.yul\":17472:17481   */\n      dup4\n        /* \"#utility.yul\":17463:17470   */\n      dup6\n        /* \"#utility.yul\":17459:17482   */\n      sub\n        /* \"#utility.yul\":17455:17487   */\n      slt\n        /* \"#utility.yul\":17452:17571   */\n      iszero\n      tag_558\n      jumpi\n        /* \"#utility.yul\":17490:17569   */\n      tag_559\n      tag_298\n      jump\t// in\n    tag_559:\n        /* \"#utility.yul\":17452:17571   */\n    tag_558:\n        /* \"#utility.yul\":17610:17611   */\n      0x00\n        /* \"#utility.yul\":17635:17688   */\n      tag_560\n        /* \"#utility.yul\":17680:17687   */\n      dup6\n        /* \"#utility.yul\":17671:17677   */\n      dup3\n        /* \"#utility.yul\":17660:17669   */\n      dup7\n        /* \"#utility.yul\":17656:17678   */\n      add\n        /* \"#utility.yul\":17635:17688   */\n      tag_301\n      jump\t// in\n    tag_560:\n        /* \"#utility.yul\":17625:17688   */\n      swap3\n      pop\n        /* \"#utility.yul\":17581:17698   */\n      pop\n        /* \"#utility.yul\":17737:17739   */\n      0x20\n        /* \"#utility.yul\":17763:17816   */\n      tag_561\n        /* \"#utility.yul\":17808:17815   */\n      dup6\n        /* \"#utility.yul\":17799:17805   */\n      dup3\n        /* \"#utility.yul\":17788:17797   */\n      dup7\n        /* \"#utility.yul\":17784:17806   */\n      add\n        /* \"#utility.yul\":17763:17816   */\n      tag_305\n      jump\t// in\n    tag_561:\n        /* \"#utility.yul\":17753:17816   */\n      swap2\n      pop\n        /* \"#utility.yul\":17708:17826   */\n      pop\n        /* \"#utility.yul\":17359:17833   */\n      swap3\n      pop\n      swap3\n      swap1\n      pop\n      jump\t// out\n        /* \"#utility.yul\":17839:18019   */\n    tag_334:\n        /* \"#utility.yul\":17887:17964   */\n      0x4e487b7100000000000000000000000000000000000000000000000000000000\n        /* \"#utility.yul\":17884:17885   */\n      0x00\n        /* \"#utility.yul\":17877:17965   */\n      mstore\n        /* \"#utility.yul\":17984:17988   */\n      0x22\n        /* \"#utility.yul\":17981:17982   */\n      0x04\n        /* \"#utility.yul\":17974:17989   */\n      mstore\n        /* \"#utility.yul\":18008:18012   */\n      0x24\n        /* \"#utility.yul\":18005:18006   */\n      0x00\n        /* \"#utility.yul\":17998:18013   */\n      revert\n        /* \"#utility.yul\":18025:18345   */\n    tag_115:\n        /* \"#utility.yul\":18069:18075   */\n      0x00\n        /* \"#utility.yul\":18106:18107   */\n      0x02\n        /* \"#utility.yul\":18100:18104   */\n      dup3\n        /* \"#utility.yul\":18096:18108   */\n      div\n        /* \"#utility.yul\":18086:18108   */\n      swap1\n      pop\n        /* \"#utility.yul\":18153:18154   */\n      0x01\n        /* \"#utility.yul\":18147:18151   */\n      dup3\n        /* \"#utility.yul\":18143:18155   */\n      and\n        /* \"#utility.yul\":18174:18192   */\n      dup1\n        /* \"#utility.yul\":18164:18245   */\n      tag_564\n      jumpi\n        /* \"#utility.yul\":18230:18234   */\n      0x7f\n        /* \"#utility.yul\":18222:18228   */\n      dup3\n        /* \"#utility.yul\":18218:18235   */\n      and\n        /* \"#utility.yul\":18208:18235   */\n      swap2\n      pop\n        /* \"#utility.yul\":18164:18245   */\n    tag_564:\n        /* \"#utility.yul\":18292:18294   */\n      0x20\n        /* \"#utility.yul\":18284:18290   */\n      dup3\n        /* \"#utility.yul\":18281:18295   */\n      lt\n        /* \"#utility.yul\":18261:18279   */\n      dup2\n        /* \"#utility.yul\":18258:18296   */\n      sub\n        /* \"#utility.yul\":18255:18339   */\n      tag_565\n      jumpi\n        /* \"#utility.yul\":18311:18329   */\n      tag_566\n      tag_334\n      jump\t// in\n    tag_566:\n        /* \"#utility.yul\":18255:18339   */\n    tag_565:\n        /* \"#utility.yul\":18076:18345   */\n      pop\n        /* \"#utility.yul\":18025:18345   */\n      swap2\n      swap1\n      pop\n      jump\t// out\n        /* \"#utility.yul\":18351:18524   */\n    tag_335:\n        /* \"#utility.yul\":18491:18516   */\n      0x43616d706169676e20646f6573206e6f74206578697374000000000000000000\n        /* \"#utility.yul\":18487:18488   */\n      0x00\n        /* \"#utility.yul\":18479:18485   */\n      dup3\n        /* \"#utility.yul\":18475:18489   */\n      add\n        /* \"#utility.yul\":18468:18517   */\n      mstore\n        /* \"#utility.yul\":18351:18524   */\n      pop\n      jump\t// out\n        /* \"#utility.yul\":18530:18896   */\n    tag_336:\n        /* \"#utility.yul\":18672:18675   */\n      0x00\n        /* \"#utility.yul\":18693:18760   */\n      tag_569\n        /* \"#utility.yul\":18757:18759   */\n      0x17\n        /* \"#utility.yul\":18752:18755   */\n      dup4\n        /* \"#utility.yul\":18693:18760   */\n      tag_311\n      jump\t// in\n    tag_569:\n        /* \"#utility.yul\":18686:18760   */\n      swap2\n      pop\n        /* \"#utility.yul\":18769:18862   */\n      tag_570\n        /* \"#utility.yul\":18858:18861   */\n      dup3\n        /* \"#utility.yul\":18769:18862   */\n      tag_335\n      jump\t// in\n    tag_570:\n        /* \"#utility.yul\":18887:18889   */\n      0x20\n        /* \"#utility.yul\":18882:18885   */\n      dup3\n        /* \"#utility.yul\":18878:18890   */\n      add\n        /* \"#utility.yul\":18871:18890   */\n      swap1\n      pop\n        /* \"#utility.yul\":18530:18896   */\n      swap2\n      swap1\n      pop\n      jump\t// out\n        /* \"#utility.yul\":18902:19321   */\n    tag_135:\n        /* \"#utility.yul\":19068:19072   */\n      0x00\n        /* \"#utility.yul\":19106:19108   */\n      0x20\n        /* \"#utility.yul\":19095:19104   */\n      dup3\n        /* \"#utility.yul\":19091:19109   */\n      add\n        /* \"#utility.yul\":19083:19109   */\n      swap1\n      pop\n        /* \"#utility.yul\":19155:19164   */\n      dup2\n        /* \"#utility.yul\":19149:19153   */\n      dup2\n        /* \"#utility.yul\":19145:19165   */\n      sub\n        /* \"#utility.yul\":19141:19142   */\n      0x00\n        /* \"#utility.yul\":19130:19139   */\n      dup4\n        /* \"#utility.yul\":19126:19143   */\n      add\n        /* \"#utility.yul\":19119:19166   */\n      mstore\n        /* \"#utility.yul\":19183:19314   */\n      tag_572\n        /* \"#utility.yul\":19309:19313   */\n      dup2\n        /* \"#utility.yul\":19183:19314   */\n      tag_336\n      jump\t// in\n    tag_572:\n        /* \"#utility.yul\":19175:19314   */\n      swap1\n      pop\n        /* \"#utility.yul\":18902:19321   */\n      swap2\n      swap1\n      pop\n      jump\t// out\n        /* \"#utility.yul\":19327:19502   */\n    tag_337:\n        /* \"#utility.yul\":19467:19494   */\n      0x43616d706169676e206973207374696c6c2072756e6e696e6700000000000000\n        /* \"#utility.yul\":19463:19464   */\n      0x00\n        /* \"#utility.yul\":19455:19461   */\n      dup3\n        /* \"#utility.yul\":19451:19465   */\n      add\n        /* \"#utility.yul\":19444:19495   */\n      mstore\n        /* \"#utility.yul\":19327:19502   */\n      pop\n      jump\t// out\n        /* \"#utility.yul\":19508:19874   */\n    tag_338:\n        /* \"#utility.yul\":19650:19653   */\n      0x00\n        /* \"#utility.yul\":19671:19738   */\n      tag_575\n        /* \"#utility.yul\":19735:19737   */\n      0x19\n        /* \"#utility.yul\":19730:19733   */\n      dup4\n        /* \"#utility.yul\":19671:19738   */\n      tag_311\n      jump\t// in\n    tag_575:\n        /* \"#utility.yul\":19664:19738   */\n      swap2\n      pop\n        /* \"#utility.yul\":19747:19840   */\n      tag_576\n        /* \"#utility.yul\":19836:19839   */\n      dup3\n        /* \"#utility.yul\":19747:19840   */\n      tag_337\n      jump\t// in\n    tag_576:\n        /* \"#utility.yul\":19865:19867   */\n      0x20\n        /* \"#utility.yul\":19860:19863   */\n      dup3\n        /* \"#utility.yul\":19856:19868   */\n      add\n        /* \"#utility.yul\":19849:19868   */\n      swap1\n      pop\n        /* \"#utility.yul\":19508:19874   */\n      swap2\n      swap1\n      pop\n      jump\t// out\n        /* \"#utility.yul\":19880:20299   */\n    tag_157:\n        /* \"#utility.yul\":20046:20050   */\n      0x00\n        /* \"#utility.yul\":20084:20086   */\n      0x20\n        /* \"#utility.yul\":20073:20082   */\n      dup3\n        /* \"#utility.yul\":20069:20087   */\n      add\n        /* \"#utility.yul\":20061:20087   */\n      swap1\n      pop\n        /* \"#utility.yul\":20133:20142   */\n      dup2\n        /* \"#utility.yul\":20127:20131   */\n      dup2\n        /* \"#utility.yul\":20123:20143   */\n      sub\n        /* \"#utility.yul\":20119:20120   */\n      0x00\n        /* \"#utility.yul\":20108:20117   */\n      dup4\n        /* \"#utility.yul\":20104:20121   */\n      add\n        /* \"#utility.yul\":20097:20144   */\n      mstore\n        /* \"#utility.yul\":20161:20292   */\n      tag_578\n        /* \"#utility.yul\":20287:20291   */\n      dup2\n        /* \"#utility.yul\":20161:20292   */\n      tag_338\n      jump\t// in\n    tag_578:\n        /* \"#utility.yul\":20153:20292   */\n      swap1\n      pop\n        /* \"#utility.yul\":19880:20299   */\n      swap2\n      swap1\n      pop\n      jump\t// out\n        /* \"#utility.yul\":20305:20530   */\n    tag_339:\n        /* \"#utility.yul\":20445:20479   */\n      0x476f616c207761732072656163686564202d206e6f20726566756e6420617661\n        /* \"#utility.yul\":20441:20442   */\n      0x00\n        /* \"#utility.yul\":20433:20439   */\n      dup3\n        /* \"#utility.yul\":20429:20443   */\n      add\n        /* \"#utility.yul\":20422:20480   */\n      mstore\n        /* \"#utility.yul\":20514:20522   */\n      0x696c61626c650000000000000000000000000000000000000000000000000000\n        /* \"#utility.yul\":20509:20511   */\n      0x20\n        /* \"#utility.yul\":20501:20507   */\n      dup3\n        /* \"#utility.yul\":20497:20512   */\n      add\n        /* \"#utility.yul\":20490:20523   */\n      mstore\n        /* \"#utility.yul\":20305:20530   */\n      pop\n      jump\t// out\n        /* \"#utility.yul\":20536:20902   */\n    tag_340:\n        /* \"#utility.yul\":20678:20681   */\n      0x00\n        /* \"#utility.yul\":20699:20766   */\n      tag_581\n        /* \"#utility.yul\":20763:20765   */\n      0x26\n        /* \"#utility.yul\":20758:20761   */\n      dup4\n        /* \"#utility.yul\":20699:20766   */\n      tag_311\n      jump\t// in\n    tag_581:\n        /* \"#utility.yul\":20692:20766   */\n      swap2\n      pop\n        /* \"#utility.yul\":20775:20868   */\n      tag_582\n        /* \"#utility.yul\":20864:20867   */\n      dup3\n        /* \"#utility.yul\":20775:20868   */\n      tag_339\n      jump\t// in\n    tag_582:\n        /* \"#utility.yul\":20893:20895   */\n      0x40\n        /* \"#utility.yul\":20888:20891   */\n      dup3\n        /* \"#utility.yul\":20884:20896   */\n      add\n        /* \"#utility.yul\":20877:20896   */\n      swap1\n      pop\n        /* \"#utility.yul\":20536:20902   */\n      swap2\n      swap1\n      pop\n      jump\t// out\n        /* \"#utility.yul\":20908:21327   */\n    tag_160:\n        /* \"#utility.yul\":21074:21078   */\n      0x00\n        /* \"#utility.yul\":21112:21114   */\n      0x20\n        /* \"#utility.yul\":21101:21110   */\n      dup3\n        /* \"#utility.yul\":21097:21115   */\n      add\n        /* \"#utility.yul\":21089:21115   */\n      swap1\n      pop\n        /* \"#utility.yul\":21161:21170   */\n      dup2\n        /* \"#utility.yul\":21155:21159   */\n      dup2\n        /* \"#utility.yul\":21151:21171   */\n      sub\n        /* \"#utility.yul\":21147:21148   */\n      0x00\n        /* \"#utility.yul\":21136:21145   */\n      dup4\n        /* \"#utility.yul\":21132:21149   */\n      add\n        /* \"#utility.yul\":21125:21172   */\n      mstore\n        /* \"#utility.yul\":21189:21320   */\n      tag_584\n        /* \"#utility.yul\":21315:21319   */\n      dup2\n        /* \"#utility.yul\":21189:21320   */\n      tag_340\n      jump\t// in\n    tag_584:\n        /* \"#utility.yul\":21181:21320   */\n      swap1\n      pop\n        /* \"#utility.yul\":20908:21327   */\n      swap2\n      swap1\n      pop\n      jump\t// out\n        /* \"#utility.yul\":21333:21513   */\n    tag_341:\n        /* \"#utility.yul\":21473:21505   */\n      0x596f752068617665206e6f20646f6e6174696f6e20746f20726566756e640000\n        /* \"#utility.yul\":21469:21470   */\n      0x00\n        /* \"#utility.yul\":21461:21467   */\n      dup3\n        /* \"#utility.yul\":21457:21471   */\n      add\n        /* \"#utility.yul\":21450:21506   */\n      mstore\n        /* \"#utility.yul\":21333:21513   */\n      pop\n      jump\t// out\n        /* \"#utility.yul\":21519:21885   */\n    tag_342:\n        /* \"#utility.yul\":21661:21664   */\n      0x00\n        /* \"#utility.yul\":21682:21749   */\n      tag_587\n        /* \"#utility.yul\":21746:21748   */\n      0x1e\n        /* \"#utility.yul\":21741:21744   */\n      dup4\n        /* \"#utility.yul\":21682:21749   */\n      tag_311\n      jump\t// in\n    tag_587:\n        /* \"#utility.yul\":21675:21749   */\n      swap2\n      pop\n        /* \"#utility.yul\":21758:21851   */\n      tag_588\n        /* \"#utility.yul\":21847:21850   */\n      dup3\n        /* \"#utility.yul\":21758:21851   */\n      tag_341\n      jump\t// in\n    tag_588:\n        /* \"#utility.yul\":21876:21878   */\n      0x20\n        /* \"#utility.yul\":21871:21874   */\n      dup3\n        /* \"#utility.yul\":21867:21879   */\n      add\n        /* \"#utility.yul\":21860:21879   */\n      swap1\n      pop\n        /* \"#utility.yul\":21519:21885   */\n      swap2\n      swap1\n      pop\n      jump\t// out\n        /* \"#utility.yul\":21891:22310   */\n    tag_163:\n        /* \"#utility.yul\":22057:22061   */\n      0x00\n        /* \"#utility.yul\":22095:22097   */\n      0x20\n        /* \"#utility.yul\":22084:22093   */\n      dup3\n        /* \"#utility.yul\":22080:22098   */\n      add\n        /* \"#utility.yul\":22072:22098   */\n      swap1\n      pop\n        /* \"#utility.yul\":22144:22153   */\n      dup2\n        /* \"#utility.yul\":22138:22142   */\n      dup2\n        /* \"#utility.yul\":22134:22154   */\n      sub\n        /* \"#utility.yul\":22130:22131   */\n      0x00\n        /* \"#utility.yul\":22119:22128   */\n      dup4\n        /* \"#utility.yul\":22115:22132   */\n      add\n        /* \"#utility.yul\":22108:22155   */\n      mstore\n        /* \"#utility.yul\":22172:22303   */\n      tag_590\n        /* \"#utility.yul\":22298:22302   */\n      dup2\n        /* \"#utility.yul\":22172:22303   */\n      tag_342\n      jump\t// in\n    tag_590:\n        /* \"#utility.yul\":22164:22303   */\n      swap1\n      pop\n        /* \"#utility.yul\":21891:22310   */\n      swap2\n      swap1\n      pop\n      jump\t// out\n        /* \"#utility.yul\":22316:22648   */\n    tag_167:\n        /* \"#utility.yul\":22437:22441   */\n      0x00\n        /* \"#utility.yul\":22475:22477   */\n      0x40\n        /* \"#utility.yul\":22464:22473   */\n      dup3\n        /* \"#utility.yul\":22460:22478   */\n      add\n        /* \"#utility.yul\":22452:22478   */\n      swap1\n      pop\n        /* \"#utility.yul\":22488:22559   */\n      tag_592\n        /* \"#utility.yul\":22556:22557   */\n      0x00\n        /* \"#utility.yul\":22545:22554   */\n      dup4\n        /* \"#utility.yul\":22541:22558   */\n      add\n        /* \"#utility.yul\":22532:22538   */\n      dup6\n        /* \"#utility.yul\":22488:22559   */\n      tag_323\n      jump\t// in\n    tag_592:\n        /* \"#utility.yul\":22569:22641   */\n      tag_593\n        /* \"#utility.yul\":22637:22639   */\n      0x20\n        /* \"#utility.yul\":22626:22635   */\n      dup4\n        /* \"#utility.yul\":22622:22640   */\n      add\n        /* \"#utility.yul\":22613:22619   */\n      dup5\n        /* \"#utility.yul\":22569:22641   */\n      tag_296\n      jump\t// in\n    tag_593:\n        /* \"#utility.yul\":22316:22648   */\n      swap4\n      swap3\n      pop\n      pop\n      pop\n      jump\t// out\n        /* \"#utility.yul\":22654:22824   */\n    tag_343:\n        /* \"#utility.yul\":22794:22816   */\n      0x4f6e6c7920646f6e6f72732063616e20766f7465000000000000000000000000\n        /* \"#utility.yul\":22790:22791   */\n      0x00\n        /* \"#utility.yul\":22782:22788   */\n      dup3\n        /* \"#utility.yul\":22778:22792   */\n      add\n        /* \"#utility.yul\":22771:22817   */\n      mstore\n        /* \"#utility.yul\":22654:22824   */\n      pop\n      jump\t// out\n        /* \"#utility.yul\":22830:23196   */\n    tag_344:\n        /* \"#utility.yul\":22972:22975   */\n      0x00\n        /* \"#utility.yul\":22993:23060   */\n      tag_596\n        /* \"#utility.yul\":23057:23059   */\n      0x14\n        /* \"#utility.yul\":23052:23055   */\n      dup4\n        /* \"#utility.yul\":22993:23060   */\n      tag_311\n      jump\t// in\n    tag_596:\n        /* \"#utility.yul\":22986:23060   */\n      swap2\n      pop\n        /* \"#utility.yul\":23069:23162   */\n      tag_597\n        /* \"#utility.yul\":23158:23161   */\n      dup3\n        /* \"#utility.yul\":23069:23162   */\n      tag_343\n      jump\t// in\n    tag_597:\n        /* \"#utility.yul\":23187:23189   */\n      0x20\n        /* \"#utility.yul\":23182:23185   */\n      dup3\n        /* \"#utility.yul\":23178:23190   */\n      add\n        /* \"#utility.yul\":23171:23190   */\n      swap1\n      pop\n        /* \"#utility.yul\":22830:23196   */\n      swap2\n      swap1\n      pop\n      jump\t// out\n        /* \"#utility.yul\":23202:23621   */\n    tag_174:\n        /* \"#utility.yul\":23368:23372   */\n      0x00\n        /* \"#utility.yul\":23406:23408   */\n      0x20\n        /* \"#utility.yul\":23395:23404   */\n      dup3\n        /* \"#utility.yul\":23391:23409   */\n      add\n        /* \"#utility.yul\":23383:23409   */\n      swap1\n      pop\n        /* \"#utility.yul\":23455:23464   */\n      dup2\n        /* \"#utility.yul\":23449:23453   */\n      dup2\n        /* \"#utility.yul\":23445:23465   */\n      sub\n        /* \"#utility.yul\":23441:23442   */\n      0x00\n        /* \"#utility.yul\":23430:23439   */\n      dup4\n        /* \"#utility.yul\":23426:23443   */\n      add\n        /* \"#utility.yul\":23419:23466   */\n      mstore\n        /* \"#utility.yul\":23483:23614   */\n      tag_599\n        /* \"#utility.yul\":23609:23613   */\n      dup2\n        /* \"#utility.yul\":23483:23614   */\n      tag_344\n      jump\t// in\n    tag_599:\n        /* \"#utility.yul\":23475:23614   */\n      swap1\n      pop\n        /* \"#utility.yul\":23202:23621   */\n      swap2\n      swap1\n      pop\n      jump\t// out\n        /* \"#utility.yul\":23627:23799   */\n    tag_345:\n        /* \"#utility.yul\":23767:23791   */\n      0x596f75206861766520616c726561647920766f74656400000000000000000000\n        /* \"#utility.yul\":23763:23764   */\n      0x00\n        /* \"#utility.yul\":23755:23761   */\n      dup3\n        /* \"#utility.yul\":23751:23765   */\n      add\n        /* \"#utility.yul\":23744:23792   */\n      mstore\n        /* \"#utility.yul\":23627:23799   */\n      pop\n      jump\t// out\n        /* \"#utility.yul\":23805:24171   */\n    tag_346:\n        /* \"#utility.yul\":23947:23950   */\n      0x00\n        /* \"#utility.yul\":23968:24035   */\n      tag_602\n        /* \"#utility.yul\":24032:24034   */\n      0x16\n        /* \"#utility.yul\":24027:24030   */\n      dup4\n        /* \"#utility.yul\":23968:24035   */\n      tag_311\n      jump\t// in\n    tag_602:\n        /* \"#utility.yul\":23961:24035   */\n      swap2\n      pop\n        /* \"#utility.yul\":24044:24137   */\n      tag_603\n        /* \"#utility.yul\":24133:24136   */\n      dup3\n        /* \"#utility.yul\":24044:24137   */\n      tag_345\n      jump\t// in\n    tag_603:\n        /* \"#utility.yul\":24162:24164   */\n      0x20\n        /* \"#utility.yul\":24157:24160   */\n      dup3\n        /* \"#utility.yul\":24153:24165   */\n      add\n        /* \"#utility.yul\":24146:24165   */\n      swap1\n      pop\n        /* \"#utility.yul\":23805:24171   */\n      swap2\n      swap1\n      pop\n      jump\t// out\n        /* \"#utility.yul\":24177:24596   */\n    tag_177:\n        /* \"#utility.yul\":24343:24347   */\n      0x00\n        /* \"#utility.yul\":24381:24383   */\n      0x20\n        /* \"#utility.yul\":24370:24379   */\n      dup3\n        /* \"#utility.yul\":24366:24384   */\n      add\n        /* \"#utility.yul\":24358:24384   */\n      swap1\n      pop\n        /* \"#utility.yul\":24430:24439   */\n      dup2\n        /* \"#utility.yul\":24424:24428   */\n      dup2\n        /* \"#utility.yul\":24420:24440   */\n      sub\n        /* \"#utility.yul\":24416:24417   */\n      0x00\n        /* \"#utility.yul\":24405:24414   */\n      dup4\n        /* \"#utility.yul\":24401:24418   */\n      add\n        /* \"#utility.yul\":24394:24441   */\n      mstore\n        /* \"#utility.yul\":24458:24589   */\n      tag_605\n        /* \"#utility.yul\":24584:24588   */\n      dup2\n        /* \"#utility.yul\":24458:24589   */\n      tag_346\n      jump\t// in\n    tag_605:\n        /* \"#utility.yul\":24450:24589   */\n      swap1\n      pop\n        /* \"#utility.yul\":24177:24596   */\n      swap2\n      swap1\n      pop\n      jump\t// out\n        /* \"#utility.yul\":24602:24778   */\n    tag_347:\n        /* \"#utility.yul\":24742:24770   */\n      0x4d696c6573746f6e6520616c726561647920617070726f766564000000000000\n        /* \"#utility.yul\":24738:24739   */\n      0x00\n        /* \"#utility.yul\":24730:24736   */\n      dup3\n        /* \"#utility.yul\":24726:24740   */\n      add\n        /* \"#utility.yul\":24719:24771   */\n      mstore\n        /* \"#utility.yul\":24602:24778   */\n      pop\n      jump\t// out\n        /* \"#utility.yul\":24784:25150   */\n    tag_348:\n        /* \"#utility.yul\":24926:24929   */\n      0x00\n        /* \"#utility.yul\":24947:25014   */\n      tag_608\n        /* \"#utility.yul\":25011:25013   */\n      0x1a\n        /* \"#utility.yul\":25006:25009   */\n      dup4\n        /* \"#utility.yul\":24947:25014   */\n      tag_311\n      jump\t// in\n    tag_608:\n        /* \"#utility.yul\":24940:25014   */\n      swap2\n      pop\n        /* \"#utility.yul\":25023:25116   */\n      tag_609\n        /* \"#utility.yul\":25112:25115   */\n      dup3\n        /* \"#utility.yul\":25023:25116   */\n      tag_347\n      jump\t// in\n    tag_609:\n        /* \"#utility.yul\":25141:25143   */\n      0x20\n        /* \"#utility.yul\":25136:25139   */\n      dup3\n        /* \"#utility.yul\":25132:25144   */\n      add\n        /* \"#utility.yul\":25125:25144   */\n      swap1\n      pop\n        /* \"#utility.yul\":24784:25150   */\n      swap2\n      swap1\n      pop\n      jump\t// out\n        /* \"#utility.yul\":25156:25575   */\n    tag_180:\n        /* \"#utility.yul\":25322:25326   */\n      0x00\n        /* \"#utility.yul\":25360:25362   */\n      0x20\n        /* \"#utility.yul\":25349:25358   */\n      dup3\n        /* \"#utility.yul\":25345:25363   */\n      add\n        /* \"#utility.yul\":25337:25363   */\n      swap1\n      pop\n        /* \"#utility.yul\":25409:25418   */\n      dup2\n        /* \"#utility.yul\":25403:25407   */\n      dup2\n        /* \"#utility.yul\":25399:25419   */\n      sub\n        /* \"#utility.yul\":25395:25396   */\n      0x00\n        /* \"#utility.yul\":25384:25393   */\n      dup4\n        /* \"#utility.yul\":25380:25397   */\n      add\n        /* \"#utility.yul\":25373:25420   */\n      mstore\n        /* \"#utility.yul\":25437:25568   */\n      tag_611\n        /* \"#utility.yul\":25563:25567   */\n      dup2\n        /* \"#utility.yul\":25437:25568   */\n      tag_348\n      jump\t// in\n    tag_611:\n        /* \"#utility.yul\":25429:25568   */\n      swap1\n      pop\n        /* \"#utility.yul\":25156:25575   */\n      swap2\n      swap1\n      pop\n      jump\t// out\n        /* \"#utility.yul\":25581:25757   */\n    tag_349:\n        /* \"#utility.yul\":25721:25749   */\n      0x4d696c6573746f6e6520616c72656164792072656a6563746564000000000000\n        /* \"#utility.yul\":25717:25718   */\n      0x00\n        /* \"#utility.yul\":25709:25715   */\n      dup3\n        /* \"#utility.yul\":25705:25719   */\n      add\n        /* \"#utility.yul\":25698:25750   */\n      mstore\n        /* \"#utility.yul\":25581:25757   */\n      pop\n      jump\t// out\n        /* \"#utility.yul\":25763:26129   */\n    tag_350:\n        /* \"#utility.yul\":25905:25908   */\n      0x00\n        /* \"#utility.yul\":25926:25993   */\n      tag_614\n        /* \"#utility.yul\":25990:25992   */\n      0x1a\n        /* \"#utility.yul\":25985:25988   */\n      dup4\n        /* \"#utility.yul\":25926:25993   */\n      tag_311\n      jump\t// in\n    tag_614:\n        /* \"#utility.yul\":25919:25993   */\n      swap2\n      pop\n        /* \"#utility.yul\":26002:26095   */\n      tag_615\n        /* \"#utility.yul\":26091:26094   */\n      dup3\n        /* \"#utility.yul\":26002:26095   */\n      tag_349\n      jump\t// in\n    tag_615:\n        /* \"#utility.yul\":26120:26122   */\n      0x20\n        /* \"#utility.yul\":26115:26118   */\n      dup3\n        /* \"#utility.yul\":26111:26123   */\n      add\n        /* \"#utility.yul\":26104:26123   */\n      swap1\n      pop\n        /* \"#utility.yul\":25763:26129   */\n      swap2\n      swap1\n      pop\n      jump\t// out\n        /* \"#utility.yul\":26135:26554   */\n    tag_183:\n        /* \"#utility.yul\":26301:26305   */\n      0x00\n        /* \"#utility.yul\":26339:26341   */\n      0x20\n        /* \"#utility.yul\":26328:26337   */\n      dup3\n        /* \"#utility.yul\":26324:26342   */\n      add\n        /* \"#utility.yul\":26316:26342   */\n      swap1\n      pop\n        /* \"#utility.yul\":26388:26397   */\n      dup2\n        /* \"#utility.yul\":26382:26386   */\n      dup2\n        /* \"#utility.yul\":26378:26398   */\n      sub\n        /* \"#utility.yul\":26374:26375   */\n      0x00\n        /* \"#utility.yul\":26363:26372   */\n      dup4\n        /* \"#utility.yul\":26359:26376   */\n      add\n        /* \"#utility.yul\":26352:26399   */\n      mstore\n        /* \"#utility.yul\":26416:26547   */\n      tag_617\n        /* \"#utility.yul\":26542:26546   */\n      dup2\n        /* \"#utility.yul\":26416:26547   */\n      tag_350\n      jump\t// in\n    tag_617:\n        /* \"#utility.yul\":26408:26547   */\n      swap1\n      pop\n        /* \"#utility.yul\":26135:26554   */\n      swap2\n      swap1\n      pop\n      jump\t// out\n        /* \"#utility.yul\":26560:26740   */\n    tag_351:\n        /* \"#utility.yul\":26608:26685   */\n      0x4e487b7100000000000000000000000000000000000000000000000000000000\n        /* \"#utility.yul\":26605:26606   */\n      0x00\n        /* \"#utility.yul\":26598:26686   */\n      mstore\n        /* \"#utility.yul\":26705:26709   */\n      0x11\n        /* \"#utility.yul\":26702:26703   */\n      0x04\n        /* \"#utility.yul\":26695:26710   */\n      mstore\n        /* \"#utility.yul\":26729:26733   */\n      0x24\n        /* \"#utility.yul\":26726:26727   */\n      0x00\n        /* \"#utility.yul\":26719:26734   */\n      revert\n        /* \"#utility.yul\":26746:26979   */\n    tag_186:\n        /* \"#utility.yul\":26785:26788   */\n      0x00\n        /* \"#utility.yul\":26808:26832   */\n      tag_620\n        /* \"#utility.yul\":26826:26831   */\n      dup3\n        /* \"#utility.yul\":26808:26832   */\n      tag_295\n      jump\t// in\n    tag_620:\n        /* \"#utility.yul\":26799:26832   */\n      swap2\n      pop\n        /* \"#utility.yul\":26854:26920   */\n      0xffffffffffffffffffffffffffffffffffffffffffffffffffffffffffffffff\n        /* \"#utility.yul\":26847:26852   */\n      dup3\n        /* \"#utility.yul\":26844:26921   */\n      sub\n        /* \"#utility.yul\":26841:26944   */\n      tag_621\n      jumpi\n        /* \"#utility.yul\":26924:26942   */\n      tag_622\n      tag_351\n      jump\t// in\n    tag_622:\n        /* \"#utility.yul\":26841:26944   */\n    tag_621:\n        /* \"#utility.yul\":26971:26972   */\n      0x01\n        /* \"#utility.yul\":26964:26969   */\n      dup3\n        /* \"#utility.yul\":26960:26973   */\n      add\n        /* \"#utility.yul\":26953:26973   */\n      swap1\n      pop\n        /* \"#utility.yul\":26746:26979   */\n      swap2\n      swap1\n      pop\n      jump\t// out\n        /* \"#utility.yul\":26985:27415   */\n    tag_188:\n        /* \"#utility.yul\":27128:27132   */\n      0x00\n        /* \"#utility.yul\":27166:27168   */\n      0x60\n        /* \"#utility.yul\":27155:27164   */\n      dup3\n        /* \"#utility.yul\":27151:27169   */\n      add\n        /* \"#utility.yul\":27143:27169   */\n      swap1\n      pop\n        /* \"#utility.yul\":27179:27250   */\n      tag_624\n        /* \"#utility.yul\":27247:27248   */\n      0x00\n        /* \"#utility.yul\":27236:27245   */\n      dup4\n        /* \"#utility.yul\":27232:27249   */\n      add\n        /* \"#utility.yul\":27223:27229   */\n      dup7\n        /* \"#utility.yul\":27179:27250   */\n      tag_296\n      jump\t// in\n    tag_624:\n        /* \"#utility.yul\":27260:27332   */\n      tag_625\n        /* \"#utility.yul\":27328:27330   */\n      0x20\n        /* \"#utility.yul\":27317:27326   */\n      dup4\n        /* \"#utility.yul\":27313:27331   */\n      add\n        /* \"#utility.yul\":27304:27310   */\n      dup6\n        /* \"#utility.yul\":27260:27332   */\n      tag_323\n      jump\t// in\n    tag_625:\n        /* \"#utility.yul\":27342:27408   */\n      tag_626\n        /* \"#utility.yul\":27404:27406   */\n      0x40\n        /* \"#utility.yul\":27393:27402   */\n      dup4\n        /* \"#utility.yul\":27389:27407   */\n      add\n        /* \"#utility.yul\":27380:27386   */\n      dup5\n        /* \"#utility.yul\":27342:27408   */\n      tag_307\n      jump\t// in\n    tag_626:\n        /* \"#utility.yul\":26985:27415   */\n      swap5\n      swap4\n      pop\n      pop\n      pop\n      pop\n      jump\t// out\n        /* \"#utility.yul\":27421:27831   */\n    tag_190:\n        /* \"#utility.yul\":27461:27468   */\n      0x00\n        /* \"#utility.yul\":27484:27504   */\n      tag_628\n        /* \"#utility.yul\":27502:27503   */\n      dup3\n        /* \"#utility.yul\":27484:27504   */\n      tag_295\n      jump\t// in\n    tag_628:\n        /* \"#utility.yul\":27479:27504   */\n      swap2\n      pop\n        /* \"#utility.yul\":27518:27538   */\n      tag_629\n        /* \"#utility.yul\":27536:27537   */\n      dup4\n        /* \"#utility.yul\":27518:27538   */\n      tag_295\n      jump\t// in\n    tag_629:\n        /* \"#utility.yul\":27513:27538   */\n      swap3\n      pop\n        /* \"#utility.yul\":27573:27574   */\n      dup3\n        /* \"#utility.yul\":27570:27571   */\n      dup3\n        /* \"#utility.yul\":27566:27575   */\n      mul\n        /* \"#utility.yul\":27595:27625   */\n      tag_630\n        /* \"#utility.yul\":27613:27624   */\n      dup2\n        /* \"#utility.yul\":27595:27625   */\n      tag_295\n      jump\t// in\n    tag_630:\n        /* \"#utility.yul\":27584:27625   */\n      swap2\n      pop\n        /* \"#utility.yul\":27774:27775   */\n      dup3\n        /* \"#utility.yul\":27765:27772   */\n      dup3\n        /* \"#utility.yul\":27761:27776   */\n      div\n        /* \"#utility.yul\":27758:27759   */\n      dup5\n        /* \"#utility.yul\":27755:27777   */\n      eq\n        /* \"#utility.yul\":27735:27736   */\n      dup4\n        /* \"#utility.yul\":27728:27737   */\n      iszero\n        /* \"#utility.yul\":27708:27791   */\n      or\n        /* \"#utility.yul\":27685:27824   */\n      tag_631\n      jumpi\n        /* \"#utility.yul\":27804:27822   */\n      tag_632\n      tag_351\n      jump\t// in\n    tag_632:\n        /* \"#utility.yul\":27685:27824   */\n    tag_631:\n        /* \"#utility.yul\":27469:27831   */\n      pop\n        /* \"#utility.yul\":27421:27831   */\n      swap3\n      swap2\n      pop\n      pop\n      jump\t// out\n        /* \"#utility.yul\":27837:28169   */\n    tag_195:\n        /* \"#utility.yul\":27958:27962   */\n      0x00\n        /* \"#utility.yul\":27996:27998   */\n      0x40\n        /* \"#utility.yul\":27985:27994   */\n      dup3\n        /* \"#utility.yul\":27981:27999   */\n      add\n        /* \"#utility.yul\":27973:27999   */\n      swap1\n      pop\n        /* \"#utility.yul\":28009:28080   */\n      tag_634\n        /* \"#utility.yul\":28077:28078   */\n      0x00\n        /* \"#utility.yul\":28066:28075   */\n      dup4\n        /* \"#utility.yul\":28062:28079   */\n      add\n        /* \"#utility.yul\":28053:28059   */\n      dup6\n        /* \"#utility.yul\":28009:28080   */\n      tag_296\n      jump\t// in\n    tag_634:\n        /* \"#utility.yul\":28090:28162   */\n      tag_635\n        /* \"#utility.yul\":28158:28160   */\n      0x20\n        /* \"#utility.yul\":28147:28156   */\n      dup4\n        /* \"#utility.yul\":28143:28161   */\n      add\n        /* \"#utility.yul\":28134:28140   */\n      dup5\n        /* \"#utility.yul\":28090:28162   */\n      tag_296\n      jump\t// in\n    tag_635:\n        /* \"#utility.yul\":27837:28169   */\n      swap4\n      swap3\n      pop\n      pop\n      pop\n      jump\t// out\n        /* \"#utility.yul\":28175:28369   */\n    tag_210:\n        /* \"#utility.yul\":28215:28219   */\n      0x00\n        /* \"#utility.yul\":28235:28255   */\n      tag_637\n        /* \"#utility.yul\":28253:28254   */\n      dup3\n        /* \"#utility.yul\":28235:28255   */\n      tag_295\n      jump\t// in\n    tag_637:\n        /* \"#utility.yul\":28230:28255   */\n      swap2\n      pop\n        /* \"#utility.yul\":28269:28289   */\n      tag_638\n        /* \"#utility.yul\":28287:28288   */\n      dup4\n        /* \"#utility.yul\":28269:28289   */\n      tag_295\n      jump\t// in\n    tag_638:\n        /* \"#utility.yul\":28264:28289   */\n      swap3\n      pop\n        /* \"#utility.yul\":28313:28314   */\n      dup3\n        /* \"#utility.yul\":28310:28311   */\n      dup3\n        /* \"#utility.yul\":28306:28315   */\n      sub\n        /* \"#utility.yul\":28298:28315   */\n      swap1\n      pop\n        /* \"#utility.yul\":28337:28338   */\n      dup2\n        /* \"#utility.yul\":28331:28335   */\n      dup2\n        /* \"#utility.yul\":28328:28339   */\n      gt\n        /* \"#utility.yul\":28325:28362   */\n      iszero\n      tag_639\n      jumpi\n        /* \"#utility.yul\":28342:28360   */\n      tag_640\n      tag_351\n      jump\t// in\n    tag_640:\n        /* \"#utility.yul\":28325:28362   */\n    tag_639:\n        /* \"#utility.yul\":28175:28369   */\n      swap3\n      swap2\n      pop\n      pop\n      jump\t// out\n        /* \"#utility.yul\":28375:28599   */\n    tag_352:\n        /* \"#utility.yul\":28515:28549   */\n      0x4f6e6c79207468652063616d706169676e2063726561746f722063616e20646f\n        /* \"#utility.yul\":28511:28512   */\n      0x00\n        /* \"#utility.yul\":28503:28509   */\n      dup3\n        /* \"#utility.yul\":28499:28513   */\n      add\n        /* \"#utility.yul\":28492:28550   */\n      mstore\n        /* \"#utility.yul\":28584:28591   */\n      0x2074686973000000000000000000000000000000000000000000000000000000\n        /* \"#utility.yul\":28579:28581   */\n      0x20\n        /* \"#utility.yul\":28571:28577   */\n      dup3\n        /* \"#utility.yul\":28567:28582   */\n      add\n        /* \"#utility.yul\":28560:28592   */\n      mstore\n        /* \"#utility.yul\":28375:28599   */\n      pop\n      jump\t// out\n        /* \"#utility.yul\":28605:28971   */\n    tag_353:\n        /* \"#utility.yul\":28747:28750   */\n      0x00\n        /* \"#utility.yul\":28768:28835   */\n      tag_643\n        /* \"#utility.yul\":28832:28834   */\n      0x25\n        /* \"#utility.yul\":28827:28830   */\n      dup4\n        /* \"#utility.yul\":28768:28835   */\n      tag_311\n      jump\t// in\n    tag_643:\n        /* \"#utility.yul\":28761:28835   */\n      swap2\n      pop\n        /* \"#utility.yul\":28844:28937   */\n      tag_644\n        /* \"#utility.yul\":28933:28936   */\n      dup3\n        /* \"#utility.yul\":28844:28937   */\n      tag_352\n      jump\t// in\n    tag_644:\n        /* \"#utility.yul\":28962:28964   */\n      0x40\n        /* \"#utility.yul\":28957:28960   */\n      dup3\n        /* \"#utility.yul\":28953:28965   */\n      add\n        /* \"#utility.yul\":28946:28965   */\n      swap1\n      pop\n        /* \"#utility.yul\":28605:28971   */\n      swap2\n      swap1\n      pop\n      jump\t// out\n        /* \"#utility.yul\":28977:29396   */\n    tag_225:\n        /* \"#utility.yul\":29143:29147   */\n      0x00\n        /* \"#utility.yul\":29181:29183   */\n      0x20\n        /* \"#utility.yul\":29170:29179   */\n      dup3\n        /* \"#utility.yul\":29166:29184   */\n      add\n        /* \"#utility.yul\":29158:29184   */\n      swap1\n      pop\n        /* \"#utility.yul\":29230:29239   */\n      dup2\n        /* \"#utility.yul\":29224:29228   */\n      dup2\n        /* \"#utility.yul\":29220:29240   */\n      sub\n        /* \"#utility.yul\":29216:29217   */\n      0x00\n        /* \"#utility.yul\":29205:29214   */\n      dup4\n        /* \"#utility.yul\":29201:29218   */\n      add\n        /* \"#utility.yul\":29194:29241   */\n      mstore\n        /* \"#utility.yul\":29258:29389   */\n      tag_646\n        /* \"#utility.yul\":29384:29388   */\n      dup2\n        /* \"#utility.yul\":29258:29389   */\n      tag_353\n      jump\t// in\n    tag_646:\n        /* \"#utility.yul\":29250:29389   */\n      swap1\n      pop\n        /* \"#utility.yul\":28977:29396   */\n      swap2\n      swap1\n      pop\n      jump\t// out\n        /* \"#utility.yul\":29402:29630   */\n    tag_354:\n        /* \"#utility.yul\":29542:29576   */\n      0x476f616c206e6f74207265616368656420796574202d207761697420666f7220\n        /* \"#utility.yul\":29538:29539   */\n      0x00\n        /* \"#utility.yul\":29530:29536   */\n      dup3\n        /* \"#utility.yul\":29526:29540   */\n      add\n        /* \"#utility.yul\":29519:29577   */\n      mstore\n        /* \"#utility.yul\":29611:29622   */\n      0x646f6e6174696f6e730000000000000000000000000000000000000000000000\n        /* \"#utility.yul\":29606:29608   */\n      0x20\n        /* \"#utility.yul\":29598:29604   */\n      dup3\n        /* \"#utility.yul\":29594:29609   */\n      add\n        /* \"#utility.yul\":29587:29623   */\n      mstore\n        /* \"#utility.yul\":29402:29630   */\n      pop\n      jump\t// out\n        /* \"#utility.yul\":29636:30002   */\n    tag_355:\n        /* \"#utility.yul\":29778:29781   */\n      0x00\n        /* \"#utility.yul\":29799:29866   */\n      tag_649\n        /* \"#utility.yul\":29863:29865   */\n      0x29\n        /* \"#utility.yul\":29858:29861   */\n      dup4\n        /* \"#utility.yul\":29799:29866   */\n      tag_311\n      jump\t// in\n    tag_649:\n        /* \"#utility.yul\":29792:29866   */\n      swap2\n      pop\n        /* \"#utility.yul\":29875:29968   */\n      tag_650\n        /* \"#utility.yul\":29964:29967   */\n      dup3\n        /* \"#utility.yul\":29875:29968   */\n      tag_354\n      jump\t// in\n    tag_650:\n        /* \"#utility.yul\":29993:29995   */\n      0x40\n        /* \"#utility.yul\":29988:29991   */\n      dup3\n        /* \"#utility.yul\":29984:29996   */\n      add\n        /* \"#utility.yul\":29977:29996   */\n      swap1\n      pop\n        /* \"#utility.yul\":29636:30002   */\n      swap2\n      swap1\n      pop\n      jump\t// out\n        /* \"#utility.yul\":30008:30427   */\n    tag_229:\n        /* \"#utility.yul\":30174:30178   */\n      0x00\n        /* \"#utility.yul\":30212:30214   */\n      0x20\n        /* \"#utility.yul\":30201:30210   */\n      dup3\n        /* \"#utility.yul\":30197:30215   */\n      add\n        /* \"#utility.yul\":30189:30215   */\n      swap1\n      pop\n        /* \"#utility.yul\":30261:30270   */\n      dup2\n        /* \"#utility.yul\":30255:30259   */\n      dup2\n        /* \"#utility.yul\":30251:30271   */\n      sub\n        /* \"#utility.yul\":30247:30248   */\n      0x00\n        /* \"#utility.yul\":30236:30245   */\n      dup4\n        /* \"#utility.yul\":30232:30249   */\n      add\n        /* \"#utility.yul\":30225:30272   */\n      mstore\n        /* \"#utility.yul\":30289:30420   */\n      tag_652\n        /* \"#utility.yul\":30415:30419   */\n      dup2\n        /* \"#utility.yul\":30289:30420   */\n      tag_355\n      jump\t// in\n    tag_652:\n        /* \"#utility.yul\":30281:30420   */\n      swap1\n      pop\n        /* \"#utility.yul\":30008:30427   */\n      swap2\n      swap1\n      pop\n      jump\t// out\n        /* \"#utility.yul\":30433:30613   */\n    tag_356:\n        /* \"#utility.yul\":30573:30605   */\n      0x4d696c6573746f6e65206465736372697074696f6e2072657175697265640000\n        /* \"#utility.yul\":30569:30570   */\n      0x00\n        /* \"#utility.yul\":30561:30567   */\n      dup3\n        /* \"#utility.yul\":30557:30571   */\n      add\n        /* \"#utility.yul\":30550:30606   */\n      mstore\n        /* \"#utility.yul\":30433:30613   */\n      pop\n      jump\t// out\n        /* \"#utility.yul\":30619:30985   */\n    tag_357:\n        /* \"#utility.yul\":30761:30764   */\n      0x00\n        /* \"#utility.yul\":30782:30849   */\n      tag_655\n        /* \"#utility.yul\":30846:30848   */\n      0x1e\n        /* \"#utility.yul\":30841:30844   */\n      dup4\n        /* \"#utility.yul\":30782:30849   */\n      tag_311\n      jump\t// in\n    tag_655:\n        /* \"#utility.yul\":30775:30849   */\n      swap2\n      pop\n        /* \"#utility.yul\":30858:30951   */\n      tag_656\n        /* \"#utility.yul\":30947:30950   */\n      dup3\n        /* \"#utility.yul\":30858:30951   */\n      tag_356\n      jump\t// in\n    tag_656:\n        /* \"#utility.yul\":30976:30978   */\n      0x20\n        /* \"#utility.yul\":30971:30974   */\n      dup3\n        /* \"#utility.yul\":30967:30979   */\n      add\n        /* \"#utility.yul\":30960:30979   */\n      swap1\n      pop\n        /* \"#utility.yul\":30619:30985   */\n      swap2\n      swap1\n      pop\n      jump\t// out\n        /* \"#utility.yul\":30991:31410   */\n    tag_232:\n        /* \"#utility.yul\":31157:31161   */\n      0x00\n        /* \"#utility.yul\":31195:31197   */\n      0x20\n        /* \"#utility.yul\":31184:31193   */\n      dup3\n        /* \"#utility.yul\":31180:31198   */\n      add\n        /* \"#utility.yul\":31172:31198   */\n      swap1\n      pop\n        /* \"#utility.yul\":31244:31253   */\n      dup2\n        /* \"#utility.yul\":31238:31242   */\n      dup2\n        /* \"#utility.yul\":31234:31254   */\n      sub\n        /* \"#utility.yul\":31230:31231   */\n      0x00\n        /* \"#utility.yul\":31219:31228   */\n      dup4\n        /* \"#utility.yul\":31215:31232   */\n      add\n        /* \"#utility.yul\":31208:31255   */\n      mstore\n        /* \"#utility.yul\":31272:31403   */\n      tag_658\n        /* \"#utility.yul\":31398:31402   */\n      dup2\n        /* \"#utility.yul\":31272:31403   */\n      tag_357\n      jump\t// in\n    tag_658:\n        /* \"#utility.yul\":31264:31403   */\n      swap1\n      pop\n        /* \"#utility.yul\":30991:31410   */\n      swap2\n      swap1\n      pop\n      jump\t// out\n        /* \"#utility.yul\":31416:31640   */\n    tag_358:\n        /* \"#utility.yul\":31556:31590   */\n      0x52656c6561736520616d6f756e74206d75737420626520677265617465722074\n        /* \"#utility.yul\":31552:31553   */\n      0x00\n        /* \"#utility.yul\":31544:31550   */\n      dup3\n        /* \"#utility.yul\":31540:31554   */\n      add\n        /* \"#utility.yul\":31533:31591   */\n      mstore\n        /* \"#utility.yul\":31625:31632   */\n      0x68616e2030000000000000000000000000000000000000000000000000000000\n        /* \"#utility.yul\":31620:31622   */\n      0x20\n        /* \"#utility.yul\":31612:31618   */\n      dup3\n        /* \"#utility.yul\":31608:31623   */\n      add\n        /* \"#utility.yul\":31601:31633   */\n      mstore\n        /* \"#utility.yul\":31416:31640   */\n      pop\n      jump\t// out\n        /* \"#utility.yul\":31646:32012   */\n    tag_359:\n        /* \"#utility.yul\":31788:31791   */\n      0x00\n        /* \"#utility.yul\":31809:31876   */\n      tag_661\n        /* \"#utility.yul\":31873:31875   */\n      0x25\n        /* \"#utility.yul\":31868:31871   */\n      dup4\n        /* \"#utility.yul\":31809:31876   */\n      tag_311\n      jump\t// in\n    tag_661:\n        /* \"#utility.yul\":31802:31876   */\n      swap2\n      pop\n        /* \"#utility.yul\":31885:31978   */\n      tag_662\n        /* \"#utility.yul\":31974:31977   */\n      dup3\n        /* \"#utility.yul\":31885:31978   */\n      tag_358\n      jump\t// in\n    tag_662:\n        /* \"#utility.yul\":32003:32005   */\n      0x40\n        /* \"#utility.yul\":31998:32001   */\n      dup3\n        /* \"#utility.yul\":31994:32006   */\n      add\n        /* \"#utility.yul\":31987:32006   */\n      swap1\n      pop\n        /* \"#utility.yul\":31646:32012   */\n      swap2\n      swap1\n      pop\n      jump\t// out\n        /* \"#utility.yul\":32018:32437   */\n    tag_235:\n        /* \"#utility.yul\":32184:32188   */\n      0x00\n        /* \"#utility.yul\":32222:32224   */\n      0x20\n        /* \"#utility.yul\":32211:32220   */\n      dup3\n        /* \"#utility.yul\":32207:32225   */\n      add\n        /* \"#utility.yul\":32199:32225   */\n      swap1\n      pop\n        /* \"#utility.yul\":32271:32280   */\n      dup2\n        /* \"#utility.yul\":32265:32269   */\n      dup2\n        /* \"#utility.yul\":32261:32281   */\n      sub\n        /* \"#utility.yul\":32257:32258   */\n      0x00\n        /* \"#utility.yul\":32246:32255   */\n      dup4\n        /* \"#utility.yul\":32242:32259   */\n      add\n        /* \"#utility.yul\":32235:32282   */\n      mstore\n        /* \"#utility.yul\":32299:32430   */\n      tag_664\n        /* \"#utility.yul\":32425:32429   */\n      dup2\n        /* \"#utility.yul\":32299:32430   */\n      tag_359\n      jump\t// in\n    tag_664:\n        /* \"#utility.yul\":32291:32430   */\n      swap1\n      pop\n        /* \"#utility.yul\":32018:32437   */\n      swap2\n      swap1\n      pop\n      jump\t// out\n        /* \"#utility.yul\":32443:32670   */\n    tag_360:\n        /* \"#utility.yul\":32583:32617   */\n      0x52657175657374656420616d6f756e74206578636565647320617661696c6162\n        /* \"#utility.yul\":32579:32580   */\n      0x00\n        /* \"#utility.yul\":32571:32577   */\n      dup3\n        /* \"#utility.yul\":32567:32581   */\n      add\n        /* \"#utility.yul\":32560:32618   */\n      mstore\n        /* \"#utility.yul\":32652:32662   */\n      0x6c652066756e6473000000000000000000000000000000000000000000000000\n        /* \"#utility.yul\":32647:32649   */\n      0x20\n        /* \"#utility.yul\":32639:32645   */\n      dup3\n        /* \"#utility.yul\":32635:32650   */\n      add\n        /* \"#utility.yul\":32628:32663   */\n      mstore\n        /* \"#utility.yul\":32443:32670   */\n      pop\n      jump\t// out\n        /* \"#utility.yul\":32676:33042   */\n    tag_361:\n        /* \"#utility.yul\":32818:32821   */\n      0x00\n        /* \"#utility.yul\":32839:32906   */\n      tag_667\n        /* \"#utility.yul\":32903:32905   */\n      0x28\n        /* \"#utility.yul\":32898:32901   */\n      dup4\n        /* \"#utility.yul\":32839:32906   */\n      tag_311\n      jump\t// in\n    tag_667:\n        /* \"#utility.yul\":32832:32906   */\n      swap2\n      pop\n        /* \"#utility.yul\":32915:33008   */\n      tag_668\n        /* \"#utility.yul\":33004:33007   */\n      dup3\n        /* \"#utility.yul\":32915:33008   */\n      tag_360\n      jump\t// in\n    tag_668:\n        /* \"#utility.yul\":33033:33035   */\n      0x40\n        /* \"#utility.yul\":33028:33031   */\n      dup3\n        /* \"#utility.yul\":33024:33036   */\n      add\n        /* \"#utility.yul\":33017:33036   */\n      swap1\n      pop\n        /* \"#utility.yul\":32676:33042   */\n      swap2\n      swap1\n      pop\n      jump\t// out\n        /* \"#utility.yul\":33048:33467   */\n    tag_239:\n        /* \"#utility.yul\":33214:33218   */\n      0x00\n        /* \"#utility.yul\":33252:33254   */\n      0x20\n        /* \"#utility.yul\":33241:33250   */\n      dup3\n        /* \"#utility.yul\":33237:33255   */\n      add\n        /* \"#utility.yul\":33229:33255   */\n      swap1\n      pop\n        /* \"#utility.yul\":33301:33310   */\n      dup2\n        /* \"#utility.yul\":33295:33299   */\n      dup2\n        /* \"#utility.yul\":33291:33311   */\n      sub\n        /* \"#utility.yul\":33287:33288   */\n      0x00\n        /* \"#utility.yul\":33276:33285   */\n      dup4\n        /* \"#utility.yul\":33272:33289   */\n      add\n        /* \"#utility.yul\":33265:33312   */\n      mstore\n        /* \"#utility.yul\":33329:33460   */\n      tag_670\n        /* \"#utility.yul\":33455:33459   */\n      dup2\n        /* \"#utility.yul\":33329:33460   */\n      tag_361\n      jump\t// in\n    tag_670:\n        /* \"#utility.yul\":33321:33460   */\n      swap1\n      pop\n        /* \"#utility.yul\":33048:33467   */\n      swap2\n      swap1\n      pop\n      jump\t// out\n        /* \"#utility.yul\":33473:33614   */\n    tag_362:\n        /* \"#utility.yul\":33522:33526   */\n      0x00\n        /* \"#utility.yul\":33545:33548   */\n      dup2\n        /* \"#utility.yul\":33537:33548   */\n      swap1\n      pop\n        /* \"#utility.yul\":33568:33571   */\n      dup2\n        /* \"#utility.yul\":33565:33566   */\n      0x00\n        /* \"#utility.yul\":33558:33572   */\n      mstore\n        /* \"#utility.yul\":33602:33606   */\n      0x20\n        /* \"#utility.yul\":33599:33600   */\n      0x00\n        /* \"#utility.yul\":33589:33607   */\n      keccak256\n        /* \"#utility.yul\":33581:33607   */\n      swap1\n      pop\n        /* \"#utility.yul\":33473:33614   */\n      swap2\n      swap1\n      pop\n      jump\t// out\n        /* \"#utility.yul\":33620:33713   */\n    tag_363:\n        /* \"#utility.yul\":33657:33663   */\n      0x00\n        /* \"#utility.yul\":33704:33706   */\n      0x20\n        /* \"#utility.yul\":33699:33701   */\n      0x1f\n        /* \"#utility.yul\":33692:33697   */\n      dup4\n        /* \"#utility.yul\":33688:33702   */\n      add\n        /* \"#utility.yul\":33684:33707   */\n      div\n        /* \"#utility.yul\":33674:33707   */\n      swap1\n      pop\n        /* \"#utility.yul\":33620:33713   */\n      swap2\n      swap1\n      pop\n      jump\t// out\n        /* \"#utility.yul\":33719:33826   */\n    tag_364:\n        /* \"#utility.yul\":33763:33771   */\n      0x00\n        /* \"#utility.yul\":33813:33818   */\n      dup3\n        /* \"#utility.yul\":33807:33811   */\n      dup3\n        /* \"#utility.yul\":33803:33819   */\n      shl\n        /* \"#utility.yul\":33782:33819   */\n      swap1\n      pop\n        /* \"#utility.yul\":33719:33826   */\n      swap3\n      swap2\n      pop\n      pop\n      jump\t// out\n        /* \"#utility.yul\":33832:34225   */\n    tag_365:\n        /* \"#utility.yul\":33901:33907   */\n      0x00\n        /* \"#utility.yul\":33951:33952   */\n      0x08\n        /* \"#utility.yul\":33939:33949   */\n      dup4\n        /* \"#utility.yul\":33935:33953   */\n      mul\n        /* \"#utility.yul\":33974:34071   */\n      tag_675\n        /* \"#utility.yul\":34004:34070   */\n      0xffffffffffffffffffffffffffffffffffffffffffffffffffffffffffffffff\n        /* \"#utility.yul\":33993:34002   */\n      dup3\n        /* \"#utility.yul\":33974:34071   */\n      tag_364\n      jump\t// in\n    tag_675:\n        /* \"#utility.yul\":34092:34131   */\n      tag_676\n        /* \"#utility.yul\":34122:34130   */\n      dup7\n        /* \"#utility.yul\":34111:34120   */\n      dup4\n        /* \"#utility.yul\":34092:34131   */\n      tag_364\n      jump\t// in\n    tag_676:\n        /* \"#utility.yul\":34080:34131   */\n      swap6\n      pop\n        /* \"#utility.yul\":34164:34168   */\n      dup1\n        /* \"#utility.yul\":34160:34169   */\n      not\n        /* \"#utility.yul\":34153:34158   */\n      dup5\n        /* \"#utility.yul\":34149:34170   */\n      and\n        /* \"#utility.yul\":34140:34170   */\n      swap4\n      pop\n        /* \"#utility.yul\":34213:34217   */\n      dup1\n        /* \"#utility.yul\":34203:34211   */\n      dup7\n        /* \"#utility.yul\":34199:34218   */\n      and\n        /* \"#utility.yul\":34192:34197   */\n      dup5\n        /* \"#utility.yul\":34189:34219   */\n      or\n        /* \"#utility.yul\":34179:34219   */\n      swap3\n      pop\n        /* \"#utility.yul\":33908:34225   */\n      pop\n      pop\n        /* \"#utility.yul\":33832:34225   */\n      swap4\n      swap3\n      pop\n      pop\n      pop\n      jump\t// out\n        /* \"#utility.yul\":34231:34291   */\n    tag_366:\n        /* \"#utility.yul\":34259:34262   */\n      0x00\n        /* \"#utility.yul\":34280:34285   */\n      dup2\n        /* \"#utility.yul\":34273:34285   */\n      swap1\n      pop\n        /* \"#utility.yul\":34231:34291   */\n      swap2\n      swap1\n      pop\n      jump\t// out\n        /* \"#utility.yul\":34297:34439   */\n    tag_367:\n        /* \"#utility.yul\":34347:34356   */\n      0x00\n        /* \"#utility.yul\":34380:34433   */\n      tag_679\n        /* \"#utility.yul\":34398:34432   */\n      tag_680\n        /* \"#utility.yul\":34407:34431   */\n      tag_681\n        /* \"#utility.yul\":34425:34430   */\n      dup5\n        /* \"#utility.yul\":34407:34431   */\n      tag_295\n      jump\t// in\n    tag_681:\n        /* \"#utility.yul\":34398:34432   */\n      tag_366\n      jump\t// in\n    tag_680:\n        /* \"#utility.yul\":34380:34433   */\n      tag_295\n      jump\t// in\n    tag_679:\n        /* \"#utility.yul\":34367:34433   */\n      swap1\n      pop\n        /* \"#utility.yul\":34297:34439   */\n      swap2\n      swap1\n      pop\n      jump\t// out\n        /* \"#utility.yul\":34445:34520   */\n    tag_368:\n        /* \"#utility.yul\":34488:34491   */\n      0x00\n        /* \"#utility.yul\":34509:34514   */\n      dup2\n        /* \"#utility.yul\":34502:34514   */\n      swap1\n      pop\n        /* \"#utility.yul\":34445:34520   */\n      swap2\n      swap1\n      pop\n      jump\t// out\n        /* \"#utility.yul\":34526:34795   */\n    tag_369:\n        /* \"#utility.yul\":34636:34675   */\n      tag_684\n        /* \"#utility.yul\":34667:34674   */\n      dup4\n        /* \"#utility.yul\":34636:34675   */\n      tag_367\n      jump\t// in\n    tag_684:\n        /* \"#utility.yul\":34697:34788   */\n      tag_685\n        /* \"#utility.yul\":34746:34787   */\n      tag_686\n        /* \"#utility.yul\":34770:34786   */\n      dup3\n        /* \"#utility.yul\":34746:34787   */\n      tag_368\n      jump\t// in\n    tag_686:\n        /* \"#utility.yul\":34738:34744   */\n      dup5\n        /* \"#utility.yul\":34731:34735   */\n      dup5\n        /* \"#utility.yul\":34725:34736   */\n      sload\n        /* \"#utility.yul\":34697:34788   */\n      tag_365\n      jump\t// in\n    tag_685:\n        /* \"#utility.yul\":34691:34695   */\n      dup3\n        /* \"#utility.yul\":34684:34789   */\n      sstore\n        /* \"#utility.yul\":34602:34795   */\n      pop\n        /* \"#utility.yul\":34526:34795   */\n      pop\n      pop\n      pop\n      jump\t// out\n        /* \"#utility.yul\":34801:34874   */\n    tag_370:\n        /* \"#utility.yul\":34846:34849   */\n      0x00\n        /* \"#utility.yul\":34867:34868   */\n      0x00\n        /* \"#utility.yul\":34860:34868   */\n      swap1\n      pop\n        /* \"#utility.yul\":34801:34874   */\n      swap1\n      jump\t// out\n        /* \"#utility.yul\":34880:35069   */\n    tag_371:\n        /* \"#utility.yul\":34957:34989   */\n      tag_689\n      tag_370\n      jump\t// in\n    tag_689:\n        /* \"#utility.yul\":34998:35063   */\n      tag_690\n        /* \"#utility.yul\":35056:35062   */\n      dup2\n        /* \"#utility.yul\":35048:35054   */\n      dup5\n        /* \"#utility.yul\":35042:35046   */\n      dup5\n        /* \"#utility.yul\":34998:35063   */\n      tag_369\n      jump\t// in\n    tag_690:\n        /* \"#utility.yul\":34933:35069   */\n      pop\n        /* \"#utility.yul\":34880:35069   */\n      pop\n      pop\n      jump\t// out\n        /* \"#utility.yul\":35075:35261   */\n    tag_372:\n        /* \"#utility.yul\":35135:35255   */\n    tag_692:\n        /* \"#utility.yul\":35152:35155   */\n      dup2\n        /* \"#utility.yul\":35145:35150   */\n      dup2\n        /* \"#utility.yul\":35142:35156   */\n      lt\n        /* \"#utility.yul\":35135:35255   */\n      iszero\n      tag_694\n      jumpi\n        /* \"#utility.yul\":35206:35245   */\n      tag_695\n        /* \"#utility.yul\":35243:35244   */\n      0x00\n        /* \"#utility.yul\":35236:35241   */\n      dup3\n        /* \"#utility.yul\":35206:35245   */\n      tag_371\n      jump\t// in\n    tag_695:\n        /* \"#utility.yul\":35179:35180   */\n      0x01\n        /* \"#utility.yul\":35172:35177   */\n      dup2\n        /* \"#utility.yul\":35168:35181   */\n      add\n        /* \"#utility.yul\":35159:35181   */\n      swap1\n      pop\n        /* \"#utility.yul\":35135:35255   */\n      jump(tag_692)\n    tag_694:\n        /* \"#utility.yul\":35075:35261   */\n      pop\n      pop\n      jump\t// out\n        /* \"#utility.yul\":35267:35810   */\n    tag_373:\n        /* \"#utility.yul\":35368:35370   */\n      0x1f\n        /* \"#utility.yul\":35363:35366   */\n      dup3\n        /* \"#utility.yul\":35360:35371   */\n      gt\n        /* \"#utility.yul\":35357:35803   */\n      iszero\n      tag_697\n      jumpi\n        /* \"#utility.yul\":35402:35440   */\n      tag_698\n        /* \"#utility.yul\":35434:35439   */\n      dup2\n        /* \"#utility.yul\":35402:35440   */\n      tag_362\n      jump\t// in\n    tag_698:\n        /* \"#utility.yul\":35486:35515   */\n      tag_699\n        /* \"#utility.yul\":35504:35514   */\n      dup5\n        /* \"#utility.yul\":35486:35515   */\n      tag_363\n      jump\t// in\n    tag_699:\n        /* \"#utility.yul\":35476:35484   */\n      dup2\n        /* \"#utility.yul\":35472:35516   */\n      add\n        /* \"#utility.yul\":35669:35671   */\n      0x20\n        /* \"#utility.yul\":35657:35667   */\n      dup6\n        /* \"#utility.yul\":35654:35672   */\n      lt\n        /* \"#utility.yul\":35651:35700   */\n      iszero\n      tag_700\n      jumpi\n        /* \"#utility.yul\":35690:35698   */\n      dup2\n        /* \"#utility.yul\":35675:35698   */\n      swap1\n      pop\n        /* \"#utility.yul\":35651:35700   */\n    tag_700:\n        /* \"#utility.yul\":35713:35793   */\n      tag_701\n        /* \"#utility.yul\":35769:35791   */\n      tag_702\n        /* \"#utility.yul\":35787:35790   */\n      dup6\n        /* \"#utility.yul\":35769:35791   */\n      tag_363\n      jump\t// in\n    tag_702:\n        /* \"#utility.yul\":35759:35767   */\n      dup4\n        /* \"#utility.yul\":35755:35792   */\n      add\n        /* \"#utility.yul\":35742:35753   */\n      dup3\n        /* \"#utility.yul\":35713:35793   */\n      tag_372\n      jump\t// in\n    tag_701:\n        /* \"#utility.yul\":35372:35803   */\n      pop\n      pop\n        /* \"#utility.yul\":35357:35803   */\n    tag_697:\n        /* \"#utility.yul\":35267:35810   */\n      pop\n      pop\n      pop\n      jump\t// out\n        /* \"#utility.yul\":35816:35933   */\n    tag_374:\n        /* \"#utility.yul\":35870:35878   */\n      0x00\n        /* \"#utility.yul\":35920:35925   */\n      dup3\n        /* \"#utility.yul\":35914:35918   */\n      dup3\n        /* \"#utility.yul\":35910:35926   */\n      shr\n        /* \"#utility.yul\":35889:35926   */\n      swap1\n      pop\n        /* \"#utility.yul\":35816:35933   */\n      swap3\n      swap2\n      pop\n      pop\n      jump\t// out\n        /* \"#utility.yul\":35939:36108   */\n    tag_375:\n        /* \"#utility.yul\":35983:35989   */\n      0x00\n        /* \"#utility.yul\":36016:36067   */\n      tag_705\n        /* \"#utility.yul\":36064:36065   */\n      0x00\n        /* \"#utility.yul\":36060:36066   */\n      not\n        /* \"#utility.yul\":36052:36057   */\n      dup5\n        /* \"#utility.yul\":36049:36050   */\n      0x08\n        /* \"#utility.yul\":36045:36058   */\n      mul\n        /* \"#utility.yul\":36016:36067   */\n      tag_374\n      jump\t// in\n    tag_705:\n        /* \"#utility.yul\":36012:36068   */\n      not\n        /* \"#utility.yul\":36097:36101   */\n      dup1\n        /* \"#utility.yul\":36091:36095   */\n      dup4\n        /* \"#utility.yul\":36087:36102   */\n      and\n        /* \"#utility.yul\":36077:36102   */\n      swap2\n      pop\n        /* \"#utility.yul\":35990:36108   */\n      pop\n        /* \"#utility.yul\":35939:36108   */\n      swap3\n      swap2\n      pop\n      pop\n      jump\t// out\n        /* \"#utility.yul\":36113:36408   */\n    tag_376:\n        /* \"#utility.yul\":36189:36193   */\n      0x00\n        /* \"#utility.yul\":36335:36364   */\n      tag_707\n        /* \"#utility.yul\":36360:36363   */\n      dup4\n        /* \"#utility.yul\":36354:36358   */\n      dup4\n        /* \"#utility.yul\":36335:36364   */\n      tag_375\n      jump\t// in\n    tag_707:\n        /* \"#utility.yul\":36327:36364   */\n      swap2\n      pop\n        /* \"#utility.yul\":36397:36400   */\n      dup3\n        /* \"#utility.yul\":36394:36395   */\n      0x02\n        /* \"#utility.yul\":36390:36401   */\n      mul\n        /* \"#utility.yul\":36384:36388   */\n      dup3\n        /* \"#utility.yul\":36381:36402   */\n      or\n        /* \"#utility.yul\":36373:36402   */\n      swap1\n      pop\n        /* \"#utility.yul\":36113:36408   */\n      swap3\n      swap2\n      pop\n      pop\n      jump\t// out\n        /* \"#utility.yul\":36413:37808   */\n    tag_242:\n        /* \"#utility.yul\":36530:36567   */\n      tag_709\n        /* \"#utility.yul\":36563:36566   */\n      dup3\n        /* \"#utility.yul\":36530:36567   */\n      tag_310\n      jump\t// in\n    tag_709:\n        /* \"#utility.yul\":36632:36650   */\n      0xffffffffffffffff\n        /* \"#utility.yul\":36624:36630   */\n      dup2\n        /* \"#utility.yul\":36621:36651   */\n      gt\n        /* \"#utility.yul\":36618:36674   */\n      iszero\n      tag_710\n      jumpi\n        /* \"#utility.yul\":36654:36672   */\n      tag_711\n      tag_327\n      jump\t// in\n    tag_711:\n        /* \"#utility.yul\":36618:36674   */\n    tag_710:\n        /* \"#utility.yul\":36698:36736   */\n      tag_712\n        /* \"#utility.yul\":36730:36734   */\n      dup3\n        /* \"#utility.yul\":36724:36735   */\n      sload\n        /* \"#utility.yul\":36698:36736   */\n      tag_115\n      jump\t// in\n    tag_712:\n        /* \"#utility.yul\":36783:36850   */\n      tag_713\n        /* \"#utility.yul\":36843:36849   */\n      dup3\n        /* \"#utility.yul\":36835:36841   */\n      dup3\n        /* \"#utility.yul\":36829:36833   */\n      dup6\n        /* \"#utility.yul\":36783:36850   */\n      tag_373\n      jump\t// in\n    tag_713:\n        /* \"#utility.yul\":36877:36878   */\n      0x00\n        /* \"#utility.yul\":36901:36905   */\n      0x20\n        /* \"#utility.yul\":36888:36905   */\n      swap1\n      pop\n        /* \"#utility.yul\":36933:36935   */\n      0x1f\n        /* \"#utility.yul\":36925:36931   */\n      dup4\n        /* \"#utility.yul\":36922:36936   */\n      gt\n        /* \"#utility.yul\":36950:36951   */\n      0x01\n        /* \"#utility.yul\":36945:37563   */\n      dup2\n      eq\n      tag_715\n      jumpi\n        /* \"#utility.yul\":37607:37608   */\n      0x00\n        /* \"#utility.yul\":37624:37630   */\n      dup5\n        /* \"#utility.yul\":37621:37698   */\n      iszero\n      tag_716\n      jumpi\n        /* \"#utility.yul\":37673:37682   */\n      dup3\n        /* \"#utility.yul\":37668:37671   */\n      dup8\n        /* \"#utility.yul\":37664:37683   */\n      add\n        /* \"#utility.yul\":37658:37684   */\n      mload\n        /* \"#utility.yul\":37649:37684   */\n      swap1\n      pop\n        /* \"#utility.yul\":37621:37698   */\n    tag_716:\n        /* \"#utility.yul\":37724:37791   */\n      tag_717\n        /* \"#utility.yul\":37784:37790   */\n      dup6\n        /* \"#utility.yul\":37777:37782   */\n      dup3\n        /* \"#utility.yul\":37724:37791   */\n      tag_376\n      jump\t// in\n    tag_717:\n        /* \"#utility.yul\":37718:37722   */\n      dup7\n        /* \"#utility.yul\":37711:37792   */\n      sstore\n        /* \"#utility.yul\":37580:37802   */\n      pop\n        /* \"#utility.yul\":36915:37802   */\n      jump(tag_714)\n        /* \"#utility.yul\":36945:37563   */\n    tag_715:\n        /* \"#utility.yul\":36997:37001   */\n      0x1f\n        /* \"#utility.yul\":36993:37002   */\n      not\n        /* \"#utility.yul\":36985:36991   */\n      dup5\n        /* \"#utility.yul\":36981:37003   */\n      and\n        /* \"#utility.yul\":37031:37068   */\n      tag_718\n        /* \"#utility.yul\":37063:37067   */\n      dup7\n        /* \"#utility.yul\":37031:37068   */\n      tag_362\n      jump\t// in\n    tag_718:\n        /* \"#utility.yul\":37090:37091   */\n      0x00\n        /* \"#utility.yul\":37104:37312   */\n    tag_719:\n        /* \"#utility.yul\":37118:37125   */\n      dup3\n        /* \"#utility.yul\":37115:37116   */\n      dup2\n        /* \"#utility.yul\":37112:37126   */\n      lt\n        /* \"#utility.yul\":37104:37312   */\n      iszero\n      tag_721\n      jumpi\n        /* \"#utility.yul\":37197:37206   */\n      dup5\n        /* \"#utility.yul\":37192:37195   */\n      dup10\n        /* \"#utility.yul\":37188:37207   */\n      add\n        /* \"#utility.yul\":37182:37208   */\n      mload\n        /* \"#utility.yul\":37174:37180   */\n      dup3\n        /* \"#utility.yul\":37167:37209   */\n      sstore\n        /* \"#utility.yul\":37248:37249   */\n      0x01\n        /* \"#utility.yul\":37240:37246   */\n      dup3\n        /* \"#utility.yul\":37236:37250   */\n      add\n        /* \"#utility.yul\":37226:37250   */\n      swap2\n      pop\n        /* \"#utility.yul\":37295:37297   */\n      0x20\n        /* \"#utility.yul\":37284:37293   */\n      dup6\n        /* \"#utility.yul\":37280:37298   */\n      add\n        /* \"#utility.yul\":37267:37298   */\n      swap5\n      pop\n        /* \"#utility.yul\":37141:37145   */\n      0x20\n        /* \"#utility.yul\":37138:37139   */\n      dup2\n        /* \"#utility.yul\":37134:37146   */\n      add\n        /* \"#utility.yul\":37129:37146   */\n      swap1\n      pop\n        /* \"#utility.yul\":37104:37312   */\n      jump(tag_719)\n    tag_721:\n        /* \"#utility.yul\":37340:37346   */\n      dup7\n        /* \"#utility.yul\":37331:37338   */\n      dup4\n        /* \"#utility.yul\":37328:37347   */\n      lt\n        /* \"#utility.yul\":37325:37504   */\n      iszero\n      tag_722\n      jumpi\n        /* \"#utility.yul\":37398:37407   */\n      dup5\n        /* \"#utility.yul\":37393:37396   */\n      dup10\n        /* \"#utility.yul\":37389:37408   */\n      add\n        /* \"#utility.yul\":37383:37409   */\n      mload\n        /* \"#utility.yul\":37441:37489   */\n      tag_723\n        /* \"#utility.yul\":37483:37487   */\n      0x1f\n        /* \"#utility.yul\":37475:37481   */\n      dup10\n        /* \"#utility.yul\":37471:37488   */\n      and\n        /* \"#utility.yul\":37460:37469   */\n      dup3\n        /* \"#utility.yul\":37441:37489   */\n      tag_375\n      jump\t// in\n    tag_723:\n        /* \"#utility.yul\":37433:37439   */\n      dup4\n        /* \"#utility.yul\":37426:37490   */\n      sstore\n        /* \"#utility.yul\":37348:37504   */\n      pop\n        /* \"#utility.yul\":37325:37504   */\n    tag_722:\n        /* \"#utility.yul\":37550:37551   */\n      0x01\n        /* \"#utility.yul\":37546:37547   */\n      0x02\n        /* \"#utility.yul\":37538:37544   */\n      dup9\n        /* \"#utility.yul\":37534:37548   */\n      mul\n        /* \"#utility.yul\":37530:37552   */\n      add\n        /* \"#utility.yul\":37524:37528   */\n      dup9\n        /* \"#utility.yul\":37517:37553   */\n      sstore\n        /* \"#utility.yul\":36952:37563   */\n      pop\n      pop\n      pop\n        /* \"#utility.yul\":36915:37802   */\n    tag_714:\n      pop\n        /* \"#utility.yul\":36505:37808   */\n      pop\n      pop\n      pop\n        /* \"#utility.yul\":36413:37808   */\n      pop\n      pop\n      jump\t// out\n        /* \"#utility.yul\":37814:38347   */\n    tag_246:\n        /* \"#utility.yul\":37983:37987   */\n      0x00\n        /* \"#utility.yul\":38021:38023   */\n      0x60\n        /* \"#utility.yul\":38010:38019   */\n      dup3\n        /* \"#utility.yul\":38006:38024   */\n      add\n        /* \"#utility.yul\":37998:38024   */\n      swap1\n      pop\n        /* \"#utility.yul\":38034:38105   */\n      tag_725\n        /* \"#utility.yul\":38102:38103   */\n      0x00\n        /* \"#utility.yul\":38091:38100   */\n      dup4\n        /* \"#utility.yul\":38087:38104   */\n      add\n        /* \"#utility.yul\":38078:38084   */\n      dup7\n        /* \"#utility.yul\":38034:38105   */\n      tag_296\n      jump\t// in\n    tag_725:\n        /* \"#utility.yul\":38152:38161   */\n      dup2\n        /* \"#utility.yul\":38146:38150   */\n      dup2\n        /* \"#utility.yul\":38142:38162   */\n      sub\n        /* \"#utility.yul\":38137:38139   */\n      0x20\n        /* \"#utility.yul\":38126:38135   */\n      dup4\n        /* \"#utility.yul\":38122:38140   */\n      add\n        /* \"#utility.yul\":38115:38163   */\n      mstore\n        /* \"#utility.yul\":38180:38258   */\n      tag_726\n        /* \"#utility.yul\":38253:38257   */\n      dup2\n        /* \"#utility.yul\":38244:38250   */\n      dup6\n        /* \"#utility.yul\":38180:38258   */\n      tag_314\n      jump\t// in\n    tag_726:\n        /* \"#utility.yul\":38172:38258   */\n      swap1\n      pop\n        /* \"#utility.yul\":38268:38340   */\n      tag_727\n        /* \"#utility.yul\":38336:38338   */\n      0x40\n        /* \"#utility.yul\":38325:38334   */\n      dup4\n        /* \"#utility.yul\":38321:38339   */\n      add\n        /* \"#utility.yul\":38312:38318   */\n      dup5\n        /* \"#utility.yul\":38268:38340   */\n      tag_296\n      jump\t// in\n    tag_727:\n        /* \"#utility.yul\":37814:38347   */\n      swap5\n      swap4\n      pop\n      pop\n      pop\n      pop\n      jump\t// out\n        /* \"#utility.yul\":38353:38524   */\n    tag_377:\n        /* \"#utility.yul\":38493:38516   */\n      0x5469746c652063616e6e6f7420626520656d7074790000000000000000000000\n        /* \"#utility.yul\":38489:38490   */\n      0x00\n        /* \"#utility.yul\":38481:38487   */\n      dup3\n        /* \"#utility.yul\":38477:38491   */\n      add\n        /* \"#utility.yul\":38470:38517   */\n      mstore\n        /* \"#utility.yul\":38353:38524   */\n      pop\n      jump\t// out\n        /* \"#utility.yul\":38530:38896   */\n    tag_378:\n        /* \"#utility.yul\":38672:38675   */\n      0x00\n        /* \"#utility.yul\":38693:38760   */\n      tag_730\n        /* \"#utility.yul\":38757:38759   */\n      0x15\n        /* \"#utility.yul\":38752:38755   */\n      dup4\n        /* \"#utility.yul\":38693:38760   */\n      tag_311\n      jump\t// in\n    tag_730:\n        /* \"#utility.yul\":38686:38760   */\n      swap2\n      pop\n        /* \"#utility.yul\":38769:38862   */\n      tag_731\n        /* \"#utility.yul\":38858:38861   */\n      dup3\n        /* \"#utility.yul\":38769:38862   */\n      tag_377\n      jump\t// in\n    tag_731:\n        /* \"#utility.yul\":38887:38889   */\n      0x20\n        /* \"#utility.yul\":38882:38885   */\n      dup3\n        /* \"#utility.yul\":38878:38890   */\n      add\n        /* \"#utility.yul\":38871:38890   */\n      swap1\n      pop\n        /* \"#utility.yul\":38530:38896   */\n      swap2\n      swap1\n      pop\n      jump\t// out\n        /* \"#utility.yul\":38902:39321   */\n    tag_250:\n        /* \"#utility.yul\":39068:39072   */\n      0x00\n        /* \"#utility.yul\":39106:39108   */\n      0x20\n        /* \"#utility.yul\":39095:39104   */\n      dup3\n        /* \"#utility.yul\":39091:39109   */\n      add\n        /* \"#utility.yul\":39083:39109   */\n      swap1\n      pop\n        /* \"#utility.yul\":39155:39164   */\n      dup2\n        /* \"#utility.yul\":39149:39153   */\n      dup2\n        /* \"#utility.yul\":39145:39165   */\n      sub\n        /* \"#utility.yul\":39141:39142   */\n      0x00\n        /* \"#utility.yul\":39130:39139   */\n      dup4\n        /* \"#utility.yul\":39126:39143   */\n      add\n        /* \"#utility.yul\":39119:39166   */\n      mstore\n        /* \"#utility.yul\":39183:39314   */\n      tag_733\n        /* \"#utility.yul\":39309:39313   */\n      dup2\n        /* \"#utility.yul\":39183:39314   */\n      tag_378\n      jump\t// in\n    tag_733:\n        /* \"#utility.yul\":39175:39314   */\n      swap1\n      pop\n        /* \"#utility.yul\":38902:39321   */\n      swap2\n      swap1\n      pop\n      jump\t// out\n        /* \"#utility.yul\":39327:39504   */\n    tag_379:\n        /* \"#utility.yul\":39467:39496   */\n      0x4465736372697074696f6e2063616e6e6f7420626520656d7074790000000000\n        /* \"#utility.yul\":39463:39464   */\n      0x00\n        /* \"#utility.yul\":39455:39461   */\n      dup3\n        /* \"#utility.yul\":39451:39465   */\n      add\n        /* \"#utility.yul\":39444:39497   */\n      mstore\n        /* \"#utility.yul\":39327:39504   */\n      pop\n      jump\t// out\n        /* \"#utility.yul\":39510:39876   */\n    tag_380:\n        /* \"#utility.yul\":39652:39655   */\n      0x00\n        /* \"#utility.yul\":39673:39740   */\n      tag_736\n        /* \"#utility.yul\":39737:39739   */\n      0x1b\n        /* \"#utility.yul\":39732:39735   */\n      dup4\n        /* \"#utility.yul\":39673:39740   */\n      tag_311\n      jump\t// in\n    tag_736:\n        /* \"#utility.yul\":39666:39740   */\n      swap2\n      pop\n        /* \"#utility.yul\":39749:39842   */\n      tag_737\n        /* \"#utility.yul\":39838:39841   */\n      dup3\n        /* \"#utility.yul\":39749:39842   */\n      tag_379\n      jump\t// in\n    tag_737:\n        /* \"#utility.yul\":39867:39869   */\n      0x20\n        /* \"#utility.yul\":39862:39865   */\n      dup3\n        /* \"#utility.yul\":39858:39870   */\n      add\n        /* \"#utility.yul\":39851:39870   */\n      swap1\n      pop\n        /* \"#utility.yul\":39510:39876   */\n      swap2\n      swap1\n      pop\n      jump\t// out\n        /* \"#utility.yul\":39882:40301   */\n    tag_253:\n        /* \"#utility.yul\":40048:40052   */\n      0x00\n        /* \"#utility.yul\":40086:40088   */\n      0x20\n        /* \"#utility.yul\":40075:40084   */\n      dup3\n        /* \"#utility.yul\":40071:40089   */\n      add\n        /* \"#utility.yul\":40063:40089   */\n      swap1\n      pop\n        /* \"#utility.yul\":40135:40144   */\n      dup2\n        /* \"#utility.yul\":40129:40133   */\n      dup2\n        /* \"#utility.yul\":40125:40145   */\n      sub\n        /* \"#utility.yul\":40121:40122   */\n      0x00\n        /* \"#utility.yul\":40110:40119   */\n      dup4\n        /* \"#utility.yul\":40106:40123   */\n      add\n        /* \"#utility.yul\":40099:40146   */\n      mstore\n        /* \"#utility.yul\":40163:40294   */\n      tag_739\n        /* \"#utility.yul\":40289:40293   */\n      dup2\n        /* \"#utility.yul\":40163:40294   */\n      tag_380\n      jump\t// in\n    tag_739:\n        /* \"#utility.yul\":40155:40294   */\n      swap1\n      pop\n        /* \"#utility.yul\":39882:40301   */\n      swap2\n      swap1\n      pop\n      jump\t// out\n        /* \"#utility.yul\":40307:40484   */\n    tag_381:\n        /* \"#utility.yul\":40447:40476   */\n      0x476f616c206d7573742062652067726561746572207468616e20300000000000\n        /* \"#utility.yul\":40443:40444   */\n      0x00\n        /* \"#utility.yul\":40435:40441   */\n      dup3\n        /* \"#utility.yul\":40431:40445   */\n      add\n        /* \"#utility.yul\":40424:40477   */\n      mstore\n        /* \"#utility.yul\":40307:40484   */\n      pop\n      jump\t// out\n        /* \"#utility.yul\":40490:40856   */\n    tag_382:\n        /* \"#utility.yul\":40632:40635   */\n      0x00\n        /* \"#utility.yul\":40653:40720   */\n      tag_742\n        /* \"#utility.yul\":40717:40719   */\n      0x1b\n        /* \"#utility.yul\":40712:40715   */\n      dup4\n        /* \"#utility.yul\":40653:40720   */\n      tag_311\n      jump\t// in\n    tag_742:\n        /* \"#utility.yul\":40646:40720   */\n      swap2\n      pop\n        /* \"#utility.yul\":40729:40822   */\n      tag_743\n        /* \"#utility.yul\":40818:40821   */\n      dup3\n        /* \"#utility.yul\":40729:40822   */\n      tag_381\n      jump\t// in\n    tag_743:\n        /* \"#utility.yul\":40847:40849   */\n      0x20\n        /* \"#utility.yul\":40842:40845   */\n      dup3\n        /* \"#utility.yul\":40838:40850   */\n      add\n        /* \"#utility.yul\":40831:40850   */\n      swap1\n      pop\n        /* \"#utility.yul\":40490:40856   */\n      swap2\n      swap1\n      pop\n      jump\t// out\n        /* \"#utility.yul\":40862:41281   */\n    tag_256:\n        /* \"#utility.yul\":41028:41032   */\n      0x00\n        /* \"#utility.yul\":41066:41068   */\n      0x20\n        /* \"#utility.yul\":41055:41064   */\n      dup3\n        /* \"#utility.yul\":41051:41069   */\n      add\n        /* \"#utility.yul\":41043:41069   */\n      swap1\n      pop\n        /* \"#utility.yul\":41115:41124   */\n      dup2\n        /* \"#utility.yul\":41109:41113   */\n      dup2\n        /* \"#utility.yul\":41105:41125   */\n      sub\n        /* \"#utility.yul\":41101:41102   */\n      0x00\n        /* \"#utility.yul\":41090:41099   */\n      dup4\n        /* \"#utility.yul\":41086:41103   */\n      add\n        /* \"#utility.yul\":41079:41126   */\n      mstore\n        /* \"#utility.yul\":41143:41274   */\n      tag_745\n        /* \"#utility.yul\":41269:41273   */\n      dup2\n        /* \"#utility.yul\":41143:41274   */\n      tag_382\n      jump\t// in\n    tag_745:\n        /* \"#utility.yul\":41135:41274   */\n      swap1\n      pop\n        /* \"#utility.yul\":40862:41281   */\n      swap2\n      swap1\n      pop\n      jump\t// out\n        /* \"#utility.yul\":41287:41512   */\n    tag_383:\n        /* \"#utility.yul\":41427:41461   */\n      0x4475726174696f6e206d757374206265206265747765656e203120616e642039\n        /* \"#utility.yul\":41423:41424   */\n      0x00\n        /* \"#utility.yul\":41415:41421   */\n      dup3\n        /* \"#utility.yul\":41411:41425   */\n      add\n        /* \"#utility.yul\":41404:41462   */\n      mstore\n        /* \"#utility.yul\":41496:41504   */\n      0x3020646179730000000000000000000000000000000000000000000000000000\n        /* \"#utility.yul\":41491:41493   */\n      0x20\n        /* \"#utility.yul\":41483:41489   */\n      dup3\n        /* \"#utility.yul\":41479:41494   */\n      add\n        /* \"#utility.yul\":41472:41505   */\n      mstore\n        /* \"#utility.yul\":41287:41512   */\n      pop\n      jump\t// out\n        /* \"#utility.yul\":41518:41884   */\n    tag_384:\n        /* \"#utility.yul\":41660:41663   */\n      0x00\n        /* \"#utility.yul\":41681:41748   */\n      tag_748\n        /* \"#utility.yul\":41745:41747   */\n      0x26\n        /* \"#utility.yul\":41740:41743   */\n      dup4\n        /* \"#utility.yul\":41681:41748   */\n      tag_311\n      jump\t// in\n    tag_748:\n        /* \"#utility.yul\":41674:41748   */\n      swap2\n      pop\n        /* \"#utility.yul\":41757:41850   */\n      tag_749\n        /* \"#utility.yul\":41846:41849   */\n      dup3\n        /* \"#utility.yul\":41757:41850   */\n      tag_383\n      jump\t// in\n    tag_749:\n        /* \"#utility.yul\":41875:41877   */\n      0x40\n        /* \"#utility.yul\":41870:41873   */\n      dup3\n        /* \"#utility.yul\":41866:41878   */\n      add\n        /* \"#utility.yul\":41859:41878   */\n      swap1\n      pop\n        /* \"#utility.yul\":41518:41884   */\n      swap2\n      swap1\n      pop\n      jump\t// out\n        /* \"#utility.yul\":41890:42309   */\n    tag_260:\n        /* \"#utility.yul\":42056:42060   */\n      0x00\n        /* \"#utility.yul\":42094:42096   */\n      0x20\n        /* \"#utility.yul\":42083:42092   */\n      dup3\n        /* \"#utility.yul\":42079:42097   */\n      add\n        /* \"#utility.yul\":42071:42097   */\n      swap1\n      pop\n        /* \"#utility.yul\":42143:42152   */\n      dup2\n        /* \"#utility.yul\":42137:42141   */\n      dup2\n        /* \"#utility.yul\":42133:42153   */\n      sub\n        /* \"#utility.yul\":42129:42130   */\n      0x00\n        /* \"#utility.yul\":42118:42127   */\n      dup4\n        /* \"#utility.yul\":42114:42131   */\n      add\n        /* \"#utility.yul\":42107:42154   */\n      mstore\n        /* \"#utility.yul\":42171:42302   */\n      tag_751\n        /* \"#utility.yul\":42297:42301   */\n      dup2\n        /* \"#utility.yul\":42171:42302   */\n      tag_384\n      jump\t// in\n    tag_751:\n        /* \"#utility.yul\":42163:42302   */\n      swap1\n      pop\n        /* \"#utility.yul\":41890:42309   */\n      swap2\n      swap1\n      pop\n      jump\t// out\n        /* \"#utility.yul\":42315:42506   */\n    tag_264:\n        /* \"#utility.yul\":42355:42358   */\n      0x00\n        /* \"#utility.yul\":42374:42394   */\n      tag_753\n        /* \"#utility.yul\":42392:42393   */\n      dup3\n        /* \"#utility.yul\":42374:42394   */\n      tag_295\n      jump\t// in\n    tag_753:\n        /* \"#utility.yul\":42369:42394   */\n      swap2\n      pop\n        /* \"#utility.yul\":42408:42428   */\n      tag_754\n        /* \"#utility.yul\":42426:42427   */\n      dup4\n        /* \"#utility.yul\":42408:42428   */\n      tag_295\n      jump\t// in\n    tag_754:\n        /* \"#utility.yul\":42403:42428   */\n      swap3\n      pop\n        /* \"#utility.yul\":42451:42452   */\n      dup3\n        /* \"#utility.yul\":42448:42449   */\n      dup3\n        /* \"#utility.yul\":42444:42453   */\n      add\n        /* \"#utility.yul\":42437:42453   */\n      swap1\n      pop\n        /* \"#utility.yul\":42472:42475   */\n      dup1\n        /* \"#utility.yul\":42469:42470   */\n      dup3\n        /* \"#utility.yul\":42466:42476   */\n      gt\n        /* \"#utility.yul\":42463:42499   */\n      iszero\n      tag_755\n      jumpi\n        /* \"#utility.yul\":42479:42497   */\n      tag_756\n      tag_351\n      jump\t// in\n    tag_756:\n        /* \"#utility.yul\":42463:42499   */\n    tag_755:\n        /* \"#utility.yul\":42315:42506   */\n      swap3\n      swap2\n      pop\n      pop\n      jump\t// out\n        /* \"#utility.yul\":42512:43156   */\n    tag_270:\n        /* \"#utility.yul\":42709:42713   */\n      0x00\n        /* \"#utility.yul\":42747:42750   */\n      0x80\n        /* \"#utility.yul\":42736:42745   */\n      dup3\n        /* \"#utility.yul\":42732:42751   */\n      add\n        /* \"#utility.yul\":42724:42751   */\n      swap1\n      pop\n        /* \"#utility.yul\":42761:42832   */\n      tag_758\n        /* \"#utility.yul\":42829:42830   */\n      0x00\n        /* \"#utility.yul\":42818:42827   */\n      dup4\n        /* \"#utility.yul\":42814:42831   */\n      add\n        /* \"#utility.yul\":42805:42811   */\n      dup8\n        /* \"#utility.yul\":42761:42832   */\n      tag_323\n      jump\t// in\n    tag_758:\n        /* \"#utility.yul\":42879:42888   */\n      dup2\n        /* \"#utility.yul\":42873:42877   */\n      dup2\n        /* \"#utility.yul\":42869:42889   */\n      sub\n        /* \"#utility.yul\":42864:42866   */\n      0x20\n        /* \"#utility.yul\":42853:42862   */\n      dup4\n        /* \"#utility.yul\":42849:42867   */\n      add\n        /* \"#utility.yul\":42842:42890   */\n      mstore\n        /* \"#utility.yul\":42907:42985   */\n      tag_759\n        /* \"#utility.yul\":42980:42984   */\n      dup2\n        /* \"#utility.yul\":42971:42977   */\n      dup7\n        /* \"#utility.yul\":42907:42985   */\n      tag_314\n      jump\t// in\n    tag_759:\n        /* \"#utility.yul\":42899:42985   */\n      swap1\n      pop\n        /* \"#utility.yul\":42995:43067   */\n      tag_760\n        /* \"#utility.yul\":43063:43065   */\n      0x40\n        /* \"#utility.yul\":43052:43061   */\n      dup4\n        /* \"#utility.yul\":43048:43066   */\n      add\n        /* \"#utility.yul\":43039:43045   */\n      dup6\n        /* \"#utility.yul\":42995:43067   */\n      tag_296\n      jump\t// in\n    tag_760:\n        /* \"#utility.yul\":43077:43149   */\n      tag_761\n        /* \"#utility.yul\":43145:43147   */\n      0x60\n        /* \"#utility.yul\":43134:43143   */\n      dup4\n        /* \"#utility.yul\":43130:43148   */\n      add\n        /* \"#utility.yul\":43121:43127   */\n      dup5\n        /* \"#utility.yul\":43077:43149   */\n      tag_296\n      jump\t// in\n    tag_761:\n        /* \"#utility.yul\":42512:43156   */\n      swap6\n      swap5\n      pop\n      pop\n      pop\n      pop\n      pop\n      jump\t// out\n        /* \"#utility.yul\":43162:43333   */\n    tag_385:\n        /* \"#utility.yul\":43302:43325   */\n      0x43616d706169676e2069732063616e63656c6c65640000000000000000000000\n        /* \"#utility.yul\":43298:43299   */\n      0x00\n        /* \"#utility.yul\":43290:43296   */\n      dup3\n        /* \"#utility.yul\":43286:43300   */\n      add\n        /* \"#utility.yul\":43279:43326   */\n      mstore\n        /* \"#utility.yul\":43162:43333   */\n      pop\n      jump\t// out\n        /* \"#utility.yul\":43339:43705   */\n    tag_386:\n        /* \"#utility.yul\":43481:43484   */\n      0x00\n        /* \"#utility.yul\":43502:43569   */\n      tag_764\n        /* \"#utility.yul\":43566:43568   */\n      0x15\n        /* \"#utility.yul\":43561:43564   */\n      dup4\n        /* \"#utility.yul\":43502:43569   */\n      tag_311\n      jump\t// in\n    tag_764:\n        /* \"#utility.yul\":43495:43569   */\n      swap2\n      pop\n        /* \"#utility.yul\":43578:43671   */\n      tag_765\n        /* \"#utility.yul\":43667:43670   */\n      dup3\n        /* \"#utility.yul\":43578:43671   */\n      tag_385\n      jump\t// in\n    tag_765:\n        /* \"#utility.yul\":43696:43698   */\n      0x20\n        /* \"#utility.yul\":43691:43694   */\n      dup3\n        /* \"#utility.yul\":43687:43699   */\n      add\n        /* \"#utility.yul\":43680:43699   */\n      swap1\n      pop\n        /* \"#utility.yul\":43339:43705   */\n      swap2\n      swap1\n      pop\n      jump\t// out\n        /* \"#utility.yul\":43711:44130   */\n    tag_277:\n        /* \"#utility.yul\":43877:43881   */\n      0x00\n        /* \"#utility.yul\":43915:43917   */\n      0x20\n        /* \"#utility.yul\":43904:43913   */\n      dup3\n        /* \"#utility.yul\":43900:43918   */\n      add\n        /* \"#utility.yul\":43892:43918   */\n      swap1\n      pop\n        /* \"#utility.yul\":43964:43973   */\n      dup2\n        /* \"#utility.yul\":43958:43962   */\n      dup2\n        /* \"#utility.yul\":43954:43974   */\n      sub\n        /* \"#utility.yul\":43950:43951   */\n      0x00\n        /* \"#utility.yul\":43939:43948   */\n      dup4\n        /* \"#utility.yul\":43935:43952   */\n      add\n        /* \"#utility.yul\":43928:43975   */\n      mstore\n        /* \"#utility.yul\":43992:44123   */\n      tag_767\n        /* \"#utility.yul\":44118:44122   */\n      dup2\n        /* \"#utility.yul\":43992:44123   */\n      tag_386\n      jump\t// in\n    tag_767:\n        /* \"#utility.yul\":43984:44123   */\n      swap1\n      pop\n        /* \"#utility.yul\":43711:44130   */\n      swap2\n      swap1\n      pop\n      jump\t// out\n        /* \"#utility.yul\":44136:44314   */\n    tag_387:\n        /* \"#utility.yul\":44276:44306   */\n      0x43616d706169676e20646561646c696e65206861732070617373656400000000\n        /* \"#utility.yul\":44272:44273   */\n      0x00\n        /* \"#utility.yul\":44264:44270   */\n      dup3\n        /* \"#utility.yul\":44260:44274   */\n      add\n        /* \"#utility.yul\":44253:44307   */\n      mstore\n        /* \"#utility.yul\":44136:44314   */\n      pop\n      jump\t// out\n        /* \"#utility.yul\":44320:44686   */\n    tag_388:\n        /* \"#utility.yul\":44462:44465   */\n      0x00\n        /* \"#utility.yul\":44483:44550   */\n      tag_770\n        /* \"#utility.yul\":44547:44549   */\n      0x1c\n        /* \"#utility.yul\":44542:44545   */\n      dup4\n        /* \"#utility.yul\":44483:44550   */\n      tag_311\n      jump\t// in\n    tag_770:\n        /* \"#utility.yul\":44476:44550   */\n      swap2\n      pop\n        /* \"#utility.yul\":44559:44652   */\n      tag_771\n        /* \"#utility.yul\":44648:44651   */\n      dup3\n        /* \"#utility.yul\":44559:44652   */\n      tag_387\n      jump\t// in\n    tag_771:\n        /* \"#utility.yul\":44677:44679   */\n      0x20\n        /* \"#utility.yul\":44672:44675   */\n      dup3\n        /* \"#utility.yul\":44668:44680   */\n      add\n        /* \"#utility.yul\":44661:44680   */\n      swap1\n      pop\n        /* \"#utility.yul\":44320:44686   */\n      swap2\n      swap1\n      pop\n      jump\t// out\n        /* \"#utility.yul\":44692:45111   */\n    tag_280:\n        /* \"#utility.yul\":44858:44862   */\n      0x00\n        /* \"#utility.yul\":44896:44898   */\n      0x20\n        /* \"#utility.yul\":44885:44894   */\n      dup3\n        /* \"#utility.yul\":44881:44899   */\n      add\n        /* \"#utility.yul\":44873:44899   */\n      swap1\n      pop\n        /* \"#utility.yul\":44945:44954   */\n      dup2\n        /* \"#utility.yul\":44939:44943   */\n      dup2\n        /* \"#utility.yul\":44935:44955   */\n      sub\n        /* \"#utility.yul\":44931:44932   */\n      0x00\n        /* \"#utility.yul\":44920:44929   */\n      dup4\n        /* \"#utility.yul\":44916:44933   */\n      add\n        /* \"#utility.yul\":44909:44956   */\n      mstore\n        /* \"#utility.yul\":44973:45104   */\n      tag_773\n        /* \"#utility.yul\":45099:45103   */\n      dup2\n        /* \"#utility.yul\":44973:45104   */\n      tag_388\n      jump\t// in\n    tag_773:\n        /* \"#utility.yul\":44965:45104   */\n      swap1\n      pop\n        /* \"#utility.yul\":44692:45111   */\n      swap2\n      swap1\n      pop\n      jump\t// out\n        /* \"#utility.yul\":45117:45289   */\n    tag_389:\n        /* \"#utility.yul\":45257:45281   */\n      0x596f75206d7573742073656e6420736f6d652045544800000000000000000000\n        /* \"#utility.yul\":45253:45254   */\n      0x00\n        /* \"#utility.yul\":45245:45251   */\n      dup3\n        /* \"#utility.yul\":45241:45255   */\n      add\n        /* \"#utility.yul\":45234:45282   */\n      mstore\n        /* \"#utility.yul\":45117:45289   */\n      pop\n      jump\t// out\n        /* \"#utility.yul\":45295:45661   */\n    tag_390:\n        /* \"#utility.yul\":45437:45440   */\n      0x00\n        /* \"#utility.yul\":45458:45525   */\n      tag_776\n        /* \"#utility.yul\":45522:45524   */\n      0x16\n        /* \"#utility.yul\":45517:45520   */\n      dup4\n        /* \"#utility.yul\":45458:45525   */\n      tag_311\n      jump\t// in\n    tag_776:\n        /* \"#utility.yul\":45451:45525   */\n      swap2\n      pop\n        /* \"#utility.yul\":45534:45627   */\n      tag_777\n        /* \"#utility.yul\":45623:45626   */\n      dup3\n        /* \"#utility.yul\":45534:45627   */\n      tag_389\n      jump\t// in\n    tag_777:\n        /* \"#utility.yul\":45652:45654   */\n      0x20\n        /* \"#utility.yul\":45647:45650   */\n      dup3\n        /* \"#utility.yul\":45643:45655   */\n      add\n        /* \"#utility.yul\":45636:45655   */\n      swap1\n      pop\n        /* \"#utility.yul\":45295:45661   */\n      swap2\n      swap1\n      pop\n      jump\t// out\n        /* \"#utility.yul\":45667:46086   */\n    tag_284:\n        /* \"#utility.yul\":45833:45837   */\n      0x00\n        /* \"#utility.yul\":45871:45873   */\n      0x20\n        /* \"#utility.yul\":45860:45869   */\n      dup3\n        /* \"#utility.yul\":45856:45874   */\n      add\n        /* \"#utility.yul\":45848:45874   */\n      swap1\n      pop\n        /* \"#utility.yul\":45920:45929   */\n      dup2\n        /* \"#utility.yul\":45914:45918   */\n      dup2\n        /* \"#utility.yul\":45910:45930   */\n      sub\n        /* \"#utility.yul\":45906:45907   */\n      0x00\n        /* \"#utility.yul\":45895:45904   */\n      dup4\n        /* \"#utility.yul\":45891:45908   */\n      add\n        /* \"#utility.yul\":45884:45931   */\n      mstore\n        /* \"#utility.yul\":45948:46079   */\n      tag_779\n        /* \"#utility.yul\":46074:46078   */\n      dup2\n        /* \"#utility.yul\":45948:46079   */\n      tag_390\n      jump\t// in\n    tag_779:\n        /* \"#utility.yul\":45940:46079   */\n      swap1\n      pop\n        /* \"#utility.yul\":45667:46086   */\n      swap2\n      swap1\n      pop\n      jump\t// out\n        /* \"#utility.yul\":46092:46534   */\n    tag_290:\n        /* \"#utility.yul\":46241:46245   */\n      0x00\n        /* \"#utility.yul\":46279:46281   */\n      0x60\n        /* \"#utility.yul\":46268:46277   */\n      dup3\n        /* \"#utility.yul\":46264:46282   */\n      add\n        /* \"#utility.yul\":46256:46282   */\n      swap1\n      pop\n        /* \"#utility.yul\":46292:46363   */\n      tag_781\n        /* \"#utility.yul\":46360:46361   */\n      0x00\n        /* \"#utility.yul\":46349:46358   */\n      dup4\n        /* \"#utility.yul\":46345:46362   */\n      add\n        /* \"#utility.yul\":46336:46342   */\n      dup7\n        /* \"#utility.yul\":46292:46363   */\n      tag_323\n      jump\t// in\n    tag_781:\n        /* \"#utility.yul\":46373:46445   */\n      tag_782\n        /* \"#utility.yul\":46441:46443   */\n      0x20\n        /* \"#utility.yul\":46430:46439   */\n      dup4\n        /* \"#utility.yul\":46426:46444   */\n      add\n        /* \"#utility.yul\":46417:46423   */\n      dup6\n        /* \"#utility.yul\":46373:46445   */\n      tag_296\n      jump\t// in\n    tag_782:\n        /* \"#utility.yul\":46455:46527   */\n      tag_783\n        /* \"#utility.yul\":46523:46525   */\n      0x40\n        /* \"#utility.yul\":46512:46521   */\n      dup4\n        /* \"#utility.yul\":46508:46526   */\n      add\n        /* \"#utility.yul\":46499:46505   */\n      dup5\n        /* \"#utility.yul\":46455:46527   */\n      tag_296\n      jump\t// in\n    tag_783:\n        /* \"#utility.yul\":46092:46534   */\n      swap5\n      swap4\n      pop\n      pop\n      pop\n      pop\n      jump\t// out\n\n    auxdata: 0xa2646970667358221220cff3f58a19fc4e0bcbd10e115ebc2d7192d1f5942f06c10c4a0d0fe66efcae2364736f6c634300081e0033\n}\n",
				"bytecode": {
					"linkReferences": {},
					"object": "6080604052348015600e575f5ffd5b506135208061001c5f395ff3fe6080604052600436106100fd575f3560e01c806372ebb42a1161009457806398df912e1161006357806398df912e146103a5578063a318f269146103cd578063ee1554a3146103f5578063f14faf6f14610431578063f80db32d1461044d576100fd565b806372ebb42a146102b557806383bd62dd146102f15780638cd429911461032d5780638ed9895c14610369576100fd565b80635598f8cc116100d05780635598f8cc146101ed5780635943c705146102295780635b7baf64146102655780636a18ff7a1461028d576100fd565b806302932f56146101015780630d39a1d31461012b578063141961bc146101675780631c376c63146101ab575b5f5ffd5b34801561010c575f5ffd5b50610115610489565b6040516101229190611e5f565b60405180910390f35b348015610136575f5ffd5b50610151600480360381019061014c9190611f0d565b61048e565b60405161015e9190611f77565b60405180910390f35b348015610172575f5ffd5b5061018d60048036038101906101889190611f90565b6104c3565b6040516101a29998979695949392919061204b565b60405180910390f35b3480156101b6575f5ffd5b506101d160048036038101906101cc91906120e4565b610651565b6040516101e49796959493929190612122565b60405180910390f35b3480156101f8575f5ffd5b50610213600480360381019061020e9190611f90565b610739565b60405161022091906122d4565b60405180910390f35b348015610234575f5ffd5b5061024f600480360381019061024a9190611f90565b61097b565b60405161025c9190611e5f565b60405180910390f35b348015610270575f5ffd5b5061028b60048036038101906102869190611f90565b6109dd565b005b348015610298575f5ffd5b506102b360048036038101906102ae919061231e565b610c34565b005b3480156102c0575f5ffd5b506102db60048036038101906102d69190611f90565b61111a565b6040516102e89190611e5f565b60405180910390f35b3480156102fc575f5ffd5b50610317600480360381019061031291906120e4565b61112f565b604051610324919061237d565b60405180910390f35b348015610338575f5ffd5b50610353600480360381019061034e9190611f90565b611177565b6040516103609190611e5f565b60405180910390f35b348015610374575f5ffd5b5061038f600480360381019061038a91906120e4565b611208565b60405161039c919061242f565b60405180910390f35b3480156103b0575f5ffd5b506103cb60048036038101906103c6919061257b565b61132f565b005b3480156103d8575f5ffd5b506103f360048036038101906103ee91906125e7565b6116ca565b005b348015610400575f5ffd5b5061041b60048036038101906104169190612683565b6119dc565b6040516104289190611e5f565b60405180910390f35b61044b60048036038101906104469190611f90565b6119fc565b005b348015610458575f5ffd5b50610473600480360381019061046e9190611f90565b611d58565b6040516104809190611e5f565b60405180910390f35b5f5481565b6006602052825f5260405f20602052815f5260405f20602052805f5260405f205f92509250509054906101000a900460ff1681565b6001602052805f5260405f205f91509050805f015490806001015f9054906101000a900473ffffffffffffffffffffffffffffffffffffffff169080600201805461050d906126ee565b80601f0160208091040260200160405190810160405280929190818152602001828054610539906126ee565b80156105845780601f1061055b57610100808354040283529160200191610584565b820191905f5260205f20905b81548152906001019060200180831161056757829003601f168201915b505050505090806003018054610599906126ee565b80601f01602080910402602001604051908101604052809291908181526020018280546105c5906126ee565b80156106105780601f106105e757610100808354040283529160200191610610565b820191905f5260205f20905b8154815290600101906020018083116105f357829003601f168201915b505050505090806004015490806005015490806006015490806007015f9054906101000a900460ff16908060070160019054906101000a900460ff16905089565b6002602052815f5260405f20602052805f5260405f205f9150915050805f015490806001018054610681906126ee565b80601f01602080910402602001604051908101604052809291908181526020018280546106ad906126ee565b80156106f85780601f106106cf576101008083540402835291602001916106f8565b820191905f5260205f20905b8154815290600101906020018083116106db57829003601f168201915b505050505090806002015490806003015f9054906101000a900460ff16908060030160019054906101000a900460ff16908060040154908060050154905087565b610741611dad565b815f548110610785576040517f08c379a000000000000000000000000000000000000000000000000000000000815260040161077c90612768565b60405180910390fd5b60015f8481526020019081526020015f20604051806101200160405290815f8201548152602001600182015f9054906101000a900473ffffffffffffffffffffffffffffffffffffffff1673ffffffffffffffffffffffffffffffffffffffff1673ffffffffffffffffffffffffffffffffffffffff168152602001600282018054610810906126ee565b80601f016020809104026020016040519081016040528092919081815260200182805461083c906126ee565b80156108875780601f1061085e57610100808354040283529160200191610887565b820191905f5260205f20905b81548152906001019060200180831161086a57829003601f168201915b505050505081526020016003820180546108a0906126ee565b80601f01602080910402602001604051908101604052809291908181526020018280546108cc906126ee565b80156109175780601f106108ee57610100808354040283529160200191610917565b820191905f5260205f20905b8154815290600101906020018083116108fa57829003601f168201915b50505050508152602001600482015481526020016005820154815260200160068201548152602001600782015f9054906101000a900460ff161515151581526020016007820160019054906101000a900460ff161515151581525050915050919050565b5f815f5481106109c0576040517f08c379a00000000000000000000000000000000000000000000000000000000081526004016109b790612768565b60405180910390fd5b60055f8481526020019081526020015f2080549050915050919050565b805f548110610a21576040517f08c379a0000000000000000000000000000000000000000000000000000000008152600401610a1890612768565b60405180910390fd5b5f60015f8481526020019081526020015f2090508060050154421015610a7c576040517f08c379a0000000000000000000000000000000000000000000000000000000008152600401610a73906127d0565b60405180910390fd5b806007015f9054906101000a900460ff1615610acd576040517f08c379a0000000000000000000000000000000000000000000000000000000008152600401610ac49061285e565b60405180910390fd5b5f60045f8581526020019081526020015f205f3373ffffffffffffffffffffffffffffffffffffffff1673ffffffffffffffffffffffffffffffffffffffff1681526020019081526020015f205490505f8111610b5f576040517f08c379a0000000000000000000000000000000000000000000000000000000008152600401610b56906128c6565b60405180910390fd5b5f60045f8681526020019081526020015f205f3373ffffffffffffffffffffffffffffffffffffffff1673ffffffffffffffffffffffffffffffffffffffff1681526020019081526020015f20819055503373ffffffffffffffffffffffffffffffffffffffff166108fc8290811502906040515f60405180830381858888f19350505050158015610bf3573d5f5f3e3d5ffd5b50837ff3f402280ef0a7905e124aa621b65eaeb2725c343e8b36d398ed78c29daf285c3383604051610c269291906128e4565b60405180910390a250505050565b825f548110610c78576040517f08c379a0000000000000000000000000000000000000000000000000000000008152600401610c6f90612768565b60405180910390fd5b5f60045f8681526020019081526020015f205f3373ffffffffffffffffffffffffffffffffffffffff1673ffffffffffffffffffffffffffffffffffffffff1681526020019081526020015f205411610d06576040517f08c379a0000000000000000000000000000000000000000000000000000000008152600401610cfd90612955565b60405180910390fd5b60065f8581526020019081526020015f205f8481526020019081526020015f205f3373ffffffffffffffffffffffffffffffffffffffff1673ffffffffffffffffffffffffffffffffffffffff1681526020019081526020015f205f9054906101000a900460ff1615610dae576040517f08c379a0000000000000000000000000000000000000000000000000000000008152600401610da5906129bd565b60405180910390fd5b5f60025f8681526020019081526020015f205f8581526020019081526020015f209050806003015f9054906101000a900460ff1615610e22576040517f08c379a0000000000000000000000000000000000000000000000000000000008152600401610e1990612a25565b60405180910390fd5b8060030160019054906101000a900460ff1615610e74576040517f08c379a0000000000000000000000000000000000000000000000000000000008152600401610e6b90612a8d565b60405180910390fd5b600160065f8781526020019081526020015f205f8681526020019081526020015f205f3373ffffffffffffffffffffffffffffffffffffffff1673ffffffffffffffffffffffffffffffffffffffff1681526020019081526020015f205f6101000a81548160ff0219169083151502179055505f60055f8781526020019081526020015f20805490509050831561104e57816004015f815480929190610f1990612ad8565b9190505550857fab85204cc3f4a5213aaeac56baec47b9fe23ddb7ee575fe3f6d6f2b6226bf83086336001604051610f5393929190612b1f565b60405180910390a28060028360040154610f6d9190612b54565b1115611049576001826003015f6101000a81548160ff02191690831515021790555060015f8781526020019081526020015f206001015f9054906101000a900473ffffffffffffffffffffffffffffffffffffffff1673ffffffffffffffffffffffffffffffffffffffff166108fc836002015490811502906040515f60405180830381858888f19350505050158015611009573d5f5f3e3d5ffd5b50857f24d2f6e8ac6c13d1e7610752ab0b7ce03d5043806a65d3d631ae859ad81d159b868460020154604051611040929190612b95565b60405180910390a25b611112565b816005015f81548092919061106290612ad8565b9190505550857fab85204cc3f4a5213aaeac56baec47b9fe23ddb7ee575fe3f6d6f2b6226bf83086335f60405161109b93929190612b1f565b60405180910390a280600283600501546110b59190612b54565b11156111115760018260030160016101000a81548160ff021916908315150217905550857f4e2fd11f84344693b41d2aba9910e33b34a4f02d4d3a65b65b2201f3c8fa3c89866040516111089190611e5f565b60405180910390a25b5b505050505050565b6003602052805f5260405f205f915090505481565b6005602052815f5260405f208181548110611148575f80fd5b905f5260205f20015f915091509054906101000a900473ffffffffffffffffffffffffffffffffffffffff1681565b5f815f5481106111bc576040517f08c379a00000000000000000000000000000000000000000000000000000000081526004016111b390612768565b60405180910390fd5b60015f8481526020019081526020015f206005015442106111df575f9150611202565b4260015f8581526020019081526020015f20600501546111ff9190612bbc565b91505b50919050565b611210611e0c565b60025f8481526020019081526020015f205f8381526020019081526020015f206040518060e00160405290815f8201548152602001600182018054611254906126ee565b80601f0160208091040260200160405190810160405280929190818152602001828054611280906126ee565b80156112cb5780601f106112a2576101008083540402835291602001916112cb565b820191905f5260205f20905b8154815290600101906020018083116112ae57829003601f168201915b5050505050815260200160028201548152602001600382015f9054906101000a900460ff161515151581526020016003820160019054906101000a900460ff1615151515815260200160048201548152602001600582015481525050905092915050565b825f548110611373576040517f08c379a000000000000000000000000000000000000000000000000000000000815260040161136a90612768565b60405180910390fd5b8360015f8281526020019081526020015f206001015f9054906101000a900473ffffffffffffffffffffffffffffffffffffffff1673ffffffffffffffffffffffffffffffffffffffff163373ffffffffffffffffffffffffffffffffffffffff1614611415576040517f08c379a000000000000000000000000000000000000000000000000000000000815260040161140c90612c5f565b60405180910390fd5b60015f8681526020019081526020015f206007015f9054906101000a900460ff16611475576040517f08c379a000000000000000000000000000000000000000000000000000000000815260040161146c90612ced565b60405180910390fd5b5f8451116114b8576040517f08c379a00000000000000000000000000000000000000000000000000000000081526004016114af90612d55565b60405180910390fd5b5f83116114fa576040517f08c379a00000000000000000000000000000000000000000000000000000000081526004016114f190612de3565b60405180910390fd5b47670de0b6b3a76400008461150f9190612b54565b1115611550576040517f08c379a000000000000000000000000000000000000000000000000000000000815260040161154790612e71565b60405180910390fd5b5f60035f8781526020019081526020015f205490506040518060e00160405280828152602001868152602001670de0b6b3a7640000866115909190612b54565b81526020015f151581526020015f151581526020015f81526020015f81525060025f8881526020019081526020015f205f8381526020019081526020015f205f820151815f015560208201518160010190816115ec919061302f565b50604082015181600201556060820151816003015f6101000a81548160ff02191690831515021790555060808201518160030160016101000a81548160ff02191690831515021790555060a0820151816004015560c0820151816005015590505060035f8781526020019081526020015f205f81548092919061166e90612ad8565b9190505550857fc67423104bf96f5ca8826913ae711e8c2254e1b2c04af907b2312853ed4cbed28287670de0b6b3a7640000886116ab9190612b54565b6040516116ba939291906130fe565b60405180910390a2505050505050565b5f84511161170d576040517f08c379a000000000000000000000000000000000000000000000000000000000815260040161170490613184565b60405180910390fd5b5f835111611750576040517f08c379a0000000000000000000000000000000000000000000000000000000008152600401611747906131ec565b60405180910390fd5b5f8211611792576040517f08c379a000000000000000000000000000000000000000000000000000000000815260040161178990613254565b60405180910390fd5b600181101580156117a45750605a8111155b6117e3576040517f08c379a00000000000000000000000000000000000000000000000000000000081526004016117da906132e2565b60405180910390fd5b5f5f5490506040518061012001604052808281526020013373ffffffffffffffffffffffffffffffffffffffff168152602001868152602001858152602001670de0b6b3a7640000856118369190612b54565b8152602001620151808461184a9190612b54565b426118559190613300565b81526020015f81526020015f151581526020015f151581525060015f8381526020019081526020015f205f820151815f01556020820151816001015f6101000a81548173ffffffffffffffffffffffffffffffffffffffff021916908373ffffffffffffffffffffffffffffffffffffffff16021790555060408201518160020190816118e2919061302f565b5060608201518160030190816118f8919061302f565b506080820151816004015560a0820151816005015560c0820151816006015560e0820151816007015f6101000a81548160ff0219169083151502179055506101008201518160070160016101000a81548160ff0219169083151502179055509050505f5f81548092919061196b90612ad8565b9190505550807fdc26653af5b99b2da33e2ad69ee6600d9aeccc82b034501db4338309615ca2383387670de0b6b3a7640000876119a89190612b54565b60015f8781526020019081526020015f20600501546040516119cd9493929190613333565b60405180910390a25050505050565b6004602052815f5260405f20602052805f5260405f205f91509150505481565b805f548110611a40576040517f08c379a0000000000000000000000000000000000000000000000000000000008152600401611a3790612768565b60405180910390fd5b8160015f8281526020019081526020015f2060070160019054906101000a900460ff1615611aa3576040517f08c379a0000000000000000000000000000000000000000000000000000000008152600401611a9a906133c7565b60405180910390fd5b60015f8281526020019081526020015f20600501544210611af9576040517f08c379a0000000000000000000000000000000000000000000000000000000008152600401611af09061342f565b60405180910390fd5b5f3411611b3b576040517f08c379a0000000000000000000000000000000000000000000000000000000008152600401611b3290613497565b60405180910390fd5b5f60015f8581526020019081526020015f2090505f60045f8681526020019081526020015f205f3373ffffffffffffffffffffffffffffffffffffffff1673ffffffffffffffffffffffffffffffffffffffff1681526020019081526020015f205403611c125760055f8581526020019081526020015f2033908060018154018082558091505060019003905f5260205f20015f9091909190916101000a81548173ffffffffffffffffffffffffffffffffffffffff021916908373ffffffffffffffffffffffffffffffffffffffff1602179055505b3460045f8681526020019081526020015f205f3373ffffffffffffffffffffffffffffffffffffffff1673ffffffffffffffffffffffffffffffffffffffff1681526020019081526020015f205f828254611c6d9190613300565b9250508190555034816006015f828254611c879190613300565b92505081905550837f3dbea1b4ce5f95137fdcac9b1d685825c3d70ace830df1ca5a181d3887add41033348460060154604051611cc6939291906134b5565b60405180910390a2806007015f9054906101000a900460ff16158015611cf457508060040154816006015410155b15611d52576001816007015f6101000a81548160ff021916908315150217905550837f85b3ed4e45559c5f41fb220aa4ac86a440dfc741f219089de694242940aaa09c8260060154604051611d499190611e5f565b60405180910390a25b50505050565b5f60045f8381526020019081526020015f205f3373ffffffffffffffffffffffffffffffffffffffff1673ffffffffffffffffffffffffffffffffffffffff1681526020019081526020015f20549050919050565b6040518061012001604052805f81526020015f73ffffffffffffffffffffffffffffffffffffffff16815260200160608152602001606081526020015f81526020015f81526020015f81526020015f151581526020015f151581525090565b6040518060e001604052805f8152602001606081526020015f81526020015f151581526020015f151581526020015f81526020015f81525090565b5f819050919050565b611e5981611e47565b82525050565b5f602082019050611e725f830184611e50565b92915050565b5f604051905090565b5f5ffd5b5f5ffd5b611e9281611e47565b8114611e9c575f5ffd5b50565b5f81359050611ead81611e89565b92915050565b5f73ffffffffffffffffffffffffffffffffffffffff82169050919050565b5f611edc82611eb3565b9050919050565b611eec81611ed2565b8114611ef6575f5ffd5b50565b5f81359050611f0781611ee3565b92915050565b5f5f5f60608486031215611f2457611f23611e81565b5b5f611f3186828701611e9f565b9350506020611f4286828701611e9f565b9250506040611f5386828701611ef9565b9150509250925092565b5f8115159050919050565b611f7181611f5d565b82525050565b5f602082019050611f8a5f830184611f68565b92915050565b5f60208284031215611fa557611fa4611e81565b5b5f611fb284828501611e9f565b91505092915050565b5f611fc582611eb3565b9050919050565b611fd581611fbb565b82525050565b5f81519050919050565b5f82825260208201905092915050565b8281835e5f83830152505050565b5f601f19601f8301169050919050565b5f61201d82611fdb565b6120278185611fe5565b9350612037818560208601611ff5565b61204081612003565b840191505092915050565b5f6101208201905061205f5f83018c611e50565b61206c602083018b611fcc565b818103604083015261207e818a612013565b905081810360608301526120928189612013565b90506120a16080830188611e50565b6120ae60a0830187611e50565b6120bb60c0830186611e50565b6120c860e0830185611f68565b6120d6610100830184611f68565b9a9950505050505050505050565b5f5f604083850312156120fa576120f9611e81565b5b5f61210785828601611e9f565b925050602061211885828601611e9f565b9150509250929050565b5f60e0820190506121355f83018a611e50565b81810360208301526121478189612013565b90506121566040830188611e50565b6121636060830187611f68565b6121706080830186611f68565b61217d60a0830185611e50565b61218a60c0830184611e50565b98975050505050505050565b61219f81611e47565b82525050565b6121ae81611fbb565b82525050565b5f82825260208201905092915050565b5f6121ce82611fdb565b6121d881856121b4565b93506121e8818560208601611ff5565b6121f181612003565b840191505092915050565b61220581611f5d565b82525050565b5f61012083015f8301516122215f860182612196565b50602083015161223460208601826121a5565b506040830151848203604086015261224c82826121c4565b9150506060830151848203606086015261226682826121c4565b915050608083015161227b6080860182612196565b5060a083015161228e60a0860182612196565b5060c08301516122a160c0860182612196565b5060e08301516122b460e08601826121fc565b506101008301516122c96101008601826121fc565b508091505092915050565b5f6020820190508181035f8301526122ec818461220b565b905092915050565b6122fd81611f5d565b8114612307575f5ffd5b50565b5f81359050612318816122f4565b92915050565b5f5f5f6060848603121561233557612334611e81565b5b5f61234286828701611e9f565b935050602061235386828701611e9f565b92505060406123648682870161230a565b9150509250925092565b61237781611ed2565b82525050565b5f6020820190506123905f83018461236e565b92915050565b5f60e083015f8301516123ab5f860182612196565b50602083015184820360208601526123c382826121c4565b91505060408301516123d86040860182612196565b5060608301516123eb60608601826121fc565b5060808301516123fe60808601826121fc565b5060a083015161241160a0860182612196565b5060c083015161242460c0860182612196565b508091505092915050565b5f6020820190508181035f8301526124478184612396565b905092915050565b5f5ffd5b5f5ffd5b7f4e487b71000000000000000000000000000000000000000000000000000000005f52604160045260245ffd5b61248d82612003565b810181811067ffffffffffffffff821117156124ac576124ab612457565b5b80604052505050565b5f6124be611e78565b90506124ca8282612484565b919050565b5f67ffffffffffffffff8211156124e9576124e8612457565b5b6124f282612003565b9050602081019050919050565b828183375f83830152505050565b5f61251f61251a846124cf565b6124b5565b90508281526020810184848401111561253b5761253a612453565b5b6125468482856124ff565b509392505050565b5f82601f8301126125625761256161244f565b5b813561257284826020860161250d565b91505092915050565b5f5f5f6060848603121561259257612591611e81565b5b5f61259f86828701611e9f565b935050602084013567ffffffffffffffff8111156125c0576125bf611e85565b5b6125cc8682870161254e565b92505060406125dd86828701611e9f565b9150509250925092565b5f5f5f5f608085870312156125ff576125fe611e81565b5b5f85013567ffffffffffffffff81111561261c5761261b611e85565b5b6126288782880161254e565b945050602085013567ffffffffffffffff81111561264957612648611e85565b5b6126558782880161254e565b935050604061266687828801611e9f565b925050606061267787828801611e9f565b91505092959194509250565b5f5f6040838503121561269957612698611e81565b5b5f6126a685828601611e9f565b92505060206126b785828601611ef9565b9150509250929050565b7f4e487b71000000000000000000000000000000000000000000000000000000005f52602260045260245ffd5b5f600282049050600182168061270557607f821691505b602082108103612718576127176126c1565b5b50919050565b7f43616d706169676e20646f6573206e6f742065786973740000000000000000005f82015250565b5f612752601783611fe5565b915061275d8261271e565b602082019050919050565b5f6020820190508181035f83015261277f81612746565b9050919050565b7f43616d706169676e206973207374696c6c2072756e6e696e67000000000000005f82015250565b5f6127ba601983611fe5565b91506127c582612786565b602082019050919050565b5f6020820190508181035f8301526127e7816127ae565b9050919050565b7f476f616c207761732072656163686564202d206e6f20726566756e64206176615f8201527f696c61626c650000000000000000000000000000000000000000000000000000602082015250565b5f612848602683611fe5565b9150612853826127ee565b604082019050919050565b5f6020820190508181035f8301526128758161283c565b9050919050565b7f596f752068617665206e6f20646f6e6174696f6e20746f20726566756e6400005f82015250565b5f6128b0601e83611fe5565b91506128bb8261287c565b602082019050919050565b5f6020820190508181035f8301526128dd816128a4565b9050919050565b5f6040820190506128f75f83018561236e565b6129046020830184611e50565b9392505050565b7f4f6e6c7920646f6e6f72732063616e20766f74650000000000000000000000005f82015250565b5f61293f601483611fe5565b915061294a8261290b565b602082019050919050565b5f6020820190508181035f83015261296c81612933565b9050919050565b7f596f75206861766520616c726561647920766f746564000000000000000000005f82015250565b5f6129a7601683611fe5565b91506129b282612973565b602082019050919050565b5f6020820190508181035f8301526129d48161299b565b9050919050565b7f4d696c6573746f6e6520616c726561647920617070726f7665640000000000005f82015250565b5f612a0f601a83611fe5565b9150612a1a826129db565b602082019050919050565b5f6020820190508181035f830152612a3c81612a03565b9050919050565b7f4d696c6573746f6e6520616c72656164792072656a65637465640000000000005f82015250565b5f612a77601a83611fe5565b9150612a8282612a43565b602082019050919050565b5f6020820190508181035f830152612aa481612a6b565b9050919050565b7f4e487b71000000000000000000000000000000000000000000000000000000005f52601160045260245ffd5b5f612ae282611e47565b91507fffffffffffffffffffffffffffffffffffffffffffffffffffffffffffffffff8203612b1457612b13612aab565b5b600182019050919050565b5f606082019050612b325f830186611e50565b612b3f602083018561236e565b612b4c6040830184611f68565b949350505050565b5f612b5e82611e47565b9150612b6983611e47565b9250828202612b7781611e47565b91508282048414831517612b8e57612b8d612aab565b5b5092915050565b5f604082019050612ba85f830185611e50565b612bb56020830184611e50565b9392505050565b5f612bc682611e47565b9150612bd183611e47565b9250828203905081811115612be957612be8612aab565b5b92915050565b7f4f6e6c79207468652063616d706169676e2063726561746f722063616e20646f5f8201527f2074686973000000000000000000000000000000000000000000000000000000602082015250565b5f612c49602583611fe5565b9150612c5482612bef565b604082019050919050565b5f6020820190508181035f830152612c7681612c3d565b9050919050565b7f476f616c206e6f74207265616368656420796574202d207761697420666f72205f8201527f646f6e6174696f6e730000000000000000000000000000000000000000000000602082015250565b5f612cd7602983611fe5565b9150612ce282612c7d565b604082019050919050565b5f6020820190508181035f830152612d0481612ccb565b9050919050565b7f4d696c6573746f6e65206465736372697074696f6e20726571756972656400005f82015250565b5f612d3f601e83611fe5565b9150612d4a82612d0b565b602082019050919050565b5f6020820190508181035f830152612d6c81612d33565b9050919050565b7f52656c6561736520616d6f756e74206d757374206265206772656174657220745f8201527f68616e2030000000000000000000000000000000000000000000000000000000602082015250565b5f612dcd602583611fe5565b9150612dd882612d73565b604082019050919050565b5f6020820190508181035f830152612dfa81612dc1565b9050919050565b7f52657175657374656420616d6f756e74206578636565647320617661696c61625f8201527f6c652066756e6473000000000000000000000000000000000000000000000000602082015250565b5f612e5b602883611fe5565b9150612e6682612e01565b604082019050919050565b5f6020820190508181035f830152612e8881612e4f565b9050919050565b5f819050815f5260205f209050919050565b5f6020601f8301049050919050565b5f82821b905092915050565b5f60088302612eeb7fffffffffffffffffffffffffffffffffffffffffffffffffffffffffffffffff82612eb0565b612ef58683612eb0565b95508019841693508086168417925050509392505050565b5f819050919050565b5f612f30612f2b612f2684611e47565b612f0d565b611e47565b9050919050565b5f819050919050565b612f4983612f16565b612f5d612f5582612f37565b848454612ebc565b825550505050565b5f5f905090565b612f74612f65565b612f7f818484612f40565b505050565b5b81811015612fa257612f975f82612f6c565b600181019050612f85565b5050565b601f821115612fe757612fb881612e8f565b612fc184612ea1565b81016020851015612fd0578190505b612fe4612fdc85612ea1565b830182612f84565b50505b505050565b5f82821c905092915050565b5f6130075f1984600802612fec565b1980831691505092915050565b5f61301f8383612ff8565b9150826002028217905092915050565b61303882611fdb565b67ffffffffffffffff81111561305157613050612457565b5b61305b82546126ee565b613066828285612fa6565b5f60209050601f831160018114613097575f8415613085578287015190505b61308f8582613014565b8655506130f6565b601f1984166130a586612e8f565b5f5b828110156130cc578489015182556001820191506020850194506020810190506130a7565b868310156130e957848901516130e5601f891682612ff8565b8355505b6001600288020188555050505b505050505050565b5f6060820190506131115f830186611e50565b81810360208301526131238185612013565b90506131326040830184611e50565b949350505050565b7f5469746c652063616e6e6f7420626520656d70747900000000000000000000005f82015250565b5f61316e601583611fe5565b91506131798261313a565b602082019050919050565b5f6020820190508181035f83015261319b81613162565b9050919050565b7f4465736372697074696f6e2063616e6e6f7420626520656d70747900000000005f82015250565b5f6131d6601b83611fe5565b91506131e1826131a2565b602082019050919050565b5f6020820190508181035f830152613203816131ca565b9050919050565b7f476f616c206d7573742062652067726561746572207468616e203000000000005f82015250565b5f61323e601b83611fe5565b91506132498261320a565b602082019050919050565b5f6020820190508181035f83015261326b81613232565b9050919050565b7f4475726174696f6e206d757374206265206265747765656e203120616e6420395f8201527f3020646179730000000000000000000000000000000000000000000000000000602082015250565b5f6132cc602683611fe5565b91506132d782613272565b604082019050919050565b5f6020820190508181035f8301526132f9816132c0565b9050919050565b5f61330a82611e47565b915061331583611e47565b925082820190508082111561332d5761332c612aab565b5b92915050565b5f6080820190506133465f83018761236e565b81810360208301526133588186612013565b90506133676040830185611e50565b6133746060830184611e50565b95945050505050565b7f43616d706169676e2069732063616e63656c6c656400000000000000000000005f82015250565b5f6133b1601583611fe5565b91506133bc8261337d565b602082019050919050565b5f6020820190508181035f8301526133de816133a5565b9050919050565b7f43616d706169676e20646561646c696e652068617320706173736564000000005f82015250565b5f613419601c83611fe5565b9150613424826133e5565b602082019050919050565b5f6020820190508181035f8301526134468161340d565b9050919050565b7f596f75206d7573742073656e6420736f6d6520455448000000000000000000005f82015250565b5f613481601683611fe5565b915061348c8261344d565b602082019050919050565b5f6020820190508181035f8301526134ae81613475565b9050919050565b5f6060820190506134c85f83018661236e565b6134d56020830185611e50565b6134e26040830184611e50565b94935050505056fea2646970667358221220cff3f58a19fc4e0bcbd10e115ebc2d7192d1f5942f06c10c4a0d0fe66efcae2364736f6c634300081e0033",
					"opcodes": "PUSH1 0x80 PUSH1 0x40 MSTORE CALLVALUE DUP1 ISZERO PUSH1 0xE JUMPI PUSH0 PUSH0 REVERT JUMPDEST POP PUSH2 0x3520 DUP1 PUSH2 0x1C PUSH0 CODECOPY PUSH0 RETURN INVALID PUSH1 0x80 PUSH1 0x40 MSTORE PUSH1 0x4 CALLDATASIZE LT PUSH2 0xFD JUMPI PUSH0 CALLDATALOAD PUSH1 0xE0 SHR DUP1 PUSH4 0x72EBB42A GT PUSH2 0x94 JUMPI DUP1 PUSH4 0x98DF912E GT PUSH2 0x63 JUMPI DUP1 PUSH4 0x98DF912E EQ PUSH2 0x3A5 JUMPI DUP1 PUSH4 0xA318F269 EQ PUSH2 0x3CD JUMPI DUP1 PUSH4 0xEE1554A3 EQ PUSH2 0x3F5 JUMPI DUP1 PUSH4 0xF14FAF6F EQ PUSH2 0x431 JUMPI DUP1 PUSH4 0xF80DB32D EQ PUSH2 0x44D JUMPI PUSH2 0xFD JUMP JUMPDEST DUP1 PUSH4 0x72EBB42A EQ PUSH2 0x2B5 JUMPI DUP1 PUSH4 0x83BD62DD EQ PUSH2 0x2F1 JUMPI DUP1 PUSH4 0x8CD42991 EQ PUSH2 0x32D JUMPI DUP1 PUSH4 0x8ED9895C EQ PUSH2 0x369 JUMPI PUSH2 0xFD JUMP JUMPDEST DUP1 PUSH4 0x5598F8CC GT PUSH2 0xD0 JUMPI DUP1 PUSH4 0x5598F8CC EQ PUSH2 0x1ED JUMPI DUP1 PUSH4 0x5943C705 EQ PUSH2 0x229 JUMPI DUP1 PUSH4 0x5B7BAF64 EQ PUSH2 0x265 JUMPI DUP1 PUSH4 0x6A18FF7A EQ PUSH2 0x28D JUMPI PUSH2 0xFD JUMP JUMPDEST DUP1 PUSH4 0x2932F56 EQ PUSH2 0x101 JUMPI DUP1 PUSH4 0xD39A1D3 EQ PUSH2 0x12B JUMPI DUP1 PUSH4 0x141961BC EQ PUSH2 0x167 JUMPI DUP1 PUSH4 0x1C376C63 EQ PUSH2 0x1AB JUMPI JUMPDEST PUSH0 PUSH0 REVERT JUMPDEST CALLVALUE DUP1 ISZERO PUSH2 0x10C JUMPI PUSH0 PUSH0 REVERT JUMPDEST POP PUSH2 0x115 PUSH2 0x489 JUMP JUMPDEST PUSH1 0x40 MLOAD PUSH2 0x122 SWAP2 SWAP1 PUSH2 0x1E5F JUMP JUMPDEST PUSH1 0x40 MLOAD DUP1 SWAP2 SUB SWAP1 RETURN JUMPDEST CALLVALUE DUP1 ISZERO PUSH2 0x136 JUMPI PUSH0 PUSH0 REVERT JUMPDEST POP PUSH2 0x151 PUSH1 0x4 DUP1 CALLDATASIZE SUB DUP2 ADD SWAP1 PUSH2 0x14C SWAP2 SWAP1 PUSH2 0x1F0D JUMP JUMPDEST PUSH2 0x48E JUMP JUMPDEST PUSH1 0x40 MLOAD PUSH2 0x15E SWAP2 SWAP1 PUSH2 0x1F77 JUMP JUMPDEST PUSH1 0x40 MLOAD DUP1 SWAP2 SUB SWAP1 RETURN JUMPDEST CALLVALUE DUP1 ISZERO PUSH2 0x172 JUMPI PUSH0 PUSH0 REVERT JUMPDEST POP PUSH2 0x18D PUSH1 0x4 DUP1 CALLDATASIZE SUB DUP2 ADD SWAP1 PUSH2 0x188 SWAP2 SWAP1 PUSH2 0x1F90 JUMP JUMPDEST PUSH2 0x4C3 JUMP JUMPDEST PUSH1 0x40 MLOAD PUSH2 0x1A2 SWAP10 SWAP9 SWAP8 SWAP7 SWAP6 SWAP5 SWAP4 SWAP3 SWAP2 SWAP1 PUSH2 0x204B JUMP JUMPDEST PUSH1 0x40 MLOAD DUP1 SWAP2 SUB SWAP1 RETURN JUMPDEST CALLVALUE DUP1 ISZERO PUSH2 0x1B6 JUMPI PUSH0 PUSH0 REVERT JUMPDEST POP PUSH2 0x1D1 PUSH1 0x4 DUP1 CALLDATASIZE SUB DUP2 ADD SWAP1 PUSH2 0x1CC SWAP2 SWAP1 PUSH2 0x20E4 JUMP JUMPDEST PUSH2 0x651 JUMP JUMPDEST PUSH1 0x40 MLOAD PUSH2 0x1E4 SWAP8 SWAP7 SWAP6 SWAP5 SWAP4 SWAP3 SWAP2 SWAP1 PUSH2 0x2122 JUMP JUMPDEST PUSH1 0x40 MLOAD DUP1 SWAP2 SUB SWAP1 RETURN JUMPDEST CALLVALUE DUP1 ISZERO PUSH2 0x1F8 JUMPI PUSH0 PUSH0 REVERT JUMPDEST POP PUSH2 0x213 PUSH1 0x4 DUP1 CALLDATASIZE SUB DUP2 ADD SWAP1 PUSH2 0x20E SWAP2 SWAP1 PUSH2 0x1F90 JUMP JUMPDEST PUSH2 0x739 JUMP JUMPDEST PUSH1 0x40 MLOAD PUSH2 0x220 SWAP2 SWAP1 PUSH2 0x22D4 JUMP JUMPDEST PUSH1 0x40 MLOAD DUP1 SWAP2 SUB SWAP1 RETURN JUMPDEST CALLVALUE DUP1 ISZERO PUSH2 0x234 JUMPI PUSH0 PUSH0 REVERT JUMPDEST POP PUSH2 0x24F PUSH1 0x4 DUP1 CALLDATASIZE SUB DUP2 ADD SWAP1 PUSH2 0x24A SWAP2 SWAP1 PUSH2 0x1F90 JUMP JUMPDEST PUSH2 0x97B JUMP JUMPDEST PUSH1 0x40 MLOAD PUSH2 0x25C SWAP2 SWAP1 PUSH2 0x1E5F JUMP JUMPDEST PUSH1 0x40 MLOAD DUP1 SWAP2 SUB SWAP1 RETURN JUMPDEST CALLVALUE DUP1 ISZERO PUSH2 0x270 JUMPI PUSH0 PUSH0 REVERT JUMPDEST POP PUSH2 0x28B PUSH1 0x4 DUP1 CALLDATASIZE SUB DUP2 ADD SWAP1 PUSH2 0x286 SWAP2 SWAP1 PUSH2 0x1F90 JUMP JUMPDEST PUSH2 0x9DD JUMP JUMPDEST STOP JUMPDEST CALLVALUE DUP1 ISZERO PUSH2 0x298 JUMPI PUSH0 PUSH0 REVERT JUMPDEST POP PUSH2 0x2B3 PUSH1 0x4 DUP1 CALLDATASIZE SUB DUP2 ADD SWAP1 PUSH2 0x2AE SWAP2 SWAP1 PUSH2 0x231E JUMP JUMPDEST PUSH2 0xC34 JUMP JUMPDEST STOP JUMPDEST CALLVALUE DUP1 ISZERO PUSH2 0x2C0 JUMPI PUSH0 PUSH0 REVERT JUMPDEST POP PUSH2 0x2DB PUSH1 0x4 DUP1 CALLDATASIZE SUB DUP2 ADD SWAP1 PUSH2 0x2D6 SWAP2 SWAP1 PUSH2 0x1F90 JUMP JUMPDEST PUSH2 0x111A JUMP JUMPDEST PUSH1 0x40 MLOAD PUSH2 0x2E8 SWAP2 SWAP1 PUSH2 0x1E5F JUMP JUMPDEST PUSH1 0x40 MLOAD DUP1 SWAP2 SUB SWAP1 RETURN JUMPDEST CALLVALUE DUP1 ISZERO PUSH2 0x2FC JUMPI PUSH0 PUSH0 REVERT JUMPDEST POP PUSH2 0x317 PUSH1 0x4 DUP1 CALLDATASIZE SUB DUP2 ADD SWAP1 PUSH2 0x312 SWAP2 SWAP1 PUSH2 0x20E4 JUMP JUMPDEST PUSH2 0x112F JUMP JUMPDEST PUSH1 0x40 MLOAD PUSH2 0x324 SWAP2 SWAP1 PUSH2 0x237D JUMP JUMPDEST PUSH1 0x40 MLOAD DUP1 SWAP2 SUB SWAP1 RETURN JUMPDEST CALLVALUE DUP1 ISZERO PUSH2 0x338 JUMPI PUSH0 PUSH0 REVERT JUMPDEST POP PUSH2 0x353 PUSH1 0x4 DUP1 CALLDATASIZE SUB DUP2 ADD SWAP1 PUSH2 0x34E SWAP2 SWAP1 PUSH2 0x1F90 JUMP JUMPDEST PUSH2 0x1177 JUMP JUMPDEST PUSH1 0x40 MLOAD PUSH2 0x360 SWAP2 SWAP1 PUSH2 0x1E5F JUMP JUMPDEST PUSH1 0x40 MLOAD DUP1 SWAP2 SUB SWAP1 RETURN JUMPDEST CALLVALUE DUP1 ISZERO PUSH2 0x374 JUMPI PUSH0 PUSH0 REVERT JUMPDEST POP PUSH2 0x38F PUSH1 0x4 DUP1 CALLDATASIZE SUB DUP2 ADD SWAP1 PUSH2 0x38A SWAP2 SWAP1 PUSH2 0x20E4 JUMP JUMPDEST PUSH2 0x1208 JUMP JUMPDEST PUSH1 0x40 MLOAD PUSH2 0x39C SWAP2 SWAP1 PUSH2 0x242F JUMP JUMPDEST PUSH1 0x40 MLOAD DUP1 SWAP2 SUB SWAP1 RETURN JUMPDEST CALLVALUE DUP1 ISZERO PUSH2 0x3B0 JUMPI PUSH0 PUSH0 REVERT JUMPDEST POP PUSH2 0x3CB PUSH1 0x4 DUP1 CALLDATASIZE SUB DUP2 ADD SWAP1 PUSH2 0x3C6 SWAP2 SWAP1 PUSH2 0x257B JUMP JUMPDEST PUSH2 0x132F JUMP JUMPDEST STOP JUMPDEST CALLVALUE DUP1 ISZERO PUSH2 0x3D8 JUMPI PUSH0 PUSH0 REVERT JUMPDEST POP PUSH2 0x3F3 PUSH1 0x4 DUP1 CALLDATASIZE SUB DUP2 ADD SWAP1 PUSH2 0x3EE SWAP2 SWAP1 PUSH2 0x25E7 JUMP JUMPDEST PUSH2 0x16CA JUMP JUMPDEST STOP JUMPDEST CALLVALUE DUP1 ISZERO PUSH2 0x400 JUMPI PUSH0 PUSH0 REVERT JUMPDEST POP PUSH2 0x41B PUSH1 0x4 DUP1 CALLDATASIZE SUB DUP2 ADD SWAP1 PUSH2 0x416 SWAP2 SWAP1 PUSH2 0x2683 JUMP JUMPDEST PUSH2 0x19DC JUMP JUMPDEST PUSH1 0x40 MLOAD PUSH2 0x428 SWAP2 SWAP1 PUSH2 0x1E5F JUMP JUMPDEST PUSH1 0x40 MLOAD DUP1 SWAP2 SUB SWAP1 RETURN JUMPDEST PUSH2 0x44B PUSH1 0x4 DUP1 CALLDATASIZE SUB DUP2 ADD SWAP1 PUSH2 0x446 SWAP2 SWAP1 PUSH2 0x1F90 JUMP JUMPDEST PUSH2 0x19FC JUMP JUMPDEST STOP JUMPDEST CALLVALUE DUP1 ISZERO PUSH2 0x458 JUMPI PUSH0 PUSH0 REVERT JUMPDEST POP PUSH2 0x473 PUSH1 0x4 DUP1 CALLDATASIZE SUB DUP2 ADD SWAP1 PUSH2 0x46E SWAP2 SWAP1 PUSH2 0x1F90 JUMP JUMPDEST PUSH2 0x1D58 JUMP JUMPDEST PUSH1 0x40 MLOAD PUSH2 0x480 SWAP2 SWAP1 PUSH2 0x1E5F JUMP JUMPDEST PUSH1 0x40 MLOAD DUP1 SWAP2 SUB SWAP1 RETURN JUMPDEST PUSH0 SLOAD DUP2 JUMP JUMPDEST PUSH1 0x6 PUSH1 0x20 MSTORE DUP3 PUSH0 MSTORE PUSH1 0x40 PUSH0 KECCAK256 PUSH1 0x20 MSTORE DUP2 PUSH0 MSTORE PUSH1 0x40 PUSH0 KECCAK256 PUSH1 0x20 MSTORE DUP1 PUSH0 MSTORE PUSH1 0x40 PUSH0 KECCAK256 PUSH0 SWAP3 POP SWAP3 POP POP SWAP1 SLOAD SWAP1 PUSH2 0x100 EXP SWAP1 DIV PUSH1 0xFF AND DUP2 JUMP JUMPDEST PUSH1 0x1 PUSH1 0x20 MSTORE DUP1 PUSH0 MSTORE PUSH1 0x40 PUSH0 KECCAK256 PUSH0 SWAP2 POP SWAP1 POP DUP1 PUSH0 ADD SLOAD SWAP1 DUP1 PUSH1 0x1 ADD PUSH0 SWAP1 SLOAD SWAP1 PUSH2 0x100 EXP SWAP1 DIV PUSH20 0xFFFFFFFFFFFFFFFFFFFFFFFFFFFFFFFFFFFFFFFF AND SWAP1 DUP1 PUSH1 0x2 ADD DUP1 SLOAD PUSH2 0x50D SWAP1 PUSH2 0x26EE JUMP JUMPDEST DUP1 PUSH1 0x1F ADD PUSH1 0x20 DUP1 SWAP2 DIV MUL PUSH1 0x20 ADD PUSH1 0x40 MLOAD SWAP1 DUP2 ADD PUSH1 0x40 MSTORE DUP1 SWAP3 SWAP2 SWAP1 DUP2 DUP2 MSTORE PUSH1 0x20 ADD DUP3 DUP1 SLOAD PUSH2 0x539 SWAP1 PUSH2 0x26EE JUMP JUMPDEST DUP1 ISZERO PUSH2 0x584 JUMPI DUP1 PUSH1 0x1F LT PUSH2 0x55B JUMPI PUSH2 0x100 DUP1 DUP4 SLOAD DIV MUL DUP4 MSTORE SWAP2 PUSH1 0x20 ADD SWAP2 PUSH2 0x584 JUMP JUMPDEST DUP3 ADD SWAP2 SWAP1 PUSH0 MSTORE PUSH1 0x20 PUSH0 KECCAK256 SWAP1 JUMPDEST DUP2 SLOAD DUP2 MSTORE SWAP1 PUSH1 0x1 ADD SWAP1 PUSH1 0x20 ADD DUP1 DUP4 GT PUSH2 0x567 JUMPI DUP3 SWAP1 SUB PUSH1 0x1F AND DUP3 ADD SWAP2 JUMPDEST POP POP POP POP POP SWAP1 DUP1 PUSH1 0x3 ADD DUP1 SLOAD PUSH2 0x599 SWAP1 PUSH2 0x26EE JUMP JUMPDEST DUP1 PUSH1 0x1F ADD PUSH1 0x20 DUP1 SWAP2 DIV MUL PUSH1 0x20 ADD PUSH1 0x40 MLOAD SWAP1 DUP2 ADD PUSH1 0x40 MSTORE DUP1 SWAP3 SWAP2 SWAP1 DUP2 DUP2 MSTORE PUSH1 0x20 ADD DUP3 DUP1 SLOAD PUSH2 0x5C5 SWAP1 PUSH2 0x26EE JUMP JUMPDEST DUP1 ISZERO PUSH2 0x610 JUMPI DUP1 PUSH1 0x1F LT PUSH2 0x5E7 JUMPI PUSH2 0x100 DUP1 DUP4 SLOAD DIV MUL DUP4 MSTORE SWAP2 PUSH1 0x20 ADD SWAP2 PUSH2 0x610 JUMP JUMPDEST DUP3 ADD SWAP2 SWAP1 PUSH0 MSTORE PUSH1 0x20 PUSH0 KECCAK256 SWAP1 JUMPDEST DUP2 SLOAD DUP2 MSTORE SWAP1 PUSH1 0x1 ADD SWAP1 PUSH1 0x20 ADD DUP1 DUP4 GT PUSH2 0x5F3 JUMPI DUP3 SWAP1 SUB PUSH1 0x1F AND DUP3 ADD SWAP2 JUMPDEST POP POP POP POP POP SWAP1 DUP1 PUSH1 0x4 ADD SLOAD SWAP1 DUP1 PUSH1 0x5 ADD SLOAD SWAP1 DUP1 PUSH1 0x6 ADD SLOAD SWAP1 DUP1 PUSH1 0x7 ADD PUSH0 SWAP1 SLOAD SWAP1 PUSH2 0x100 EXP SWAP1 DIV PUSH1 0xFF AND SWAP1 DUP1 PUSH1 0x7 ADD PUSH1 0x1 SWAP1 SLOAD SWAP1 PUSH2 0x100 EXP SWAP1 DIV PUSH1 0xFF AND SWAP1 POP DUP10 JUMP JUMPDEST PUSH1 0x2 PUSH1 0x20 MSTORE DUP2 PUSH0 MSTORE PUSH1 0x40 PUSH0 KECCAK256 PUSH1 0x20 MSTORE DUP1 PUSH0 MSTORE PUSH1 0x40 PUSH0 KECCAK256 PUSH0 SWAP2 POP SWAP2 POP POP DUP1 PUSH0 ADD SLOAD SWAP1 DUP1 PUSH1 0x1 ADD DUP1 SLOAD PUSH2 0x681 SWAP1 PUSH2 0x26EE JUMP JUMPDEST DUP1 PUSH1 0x1F ADD PUSH1 0x20 DUP1 SWAP2 DIV MUL PUSH1 0x20 ADD PUSH1 0x40 MLOAD SWAP1 DUP2 ADD PUSH1 0x40 MSTORE DUP1 SWAP3 SWAP2 SWAP1 DUP2 DUP2 MSTORE PUSH1 0x20 ADD DUP3 DUP1 SLOAD PUSH2 0x6AD SWAP1 PUSH2 0x26EE JUMP JUMPDEST DUP1 ISZERO PUSH2 0x6F8 JUMPI DUP1 PUSH1 0x1F LT PUSH2 0x6CF JUMPI PUSH2 0x100 DUP1 DUP4 SLOAD DIV MUL DUP4 MSTORE SWAP2 PUSH1 0x20 ADD SWAP2 PUSH2 0x6F8 JUMP JUMPDEST DUP3 ADD SWAP2 SWAP1 PUSH0 MSTORE PUSH1 0x20 PUSH0 KECCAK256 SWAP1 JUMPDEST DUP2 SLOAD DUP2 MSTORE SWAP1 PUSH1 0x1 ADD SWAP1 PUSH1 0x20 ADD DUP1 DUP4 GT PUSH2 0x6DB JUMPI DUP3 SWAP1 SUB PUSH1 0x1F AND DUP3 ADD SWAP2 JUMPDEST POP POP POP POP POP SWAP1 DUP1 PUSH1 0x2 ADD SLOAD SWAP1 DUP1 PUSH1 0x3 ADD PUSH0 SWAP1 SLOAD SWAP1 PUSH2 0x100 EXP SWAP1 DIV PUSH1 0xFF AND SWAP1 DUP1 PUSH1 0x3 ADD PUSH1 0x1 SWAP1 SLOAD SWAP1 PUSH2 0x100 EXP SWAP1 DIV PUSH1 0xFF AND SWAP1 DUP1 PUSH1 0x4 ADD SLOAD SWAP1 DUP1 PUSH1 0x5 ADD SLOAD SWAP1 POP DUP8 JUMP JUMPDEST PUSH2 0x741 PUSH2 0x1DAD JUMP JUMPDEST DUP2 PUSH0 SLOAD DUP2 LT PUSH2 0x785 JUMPI PUSH1 0x40 MLOAD PUSH32 0x8C379A000000000000000000000000000000000000000000000000000000000 DUP2 MSTORE PUSH1 0x4 ADD PUSH2 0x77C SWAP1 PUSH2 0x2768 JUMP JUMPDEST PUSH1 0x40 MLOAD DUP1 SWAP2 SUB SWAP1 REVERT JUMPDEST PUSH1 0x1 PUSH0 DUP5 DUP2 MSTORE PUSH1 0x20 ADD SWAP1 DUP2 MSTORE PUSH1 0x20 ADD PUSH0 KECCAK256 PUSH1 0x40 MLOAD DUP1 PUSH2 0x120 ADD PUSH1 0x40 MSTORE SWAP1 DUP2 PUSH0 DUP3 ADD SLOAD DUP2 MSTORE PUSH1 0x20 ADD PUSH1 0x1 DUP3 ADD PUSH0 SWAP1 SLOAD SWAP1 PUSH2 0x100 EXP SWAP1 DIV PUSH20 0xFFFFFFFFFFFFFFFFFFFFFFFFFFFFFFFFFFFFFFFF AND PUSH20 0xFFFFFFFFFFFFFFFFFFFFFFFFFFFFFFFFFFFFFFFF AND PUSH20 0xFFFFFFFFFFFFFFFFFFFFFFFFFFFFFFFFFFFFFFFF AND DUP2 MSTORE PUSH1 0x20 ADD PUSH1 0x2 DUP3 ADD DUP1 SLOAD PUSH2 0x810 SWAP1 PUSH2 0x26EE JUMP JUMPDEST DUP1 PUSH1 0x1F ADD PUSH1 0x20 DUP1 SWAP2 DIV MUL PUSH1 0x20 ADD PUSH1 0x40 MLOAD SWAP1 DUP2 ADD PUSH1 0x40 MSTORE DUP1 SWAP3 SWAP2 SWAP1 DUP2 DUP2 MSTORE PUSH1 0x20 ADD DUP3 DUP1 SLOAD PUSH2 0x83C SWAP1 PUSH2 0x26EE JUMP JUMPDEST DUP1 ISZERO PUSH2 0x887 JUMPI DUP1 PUSH1 0x1F LT PUSH2 0x85E JUMPI PUSH2 0x100 DUP1 DUP4 SLOAD DIV MUL DUP4 MSTORE SWAP2 PUSH1 0x20 ADD SWAP2 PUSH2 0x887 JUMP JUMPDEST DUP3 ADD SWAP2 SWAP1 PUSH0 MSTORE PUSH1 0x20 PUSH0 KECCAK256 SWAP1 JUMPDEST DUP2 SLOAD DUP2 MSTORE SWAP1 PUSH1 0x1 ADD SWAP1 PUSH1 0x20 ADD DUP1 DUP4 GT PUSH2 0x86A JUMPI DUP3 SWAP1 SUB PUSH1 0x1F AND DUP3 ADD SWAP2 JUMPDEST POP POP POP POP POP DUP2 MSTORE PUSH1 0x20 ADD PUSH1 0x3 DUP3 ADD DUP1 SLOAD PUSH2 0x8A0 SWAP1 PUSH2 0x26EE JUMP JUMPDEST DUP1 PUSH1 0x1F ADD PUSH1 0x20 DUP1 SWAP2 DIV MUL PUSH1 0x20 ADD PUSH1 0x40 MLOAD SWAP1 DUP2 ADD PUSH1 0x40 MSTORE DUP1 SWAP3 SWAP2 SWAP1 DUP2 DUP2 MSTORE PUSH1 0x20 ADD DUP3 DUP1 SLOAD PUSH2 0x8CC SWAP1 PUSH2 0x26EE JUMP JUMPDEST DUP1 ISZERO PUSH2 0x917 JUMPI DUP1 PUSH1 0x1F LT PUSH2 0x8EE JUMPI PUSH2 0x100 DUP1 DUP4 SLOAD DIV MUL DUP4 MSTORE SWAP2 PUSH1 0x20 ADD SWAP2 PUSH2 0x917 JUMP JUMPDEST DUP3 ADD SWAP2 SWAP1 PUSH0 MSTORE PUSH1 0x20 PUSH0 KECCAK256 SWAP1 JUMPDEST DUP2 SLOAD DUP2 MSTORE SWAP1 PUSH1 0x1 ADD SWAP1 PUSH1 0x20 ADD DUP1 DUP4 GT PUSH2 0x8FA JUMPI DUP3 SWAP1 SUB PUSH1 0x1F AND DUP3 ADD SWAP2 JUMPDEST POP POP POP POP POP DUP2 MSTORE PUSH1 0x20 ADD PUSH1 0x4 DUP3 ADD SLOAD DUP2 MSTORE PUSH1 0x20 ADD PUSH1 0x5 DUP3 ADD SLOAD DUP2 MSTORE PUSH1 0x20 ADD PUSH1 0x6 DUP3 ADD SLOAD DUP2 MSTORE PUSH1 0x20 ADD PUSH1 0x7 DUP3 ADD PUSH0 SWAP1 SLOAD SWAP1 PUSH2 0x100 EXP SWAP1 DIV PUSH1 0xFF AND ISZERO ISZERO ISZERO ISZERO DUP2 MSTORE PUSH1 0x20 ADD PUSH1 0x7 DUP3 ADD PUSH1 0x1 SWAP1 SLOAD SWAP1 PUSH2 0x100 EXP SWAP1 DIV PUSH1 0xFF AND ISZERO ISZERO ISZERO ISZERO DUP2 MSTORE POP POP SWAP2 POP POP SWAP2 SWAP1 POP JUMP JUMPDEST PUSH0 DUP2 PUSH0 SLOAD DUP2 LT PUSH2 0x9C0 JUMPI PUSH1 0x40 MLOAD PUSH32 0x8C379A000000000000000000000000000000000000000000000000000000000 DUP2 MSTORE PUSH1 0x4 ADD PUSH2 0x9B7 SWAP1 PUSH2 0x2768 JUMP JUMPDEST PUSH1 0x40 MLOAD DUP1 SWAP2 SUB SWAP1 REVERT JUMPDEST PUSH1 0x5 PUSH0 DUP5 DUP2 MSTORE PUSH1 0x20 ADD SWAP1 DUP2 MSTORE PUSH1 0x20 ADD PUSH0 KECCAK256 DUP1 SLOAD SWAP1 POP SWAP2 POP POP SWAP2 SWAP1 POP JUMP JUMPDEST DUP1 PUSH0 SLOAD DUP2 LT PUSH2 0xA21 JUMPI PUSH1 0x40 MLOAD PUSH32 0x8C379A000000000000000000000000000000000000000000000000000000000 DUP2 MSTORE PUSH1 0x4 ADD PUSH2 0xA18 SWAP1 PUSH2 0x2768 JUMP JUMPDEST PUSH1 0x40 MLOAD DUP1 SWAP2 SUB SWAP1 REVERT JUMPDEST PUSH0 PUSH1 0x1 PUSH0 DUP5 DUP2 MSTORE PUSH1 0x20 ADD SWAP1 DUP2 MSTORE PUSH1 0x20 ADD PUSH0 KECCAK256 SWAP1 POP DUP1 PUSH1 0x5 ADD SLOAD TIMESTAMP LT ISZERO PUSH2 0xA7C JUMPI PUSH1 0x40 MLOAD PUSH32 0x8C379A000000000000000000000000000000000000000000000000000000000 DUP2 MSTORE PUSH1 0x4 ADD PUSH2 0xA73 SWAP1 PUSH2 0x27D0 JUMP JUMPDEST PUSH1 0x40 MLOAD DUP1 SWAP2 SUB SWAP1 REVERT JUMPDEST DUP1 PUSH1 0x7 ADD PUSH0 SWAP1 SLOAD SWAP1 PUSH2 0x100 EXP SWAP1 DIV PUSH1 0xFF AND ISZERO PUSH2 0xACD JUMPI PUSH1 0x40 MLOAD PUSH32 0x8C379A000000000000000000000000000000000000000000000000000000000 DUP2 MSTORE PUSH1 0x4 ADD PUSH2 0xAC4 SWAP1 PUSH2 0x285E JUMP JUMPDEST PUSH1 0x40 MLOAD DUP1 SWAP2 SUB SWAP1 REVERT JUMPDEST PUSH0 PUSH1 0x4 PUSH0 DUP6 DUP2 MSTORE PUSH1 0x20 ADD SWAP1 DUP2 MSTORE PUSH1 0x20 ADD PUSH0 KECCAK256 PUSH0 CALLER PUSH20 0xFFFFFFFFFFFFFFFFFFFFFFFFFFFFFFFFFFFFFFFF AND PUSH20 0xFFFFFFFFFFFFFFFFFFFFFFFFFFFFFFFFFFFFFFFF AND DUP2 MSTORE PUSH1 0x20 ADD SWAP1 DUP2 MSTORE PUSH1 0x20 ADD PUSH0 KECCAK256 SLOAD SWAP1 POP PUSH0 DUP2 GT PUSH2 0xB5F JUMPI PUSH1 0x40 MLOAD PUSH32 0x8C379A000000000000000000000000000000000000000000000000000000000 DUP2 MSTORE PUSH1 0x4 ADD PUSH2 0xB56 SWAP1 PUSH2 0x28C6 JUMP JUMPDEST PUSH1 0x40 MLOAD DUP1 SWAP2 SUB SWAP1 REVERT JUMPDEST PUSH0 PUSH1 0x4 PUSH0 DUP7 DUP2 MSTORE PUSH1 0x20 ADD SWAP1 DUP2 MSTORE PUSH1 0x20 ADD PUSH0 KECCAK256 PUSH0 CALLER PUSH20 0xFFFFFFFFFFFFFFFFFFFFFFFFFFFFFFFFFFFFFFFF AND PUSH20 0xFFFFFFFFFFFFFFFFFFFFFFFFFFFFFFFFFFFFFFFF AND DUP2 MSTORE PUSH1 0x20 ADD SWAP1 DUP2 MSTORE PUSH1 0x20 ADD PUSH0 KECCAK256 DUP2 SWAP1 SSTORE POP CALLER PUSH20 0xFFFFFFFFFFFFFFFFFFFFFFFFFFFFFFFFFFFFFFFF AND PUSH2 0x8FC DUP3 SWAP1 DUP2 ISZERO MUL SWAP1 PUSH1 0x40 MLOAD PUSH0 PUSH1 0x40 MLOAD DUP1 DUP4 SUB DUP2 DUP6 DUP9 DUP9 CALL SWAP4 POP POP POP POP ISZERO DUP1 ISZERO PUSH2 0xBF3 JUMPI RETURNDATASIZE PUSH0 PUSH0 RETURNDATACOPY RETURNDATASIZE PUSH0 REVERT JUMPDEST POP DUP4 PUSH32 0xF3F402280EF0A7905E124AA621B65EAEB2725C343E8B36D398ED78C29DAF285C CALLER DUP4 PUSH1 0x40 MLOAD PUSH2 0xC26 SWAP3 SWAP2 SWAP1 PUSH2 0x28E4 JUMP JUMPDEST PUSH1 0x40 MLOAD DUP1 SWAP2 SUB SWAP1 LOG2 POP POP POP POP JUMP JUMPDEST DUP3 PUSH0 SLOAD DUP2 LT PUSH2 0xC78 JUMPI PUSH1 0x40 MLOAD PUSH32 0x8C379A000000000000000000000000000000000000000000000000000000000 DUP2 MSTORE PUSH1 0x4 ADD PUSH2 0xC6F SWAP1 PUSH2 0x2768 JUMP JUMPDEST PUSH1 0x40 MLOAD DUP1 SWAP2 SUB SWAP1 REVERT JUMPDEST PUSH0 PUSH1 0x4 PUSH0 DUP7 DUP2 MSTORE PUSH1 0x20 ADD SWAP1 DUP2 MSTORE PUSH1 0x20 ADD PUSH0 KECCAK256 PUSH0 CALLER PUSH20 0xFFFFFFFFFFFFFFFFFFFFFFFFFFFFFFFFFFFFFFFF AND PUSH20 0xFFFFFFFFFFFFFFFFFFFFFFFFFFFFFFFFFFFFFFFF AND DUP2 MSTORE PUSH1 0x20 ADD SWAP1 DUP2 MSTORE PUSH1 0x20 ADD PUSH0 KECCAK256 SLOAD GT PUSH2 0xD06 JUMPI PUSH1 0x40 MLOAD PUSH32 0x8C379A000000000000000000000000000000000000000000000000000000000 DUP2 MSTORE PUSH1 0x4 ADD PUSH2 0xCFD SWAP1 PUSH2 0x2955 JUMP JUMPDEST PUSH1 0x40 MLOAD DUP1 SWAP2 SUB SWAP1 REVERT JUMPDEST PUSH1 0x6 PUSH0 DUP6 DUP2 MSTORE PUSH1 0x20 ADD SWAP1 DUP2 MSTORE PUSH1 0x20 ADD PUSH0 KECCAK256 PUSH0 DUP5 DUP2 MSTORE PUSH1 0x20 ADD SWAP1 DUP2 MSTORE PUSH1 0x20 ADD PUSH0 KECCAK256 PUSH0 CALLER PUSH20 0xFFFFFFFFFFFFFFFFFFFFFFFFFFFFFFFFFFFFFFFF AND PUSH20 0xFFFFFFFFFFFFFFFFFFFFFFFFFFFFFFFFFFFFFFFF AND DUP2 MSTORE PUSH1 0x20 ADD SWAP1 DUP2 MSTORE PUSH1 0x20 ADD PUSH0 KECCAK256 PUSH0 SWAP1 SLOAD SWAP1 PUSH2 0x100 EXP SWAP1 DIV PUSH1 0xFF AND ISZERO PUSH2 0xDAE JUMPI PUSH1 0x40 MLOAD PUSH32 0x8C379A000000000000000000000000000000000000000000000000000000000 DUP2 MSTORE PUSH1 0x4 ADD PUSH2 0xDA5 SWAP1 PUSH2 0x29BD JUMP JUMPDEST PUSH1 0x40 MLOAD DUP1 SWAP2 SUB SWAP1 REVERT JUMPDEST PUSH0 PUSH1 0x2 PUSH0 DUP7 DUP2 MSTORE PUSH1 0x20 ADD SWAP1 DUP2 MSTORE PUSH1 0x20 ADD PUSH0 KECCAK256 PUSH0 DUP6 DUP2 MSTORE PUSH1 0x20 ADD SWAP1 DUP2 MSTORE PUSH1 0x20 ADD PUSH0 KECCAK256 SWAP1 POP DUP1 PUSH1 0x3 ADD PUSH0 SWAP1 SLOAD SWAP1 PUSH2 0x100 EXP SWAP1 DIV PUSH1 0xFF AND ISZERO PUSH2 0xE22 JUMPI PUSH1 0x40 MLOAD PUSH32 0x8C379A000000000000000000000000000000000000000000000000000000000 DUP2 MSTORE PUSH1 0x4 ADD PUSH2 0xE19 SWAP1 PUSH2 0x2A25 JUMP JUMPDEST PUSH1 0x40 MLOAD DUP1 SWAP2 SUB SWAP1 REVERT JUMPDEST DUP1 PUSH1 0x3 ADD PUSH1 0x1 SWAP1 SLOAD SWAP1 PUSH2 0x100 EXP SWAP1 DIV PUSH1 0xFF AND ISZERO PUSH2 0xE74 JUMPI PUSH1 0x40 MLOAD PUSH32 0x8C379A000000000000000000000000000000000000000000000000000000000 DUP2 MSTORE PUSH1 0x4 ADD PUSH2 0xE6B SWAP1 PUSH2 0x2A8D JUMP JUMPDEST PUSH1 0x40 MLOAD DUP1 SWAP2 SUB SWAP1 REVERT JUMPDEST PUSH1 0x1 PUSH1 0x6 PUSH0 DUP8 DUP2 MSTORE PUSH1 0x20 ADD SWAP1 DUP2 MSTORE PUSH1 0x20 ADD PUSH0 KECCAK256 PUSH0 DUP7 DUP2 MSTORE PUSH1 0x20 ADD SWAP1 DUP2 MSTORE PUSH1 0x20 ADD PUSH0 KECCAK256 PUSH0 CALLER PUSH20 0xFFFFFFFFFFFFFFFFFFFFFFFFFFFFFFFFFFFFFFFF AND PUSH20 0xFFFFFFFFFFFFFFFFFFFFFFFFFFFFFFFFFFFFFFFF AND DUP2 MSTORE PUSH1 0x20 ADD SWAP1 DUP2 MSTORE PUSH1 0x20 ADD PUSH0 KECCAK256 PUSH0 PUSH2 0x100 EXP DUP2 SLOAD DUP2 PUSH1 0xFF MUL NOT AND SWAP1 DUP4 ISZERO ISZERO MUL OR SWAP1 SSTORE POP PUSH0 PUSH1 0x5 PUSH0 DUP8 DUP2 MSTORE PUSH1 0x20 ADD SWAP1 DUP2 MSTORE PUSH1 0x20 ADD PUSH0 KECCAK256 DUP1 SLOAD SWAP1 POP SWAP1 POP DUP4 ISZERO PUSH2 0x104E JUMPI DUP2 PUSH1 0x4 ADD PUSH0 DUP2 SLOAD DUP1 SWAP3 SWAP2 SWAP1 PUSH2 0xF19 SWAP1 PUSH2 0x2AD8 JUMP JUMPDEST SWAP2 SWAP1 POP SSTORE POP DUP6 PUSH32 0xAB85204CC3F4A5213AAEAC56BAEC47B9FE23DDB7EE575FE3F6D6F2B6226BF830 DUP7 CALLER PUSH1 0x1 PUSH1 0x40 MLOAD PUSH2 0xF53 SWAP4 SWAP3 SWAP2 SWAP1 PUSH2 0x2B1F JUMP JUMPDEST PUSH1 0x40 MLOAD DUP1 SWAP2 SUB SWAP1 LOG2 DUP1 PUSH1 0x2 DUP4 PUSH1 0x4 ADD SLOAD PUSH2 0xF6D SWAP2 SWAP1 PUSH2 0x2B54 JUMP JUMPDEST GT ISZERO PUSH2 0x1049 JUMPI PUSH1 0x1 DUP3 PUSH1 0x3 ADD PUSH0 PUSH2 0x100 EXP DUP2 SLOAD DUP2 PUSH1 0xFF MUL NOT AND SWAP1 DUP4 ISZERO ISZERO MUL OR SWAP1 SSTORE POP PUSH1 0x1 PUSH0 DUP8 DUP2 MSTORE PUSH1 0x20 ADD SWAP1 DUP2 MSTORE PUSH1 0x20 ADD PUSH0 KECCAK256 PUSH1 0x1 ADD PUSH0 SWAP1 SLOAD SWAP1 PUSH2 0x100 EXP SWAP1 DIV PUSH20 0xFFFFFFFFFFFFFFFFFFFFFFFFFFFFFFFFFFFFFFFF AND PUSH20 0xFFFFFFFFFFFFFFFFFFFFFFFFFFFFFFFFFFFFFFFF AND PUSH2 0x8FC DUP4 PUSH1 0x2 ADD SLOAD SWAP1 DUP2 ISZERO MUL SWAP1 PUSH1 0x40 MLOAD PUSH0 PUSH1 0x40 MLOAD DUP1 DUP4 SUB DUP2 DUP6 DUP9 DUP9 CALL SWAP4 POP POP POP POP ISZERO DUP1 ISZERO PUSH2 0x1009 JUMPI RETURNDATASIZE PUSH0 PUSH0 RETURNDATACOPY RETURNDATASIZE PUSH0 REVERT JUMPDEST POP DUP6 PUSH32 0x24D2F6E8AC6C13D1E7610752AB0B7CE03D5043806A65D3D631AE859AD81D159B DUP7 DUP5 PUSH1 0x2 ADD SLOAD PUSH1 0x40 MLOAD PUSH2 0x1040 SWAP3 SWAP2 SWAP1 PUSH2 0x2B95 JUMP JUMPDEST PUSH1 0x40 MLOAD DUP1 SWAP2 SUB SWAP1 LOG2 JUMPDEST PUSH2 0x1112 JUMP JUMPDEST DUP2 PUSH1 0x5 ADD PUSH0 DUP2 SLOAD DUP1 SWAP3 SWAP2 SWAP1 PUSH2 0x1062 SWAP1 PUSH2 0x2AD8 JUMP JUMPDEST SWAP2 SWAP1 POP SSTORE POP DUP6 PUSH32 0xAB85204CC3F4A5213AAEAC56BAEC47B9FE23DDB7EE575FE3F6D6F2B6226BF830 DUP7 CALLER PUSH0 PUSH1 0x40 MLOAD PUSH2 0x109B SWAP4 SWAP3 SWAP2 SWAP1 PUSH2 0x2B1F JUMP JUMPDEST PUSH1 0x40 MLOAD DUP1 SWAP2 SUB SWAP1 LOG2 DUP1 PUSH1 0x2 DUP4 PUSH1 0x5 ADD SLOAD PUSH2 0x10B5 SWAP2 SWAP1 PUSH2 0x2B54 JUMP JUMPDEST GT ISZERO PUSH2 0x1111 JUMPI PUSH1 0x1 DUP3 PUSH1 0x3 ADD PUSH1 0x1 PUSH2 0x100 EXP DUP2 SLOAD DUP2 PUSH1 0xFF MUL NOT AND SWAP1 DUP4 ISZERO ISZERO MUL OR SWAP1 SSTORE POP DUP6 PUSH32 0x4E2FD11F84344693B41D2ABA9910E33B34A4F02D4D3A65B65B2201F3C8FA3C89 DUP7 PUSH1 0x40 MLOAD PUSH2 0x1108 SWAP2 SWAP1 PUSH2 0x1E5F JUMP JUMPDEST PUSH1 0x40 MLOAD DUP1 SWAP2 SUB SWAP1 LOG2 JUMPDEST JUMPDEST POP POP POP POP POP POP JUMP JUMPDEST PUSH1 0x3 PUSH1 0x20 MSTORE DUP1 PUSH0 MSTORE PUSH1 0x40 PUSH0 KECCAK256 PUSH0 SWAP2 POP SWAP1 POP SLOAD DUP2 JUMP JUMPDEST PUSH1 0x5 PUSH1 0x20 MSTORE DUP2 PUSH0 MSTORE PUSH1 0x40 PUSH0 KECCAK256 DUP2 DUP2 SLOAD DUP2 LT PUSH2 0x1148 JUMPI PUSH0 DUP1 REVERT JUMPDEST SWAP1 PUSH0 MSTORE PUSH1 0x20 PUSH0 KECCAK256 ADD PUSH0 SWAP2 POP SWAP2 POP SWAP1 SLOAD SWAP1 PUSH2 0x100 EXP SWAP1 DIV PUSH20 0xFFFFFFFFFFFFFFFFFFFFFFFFFFFFFFFFFFFFFFFF AND DUP2 JUMP JUMPDEST PUSH0 DUP2 PUSH0 SLOAD DUP2 LT PUSH2 0x11BC JUMPI PUSH1 0x40 MLOAD PUSH32 0x8C379A000000000000000000000000000000000000000000000000000000000 DUP2 MSTORE PUSH1 0x4 ADD PUSH2 0x11B3 SWAP1 PUSH2 0x2768 JUMP JUMPDEST PUSH1 0x40 MLOAD DUP1 SWAP2 SUB SWAP1 REVERT JUMPDEST PUSH1 0x1 PUSH0 DUP5 DUP2 MSTORE PUSH1 0x20 ADD SWAP1 DUP2 MSTORE PUSH1 0x20 ADD PUSH0 KECCAK256 PUSH1 0x5 ADD SLOAD TIMESTAMP LT PUSH2 0x11DF JUMPI PUSH0 SWAP2 POP PUSH2 0x1202 JUMP JUMPDEST TIMESTAMP PUSH1 0x1 PUSH0 DUP6 DUP2 MSTORE PUSH1 0x20 ADD SWAP1 DUP2 MSTORE PUSH1 0x20 ADD PUSH0 KECCAK256 PUSH1 0x5 ADD SLOAD PUSH2 0x11FF SWAP2 SWAP1 PUSH2 0x2BBC JUMP JUMPDEST SWAP2 POP JUMPDEST POP SWAP2 SWAP1 POP JUMP JUMPDEST PUSH2 0x1210 PUSH2 0x1E0C JUMP JUMPDEST PUSH1 0x2 PUSH0 DUP5 DUP2 MSTORE PUSH1 0x20 ADD SWAP1 DUP2 MSTORE PUSH1 0x20 ADD PUSH0 KECCAK256 PUSH0 DUP4 DUP2 MSTORE PUSH1 0x20 ADD SWAP1 DUP2 MSTORE PUSH1 0x20 ADD PUSH0 KECCAK256 PUSH1 0x40 MLOAD DUP1 PUSH1 0xE0 ADD PUSH1 0x40 MSTORE SWAP1 DUP2 PUSH0 DUP3 ADD SLOAD DUP2 MSTORE PUSH1 0x20 ADD PUSH1 0x1 DUP3 ADD DUP1 SLOAD PUSH2 0x1254 SWAP1 PUSH2 0x26EE JUMP JUMPDEST DUP1 PUSH1 0x1F ADD PUSH1 0x20 DUP1 SWAP2 DIV MUL PUSH1 0x20 ADD PUSH1 0x40 MLOAD SWAP1 DUP2 ADD PUSH1 0x40 MSTORE DUP1 SWAP3 SWAP2 SWAP1 DUP2 DUP2 MSTORE PUSH1 0x20 ADD DUP3 DUP1 SLOAD PUSH2 0x1280 SWAP1 PUSH2 0x26EE JUMP JUMPDEST DUP1 ISZERO PUSH2 0x12CB JUMPI DUP1 PUSH1 0x1F LT PUSH2 0x12A2 JUMPI PUSH2 0x100 DUP1 DUP4 SLOAD DIV MUL DUP4 MSTORE SWAP2 PUSH1 0x20 ADD SWAP2 PUSH2 0x12CB JUMP JUMPDEST DUP3 ADD SWAP2 SWAP1 PUSH0 MSTORE PUSH1 0x20 PUSH0 KECCAK256 SWAP1 JUMPDEST DUP2 SLOAD DUP2 MSTORE SWAP1 PUSH1 0x1 ADD SWAP1 PUSH1 0x20 ADD DUP1 DUP4 GT PUSH2 0x12AE JUMPI DUP3 SWAP1 SUB PUSH1 0x1F AND DUP3 ADD SWAP2 JUMPDEST POP POP POP POP POP DUP2 MSTORE PUSH1 0x20 ADD PUSH1 0x2 DUP3 ADD SLOAD DUP2 MSTORE PUSH1 0x20 ADD PUSH1 0x3 DUP3 ADD PUSH0 SWAP1 SLOAD SWAP1 PUSH2 0x100 EXP SWAP1 DIV PUSH1 0xFF AND ISZERO ISZERO ISZERO ISZERO DUP2 MSTORE PUSH1 0x20 ADD PUSH1 0x3 DUP3 ADD PUSH1 0x1 SWAP1 SLOAD SWAP1 PUSH2 0x100 EXP SWAP1 DIV PUSH1 0xFF AND ISZERO ISZERO ISZERO ISZERO DUP2 MSTORE PUSH1 0x20 ADD PUSH1 0x4 DUP3 ADD SLOAD DUP2 MSTORE PUSH1 0x20 ADD PUSH1 0x5 DUP3 ADD SLOAD DUP2 MSTORE POP POP SWAP1 POP SWAP3 SWAP2 POP POP JUMP JUMPDEST DUP3 PUSH0 SLOAD DUP2 LT PUSH2 0x1373 JUMPI PUSH1 0x40 MLOAD PUSH32 0x8C379A000000000000000000000000000000000000000000000000000000000 DUP2 MSTORE PUSH1 0x4 ADD PUSH2 0x136A SWAP1 PUSH2 0x2768 JUMP JUMPDEST PUSH1 0x40 MLOAD DUP1 SWAP2 SUB SWAP1 REVERT JUMPDEST DUP4 PUSH1 0x1 PUSH0 DUP3 DUP2 MSTORE PUSH1 0x20 ADD SWAP1 DUP2 MSTORE PUSH1 0x20 ADD PUSH0 KECCAK256 PUSH1 0x1 ADD PUSH0 SWAP1 SLOAD SWAP1 PUSH2 0x100 EXP SWAP1 DIV PUSH20 0xFFFFFFFFFFFFFFFFFFFFFFFFFFFFFFFFFFFFFFFF AND PUSH20 0xFFFFFFFFFFFFFFFFFFFFFFFFFFFFFFFFFFFFFFFF AND CALLER PUSH20 0xFFFFFFFFFFFFFFFFFFFFFFFFFFFFFFFFFFFFFFFF AND EQ PUSH2 0x1415 JUMPI PUSH1 0x40 MLOAD PUSH32 0x8C379A000000000000000000000000000000000000000000000000000000000 DUP2 MSTORE PUSH1 0x4 ADD PUSH2 0x140C SWAP1 PUSH2 0x2C5F JUMP JUMPDEST PUSH1 0x40 MLOAD DUP1 SWAP2 SUB SWAP1 REVERT JUMPDEST PUSH1 0x1 PUSH0 DUP7 DUP2 MSTORE PUSH1 0x20 ADD SWAP1 DUP2 MSTORE PUSH1 0x20 ADD PUSH0 KECCAK256 PUSH1 0x7 ADD PUSH0 SWAP1 SLOAD SWAP1 PUSH2 0x100 EXP SWAP1 DIV PUSH1 0xFF AND PUSH2 0x1475 JUMPI PUSH1 0x40 MLOAD PUSH32 0x8C379A000000000000000000000000000000000000000000000000000000000 DUP2 MSTORE PUSH1 0x4 ADD PUSH2 0x146C SWAP1 PUSH2 0x2CED JUMP JUMPDEST PUSH1 0x40 MLOAD DUP1 SWAP2 SUB SWAP1 REVERT JUMPDEST PUSH0 DUP5 MLOAD GT PUSH2 0x14B8 JUMPI PUSH1 0x40 MLOAD PUSH32 0x8C379A000000000000000000000000000000000000000000000000000000000 DUP2 MSTORE PUSH1 0x4 ADD PUSH2 0x14AF SWAP1 PUSH2 0x2D55 JUMP JUMPDEST PUSH1 0x40 MLOAD DUP1 SWAP2 SUB SWAP1 REVERT JUMPDEST PUSH0 DUP4 GT PUSH2 0x14FA JUMPI PUSH1 0x40 MLOAD PUSH32 0x8C379A000000000000000000000000000000000000000000000000000000000 DUP2 MSTORE PUSH1 0x4 ADD PUSH2 0x14F1 SWAP1 PUSH2 0x2DE3 JUMP JUMPDEST PUSH1 0x40 MLOAD DUP1 SWAP2 SUB SWAP1 REVERT JUMPDEST SELFBALANCE PUSH8 0xDE0B6B3A7640000 DUP5 PUSH2 0x150F SWAP2 SWAP1 PUSH2 0x2B54 JUMP JUMPDEST GT ISZERO PUSH2 0x1550 JUMPI PUSH1 0x40 MLOAD PUSH32 0x8C379A000000000000000000000000000000000000000000000000000000000 DUP2 MSTORE PUSH1 0x4 ADD PUSH2 0x1547 SWAP1 PUSH2 0x2E71 JUMP JUMPDEST PUSH1 0x40 MLOAD DUP1 SWAP2 SUB SWAP1 REVERT JUMPDEST PUSH0 PUSH1 0x3 PUSH0 DUP8 DUP2 MSTORE PUSH1 0x20 ADD SWAP1 DUP2 MSTORE PUSH1 0x20 ADD PUSH0 KECCAK256 SLOAD SWAP1 POP PUSH1 0x40 MLOAD DUP1 PUSH1 0xE0 ADD PUSH1 0x40 MSTORE DUP1 DUP3 DUP2 MSTORE PUSH1 0x20 ADD DUP7 DUP2 MSTORE PUSH1 0x20 ADD PUSH8 0xDE0B6B3A7640000 DUP7 PUSH2 0x1590 SWAP2 SWAP1 PUSH2 0x2B54 JUMP JUMPDEST DUP2 MSTORE PUSH1 0x20 ADD PUSH0 ISZERO ISZERO DUP2 MSTORE PUSH1 0x20 ADD PUSH0 ISZERO ISZERO DUP2 MSTORE PUSH1 0x20 ADD PUSH0 DUP2 MSTORE PUSH1 0x20 ADD PUSH0 DUP2 MSTORE POP PUSH1 0x2 PUSH0 DUP9 DUP2 MSTORE PUSH1 0x20 ADD SWAP1 DUP2 MSTORE PUSH1 0x20 ADD PUSH0 KECCAK256 PUSH0 DUP4 DUP2 MSTORE PUSH1 0x20 ADD SWAP1 DUP2 MSTORE PUSH1 0x20 ADD PUSH0 KECCAK256 PUSH0 DUP3 ADD MLOAD DUP2 PUSH0 ADD SSTORE PUSH1 0x20 DUP3 ADD MLOAD DUP2 PUSH1 0x1 ADD SWAP1 DUP2 PUSH2 0x15EC SWAP2 SWAP1 PUSH2 0x302F JUMP JUMPDEST POP PUSH1 0x40 DUP3 ADD MLOAD DUP2 PUSH1 0x2 ADD SSTORE PUSH1 0x60 DUP3 ADD MLOAD DUP2 PUSH1 0x3 ADD PUSH0 PUSH2 0x100 EXP DUP2 SLOAD DUP2 PUSH1 0xFF MUL NOT AND SWAP1 DUP4 ISZERO ISZERO MUL OR SWAP1 SSTORE POP PUSH1 0x80 DUP3 ADD MLOAD DUP2 PUSH1 0x3 ADD PUSH1 0x1 PUSH2 0x100 EXP DUP2 SLOAD DUP2 PUSH1 0xFF MUL NOT AND SWAP1 DUP4 ISZERO ISZERO MUL OR SWAP1 SSTORE POP PUSH1 0xA0 DUP3 ADD MLOAD DUP2 PUSH1 0x4 ADD SSTORE PUSH1 0xC0 DUP3 ADD MLOAD DUP2 PUSH1 0x5 ADD SSTORE SWAP1 POP POP PUSH1 0x3 PUSH0 DUP8 DUP2 MSTORE PUSH1 0x20 ADD SWAP1 DUP2 MSTORE PUSH1 0x20 ADD PUSH0 KECCAK256 PUSH0 DUP2 SLOAD DUP1 SWAP3 SWAP2 SWAP1 PUSH2 0x166E SWAP1 PUSH2 0x2AD8 JUMP JUMPDEST SWAP2 SWAP1 POP SSTORE POP DUP6 PUSH32 0xC67423104BF96F5CA8826913AE711E8C2254E1B2C04AF907B2312853ED4CBED2 DUP3 DUP8 PUSH8 0xDE0B6B3A7640000 DUP9 PUSH2 0x16AB SWAP2 SWAP1 PUSH2 0x2B54 JUMP JUMPDEST PUSH1 0x40 MLOAD PUSH2 0x16BA SWAP4 SWAP3 SWAP2 SWAP1 PUSH2 0x30FE JUMP JUMPDEST PUSH1 0x40 MLOAD DUP1 SWAP2 SUB SWAP1 LOG2 POP POP POP POP POP POP JUMP JUMPDEST PUSH0 DUP5 MLOAD GT PUSH2 0x170D JUMPI PUSH1 0x40 MLOAD PUSH32 0x8C379A000000000000000000000000000000000000000000000000000000000 DUP2 MSTORE PUSH1 0x4 ADD PUSH2 0x1704 SWAP1 PUSH2 0x3184 JUMP JUMPDEST PUSH1 0x40 MLOAD DUP1 SWAP2 SUB SWAP1 REVERT JUMPDEST PUSH0 DUP4 MLOAD GT PUSH2 0x1750 JUMPI PUSH1 0x40 MLOAD PUSH32 0x8C379A000000000000000000000000000000000000000000000000000000000 DUP2 MSTORE PUSH1 0x4 ADD PUSH2 0x1747 SWAP1 PUSH2 0x31EC JUMP JUMPDEST PUSH1 0x40 MLOAD DUP1 SWAP2 SUB SWAP1 REVERT JUMPDEST PUSH0 DUP3 GT PUSH2 0x1792 JUMPI PUSH1 0x40 MLOAD PUSH32 0x8C379A000000000000000000000000000000000000000000000000000000000 DUP2 MSTORE PUSH1 0x4 ADD PUSH2 0x1789 SWAP1 PUSH2 0x3254 JUMP JUMPDEST PUSH1 0x40 MLOAD DUP1 SWAP2 SUB SWAP1 REVERT JUMPDEST PUSH1 0x1 DUP2 LT ISZERO DUP1 ISZERO PUSH2 0x17A4 JUMPI POP PUSH1 0x5A DUP2 GT ISZERO JUMPDEST PUSH2 0x17E3 JUMPI PUSH1 0x40 MLOAD PUSH32 0x8C379A000000000000000000000000000000000000000000000000000000000 DUP2 MSTORE PUSH1 0x4 ADD PUSH2 0x17DA SWAP1 PUSH2 0x32E2 JUMP JUMPDEST PUSH1 0x40 MLOAD DUP1 SWAP2 SUB SWAP1 REVERT JUMPDEST PUSH0 PUSH0 SLOAD SWAP1 POP PUSH1 0x40 MLOAD DUP1 PUSH2 0x120 ADD PUSH1 0x40 MSTORE DUP1 DUP3 DUP2 MSTORE PUSH1 0x20 ADD CALLER PUSH20 0xFFFFFFFFFFFFFFFFFFFFFFFFFFFFFFFFFFFFFFFF AND DUP2 MSTORE PUSH1 0x20 ADD DUP7 DUP2 MSTORE PUSH1 0x20 ADD DUP6 DUP2 MSTORE PUSH1 0x20 ADD PUSH8 0xDE0B6B3A7640000 DUP6 PUSH2 0x1836 SWAP2 SWAP1 PUSH2 0x2B54 JUMP JUMPDEST DUP2 MSTORE PUSH1 0x20 ADD PUSH3 0x15180 DUP5 PUSH2 0x184A SWAP2 SWAP1 PUSH2 0x2B54 JUMP JUMPDEST TIMESTAMP PUSH2 0x1855 SWAP2 SWAP1 PUSH2 0x3300 JUMP JUMPDEST DUP2 MSTORE PUSH1 0x20 ADD PUSH0 DUP2 MSTORE PUSH1 0x20 ADD PUSH0 ISZERO ISZERO DUP2 MSTORE PUSH1 0x20 ADD PUSH0 ISZERO ISZERO DUP2 MSTORE POP PUSH1 0x1 PUSH0 DUP4 DUP2 MSTORE PUSH1 0x20 ADD SWAP1 DUP2 MSTORE PUSH1 0x20 ADD PUSH0 KECCAK256 PUSH0 DUP3 ADD MLOAD DUP2 PUSH0 ADD SSTORE PUSH1 0x20 DUP3 ADD MLOAD DUP2 PUSH1 0x1 ADD PUSH0 PUSH2 0x100 EXP DUP2 SLOAD DUP2 PUSH20 0xFFFFFFFFFFFFFFFFFFFFFFFFFFFFFFFFFFFFFFFF MUL NOT AND SWAP1 DUP4 PUSH20 0xFFFFFFFFFFFFFFFFFFFFFFFFFFFFFFFFFFFFFFFF AND MUL OR SWAP1 SSTORE POP PUSH1 0x40 DUP3 ADD MLOAD DUP2 PUSH1 0x2 ADD SWAP1 DUP2 PUSH2 0x18E2 SWAP2 SWAP1 PUSH2 0x302F JUMP JUMPDEST POP PUSH1 0x60 DUP3 ADD MLOAD DUP2 PUSH1 0x3 ADD SWAP1 DUP2 PUSH2 0x18F8 SWAP2 SWAP1 PUSH2 0x302F JUMP JUMPDEST POP PUSH1 0x80 DUP3 ADD MLOAD DUP2 PUSH1 0x4 ADD SSTORE PUSH1 0xA0 DUP3 ADD MLOAD DUP2 PUSH1 0x5 ADD SSTORE PUSH1 0xC0 DUP3 ADD MLOAD DUP2 PUSH1 0x6 ADD SSTORE PUSH1 0xE0 DUP3 ADD MLOAD DUP2 PUSH1 0x7 ADD PUSH0 PUSH2 0x100 EXP DUP2 SLOAD DUP2 PUSH1 0xFF MUL NOT AND SWAP1 DUP4 ISZERO ISZERO MUL OR SWAP1 SSTORE POP PUSH2 0x100 DUP3 ADD MLOAD DUP2 PUSH1 0x7 ADD PUSH1 0x1 PUSH2 0x100 EXP DUP2 SLOAD DUP2 PUSH1 0xFF MUL NOT AND SWAP1 DUP4 ISZERO ISZERO MUL OR SWAP1 SSTORE POP SWAP1 POP POP PUSH0 PUSH0 DUP2 SLOAD DUP1 SWAP3 SWAP2 SWAP1 PUSH2 0x196B SWAP1 PUSH2 0x2AD8 JUMP JUMPDEST SWAP2 SWAP1 POP SSTORE POP DUP1 PUSH32 0xDC26653AF5B99B2DA33E2AD69EE6600D9AECCC82B034501DB4338309615CA238 CALLER DUP8 PUSH8 0xDE0B6B3A7640000 DUP8 PUSH2 0x19A8 SWAP2 SWAP1 PUSH2 0x2B54 JUMP JUMPDEST PUSH1 0x1 PUSH0 DUP8 DUP2 MSTORE PUSH1 0x20 ADD SWAP1 DUP2 MSTORE PUSH1 0x20 ADD PUSH0 KECCAK256 PUSH1 0x5 ADD SLOAD PUSH1 0x40 MLOAD PUSH2 0x19CD SWAP5 SWAP4 SWAP3 SWAP2 SWAP1 PUSH2 0x3333 JUMP JUMPDEST PUSH1 0x40 MLOAD DUP1 SWAP2 SUB SWAP1 LOG2 POP POP POP POP POP JUMP JUMPDEST PUSH1 0x4 PUSH1 0x20 MSTORE DUP2 PUSH0 MSTORE PUSH1 0x40 PUSH0 KECCAK256 PUSH1 0x20 MSTORE DUP1 PUSH0 MSTORE PUSH1 0x40 PUSH0 KECCAK256 PUSH0 SWAP2 POP SWAP2 POP POP SLOAD DUP2 JUMP JUMPDEST DUP1 PUSH0 SLOAD DUP2 LT PUSH2 0x1A40 JUMPI PUSH1 0x40 MLOAD PUSH32 0x8C379A000000000000000000000000000000000000000000000000000000000 DUP2 MSTORE PUSH1 0x4 ADD PUSH2 0x1A37 SWAP1 PUSH2 0x2768 JUMP JUMPDEST PUSH1 0x40 MLOAD DUP1 SWAP2 SUB SWAP1 REVERT JUMPDEST DUP2 PUSH1 0x1 PUSH0 DUP3 DUP2 MSTORE PUSH1 0x20 ADD SWAP1 DUP2 MSTORE PUSH1 0x20 ADD PUSH0 KECCAK256 PUSH1 0x7 ADD PUSH1 0x1 SWAP1 SLOAD SWAP1 PUSH2 0x100 EXP SWAP1 DIV PUSH1 0xFF AND ISZERO PUSH2 0x1AA3 JUMPI PUSH1 0x40 MLOAD PUSH32 0x8C379A000000000000000000000000000000000000000000000000000000000 DUP2 MSTORE PUSH1 0x4 ADD PUSH2 0x1A9A SWAP1 PUSH2 0x33C7 JUMP JUMPDEST PUSH1 0x40 MLOAD DUP1 SWAP2 SUB SWAP1 REVERT JUMPDEST PUSH1 0x1 PUSH0 DUP3 DUP2 MSTORE PUSH1 0x20 ADD SWAP1 DUP2 MSTORE PUSH1 0x20 ADD PUSH0 KECCAK256 PUSH1 0x5 ADD SLOAD TIMESTAMP LT PUSH2 0x1AF9 JUMPI PUSH1 0x40 MLOAD PUSH32 0x8C379A000000000000000000000000000000000000000000000000000000000 DUP2 MSTORE PUSH1 0x4 ADD PUSH2 0x1AF0 SWAP1 PUSH2 0x342F JUMP JUMPDEST PUSH1 0x40 MLOAD DUP1 SWAP2 SUB SWAP1 REVERT JUMPDEST PUSH0 CALLVALUE GT PUSH2 0x1B3B JUMPI PUSH1 0x40 MLOAD PUSH32 0x8C379A000000000000000000000000000000000000000000000000000000000 DUP2 MSTORE PUSH1 0x4 ADD PUSH2 0x1B32 SWAP1 PUSH2 0x3497 JUMP JUMPDEST PUSH1 0x40 MLOAD DUP1 SWAP2 SUB SWAP1 REVERT JUMPDEST PUSH0 PUSH1 0x1 PUSH0 DUP6 DUP2 MSTORE PUSH1 0x20 ADD SWAP1 DUP2 MSTORE PUSH1 0x20 ADD PUSH0 KECCAK256 SWAP1 POP PUSH0 PUSH1 0x4 PUSH0 DUP7 DUP2 MSTORE PUSH1 0x20 ADD SWAP1 DUP2 MSTORE PUSH1 0x20 ADD PUSH0 KECCAK256 PUSH0 CALLER PUSH20 0xFFFFFFFFFFFFFFFFFFFFFFFFFFFFFFFFFFFFFFFF AND PUSH20 0xFFFFFFFFFFFFFFFFFFFFFFFFFFFFFFFFFFFFFFFF AND DUP2 MSTORE PUSH1 0x20 ADD SWAP1 DUP2 MSTORE PUSH1 0x20 ADD PUSH0 KECCAK256 SLOAD SUB PUSH2 0x1C12 JUMPI PUSH1 0x5 PUSH0 DUP6 DUP2 MSTORE PUSH1 0x20 ADD SWAP1 DUP2 MSTORE PUSH1 0x20 ADD PUSH0 KECCAK256 CALLER SWAP1 DUP1 PUSH1 0x1 DUP2 SLOAD ADD DUP1 DUP3 SSTORE DUP1 SWAP2 POP POP PUSH1 0x1 SWAP1 SUB SWAP1 PUSH0 MSTORE PUSH1 0x20 PUSH0 KECCAK256 ADD PUSH0 SWAP1 SWAP2 SWAP1 SWAP2 SWAP1 SWAP2 PUSH2 0x100 EXP DUP2 SLOAD DUP2 PUSH20 0xFFFFFFFFFFFFFFFFFFFFFFFFFFFFFFFFFFFFFFFF MUL NOT AND SWAP1 DUP4 PUSH20 0xFFFFFFFFFFFFFFFFFFFFFFFFFFFFFFFFFFFFFFFF AND MUL OR SWAP1 SSTORE POP JUMPDEST CALLVALUE PUSH1 0x4 PUSH0 DUP7 DUP2 MSTORE PUSH1 0x20 ADD SWAP1 DUP2 MSTORE PUSH1 0x20 ADD PUSH0 KECCAK256 PUSH0 CALLER PUSH20 0xFFFFFFFFFFFFFFFFFFFFFFFFFFFFFFFFFFFFFFFF AND PUSH20 0xFFFFFFFFFFFFFFFFFFFFFFFFFFFFFFFFFFFFFFFF AND DUP2 MSTORE PUSH1 0x20 ADD SWAP1 DUP2 MSTORE PUSH1 0x20 ADD PUSH0 KECCAK256 PUSH0 DUP3 DUP3 SLOAD PUSH2 0x1C6D SWAP2 SWAP1 PUSH2 0x3300 JUMP JUMPDEST SWAP3 POP POP DUP2 SWAP1 SSTORE POP CALLVALUE DUP2 PUSH1 0x6 ADD PUSH0 DUP3 DUP3 SLOAD PUSH2 0x1C87 SWAP2 SWAP1 PUSH2 0x3300 JUMP JUMPDEST SWAP3 POP POP DUP2 SWAP1 SSTORE POP DUP4 PUSH32 0x3DBEA1B4CE5F95137FDCAC9B1D685825C3D70ACE830DF1CA5A181D3887ADD410 CALLER CALLVALUE DUP5 PUSH1 0x6 ADD SLOAD PUSH1 0x40 MLOAD PUSH2 0x1CC6 SWAP4 SWAP3 SWAP2 SWAP1 PUSH2 0x34B5 JUMP JUMPDEST PUSH1 0x40 MLOAD DUP1 SWAP2 SUB SWAP1 LOG2 DUP1 PUSH1 0x7 ADD PUSH0 SWAP1 SLOAD SWAP1 PUSH2 0x100 EXP SWAP1 DIV PUSH1 0xFF AND ISZERO DUP1 ISZERO PUSH2 0x1CF4 JUMPI POP DUP1 PUSH1 0x4 ADD SLOAD DUP2 PUSH1 0x6 ADD SLOAD LT ISZERO JUMPDEST ISZERO PUSH2 0x1D52 JUMPI PUSH1 0x1 DUP2 PUSH1 0x7 ADD PUSH0 PUSH2 0x100 EXP DUP2 SLOAD DUP2 PUSH1 0xFF MUL NOT AND SWAP1 DUP4 ISZERO ISZERO MUL OR SWAP1 SSTORE POP DUP4 PUSH32 0x85B3ED4E45559C5F41FB220AA4AC86A440DFC741F219089DE694242940AAA09C DUP3 PUSH1 0x6 ADD SLOAD PUSH1 0x40 MLOAD PUSH2 0x1D49 SWAP2 SWAP1 PUSH2 0x1E5F JUMP JUMPDEST PUSH1 0x40 MLOAD DUP1 SWAP2 SUB SWAP1 LOG2 JUMPDEST POP POP POP POP JUMP JUMPDEST PUSH0 PUSH1 0x4 PUSH0 DUP4 DUP2 MSTORE PUSH1 0x20 ADD SWAP1 DUP2 MSTORE PUSH1 0x20 ADD PUSH0 KECCAK256 PUSH0 CALLER PUSH20 0xFFFFFFFFFFFFFFFFFFFFFFFFFFFFFFFFFFFFFFFF AND PUSH20 0xFFFFFFFFFFFFFFFFFFFFFFFFFFFFFFFFFFFFFFFF AND DUP2 MSTORE PUSH1 0x20 ADD SWAP1 DUP2 MSTORE PUSH1 0x20 ADD PUSH0 KECCAK256 SLOAD SWAP1 POP SWAP2 SWAP1 POP JUMP JUMPDEST PUSH1 0x40 MLOAD DUP1 PUSH2 0x120 ADD PUSH1 0x40 MSTORE DUP1 PUSH0 DUP2 MSTORE PUSH1 0x20 ADD PUSH0 PUSH20 0xFFFFFFFFFFFFFFFFFFFFFFFFFFFFFFFFFFFFFFFF AND DUP2 MSTORE PUSH1 0x20 ADD PUSH1 0x60 DUP2 MSTORE PUSH1 0x20 ADD PUSH1 0x60 DUP2 MSTORE PUSH1 0x20 ADD PUSH0 DUP2 MSTORE PUSH1 0x20 ADD PUSH0 DUP2 MSTORE PUSH1 0x20 ADD PUSH0 DUP2 MSTORE PUSH1 0x20 ADD PUSH0 ISZERO ISZERO DUP2 MSTORE PUSH1 0x20 ADD PUSH0 ISZERO ISZERO DUP2 MSTORE POP SWAP1 JUMP JUMPDEST PUSH1 0x40 MLOAD DUP1 PUSH1 0xE0 ADD PUSH1 0x40 MSTORE DUP1 PUSH0 DUP2 MSTORE PUSH1 0x20 ADD PUSH1 0x60 DUP2 MSTORE PUSH1 0x20 ADD PUSH0 DUP2 MSTORE PUSH1 0x20 ADD PUSH0 ISZERO ISZERO DUP2 MSTORE PUSH1 0x20 ADD PUSH0 ISZERO ISZERO DUP2 MSTORE PUSH1 0x20 ADD PUSH0 DUP2 MSTORE PUSH1 0x20 ADD PUSH0 DUP2 MSTORE POP SWAP1 JUMP JUMPDEST PUSH0 DUP2 SWAP1 POP SWAP2 SWAP1 POP JUMP JUMPDEST PUSH2 0x1E59 DUP2 PUSH2 0x1E47 JUMP JUMPDEST DUP3 MSTORE POP POP JUMP JUMPDEST PUSH0 PUSH1 0x20 DUP3 ADD SWAP1 POP PUSH2 0x1E72 PUSH0 DUP4 ADD DUP5 PUSH2 0x1E50 JUMP JUMPDEST SWAP3 SWAP2 POP POP JUMP JUMPDEST PUSH0 PUSH1 0x40 MLOAD SWAP1 POP SWAP1 JUMP JUMPDEST PUSH0 PUSH0 REVERT JUMPDEST PUSH0 PUSH0 REVERT JUMPDEST PUSH2 0x1E92 DUP2 PUSH2 0x1E47 JUMP JUMPDEST DUP2 EQ PUSH2 0x1E9C JUMPI PUSH0 PUSH0 REVERT JUMPDEST POP JUMP JUMPDEST PUSH0 DUP2 CALLDATALOAD SWAP1 POP PUSH2 0x1EAD DUP2 PUSH2 0x1E89 JUMP JUMPDEST SWAP3 SWAP2 POP POP JUMP JUMPDEST PUSH0 PUSH20 0xFFFFFFFFFFFFFFFFFFFFFFFFFFFFFFFFFFFFFFFF DUP3 AND SWAP1 POP SWAP2 SWAP1 POP JUMP JUMPDEST PUSH0 PUSH2 0x1EDC DUP3 PUSH2 0x1EB3 JUMP JUMPDEST SWAP1 POP SWAP2 SWAP1 POP JUMP JUMPDEST PUSH2 0x1EEC DUP2 PUSH2 0x1ED2 JUMP JUMPDEST DUP2 EQ PUSH2 0x1EF6 JUMPI PUSH0 PUSH0 REVERT JUMPDEST POP JUMP JUMPDEST PUSH0 DUP2 CALLDATALOAD SWAP1 POP PUSH2 0x1F07 DUP2 PUSH2 0x1EE3 JUMP JUMPDEST SWAP3 SWAP2 POP POP JUMP JUMPDEST PUSH0 PUSH0 PUSH0 PUSH1 0x60 DUP5 DUP7 SUB SLT ISZERO PUSH2 0x1F24 JUMPI PUSH2 0x1F23 PUSH2 0x1E81 JUMP JUMPDEST JUMPDEST PUSH0 PUSH2 0x1F31 DUP7 DUP3 DUP8 ADD PUSH2 0x1E9F JUMP JUMPDEST SWAP4 POP POP PUSH1 0x20 PUSH2 0x1F42 DUP7 DUP3 DUP8 ADD PUSH2 0x1E9F JUMP JUMPDEST SWAP3 POP POP PUSH1 0x40 PUSH2 0x1F53 DUP7 DUP3 DUP8 ADD PUSH2 0x1EF9 JUMP JUMPDEST SWAP2 POP POP SWAP3 POP SWAP3 POP SWAP3 JUMP JUMPDEST PUSH0 DUP2 ISZERO ISZERO SWAP1 POP SWAP2 SWAP1 POP JUMP JUMPDEST PUSH2 0x1F71 DUP2 PUSH2 0x1F5D JUMP JUMPDEST DUP3 MSTORE POP POP JUMP JUMPDEST PUSH0 PUSH1 0x20 DUP3 ADD SWAP1 POP PUSH2 0x1F8A PUSH0 DUP4 ADD DUP5 PUSH2 0x1F68 JUMP JUMPDEST SWAP3 SWAP2 POP POP JUMP JUMPDEST PUSH0 PUSH1 0x20 DUP3 DUP5 SUB SLT ISZERO PUSH2 0x1FA5 JUMPI PUSH2 0x1FA4 PUSH2 0x1E81 JUMP JUMPDEST JUMPDEST PUSH0 PUSH2 0x1FB2 DUP5 DUP3 DUP6 ADD PUSH2 0x1E9F JUMP JUMPDEST SWAP2 POP POP SWAP3 SWAP2 POP POP JUMP JUMPDEST PUSH0 PUSH2 0x1FC5 DUP3 PUSH2 0x1EB3 JUMP JUMPDEST SWAP1 POP SWAP2 SWAP1 POP JUMP JUMPDEST PUSH2 0x1FD5 DUP2 PUSH2 0x1FBB JUMP JUMPDEST DUP3 MSTORE POP POP JUMP JUMPDEST PUSH0 DUP2 MLOAD SWAP1 POP SWAP2 SWAP1 POP JUMP JUMPDEST PUSH0 DUP3 DUP3 MSTORE PUSH1 0x20 DUP3 ADD SWAP1 POP SWAP3 SWAP2 POP POP JUMP JUMPDEST DUP3 DUP2 DUP4 MCOPY PUSH0 DUP4 DUP4 ADD MSTORE POP POP POP JUMP JUMPDEST PUSH0 PUSH1 0x1F NOT PUSH1 0x1F DUP4 ADD AND SWAP1 POP SWAP2 SWAP1 POP JUMP JUMPDEST PUSH0 PUSH2 0x201D DUP3 PUSH2 0x1FDB JUMP JUMPDEST PUSH2 0x2027 DUP2 DUP6 PUSH2 0x1FE5 JUMP JUMPDEST SWAP4 POP PUSH2 0x2037 DUP2 DUP6 PUSH1 0x20 DUP7 ADD PUSH2 0x1FF5 JUMP JUMPDEST PUSH2 0x2040 DUP2 PUSH2 0x2003 JUMP JUMPDEST DUP5 ADD SWAP2 POP POP SWAP3 SWAP2 POP POP JUMP JUMPDEST PUSH0 PUSH2 0x120 DUP3 ADD SWAP1 POP PUSH2 0x205F PUSH0 DUP4 ADD DUP13 PUSH2 0x1E50 JUMP JUMPDEST PUSH2 0x206C PUSH1 0x20 DUP4 ADD DUP12 PUSH2 0x1FCC JUMP JUMPDEST DUP2 DUP2 SUB PUSH1 0x40 DUP4 ADD MSTORE PUSH2 0x207E DUP2 DUP11 PUSH2 0x2013 JUMP JUMPDEST SWAP1 POP DUP2 DUP2 SUB PUSH1 0x60 DUP4 ADD MSTORE PUSH2 0x2092 DUP2 DUP10 PUSH2 0x2013 JUMP JUMPDEST SWAP1 POP PUSH2 0x20A1 PUSH1 0x80 DUP4 ADD DUP9 PUSH2 0x1E50 JUMP JUMPDEST PUSH2 0x20AE PUSH1 0xA0 DUP4 ADD DUP8 PUSH2 0x1E50 JUMP JUMPDEST PUSH2 0x20BB PUSH1 0xC0 DUP4 ADD DUP7 PUSH2 0x1E50 JUMP JUMPDEST PUSH2 0x20C8 PUSH1 0xE0 DUP4 ADD DUP6 PUSH2 0x1F68 JUMP JUMPDEST PUSH2 0x20D6 PUSH2 0x100 DUP4 ADD DUP5 PUSH2 0x1F68 JUMP JUMPDEST SWAP11 SWAP10 POP POP POP POP POP POP POP POP POP POP JUMP JUMPDEST PUSH0 PUSH0 PUSH1 0x40 DUP4 DUP6 SUB SLT ISZERO PUSH2 0x20FA JUMPI PUSH2 0x20F9 PUSH2 0x1E81 JUMP JUMPDEST JUMPDEST PUSH0 PUSH2 0x2107 DUP6 DUP3 DUP7 ADD PUSH2 0x1E9F JUMP JUMPDEST SWAP3 POP POP PUSH1 0x20 PUSH2 0x2118 DUP6 DUP3 DUP7 ADD PUSH2 0x1E9F JUMP JUMPDEST SWAP2 POP POP SWAP3 POP SWAP3 SWAP1 POP JUMP JUMPDEST PUSH0 PUSH1 0xE0 DUP3 ADD SWAP1 POP PUSH2 0x2135 PUSH0 DUP4 ADD DUP11 PUSH2 0x1E50 JUMP JUMPDEST DUP2 DUP2 SUB PUSH1 0x20 DUP4 ADD MSTORE PUSH2 0x2147 DUP2 DUP10 PUSH2 0x2013 JUMP JUMPDEST SWAP1 POP PUSH2 0x2156 PUSH1 0x40 DUP4 ADD DUP9 PUSH2 0x1E50 JUMP JUMPDEST PUSH2 0x2163 PUSH1 0x60 DUP4 ADD DUP8 PUSH2 0x1F68 JUMP JUMPDEST PUSH2 0x2170 PUSH1 0x80 DUP4 ADD DUP7 PUSH2 0x1F68 JUMP JUMPDEST PUSH2 0x217D PUSH1 0xA0 DUP4 ADD DUP6 PUSH2 0x1E50 JUMP JUMPDEST PUSH2 0x218A PUSH1 0xC0 DUP4 ADD DUP5 PUSH2 0x1E50 JUMP JUMPDEST SWAP9 SWAP8 POP POP POP POP POP POP POP POP JUMP JUMPDEST PUSH2 0x219F DUP2 PUSH2 0x1E47 JUMP JUMPDEST DUP3 MSTORE POP POP JUMP JUMPDEST PUSH2 0x21AE DUP2 PUSH2 0x1FBB JUMP JUMPDEST DUP3 MSTORE POP POP JUMP JUMPDEST PUSH0 DUP3 DUP3 MSTORE PUSH1 0x20 DUP3 ADD SWAP1 POP SWAP3 SWAP2 POP POP JUMP JUMPDEST PUSH0 PUSH2 0x21CE DUP3 PUSH2 0x1FDB JUMP JUMPDEST PUSH2 0x21D8 DUP2 DUP6 PUSH2 0x21B4 JUMP JUMPDEST SWAP4 POP PUSH2 0x21E8 DUP2 DUP6 PUSH1 0x20 DUP7 ADD PUSH2 0x1FF5 JUMP JUMPDEST PUSH2 0x21F1 DUP2 PUSH2 0x2003 JUMP JUMPDEST DUP5 ADD SWAP2 POP POP SWAP3 SWAP2 POP POP JUMP JUMPDEST PUSH2 0x2205 DUP2 PUSH2 0x1F5D JUMP JUMPDEST DUP3 MSTORE POP POP JUMP JUMPDEST PUSH0 PUSH2 0x120 DUP4 ADD PUSH0 DUP4 ADD MLOAD PUSH2 0x2221 PUSH0 DUP7 ADD DUP3 PUSH2 0x2196 JUMP JUMPDEST POP PUSH1 0x20 DUP4 ADD MLOAD PUSH2 0x2234 PUSH1 0x20 DUP7 ADD DUP3 PUSH2 0x21A5 JUMP JUMPDEST POP PUSH1 0x40 DUP4 ADD MLOAD DUP5 DUP3 SUB PUSH1 0x40 DUP7 ADD MSTORE PUSH2 0x224C DUP3 DUP3 PUSH2 0x21C4 JUMP JUMPDEST SWAP2 POP POP PUSH1 0x60 DUP4 ADD MLOAD DUP5 DUP3 SUB PUSH1 0x60 DUP7 ADD MSTORE PUSH2 0x2266 DUP3 DUP3 PUSH2 0x21C4 JUMP JUMPDEST SWAP2 POP POP PUSH1 0x80 DUP4 ADD MLOAD PUSH2 0x227B PUSH1 0x80 DUP7 ADD DUP3 PUSH2 0x2196 JUMP JUMPDEST POP PUSH1 0xA0 DUP4 ADD MLOAD PUSH2 0x228E PUSH1 0xA0 DUP7 ADD DUP3 PUSH2 0x2196 JUMP JUMPDEST POP PUSH1 0xC0 DUP4 ADD MLOAD PUSH2 0x22A1 PUSH1 0xC0 DUP7 ADD DUP3 PUSH2 0x2196 JUMP JUMPDEST POP PUSH1 0xE0 DUP4 ADD MLOAD PUSH2 0x22B4 PUSH1 0xE0 DUP7 ADD DUP3 PUSH2 0x21FC JUMP JUMPDEST POP PUSH2 0x100 DUP4 ADD MLOAD PUSH2 0x22C9 PUSH2 0x100 DUP7 ADD DUP3 PUSH2 0x21FC JUMP JUMPDEST POP DUP1 SWAP2 POP POP SWAP3 SWAP2 POP POP JUMP JUMPDEST PUSH0 PUSH1 0x20 DUP3 ADD SWAP1 POP DUP2 DUP2 SUB PUSH0 DUP4 ADD MSTORE PUSH2 0x22EC DUP2 DUP5 PUSH2 0x220B JUMP JUMPDEST SWAP1 POP SWAP3 SWAP2 POP POP JUMP JUMPDEST PUSH2 0x22FD DUP2 PUSH2 0x1F5D JUMP JUMPDEST DUP2 EQ PUSH2 0x2307 JUMPI PUSH0 PUSH0 REVERT JUMPDEST POP JUMP JUMPDEST PUSH0 DUP2 CALLDATALOAD SWAP1 POP PUSH2 0x2318 DUP2 PUSH2 0x22F4 JUMP JUMPDEST SWAP3 SWAP2 POP POP JUMP JUMPDEST PUSH0 PUSH0 PUSH0 PUSH1 0x60 DUP5 DUP7 SUB SLT ISZERO PUSH2 0x2335 JUMPI PUSH2 0x2334 PUSH2 0x1E81 JUMP JUMPDEST JUMPDEST PUSH0 PUSH2 0x2342 DUP7 DUP3 DUP8 ADD PUSH2 0x1E9F JUMP JUMPDEST SWAP4 POP POP PUSH1 0x20 PUSH2 0x2353 DUP7 DUP3 DUP8 ADD PUSH2 0x1E9F JUMP JUMPDEST SWAP3 POP POP PUSH1 0x40 PUSH2 0x2364 DUP7 DUP3 DUP8 ADD PUSH2 0x230A JUMP JUMPDEST SWAP2 POP POP SWAP3 POP SWAP3 POP SWAP3 JUMP JUMPDEST PUSH2 0x2377 DUP2 PUSH2 0x1ED2 JUMP JUMPDEST DUP3 MSTORE POP POP JUMP JUMPDEST PUSH0 PUSH1 0x20 DUP3 ADD SWAP1 POP PUSH2 0x2390 PUSH0 DUP4 ADD DUP5 PUSH2 0x236E JUMP JUMPDEST SWAP3 SWAP2 POP POP JUMP JUMPDEST PUSH0 PUSH1 0xE0 DUP4 ADD PUSH0 DUP4 ADD MLOAD PUSH2 0x23AB PUSH0 DUP7 ADD DUP3 PUSH2 0x2196 JUMP JUMPDEST POP PUSH1 0x20 DUP4 ADD MLOAD DUP5 DUP3 SUB PUSH1 0x20 DUP7 ADD MSTORE PUSH2 0x23C3 DUP3 DUP3 PUSH2 0x21C4 JUMP JUMPDEST SWAP2 POP POP PUSH1 0x40 DUP4 ADD MLOAD PUSH2 0x23D8 PUSH1 0x40 DUP7 ADD DUP3 PUSH2 0x2196 JUMP JUMPDEST POP PUSH1 0x60 DUP4 ADD MLOAD PUSH2 0x23EB PUSH1 0x60 DUP7 ADD DUP3 PUSH2 0x21FC JUMP JUMPDEST POP PUSH1 0x80 DUP4 ADD MLOAD PUSH2 0x23FE PUSH1 0x80 DUP7 ADD DUP3 PUSH2 0x21FC JUMP JUMPDEST POP PUSH1 0xA0 DUP4 ADD MLOAD PUSH2 0x2411 PUSH1 0xA0 DUP7 ADD DUP3 PUSH2 0x2196 JUMP JUMPDEST POP PUSH1 0xC0 DUP4 ADD MLOAD PUSH2 0x2424 PUSH1 0xC0 DUP7 ADD DUP3 PUSH2 0x2196 JUMP JUMPDEST POP DUP1 SWAP2 POP POP SWAP3 SWAP2 POP POP JUMP JUMPDEST PUSH0 PUSH1 0x20 DUP3 ADD SWAP1 POP DUP2 DUP2 SUB PUSH0 DUP4 ADD MSTORE PUSH2 0x2447 DUP2 DUP5 PUSH2 0x2396 JUMP JUMPDEST SWAP1 POP SWAP3 SWAP2 POP POP JUMP JUMPDEST PUSH0 PUSH0 REVERT JUMPDEST PUSH0 PUSH0 REVERT JUMPDEST PUSH32 0x4E487B7100000000000000000000000000000000000000000000000000000000 PUSH0 MSTORE PUSH1 0x41 PUSH1 0x4 MSTORE PUSH1 0x24 PUSH0 REVERT JUMPDEST PUSH2 0x248D DUP3 PUSH2 0x2003 JUMP JUMPDEST DUP2 ADD DUP2 DUP2 LT PUSH8 0xFFFFFFFFFFFFFFFF DUP3 GT OR ISZERO PUSH2 0x24AC JUMPI PUSH2 0x24AB PUSH2 0x2457 JUMP JUMPDEST JUMPDEST DUP1 PUSH1 0x40 MSTORE POP POP POP JUMP JUMPDEST PUSH0 PUSH2 0x24BE PUSH2 0x1E78 JUMP JUMPDEST SWAP1 POP PUSH2 0x24CA DUP3 DUP3 PUSH2 0x2484 JUMP JUMPDEST SWAP2 SWAP1 POP JUMP JUMPDEST PUSH0 PUSH8 0xFFFFFFFFFFFFFFFF DUP3 GT ISZERO PUSH2 0x24E9 JUMPI PUSH2 0x24E8 PUSH2 0x2457 JUMP JUMPDEST JUMPDEST PUSH2 0x24F2 DUP3 PUSH2 0x2003 JUMP JUMPDEST SWAP1 POP PUSH1 0x20 DUP2 ADD SWAP1 POP SWAP2 SWAP1 POP JUMP JUMPDEST DUP3 DUP2 DUP4 CALLDATACOPY PUSH0 DUP4 DUP4 ADD MSTORE POP POP POP JUMP JUMPDEST PUSH0 PUSH2 0x251F PUSH2 0x251A DUP5 PUSH2 0x24CF JUMP JUMPDEST PUSH2 0x24B5 JUMP JUMPDEST SWAP1 POP DUP3 DUP2 MSTORE PUSH1 0x20 DUP2 ADD DUP5 DUP5 DUP5 ADD GT ISZERO PUSH2 0x253B JUMPI PUSH2 0x253A PUSH2 0x2453 JUMP JUMPDEST JUMPDEST PUSH2 0x2546 DUP5 DUP3 DUP6 PUSH2 0x24FF JUMP JUMPDEST POP SWAP4 SWAP3 POP POP POP JUMP JUMPDEST PUSH0 DUP3 PUSH1 0x1F DUP4 ADD SLT PUSH2 0x2562 JUMPI PUSH2 0x2561 PUSH2 0x244F JUMP JUMPDEST JUMPDEST DUP2 CALLDATALOAD PUSH2 0x2572 DUP5 DUP3 PUSH1 0x20 DUP7 ADD PUSH2 0x250D JUMP JUMPDEST SWAP2 POP POP SWAP3 SWAP2 POP POP JUMP JUMPDEST PUSH0 PUSH0 PUSH0 PUSH1 0x60 DUP5 DUP7 SUB SLT ISZERO PUSH2 0x2592 JUMPI PUSH2 0x2591 PUSH2 0x1E81 JUMP JUMPDEST JUMPDEST PUSH0 PUSH2 0x259F DUP7 DUP3 DUP8 ADD PUSH2 0x1E9F JUMP JUMPDEST SWAP4 POP POP PUSH1 0x20 DUP5 ADD CALLDATALOAD PUSH8 0xFFFFFFFFFFFFFFFF DUP2 GT ISZERO PUSH2 0x25C0 JUMPI PUSH2 0x25BF PUSH2 0x1E85 JUMP JUMPDEST JUMPDEST PUSH2 0x25CC DUP7 DUP3 DUP8 ADD PUSH2 0x254E JUMP JUMPDEST SWAP3 POP POP PUSH1 0x40 PUSH2 0x25DD DUP7 DUP3 DUP8 ADD PUSH2 0x1E9F JUMP JUMPDEST SWAP2 POP POP SWAP3 POP SWAP3 POP SWAP3 JUMP JUMPDEST PUSH0 PUSH0 PUSH0 PUSH0 PUSH1 0x80 DUP6 DUP8 SUB SLT ISZERO PUSH2 0x25FF JUMPI PUSH2 0x25FE PUSH2 0x1E81 JUMP JUMPDEST JUMPDEST PUSH0 DUP6 ADD CALLDATALOAD PUSH8 0xFFFFFFFFFFFFFFFF DUP2 GT ISZERO PUSH2 0x261C JUMPI PUSH2 0x261B PUSH2 0x1E85 JUMP JUMPDEST JUMPDEST PUSH2 0x2628 DUP8 DUP3 DUP9 ADD PUSH2 0x254E JUMP JUMPDEST SWAP5 POP POP PUSH1 0x20 DUP6 ADD CALLDATALOAD PUSH8 0xFFFFFFFFFFFFFFFF DUP2 GT ISZERO PUSH2 0x2649 JUMPI PUSH2 0x2648 PUSH2 0x1E85 JUMP JUMPDEST JUMPDEST PUSH2 0x2655 DUP8 DUP3 DUP9 ADD PUSH2 0x254E JUMP JUMPDEST SWAP4 POP POP PUSH1 0x40 PUSH2 0x2666 DUP8 DUP3 DUP9 ADD PUSH2 0x1E9F JUMP JUMPDEST SWAP3 POP POP PUSH1 0x60 PUSH2 0x2677 DUP8 DUP3 DUP9 ADD PUSH2 0x1E9F JUMP JUMPDEST SWAP2 POP POP SWAP3 SWAP6 SWAP2 SWAP5 POP SWAP3 POP JUMP JUMPDEST PUSH0 PUSH0 PUSH1 0x40 DUP4 DUP6 SUB SLT ISZERO PUSH2 0x2699 JUMPI PUSH2 0x2698 PUSH2 0x1E81 JUMP JUMPDEST JUMPDEST PUSH0 PUSH2 0x26A6 DUP6 DUP3 DUP7 ADD PUSH2 0x1E9F JUMP JUMPDEST SWAP3 POP POP PUSH1 0x20 PUSH2 0x26B7 DUP6 DUP3 DUP7 ADD PUSH2 0x1EF9 JUMP JUMPDEST SWAP2 POP POP SWAP3 POP SWAP3 SWAP1 POP JUMP JUMPDEST PUSH32 0x4E487B7100000000000000000000000000000000000000000000000000000000 PUSH0 MSTORE PUSH1 0x22 PUSH1 0x4 MSTORE PUSH1 0x24 PUSH0 REVERT JUMPDEST PUSH0 PUSH1 0x2 DUP3 DIV SWAP1 POP PUSH1 0x1 DUP3 AND DUP1 PUSH2 0x2705 JUMPI PUSH1 0x7F DUP3 AND SWAP2 POP JUMPDEST PUSH1 0x20 DUP3 LT DUP2 SUB PUSH2 0x2718 JUMPI PUSH2 0x2717 PUSH2 0x26C1 JUMP JUMPDEST JUMPDEST POP SWAP2 SWAP1 POP JUMP JUMPDEST PUSH32 0x43616D706169676E20646F6573206E6F74206578697374000000000000000000 PUSH0 DUP3 ADD MSTORE POP JUMP JUMPDEST PUSH0 PUSH2 0x2752 PUSH1 0x17 DUP4 PUSH2 0x1FE5 JUMP JUMPDEST SWAP2 POP PUSH2 0x275D DUP3 PUSH2 0x271E JUMP JUMPDEST PUSH1 0x20 DUP3 ADD SWAP1 POP SWAP2 SWAP1 POP JUMP JUMPDEST PUSH0 PUSH1 0x20 DUP3 ADD SWAP1 POP DUP2 DUP2 SUB PUSH0 DUP4 ADD MSTORE PUSH2 0x277F DUP2 PUSH2 0x2746 JUMP JUMPDEST SWAP1 POP SWAP2 SWAP1 POP JUMP JUMPDEST PUSH32 0x43616D706169676E206973207374696C6C2072756E6E696E6700000000000000 PUSH0 DUP3 ADD MSTORE POP JUMP JUMPDEST PUSH0 PUSH2 0x27BA PUSH1 0x19 DUP4 PUSH2 0x1FE5 JUMP JUMPDEST SWAP2 POP PUSH2 0x27C5 DUP3 PUSH2 0x2786 JUMP JUMPDEST PUSH1 0x20 DUP3 ADD SWAP1 POP SWAP2 SWAP1 POP JUMP JUMPDEST PUSH0 PUSH1 0x20 DUP3 ADD SWAP1 POP DUP2 DUP2 SUB PUSH0 DUP4 ADD MSTORE PUSH2 0x27E7 DUP2 PUSH2 0x27AE JUMP JUMPDEST SWAP1 POP SWAP2 SWAP1 POP JUMP JUMPDEST PUSH32 0x476F616C207761732072656163686564202D206E6F20726566756E6420617661 PUSH0 DUP3 ADD MSTORE PUSH32 0x696C61626C650000000000000000000000000000000000000000000000000000 PUSH1 0x20 DUP3 ADD MSTORE POP JUMP JUMPDEST PUSH0 PUSH2 0x2848 PUSH1 0x26 DUP4 PUSH2 0x1FE5 JUMP JUMPDEST SWAP2 POP PUSH2 0x2853 DUP3 PUSH2 0x27EE JUMP JUMPDEST PUSH1 0x40 DUP3 ADD SWAP1 POP SWAP2 SWAP1 POP JUMP JUMPDEST PUSH0 PUSH1 0x20 DUP3 ADD SWAP1 POP DUP2 DUP2 SUB PUSH0 DUP4 ADD MSTORE PUSH2 0x2875 DUP2 PUSH2 0x283C JUMP JUMPDEST SWAP1 POP SWAP2 SWAP1 POP JUMP JUMPDEST PUSH32 0x596F752068617665206E6F20646F6E6174696F6E20746F20726566756E640000 PUSH0 DUP3 ADD MSTORE POP JUMP JUMPDEST PUSH0 PUSH2 0x28B0 PUSH1 0x1E DUP4 PUSH2 0x1FE5 JUMP JUMPDEST SWAP2 POP PUSH2 0x28BB DUP3 PUSH2 0x287C JUMP JUMPDEST PUSH1 0x20 DUP3 ADD SWAP1 POP SWAP2 SWAP1 POP JUMP JUMPDEST PUSH0 PUSH1 0x20 DUP3 ADD SWAP1 POP DUP2 DUP2 SUB PUSH0 DUP4 ADD MSTORE PUSH2 0x28DD DUP2 PUSH2 0x28A4 JUMP JUMPDEST SWAP1 POP SWAP2 SWAP1 POP JUMP JUMPDEST PUSH0 PUSH1 0x40 DUP3 ADD SWAP1 POP PUSH2 0x28F7 PUSH0 DUP4 ADD DUP6 PUSH2 0x236E JUMP JUMPDEST PUSH2 0x2904 PUSH1 0x20 DUP4 ADD DUP5 PUSH2 0x1E50 JUMP JUMPDEST SWAP4 SWAP3 POP POP POP JUMP JUMPDEST PUSH32 0x4F6E6C7920646F6E6F72732063616E20766F7465000000000000000000000000 PUSH0 DUP3 ADD MSTORE POP JUMP JUMPDEST PUSH0 PUSH2 0x293F PUSH1 0x14 DUP4 PUSH2 0x1FE5 JUMP JUMPDEST SWAP2 POP PUSH2 0x294A DUP3 PUSH2 0x290B JUMP JUMPDEST PUSH1 0x20 DUP3 ADD SWAP1 POP SWAP2 SWAP1 POP JUMP JUMPDEST PUSH0 PUSH1 0x20 DUP3 ADD SWAP1 POP DUP2 DUP2 SUB PUSH0 DUP4 ADD MSTORE PUSH2 0x296C DUP2 PUSH2 0x2933 JUMP JUMPDEST SWAP1 POP SWAP2 SWAP1 POP JUMP JUMPDEST PUSH32 0x596F75206861766520616C726561647920766F74656400000000000000000000 PUSH0 DUP3 ADD MSTORE POP JUMP JUMPDEST PUSH0 PUSH2 0x29A7 PUSH1 0x16 DUP4 PUSH2 0x1FE5 JUMP JUMPDEST SWAP2 POP PUSH2 0x29B2 DUP3 PUSH2 0x2973 JUMP JUMPDEST PUSH1 0x20 DUP3 ADD SWAP1 POP SWAP2 SWAP1 POP JUMP JUMPDEST PUSH0 PUSH1 0x20 DUP3 ADD SWAP1 POP DUP2 DUP2 SUB PUSH0 DUP4 ADD MSTORE PUSH2 0x29D4 DUP2 PUSH2 0x299B JUMP JUMPDEST SWAP1 POP SWAP2 SWAP1 POP JUMP JUMPDEST PUSH32 0x4D696C6573746F6E6520616C726561647920617070726F766564000000000000 PUSH0 DUP3 ADD MSTORE POP JUMP JUMPDEST PUSH0 PUSH2 0x2A0F PUSH1 0x1A DUP4 PUSH2 0x1FE5 JUMP JUMPDEST SWAP2 POP PUSH2 0x2A1A DUP3 PUSH2 0x29DB JUMP JUMPDEST PUSH1 0x20 DUP3 ADD SWAP1 POP SWAP2 SWAP1 POP JUMP JUMPDEST PUSH0 PUSH1 0x20 DUP3 ADD SWAP1 POP DUP2 DUP2 SUB PUSH0 DUP4 ADD MSTORE PUSH2 0x2A3C DUP2 PUSH2 0x2A03 JUMP JUMPDEST SWAP1 POP SWAP2 SWAP1 POP JUMP JUMPDEST PUSH32 0x4D696C6573746F6E6520616C72656164792072656A6563746564000000000000 PUSH0 DUP3 ADD MSTORE POP JUMP JUMPDEST PUSH0 PUSH2 0x2A77 PUSH1 0x1A DUP4 PUSH2 0x1FE5 JUMP JUMPDEST SWAP2 POP PUSH2 0x2A82 DUP3 PUSH2 0x2A43 JUMP JUMPDEST PUSH1 0x20 DUP3 ADD SWAP1 POP SWAP2 SWAP1 POP JUMP JUMPDEST PUSH0 PUSH1 0x20 DUP3 ADD SWAP1 POP DUP2 DUP2 SUB PUSH0 DUP4 ADD MSTORE PUSH2 0x2AA4 DUP2 PUSH2 0x2A6B JUMP JUMPDEST SWAP1 POP SWAP2 SWAP1 POP JUMP JUMPDEST PUSH32 0x4E487B7100000000000000000000000000000000000000000000000000000000 PUSH0 MSTORE PUSH1 0x11 PUSH1 0x4 MSTORE PUSH1 0x24 PUSH0 REVERT JUMPDEST PUSH0 PUSH2 0x2AE2 DUP3 PUSH2 0x1E47 JUMP JUMPDEST SWAP2 POP PUSH32 0xFFFFFFFFFFFFFFFFFFFFFFFFFFFFFFFFFFFFFFFFFFFFFFFFFFFFFFFFFFFFFFFF DUP3 SUB PUSH2 0x2B14 JUMPI PUSH2 0x2B13 PUSH2 0x2AAB JUMP JUMPDEST JUMPDEST PUSH1 0x1 DUP3 ADD SWAP1 POP SWAP2 SWAP1 POP JUMP JUMPDEST PUSH0 PUSH1 0x60 DUP3 ADD SWAP1 POP PUSH2 0x2B32 PUSH0 DUP4 ADD DUP7 PUSH2 0x1E50 JUMP JUMPDEST PUSH2 0x2B3F PUSH1 0x20 DUP4 ADD DUP6 PUSH2 0x236E JUMP JUMPDEST PUSH2 0x2B4C PUSH1 0x40 DUP4 ADD DUP5 PUSH2 0x1F68 JUMP JUMPDEST SWAP5 SWAP4 POP POP POP POP JUMP JUMPDEST PUSH0 PUSH2 0x2B5E DUP3 PUSH2 0x1E47 JUMP JUMPDEST SWAP2 POP PUSH2 0x2B69 DUP4 PUSH2 0x1E47 JUMP JUMPDEST SWAP3 POP DUP3 DUP3 MUL PUSH2 0x2B77 DUP2 PUSH2 0x1E47 JUMP JUMPDEST SWAP2 POP DUP3 DUP3 DIV DUP5 EQ DUP4 ISZERO OR PUSH2 0x2B8E JUMPI PUSH2 0x2B8D PUSH2 0x2AAB JUMP JUMPDEST JUMPDEST POP SWAP3 SWAP2 POP POP JUMP JUMPDEST PUSH0 PUSH1 0x40 DUP3 ADD SWAP1 POP PUSH2 0x2BA8 PUSH0 DUP4 ADD DUP6 PUSH2 0x1E50 JUMP JUMPDEST PUSH2 0x2BB5 PUSH1 0x20 DUP4 ADD DUP5 PUSH2 0x1E50 JUMP JUMPDEST SWAP4 SWAP3 POP POP POP JUMP JUMPDEST PUSH0 PUSH2 0x2BC6 DUP3 PUSH2 0x1E47 JUMP JUMPDEST SWAP2 POP PUSH2 0x2BD1 DUP4 PUSH2 0x1E47 JUMP JUMPDEST SWAP3 POP DUP3 DUP3 SUB SWAP1 POP DUP2 DUP2 GT ISZERO PUSH2 0x2BE9 JUMPI PUSH2 0x2BE8 PUSH2 0x2AAB JUMP JUMPDEST JUMPDEST SWAP3 SWAP2 POP POP JUMP JUMPDEST PUSH32 0x4F6E6C79207468652063616D706169676E2063726561746F722063616E20646F PUSH0 DUP3 ADD MSTORE PUSH32 0x2074686973000000000000000000000000000000000000000000000000000000 PUSH1 0x20 DUP3 ADD MSTORE POP JUMP JUMPDEST PUSH0 PUSH2 0x2C49 PUSH1 0x25 DUP4 PUSH2 0x1FE5 JUMP JUMPDEST SWAP2 POP PUSH2 0x2C54 DUP3 PUSH2 0x2BEF JUMP JUMPDEST PUSH1 0x40 DUP3 ADD SWAP1 POP SWAP2 SWAP1 POP JUMP JUMPDEST PUSH0 PUSH1 0x20 DUP3 ADD SWAP1 POP DUP2 DUP2 SUB PUSH0 DUP4 ADD MSTORE PUSH2 0x2C76 DUP2 PUSH2 0x2C3D JUMP JUMPDEST SWAP1 POP SWAP2 SWAP1 POP JUMP JUMPDEST PUSH32 0x476F616C206E6F74207265616368656420796574202D207761697420666F7220 PUSH0 DUP3 ADD MSTORE PUSH32 0x646F6E6174696F6E730000000000000000000000000000000000000000000000 PUSH1 0x20 DUP3 ADD MSTORE POP JUMP JUMPDEST PUSH0 PUSH2 0x2CD7 PUSH1 0x29 DUP4 PUSH2 0x1FE5 JUMP JUMPDEST SWAP2 POP PUSH2 0x2CE2 DUP3 PUSH2 0x2C7D JUMP JUMPDEST PUSH1 0x40 DUP3 ADD SWAP1 POP SWAP2 SWAP1 POP JUMP JUMPDEST PUSH0 PUSH1 0x20 DUP3 ADD SWAP1 POP DUP2 DUP2 SUB PUSH0 DUP4 ADD MSTORE PUSH2 0x2D04 DUP2 PUSH2 0x2CCB JUMP JUMPDEST SWAP1 POP SWAP2 SWAP1 POP JUMP JUMPDEST PUSH32 0x4D696C6573746F6E65206465736372697074696F6E2072657175697265640000 PUSH0 DUP3 ADD MSTORE POP JUMP JUMPDEST PUSH0 PUSH2 0x2D3F PUSH1 0x1E DUP4 PUSH2 0x1FE5 JUMP JUMPDEST SWAP2 POP PUSH2 0x2D4A DUP3 PUSH2 0x2D0B JUMP JUMPDEST PUSH1 0x20 DUP3 ADD SWAP1 POP SWAP2 SWAP1 POP JUMP JUMPDEST PUSH0 PUSH1 0x20 DUP3 ADD SWAP1 POP DUP2 DUP2 SUB PUSH0 DUP4 ADD MSTORE PUSH2 0x2D6C DUP2 PUSH2 0x2D33 JUMP JUMPDEST SWAP1 POP SWAP2 SWAP1 POP JUMP JUMPDEST PUSH32 0x52656C6561736520616D6F756E74206D75737420626520677265617465722074 PUSH0 DUP3 ADD MSTORE PUSH32 0x68616E2030000000000000000000000000000000000000000000000000000000 PUSH1 0x20 DUP3 ADD MSTORE POP JUMP JUMPDEST PUSH0 PUSH2 0x2DCD PUSH1 0x25 DUP4 PUSH2 0x1FE5 JUMP JUMPDEST SWAP2 POP PUSH2 0x2DD8 DUP3 PUSH2 0x2D73 JUMP JUMPDEST PUSH1 0x40 DUP3 ADD SWAP1 POP SWAP2 SWAP1 POP JUMP JUMPDEST PUSH0 PUSH1 0x20 DUP3 ADD SWAP1 POP DUP2 DUP2 SUB PUSH0 DUP4 ADD MSTORE PUSH2 0x2DFA DUP2 PUSH2 0x2DC1 JUMP JUMPDEST SWAP1 POP SWAP2 SWAP1 POP JUMP JUMPDEST PUSH32 0x52657175657374656420616D6F756E74206578636565647320617661696C6162 PUSH0 DUP3 ADD MSTORE PUSH32 0x6C652066756E6473000000000000000000000000000000000000000000000000 PUSH1 0x20 DUP3 ADD MSTORE POP JUMP JUMPDEST PUSH0 PUSH2 0x2E5B PUSH1 0x28 DUP4 PUSH2 0x1FE5 JUMP JUMPDEST SWAP2 POP PUSH2 0x2E66 DUP3 PUSH2 0x2E01 JUMP JUMPDEST PUSH1 0x40 DUP3 ADD SWAP1 POP SWAP2 SWAP1 POP JUMP JUMPDEST PUSH0 PUSH1 0x20 DUP3 ADD SWAP1 POP DUP2 DUP2 SUB PUSH0 DUP4 ADD MSTORE PUSH2 0x2E88 DUP2 PUSH2 0x2E4F JUMP JUMPDEST SWAP1 POP SWAP2 SWAP1 POP JUMP JUMPDEST PUSH0 DUP2 SWAP1 POP DUP2 PUSH0 MSTORE PUSH1 0x20 PUSH0 KECCAK256 SWAP1 POP SWAP2 SWAP1 POP JUMP JUMPDEST PUSH0 PUSH1 0x20 PUSH1 0x1F DUP4 ADD DIV SWAP1 POP SWAP2 SWAP1 POP JUMP JUMPDEST PUSH0 DUP3 DUP3 SHL SWAP1 POP SWAP3 SWAP2 POP POP JUMP JUMPDEST PUSH0 PUSH1 0x8 DUP4 MUL PUSH2 0x2EEB PUSH32 0xFFFFFFFFFFFFFFFFFFFFFFFFFFFFFFFFFFFFFFFFFFFFFFFFFFFFFFFFFFFFFFFF DUP3 PUSH2 0x2EB0 JUMP JUMPDEST PUSH2 0x2EF5 DUP7 DUP4 PUSH2 0x2EB0 JUMP JUMPDEST SWAP6 POP DUP1 NOT DUP5 AND SWAP4 POP DUP1 DUP7 AND DUP5 OR SWAP3 POP POP POP SWAP4 SWAP3 POP POP POP JUMP JUMPDEST PUSH0 DUP2 SWAP1 POP SWAP2 SWAP1 POP JUMP JUMPDEST PUSH0 PUSH2 0x2F30 PUSH2 0x2F2B PUSH2 0x2F26 DUP5 PUSH2 0x1E47 JUMP JUMPDEST PUSH2 0x2F0D JUMP JUMPDEST PUSH2 0x1E47 JUMP JUMPDEST SWAP1 POP SWAP2 SWAP1 POP JUMP JUMPDEST PUSH0 DUP2 SWAP1 POP SWAP2 SWAP1 POP JUMP JUMPDEST PUSH2 0x2F49 DUP4 PUSH2 0x2F16 JUMP JUMPDEST PUSH2 0x2F5D PUSH2 0x2F55 DUP3 PUSH2 0x2F37 JUMP JUMPDEST DUP5 DUP5 SLOAD PUSH2 0x2EBC JUMP JUMPDEST DUP3 SSTORE POP POP POP POP JUMP JUMPDEST PUSH0 PUSH0 SWAP1 POP SWAP1 JUMP JUMPDEST PUSH2 0x2F74 PUSH2 0x2F65 JUMP JUMPDEST PUSH2 0x2F7F DUP2 DUP5 DUP5 PUSH2 0x2F40 JUMP JUMPDEST POP POP POP JUMP JUMPDEST JUMPDEST DUP2 DUP2 LT ISZERO PUSH2 0x2FA2 JUMPI PUSH2 0x2F97 PUSH0 DUP3 PUSH2 0x2F6C JUMP JUMPDEST PUSH1 0x1 DUP2 ADD SWAP1 POP PUSH2 0x2F85 JUMP JUMPDEST POP POP JUMP JUMPDEST PUSH1 0x1F DUP3 GT ISZERO PUSH2 0x2FE7 JUMPI PUSH2 0x2FB8 DUP2 PUSH2 0x2E8F JUMP JUMPDEST PUSH2 0x2FC1 DUP5 PUSH2 0x2EA1 JUMP JUMPDEST DUP2 ADD PUSH1 0x20 DUP6 LT ISZERO PUSH2 0x2FD0 JUMPI DUP2 SWAP1 POP JUMPDEST PUSH2 0x2FE4 PUSH2 0x2FDC DUP6 PUSH2 0x2EA1 JUMP JUMPDEST DUP4 ADD DUP3 PUSH2 0x2F84 JUMP JUMPDEST POP POP JUMPDEST POP POP POP JUMP JUMPDEST PUSH0 DUP3 DUP3 SHR SWAP1 POP SWAP3 SWAP2 POP POP JUMP JUMPDEST PUSH0 PUSH2 0x3007 PUSH0 NOT DUP5 PUSH1 0x8 MUL PUSH2 0x2FEC JUMP JUMPDEST NOT DUP1 DUP4 AND SWAP2 POP POP SWAP3 SWAP2 POP POP JUMP JUMPDEST PUSH0 PUSH2 0x301F DUP4 DUP4 PUSH2 0x2FF8 JUMP JUMPDEST SWAP2 POP DUP3 PUSH1 0x2 MUL DUP3 OR SWAP1 POP SWAP3 SWAP2 POP POP JUMP JUMPDEST PUSH2 0x3038 DUP3 PUSH2 0x1FDB JUMP JUMPDEST PUSH8 0xFFFFFFFFFFFFFFFF DUP2 GT ISZERO PUSH2 0x3051 JUMPI PUSH2 0x3050 PUSH2 0x2457 JUMP JUMPDEST JUMPDEST PUSH2 0x305B DUP3 SLOAD PUSH2 0x26EE JUMP JUMPDEST PUSH2 0x3066 DUP3 DUP3 DUP6 PUSH2 0x2FA6 JUMP JUMPDEST PUSH0 PUSH1 0x20 SWAP1 POP PUSH1 0x1F DUP4 GT PUSH1 0x1 DUP2 EQ PUSH2 0x3097 JUMPI PUSH0 DUP5 ISZERO PUSH2 0x3085 JUMPI DUP3 DUP8 ADD MLOAD SWAP1 POP JUMPDEST PUSH2 0x308F DUP6 DUP3 PUSH2 0x3014 JUMP JUMPDEST DUP7 SSTORE POP PUSH2 0x30F6 JUMP JUMPDEST PUSH1 0x1F NOT DUP5 AND PUSH2 0x30A5 DUP7 PUSH2 0x2E8F JUMP JUMPDEST PUSH0 JUMPDEST DUP3 DUP2 LT ISZERO PUSH2 0x30CC JUMPI DUP5 DUP10 ADD MLOAD DUP3 SSTORE PUSH1 0x1 DUP3 ADD SWAP2 POP PUSH1 0x20 DUP6 ADD SWAP5 POP PUSH1 0x20 DUP2 ADD SWAP1 POP PUSH2 0x30A7 JUMP JUMPDEST DUP7 DUP4 LT ISZERO PUSH2 0x30E9 JUMPI DUP5 DUP10 ADD MLOAD PUSH2 0x30E5 PUSH1 0x1F DUP10 AND DUP3 PUSH2 0x2FF8 JUMP JUMPDEST DUP4 SSTORE POP JUMPDEST PUSH1 0x1 PUSH1 0x2 DUP9 MUL ADD DUP9 SSTORE POP POP POP JUMPDEST POP POP POP POP POP POP JUMP JUMPDEST PUSH0 PUSH1 0x60 DUP3 ADD SWAP1 POP PUSH2 0x3111 PUSH0 DUP4 ADD DUP7 PUSH2 0x1E50 JUMP JUMPDEST DUP2 DUP2 SUB PUSH1 0x20 DUP4 ADD MSTORE PUSH2 0x3123 DUP2 DUP6 PUSH2 0x2013 JUMP JUMPDEST SWAP1 POP PUSH2 0x3132 PUSH1 0x40 DUP4 ADD DUP5 PUSH2 0x1E50 JUMP JUMPDEST SWAP5 SWAP4 POP POP POP POP JUMP JUMPDEST PUSH32 0x5469746C652063616E6E6F7420626520656D7074790000000000000000000000 PUSH0 DUP3 ADD MSTORE POP JUMP JUMPDEST PUSH0 PUSH2 0x316E PUSH1 0x15 DUP4 PUSH2 0x1FE5 JUMP JUMPDEST SWAP2 POP PUSH2 0x3179 DUP3 PUSH2 0x313A JUMP JUMPDEST PUSH1 0x20 DUP3 ADD SWAP1 POP SWAP2 SWAP1 POP JUMP JUMPDEST PUSH0 PUSH1 0x20 DUP3 ADD SWAP1 POP DUP2 DUP2 SUB PUSH0 DUP4 ADD MSTORE PUSH2 0x319B DUP2 PUSH2 0x3162 JUMP JUMPDEST SWAP1 POP SWAP2 SWAP1 POP JUMP JUMPDEST PUSH32 0x4465736372697074696F6E2063616E6E6F7420626520656D7074790000000000 PUSH0 DUP3 ADD MSTORE POP JUMP JUMPDEST PUSH0 PUSH2 0x31D6 PUSH1 0x1B DUP4 PUSH2 0x1FE5 JUMP JUMPDEST SWAP2 POP PUSH2 0x31E1 DUP3 PUSH2 0x31A2 JUMP JUMPDEST PUSH1 0x20 DUP3 ADD SWAP1 POP SWAP2 SWAP1 POP JUMP JUMPDEST PUSH0 PUSH1 0x20 DUP3 ADD SWAP1 POP DUP2 DUP2 SUB PUSH0 DUP4 ADD MSTORE PUSH2 0x3203 DUP2 PUSH2 0x31CA JUMP JUMPDEST SWAP1 POP SWAP2 SWAP1 POP JUMP JUMPDEST PUSH32 0x476F616C206D7573742062652067726561746572207468616E20300000000000 PUSH0 DUP3 ADD MSTORE POP JUMP JUMPDEST PUSH0 PUSH2 0x323E PUSH1 0x1B DUP4 PUSH2 0x1FE5 JUMP JUMPDEST SWAP2 POP PUSH2 0x3249 DUP3 PUSH2 0x320A JUMP JUMPDEST PUSH1 0x20 DUP3 ADD SWAP1 POP SWAP2 SWAP1 POP JUMP JUMPDEST PUSH0 PUSH1 0x20 DUP3 ADD SWAP1 POP DUP2 DUP2 SUB PUSH0 DUP4 ADD MSTORE PUSH2 0x326B DUP2 PUSH2 0x3232 JUMP JUMPDEST SWAP1 POP SWAP2 SWAP1 POP JUMP JUMPDEST PUSH32 0x4475726174696F6E206D757374206265206265747765656E203120616E642039 PUSH0 DUP3 ADD MSTORE PUSH32 0x3020646179730000000000000000000000000000000000000000000000000000 PUSH1 0x20 DUP3 ADD MSTORE POP JUMP JUMPDEST PUSH0 PUSH2 0x32CC PUSH1 0x26 DUP4 PUSH2 0x1FE5 JUMP JUMPDEST SWAP2 POP PUSH2 0x32D7 DUP3 PUSH2 0x3272 JUMP JUMPDEST PUSH1 0x40 DUP3 ADD SWAP1 POP SWAP2 SWAP1 POP JUMP JUMPDEST PUSH0 PUSH1 0x20 DUP3 ADD SWAP1 POP DUP2 DUP2 SUB PUSH0 DUP4 ADD MSTORE PUSH2 0x32F9 DUP2 PUSH2 0x32C0 JUMP JUMPDEST SWAP1 POP SWAP2 SWAP1 POP JUMP JUMPDEST PUSH0 PUSH2 0x330A DUP3 PUSH2 0x1E47 JUMP JUMPDEST SWAP2 POP PUSH2 0x3315 DUP4 PUSH2 0x1E47 JUMP JUMPDEST SWAP3 POP DUP3 DUP3 ADD SWAP1 POP DUP1 DUP3 GT ISZERO PUSH2 0x332D JUMPI PUSH2 0x332C PUSH2 0x2AAB JUMP JUMPDEST JUMPDEST SWAP3 SWAP2 POP POP JUMP JUMPDEST PUSH0 PUSH1 0x80 DUP3 ADD SWAP1 POP PUSH2 0x3346 PUSH0 DUP4 ADD DUP8 PUSH2 0x236E JUMP JUMPDEST DUP2 DUP2 SUB PUSH1 0x20 DUP4 ADD MSTORE PUSH2 0x3358 DUP2 DUP7 PUSH2 0x2013 JUMP JUMPDEST SWAP1 POP PUSH2 0x3367 PUSH1 0x40 DUP4 ADD DUP6 PUSH2 0x1E50 JUMP JUMPDEST PUSH2 0x3374 PUSH1 0x60 DUP4 ADD DUP5 PUSH2 0x1E50 JUMP JUMPDEST SWAP6 SWAP5 POP POP POP POP POP JUMP JUMPDEST PUSH32 0x43616D706169676E2069732063616E63656C6C65640000000000000000000000 PUSH0 DUP3 ADD MSTORE POP JUMP JUMPDEST PUSH0 PUSH2 0x33B1 PUSH1 0x15 DUP4 PUSH2 0x1FE5 JUMP JUMPDEST SWAP2 POP PUSH2 0x33BC DUP3 PUSH2 0x337D JUMP JUMPDEST PUSH1 0x20 DUP3 ADD SWAP1 POP SWAP2 SWAP1 POP JUMP JUMPDEST PUSH0 PUSH1 0x20 DUP3 ADD SWAP1 POP DUP2 DUP2 SUB PUSH0 DUP4 ADD MSTORE PUSH2 0x33DE DUP2 PUSH2 0x33A5 JUMP JUMPDEST SWAP1 POP SWAP2 SWAP1 POP JUMP JUMPDEST PUSH32 0x43616D706169676E20646561646C696E65206861732070617373656400000000 PUSH0 DUP3 ADD MSTORE POP JUMP JUMPDEST PUSH0 PUSH2 0x3419 PUSH1 0x1C DUP4 PUSH2 0x1FE5 JUMP JUMPDEST SWAP2 POP PUSH2 0x3424 DUP3 PUSH2 0x33E5 JUMP JUMPDEST PUSH1 0x20 DUP3 ADD SWAP1 POP SWAP2 SWAP1 POP JUMP JUMPDEST PUSH0 PUSH1 0x20 DUP3 ADD SWAP1 POP DUP2 DUP2 SUB PUSH0 DUP4 ADD MSTORE PUSH2 0x3446 DUP2 PUSH2 0x340D JUMP JUMPDEST SWAP1 POP SWAP2 SWAP1 POP JUMP JUMPDEST PUSH32 0x596F75206D7573742073656E6420736F6D652045544800000000000000000000 PUSH0 DUP3 ADD MSTORE POP JUMP JUMPDEST PUSH0 PUSH2 0x3481 PUSH1 0x16 DUP4 PUSH2 0x1FE5 JUMP JUMPDEST SWAP2 POP PUSH2 0x348C DUP3 PUSH2 0x344D JUMP JUMPDEST PUSH1 0x20 DUP3 ADD SWAP1 POP SWAP2 SWAP1 POP JUMP JUMPDEST PUSH0 PUSH1 0x20 DUP3 ADD SWAP1 POP DUP2 DUP2 SUB PUSH0 DUP4 ADD MSTORE PUSH2 0x34AE DUP2 PUSH2 0x3475 JUMP JUMPDEST SWAP1 POP SWAP2 SWAP1 POP JUMP JUMPDEST PUSH0 PUSH1 0x60 DUP3 ADD SWAP1 POP PUSH2 0x34C8 PUSH0 DUP4 ADD DUP7 PUSH2 0x236E JUMP JUMPDEST PUSH2 0x34D5 PUSH1 0x20 DUP4 ADD DUP6 PUSH2 0x1E50 JUMP JUMPDEST PUSH2 0x34E2 PUSH1 0x40 DUP4 ADD DUP5 PUSH2 0x1E50 JUMP JUMPDEST SWAP5 SWAP4 POP POP POP POP JUMP INVALID LOG2 PUSH5 0x6970667358 0x22 SLT KECCAK256 0xCF RETURN CREATE2 DUP11 NOT 0xFC 0x4E SIGNEXTEND 0xCB DATALOADN 0xE11 MCOPY 0xBC 0x2D PUSH18 0x92D1F5942F06C10C4A0D0FE66EFCAE236473 PUSH16 0x6C634300081E00330000000000000000 "
				},
				"gasEstimates": {
					"creation": {
						"codeDepositCost": "2720000",
						"executionCost": "2951",
						"totalCost": "2722951"
					},
					"external": {
						"addMilestone(uint256,string,uint256)": "infinite",
						"campaigns(uint256)": "infinite",
						"claimRefund(uint256)": "infinite",
						"createCampaign(string,string,uint256,uint256)": "infinite",
						"donate(uint256)": "infinite",
						"donations(uint256,address)": "infinite",
						"donors(uint256,uint256)": "infinite",
						"getCampaign(uint256)": "infinite",
						"getDonorCount(uint256)": "infinite",
						"getMilestone(uint256,uint256)": "infinite",
						"getMyDonation(uint256)": "infinite",
						"getTimeRemaining(uint256)": "infinite",
						"hasVoted(uint256,uint256,address)": "infinite",
						"milestoneCount(uint256)": "infinite",
						"milestones(uint256,uint256)": "infinite",
						"totalCampaigns()": "2448",
						"vote(uint256,uint256,bool)": "infinite"
					}
				},
				"methodIdentifiers": {
					"addMilestone(uint256,string,uint256)": "98df912e",
					"campaigns(uint256)": "141961bc",
					"claimRefund(uint256)": "5b7baf64",
					"createCampaign(string,string,uint256,uint256)": "a318f269",
					"donate(uint256)": "f14faf6f",
					"donations(uint256,address)": "ee1554a3",
					"donors(uint256,uint256)": "83bd62dd",
					"getCampaign(uint256)": "5598f8cc",
					"getDonorCount(uint256)": "5943c705",
					"getMilestone(uint256,uint256)": "8ed9895c",
					"getMyDonation(uint256)": "f80db32d",
					"getTimeRemaining(uint256)": "8cd42991",
					"hasVoted(uint256,uint256,address)": "0d39a1d3",
					"milestoneCount(uint256)": "72ebb42a",
					"milestones(uint256,uint256)": "1c376c63",
					"totalCampaigns()": "02932f56",
					"vote(uint256,uint256,bool)": "6a18ff7a"
				}
			},
			"storageLayout": {
				"storage": [
					{
						"astId": 40,
						"contract": "CrowdFund.sol:CrowdFund",
						"label": "totalCampaigns",
						"offset": 0,
						"slot": "0",
						"type": "t_uint256"
					},
					{
						"astId": 45,
						"contract": "CrowdFund.sol:CrowdFund",
						"label": "campaigns",
						"offset": 0,
						"slot": "1",
						"type": "t_mapping(t_uint256,t_struct(Campaign)22_storage)"
					},
					{
						"astId": 52,
						"contract": "CrowdFund.sol:CrowdFund",
						"label": "milestones",
						"offset": 0,
						"slot": "2",
						"type": "t_mapping(t_uint256,t_mapping(t_uint256,t_struct(Milestone)38_storage))"
					},
					{
						"astId": 56,
						"contract": "CrowdFund.sol:CrowdFund",
						"label": "milestoneCount",
						"offset": 0,
						"slot": "3",
						"type": "t_mapping(t_uint256,t_uint256)"
					},
					{
						"astId": 62,
						"contract": "CrowdFund.sol:CrowdFund",
						"label": "donations",
						"offset": 0,
						"slot": "4",
						"type": "t_mapping(t_uint256,t_mapping(t_address,t_uint256))"
					},
					{
						"astId": 67,
						"contract": "CrowdFund.sol:CrowdFund",
						"label": "donors",
						"offset": 0,
						"slot": "5",
						"type": "t_mapping(t_uint256,t_array(t_address)dyn_storage)"
					},
					{
						"astId": 75,
						"contract": "CrowdFund.sol:CrowdFund",
						"label": "hasVoted",
						"offset": 0,
						"slot": "6",
						"type": "t_mapping(t_uint256,t_mapping(t_uint256,t_mapping(t_address,t_bool)))"
					}
				],
				"types": {
					"t_address": {
						"encoding": "inplace",
						"label": "address",
						"numberOfBytes": "20"
					},
					"t_address_payable": {
						"encoding": "inplace",
						"label": "address payable",
						"numberOfBytes": "20"
					},
					"t_array(t_address)dyn_storage": {
						"base": "t_address",
						"encoding": "dynamic_array",
						"label": "address[]",
						"numberOfBytes": "32"
					},
					"t_bool": {
						"encoding": "inplace",
						"label": "bool",
						"numberOfBytes": "1"
					},
					"t_mapping(t_address,t_bool)": {
						"encoding": "mapping",
						"key": "t_address",
						"label": "mapping(address => bool)",
						"numberOfBytes": "32",
						"value": "t_bool"
					},
					"t_mapping(t_address,t_uint256)": {
						"encoding": "mapping",
						"key": "t_address",
						"label": "mapping(address => uint256)",
						"numberOfBytes": "32",
						"value": "t_uint256"
					},
					"t_mapping(t_uint256,t_array(t_address)dyn_storage)": {
						"encoding": "mapping",
						"key": "t_uint256",
						"label": "mapping(uint256 => address[])",
						"numberOfBytes": "32",
						"value": "t_array(t_address)dyn_storage"
					},
					"t_mapping(t_uint256,t_mapping(t_address,t_bool))": {
						"encoding": "mapping",
						"key": "t_uint256",
						"label": "mapping(uint256 => mapping(address => bool))",
						"numberOfBytes": "32",
						"value": "t_mapping(t_address,t_bool)"
					},
					"t_mapping(t_uint256,t_mapping(t_address,t_uint256))": {
						"encoding": "mapping",
						"key": "t_uint256",
						"label": "mapping(uint256 => mapping(address => uint256))",
						"numberOfBytes": "32",
						"value": "t_mapping(t_address,t_uint256)"
					},
					"t_mapping(t_uint256,t_mapping(t_uint256,t_mapping(t_address,t_bool)))": {
						"encoding": "mapping",
						"key": "t_uint256",
						"label": "mapping(uint256 => mapping(uint256 => mapping(address => bool)))",
						"numberOfBytes": "32",
						"value": "t_mapping(t_uint256,t_mapping(t_address,t_bool))"
					},
					"t_mapping(t_uint256,t_mapping(t_uint256,t_struct(Milestone)38_storage))": {
						"encoding": "mapping",
						"key": "t_uint256",
						"label": "mapping(uint256 => mapping(uint256 => struct CrowdFund.Milestone))",
						"numberOfBytes": "32",
						"value": "t_mapping(t_uint256,t_struct(Milestone)38_storage)"
					},
					"t_mapping(t_uint256,t_struct(Campaign)22_storage)": {
						"encoding": "mapping",
						"key": "t_uint256",
						"label": "mapping(uint256 => struct CrowdFund.Campaign)",
						"numberOfBytes": "32",
						"value": "t_struct(Campaign)22_storage"
					},
					"t_mapping(t_uint256,t_struct(Milestone)38_storage)": {
						"encoding": "mapping",
						"key": "t_uint256",
						"label": "mapping(uint256 => struct CrowdFund.Milestone)",
						"numberOfBytes": "32",
						"value": "t_struct(Milestone)38_storage"
					},
					"t_mapping(t_uint256,t_uint256)": {
						"encoding": "mapping",
						"key": "t_uint256",
						"label": "mapping(uint256 => uint256)",
						"numberOfBytes": "32",
						"value": "t_uint256"
					},
					"t_string_storage": {
						"encoding": "bytes",
						"label": "string",
						"numberOfBytes": "32"
					},
					"t_struct(Campaign)22_storage": {
						"encoding": "inplace",
						"label": "struct CrowdFund.Campaign",
						"members": [
							{
								"astId": 5,
								"contract": "CrowdFund.sol:CrowdFund",
								"label": "id",
								"offset": 0,
								"slot": "0",
								"type": "t_uint256"
							},
							{
								"astId": 7,
								"contract": "CrowdFund.sol:CrowdFund",
								"label": "creator",
								"offset": 0,
								"slot": "1",
								"type": "t_address_payable"
							},
							{
								"astId": 9,
								"contract": "CrowdFund.sol:CrowdFund",
								"label": "title",
								"offset": 0,
								"slot": "2",
								"type": "t_string_storage"
							},
							{
								"astId": 11,
								"contract": "CrowdFund.sol:CrowdFund",
								"label": "description",
								"offset": 0,
								"slot": "3",
								"type": "t_string_storage"
							},
							{
								"astId": 13,
								"contract": "CrowdFund.sol:CrowdFund",
								"label": "goalAmount",
								"offset": 0,
								"slot": "4",
								"type": "t_uint256"
							},
							{
								"astId": 15,
								"contract": "CrowdFund.sol:CrowdFund",
								"label": "deadline",
								"offset": 0,
								"slot": "5",
								"type": "t_uint256"
							},
							{
								"astId": 17,
								"contract": "CrowdFund.sol:CrowdFund",
								"label": "totalRaised",
								"offset": 0,
								"slot": "6",
								"type": "t_uint256"
							},
							{
								"astId": 19,
								"contract": "CrowdFund.sol:CrowdFund",
								"label": "goalReached",
								"offset": 0,
								"slot": "7",
								"type": "t_bool"
							},
							{
								"astId": 21,
								"contract": "CrowdFund.sol:CrowdFund",
								"label": "isCancelled",
								"offset": 1,
								"slot": "7",
								"type": "t_bool"
							}
						],
						"numberOfBytes": "256"
					},
					"t_struct(Milestone)38_storage": {
						"encoding": "inplace",
						"label": "struct CrowdFund.Milestone",
						"members": [
							{
								"astId": 25,
								"contract": "CrowdFund.sol:CrowdFund",
								"label": "id",
								"offset": 0,
								"slot": "0",
								"type": "t_uint256"
							},
							{
								"astId": 27,
								"contract": "CrowdFund.sol:CrowdFund",
								"label": "description",
								"offset": 0,
								"slot": "1",
								"type": "t_string_storage"
							},
							{
								"astId": 29,
								"contract": "CrowdFund.sol:CrowdFund",
								"label": "releaseAmount",
								"offset": 0,
								"slot": "2",
								"type": "t_uint256"
							},
							{
								"astId": 31,
								"contract": "CrowdFund.sol:CrowdFund",
								"label": "isApproved",
								"offset": 0,
								"slot": "3",
								"type": "t_bool"
							},
							{
								"astId": 33,
								"contract": "CrowdFund.sol:CrowdFund",
								"label": "isRejected",
								"offset": 1,
								"slot": "3",
								"type": "t_bool"
							},
							{
								"astId": 35,
								"contract": "CrowdFund.sol:CrowdFund",
								"label": "approveVotes",
								"offset": 0,
								"slot": "4",
								"type": "t_uint256"
							},
							{
								"astId": 37,
								"contract": "CrowdFund.sol:CrowdFund",
								"label": "rejectVotes",
								"offset": 0,
								"slot": "5",
								"type": "t_uint256"
							}
						],
						"numberOfBytes": "192"
					},
					"t_uint256": {
						"encoding": "inplace",
						"label": "uint256",
						"numberOfBytes": "32"
					}
				}
			},
			"userdoc": {
				"kind": "user",
				"methods": {
					"addMilestone(uint256,string,uint256)": {
						"notice": "Creator submits a milestone to request fund release"
					},
					"claimRefund(uint256)": {
						"notice": "If the goal wasn't met by deadline, donors can get their money back"
					},
					"createCampaign(string,string,uint256,uint256)": {
						"notice": "Start a new fundraising campaign"
					},
					"donate(uint256)": {
						"notice": "Send ETH to support a campaign"
					},
					"getCampaign(uint256)": {
						"notice": "Get all details of a campaign"
					},
					"getDonorCount(uint256)": {
						"notice": "Get total number of donors for a campaign"
					},
					"getMilestone(uint256,uint256)": {
						"notice": "Get all details of a milestone"
					},
					"getMyDonation(uint256)": {
						"notice": "How much has a specific donor contributed to a campaign"
					},
					"getTimeRemaining(uint256)": {
						"notice": "Get time remaining for a campaign in seconds (0 if ended)"
					},
					"vote(uint256,uint256,bool)": {
						"notice": "Donors vote to approve or reject a fund release request"
					}
				},
				"notice": "People donate to campaigns. Funds only release when donors approve milestones.         If the goal isn't met by deadline, everyone gets a full refund automatically.",
				"version": 1
			}
		}
	}
}